:020000040800F2
:10000000005000203D4900088F4900089B49000826
:10001000A1490008A7490008AD49000800000000F8
:10002000000000000000000000000000B3490008CC
:10003000BF49000800000000CB490008D74900086C
:100040008D4900088D4900088D4900088D49000838
:100050008D4900088D4900088D4900088D49000828
:100060008D4900088D4900088D4900088D49000818
:100070008D4900088D4900088D4900088D49000808
:100080008D4900088D4900088D4900088D490008F8
:100090008D4900088D4900088D4900088D490008E8
:1000A0008D4900088D4900088D4900088D490008D8
:1000B0008D4900088D4900088D4900088D490008C8
:1000C0008D4900088D4900088D4900088D490008B8
:1000D0008D4900088D4900088D4900088D490008A8
:1000E0008D4900088D4900088D4900080000000076
:1000F0000000000000000000000000000000000000
:0C01000000000000000000005FF808F1A3
:1001100010B5054C237833B9044B13B10448AFF341
:1001200000800123237010BD8C0600200000000019
:10013000B472000808B5034B1BB103490348AFF381
:10014000008008BD0000000090060020B472000886
:10015000034613F8012B002AFBD1181A0138704707
:1001600081F0004102E000BF83F0004330B54FEA68
:1001700041044FEA430594EA050F08BF90EA020FD5
:100180001FBF54EA000C55EA020C7FEA645C7FEA68
:10019000655C00F0E2804FEA5454D4EB5555B8BF8B
:1001A0006D420CDD2C4480EA020281EA030382EAFC
:1001B000000083EA010180EA020281EA0303362D8E
:1001C00088BF30BD11F0004F4FEA01314FF4801C61
:1001D0004CEA113102D0404261EB410113F0004F73
:1001E0004FEA03334CEA133302D0524263EB43032A
:1001F00094EA050F00F0A780A4F10104D5F1200EC8
:100200000DDB02FA0EFC22FA05F2801841F1000122
:1002100003FA0EF2801843FA05F359410EE0A5F1F6
:1002200020050EF1200E012A03FA0EFC28BF4CF027
:10023000020C43FA05F3C01851EBE37101F00045DD
:1002400007D54FF0000EDCF1000C7EEB00006EEBEA
:100250000101B1F5801F1BD3B1F5001F0CD3490874
:100260005FEA30004FEA3C0C04F101044FEA4452CB
:1002700012F5800F80F09A80BCF1004F08BF5FEA52
:10028000500C50F1000041EB045141EA050130BD32
:100290005FEA4C0C404141EB010111F4801FA4F1D5
:1002A0000104E9D191F0000F04BF01460020B1FA2A
:1002B00081F308BF2033A3F10B03B3F120020CDA62
:1002C0000C3208DD02F1140CC2F10C0201FA0CF040
:1002D00021FA02F10CE002F11402D8BFC2F1200CA5
:1002E00001FA02F120FA0CFCDCBF41EA0C0190405B
:1002F000E41AA2BF01EB0451294330BD6FEA0404A4
:100300001F3C1CDA0C340EDC04F11404C4F120028E
:1003100020FA04F001FA02F340EA030021FA04F3A0
:1003200045EA030130BDC4F10C04C4F1200220FAF7
:1003300002F001FA04F340EA0300294630BD21FA35
:1003400004F0294630BD94F0000F83F4801306BFFB
:1003500081F480110134013D4EE77FEA645C18BFEF
:100360007FEA655C29D094EA050F08BF90EA020F86
:1003700005D054EA000C04BF1946104630BD91EA7E
:10038000030F1EBF0021002030BD5FEA545C05D181
:100390004000494128BF41F0004130BD14F58004C0
:1003A0003CBF01F5801130BD01F0004545F0FE4134
:1003B00041F470014FF0000030BD7FEA645C1ABF69
:1003C000194610467FEA655C1CBF0B46024650EAA0
:1003D000013406BF52EA033591EA030F41F40021CC
:1003E00030BD00BF90F0000F04BF0021704730B552
:1003F0004FF4806404F132044FF000054FF0000127
:1004000050E700BF90F0000F04BF0021704730B5E7
:100410004FF4806404F1320410F0004548BF4042BC
:100420004FF000013EE700BF42004FEAE2014FEA11
:1004300031014FEA02701FBF12F07F4393F07F4FEC
:1004400081F06051704792F0000F14BF93F07F4F1E
:10045000704730B54FF4607401F0004521F0004161
:1004600020E700BF50EA010208BF704730B54FF0E7
:1004700000050AE050EA010208BF704730B511F0EC
:10048000004502D5404261EB41014FF4806404F124
:1004900032045FEA915C3FF4DCAE4FF003025FEAA6
:1004A000DC0C18BF03325FEADC0C18BF033202EB2E
:1004B000DC02C2F1200300FA03FC20FA02F001FA88
:1004C00003FE40EA0E0021FA02F11444C1E600BF27
:1004D00070B54FF0FF0C4CF4E06C1CEA11541DBFDA
:1004E0001CEA135594EA0C0F95EA0C0F00F0DEF8A5
:1004F0002C4481EA030621EA4C5123EA4C5350EA8A
:10050000013518BF52EA033541F4801143F48013DA
:1005100038D0A0FB02CE4FF00005E1FB02E506F06B
:100520000042E0FB03E54FF00006E1FB03569CF0C0
:10053000000F18BF4EF0010EA4F1FF04B6F5007FC6
:1005400064F5407404D25FEA4E0E6D4146EB060638
:1005500042EAC62141EA55514FEAC52040EA5E50C1
:100560004FEACE2EB4F1FD0C88BFBCF5E06F1ED86B
:10057000BEF1004F08BF5FEA500E50F1000041EBA2
:10058000045170BD06F0004646EA010140EA02004F
:1005900081EA0301B4EB5C04C2BFD4EB0C0541EA71
:1005A000045170BD41F480114FF0000E013C00F386
:1005B000AB8014F1360FDEBF002001F0004170BDAA
:1005C000C4F10004203C35DA0C341BDC04F11404C3
:1005D000C4F1200500FA05F320FA04F001FA05F24F
:1005E00040EA020001F0004221F0004110EBD3701C
:1005F00021FA04F642EB06015EEA430E08BF20EA48
:10060000D37070BDC4F10C04C4F1200500FA04F3EA
:1006100020FA05F001FA04F240EA020001F000417C
:1006200010EBD37041F100015EEA430E08BF20EAEF
:10063000D37070BDC4F1200500FA05F24EEA020E37
:1006400020FA04F301FA05F243EA020321FA04F066
:1006500001F0004121FA04F220EA020000EBD3701D
:100660005EEA430E08BF20EAD37070BD94F0000F1D
:100670000FD101F00046400041EB010111F4801F51
:1006800008BF013CF7D041EA060195F0000F18BF02
:10069000704703F00046520043EB030313F4801F3E
:1006A00008BF013DF7D043EA0603704794EA0C0FF8
:1006B0000CEA135518BF95EA0C0F0CD050EA41060E
:1006C00018BF52EA4306D1D181EA030101F000418B
:1006D0004FF0000070BD50EA410606BF10461946B3
:1006E00052EA430619D094EA0C0F02D150EA0136BF
:1006F00013D195EA0C0F05D152EA03361CBF104600
:1007000019460AD181EA030101F0004141F0FE419E
:1007100041F470014FF0000070BD41F0FE4141F422
:10072000780170BD70B54FF0FF0C4CF4E06C1CEA22
:1007300011541DBF1CEA135594EA0C0F95EA0C0FD7
:1007400000F0A7F8A4EB050481EA030E52EA033592
:100750004FEA013100F088804FEA03334FF08055B3
:1007600045EA131343EA12634FEA022245EA1115E0
:1007700045EA10654FEA00260EF000419D4208BF91
:10078000964244F1FD0404F5407402D25B084FEA3E
:100790003202B61A65EB03055B084FEA32024FF4EA
:1007A00080104FF4002CB6EB020E75EB030E22BF47
:1007B000B61A754640EA0C005B084FEA3202B6EB07
:1007C000020E75EB030E22BFB61A754640EA5C00B6
:1007D0005B084FEA3202B6EB020E75EB030E22BF46
:1007E000B61A754640EA9C005B084FEA3202B6EB47
:1007F000020E75EB030E22BFB61A754640EADC0006
:1008000055EA060E18D04FEA051545EA16754FEA67
:1008100006164FEAC30343EA52734FEAC2025FEA85
:100820001C1CC0D111F4801F0BD141EA00014FF014
:1008300000004FF0004CB6E711F4801F04BF0143E5
:100840000020B4F1FD0C88BFBCF5E06F3FF6AFAE01
:10085000B5EB030C04BFB6EB020C5FEA500C50F191
:10086000000041EB045170BD0EF0004E4EEA113114
:1008700014EB5C04C2BFD4EB0C0541EA045170BD1B
:1008800041F480114FF0000E013C90E645EA060E5F
:100890008DE60CEA135594EA0C0F08BF95EA0C0F8D
:1008A0003FF43BAF94EA0C0F0AD150EA01347FF4D5
:1008B00034AF95EA0C0F7FF425AF104619462CE7AC
:1008C00095EA0C0F06D152EA03353FF4FDAE10460F
:1008D000194622E750EA410618BF52EA43067FF460
:1008E000C5AE50EA41047FF40DAF52EA43057FF4F0
:1008F000EBAE12E74FF0FF3C06E000BF4FF0010CFB
:1009000002E000BF4FF0010C4DF804CD4FEA410C5E
:100910007FEA6C5C4FEA430C18BF7FEA6C5C1BD02B
:1009200001B050EA410C0CBF52EA430C91EA030FAC
:1009300002BF90EA020F0020704710F1000F91EA09
:10094000030F58BF994208BF90422CBFD8176FEAD7
:10095000E37040F0010070474FEA410C7FEA6C5CA5
:1009600002D150EA013C07D14FEA430C7FEA6C5CAC
:10097000D6D152EA033CD3D05DF8040B704700BFD8
:100980008446104662468C461946634600E000BF26
:1009900001B5FFF7B7FF002848BF10F1000F01BDF8
:1009A0004DF808EDFFF7F4FF0CBF012000205DF8C3
:1009B00008FB00BF4DF808EDFFF7EAFF34BF012048
:1009C00000205DF808FB00BF4DF808EDFFF7E0FFE1
:1009D00094BF012000205DF808FB00BF4DF808ED32
:1009E000FFF7CEFF94BF012000205DF808FB00BF99
:1009F0004DF808EDFFF7C4FF34BF012000205DF87B
:100A000008FB00BF4FEA410212F5001215D211D5C2
:100A10006FF47873B3EB625212D94FEAC12343F0FB
:100A2000004343EA505311F0004F23FA02F018BF7D
:100A3000404270474FF00000704750EA013005D146
:100A400011F0004008BF6FF0004070474FF0000009
:100A5000704700BF4A0011D212F5001211D20DD515
:100A60006FF47873B3EB62520ED44FEAC12343F0B4
:100A7000004343EA505323FA02F070474FF000005E
:100A8000704750EA013002D14FF0FF3070474FF00D
:100A9000000070474FEA4102B2F1E04324BFB3F5D2
:100AA000001CDCF1FE5C0DD901F0004C4FEAC002E5
:100AB0004CEA5070B2F1004F40EB830008BF20F0C9
:100AC0000100704711F0804F21D113F13872BCBF83
:100AD00001F00040704741F480114FEA5252C2F1D8
:100AE0001802C2F1200C10FA0CF320FA02F018BF21
:100AF00040F001004FEAC1234FEAD32303FA0CFC74
:100B000040EA0C0023FA02F34FEA4303CCE77FEA02
:100B1000625307D150EA01331EBF4FF0FE4040F44C
:100B20004000704701F0004040F0FE4040F40000FB
:100B3000704700BF80F0004002E000BF81F000413C
:100B400042001FBF5FEA410392EA030F7FEA226C73
:100B50007FEA236C6AD04FEA1262D2EB1363C1BF03
:100B6000D218414048404140B8BF5B42192B88BF72
:100B7000704710F0004F40F4000020F07F4018BF95
:100B8000404211F0004F41F4000121F07F4118BFB5
:100B9000494292EA030F3FD0A2F1010241FA03FC5D
:100BA00010EB0C00C3F1200301FA03F100F0004345
:100BB00002D5494260EB4000B0F5000F13D3B0F10D
:100BC000807F06D340084FEA310102F10102FE2A7C
:100BD00051D2B1F1004F40EBC25008BF20F00100EC
:100BE00040EA03007047490040EB000010F4000F9A
:100BF000A2F10102EDD1B0FA80FCACF1080CB2EB2D
:100C00000C0200FA0CF0AABF00EBC250524218438B
:100C1000BCBFD0401843704792F0000F81F4000130
:100C200006BF80F400000132013BB5E74FEA410303
:100C30007FEA226C18BF7FEA236C21D092EA030F6F
:100C400004D092F0000F08BF0846704790EA010FE9
:100C50001CBF0020704712F07F4F04D1400028BF16
:100C600040F00040704712F100723CBF00F50000F8
:100C7000704700F0004343F0FE4040F4000070472E
:100C80007FEA226216BF08467FEA236301464202DA
:100C900006BF5FEA412390EA010F40F480007047ED
:100CA0004FF0000304E000BF10F0004348BF404293
:100CB0005FEA000C08BF704743F0964301464FF0CF
:100CC00000001CE050EA010208BF70474FF000032B
:100CD0000AE000BF50EA010208BF704711F000436C
:100CE00002D5404261EB41015FEA010C02BF84463C
:100CF0000146002043F0B64308BFA3F18053A3F59B
:100D00000003BCFA8CF2083AA3EBC25310DB01FAE1
:100D100002FC634400FA02FCC2F12002BCF1004F65
:100D200020FA02F243EB020008BF20F001007047F6
:100D300002F1200201FA02FCC2F1200250EA4C004A
:100D400021FA02F243EB020008BF20EADC70704790
:100D50004FF0FF0C1CEAD0521EBF1CEAD15392EA9E
:100D60000C0F93EA0C0F6FD01A4480EA010C40027A
:100D700018BF5FEA41211ED04FF0006343EA5010D4
:100D800043EA5111A0FB01310CF00040B1F5000F16
:100D90003EBF490041EAD3715B0040EA010062F1C5
:100DA0007F02FD2A1DD8B3F1004F40EBC25008BFAF
:100DB00020F00100704790F0000F0CF0004C08BFCD
:100DC00049024CEA502040EA51207F3AC2BFD2F19A
:100DD000FF0340EAC250704740F400004FF00003A8
:100DE000013A5DDC12F1190FDCBF00F000407047E2
:100DF000C2F10002410021FA02F1C2F1200200FA20
:100E000002FC5FEA310040F1000053EA4C0308BFE6
:100E100020EADC70704792F0000F00F0004C02BF37
:100E2000400010F4000F013AF9D040EA0C0093F0B2
:100E3000000F01F0004C02BF490011F4000F013B0C
:100E4000F9D041EA0C018FE70CEAD15392EA0C0F7A
:100E500018BF93EA0C0F0AD030F0004C18BF31F0E5
:100E6000004CD8D180EA010000F00040704790F0BB
:100E7000000F17BF90F0004F084691F0000F91F05F
:100E8000004F14D092EA0C0F01D142020FD193EA25
:100E90000C0F03D14B0218BF084608D180EA0100AD
:100EA00000F0004040F0FE4040F40000704740F089
:100EB000FE4040F4400070474FF0FF0C1CEAD05257
:100EC0001EBF1CEAD15392EA0C0F93EA0C0F69D0B3
:100ED000A2EB030280EA010C49024FEA402037D01E
:100EE0004FF0805343EA111143EA10130CF0004015
:100EF0008B4238BF5B0042F17D024FF4000C8B4205
:100F000024BF5B1A40EA0C00B3EB510F24BFA3EBE4
:100F1000510340EA5C00B3EB910F24BFA3EB9103B4
:100F200040EA9C00B3EBD10F24BFA3EBD10340EA0E
:100F3000DC001B0118BF5FEA1C1CE0D1FD2A3FF654
:100F400050AF8B4240EBC25008BF20F00100704709
:100F50000CF0004C4CEA50207F32C2BFD2F1FF03AC
:100F600040EAC250704740F400004FF00003013ADD
:100F700037E792F0000F00F0004C02BF400010F481
:100F8000000F013AF9D040EA0C0093F0000F01F095
:100F9000004C02BF490011F4000F013BF9D041EAB7
:100FA0000C0195E70CEAD15392EA0C0F08D14202EA
:100FB0007FF47DAF93EA0C0F7FF470AF084676E7BD
:100FC00093EA0C0F04D14B023FF44CAF08466EE796
:100FD00030F0004C18BF31F0004CCAD130F0004264
:100FE0007FF45CAF31F000437FF43CAF5FE700BFBC
:100FF0004FF0FF3C06E000BF4FF0010C02E000BFE5
:101000004FF0010C4DF804CD4FEA40024FEA410386
:101010007FEA226C18BF7FEA236C11D001B052EA3C
:10102000530C18BF90EA010F58BFB2EB030088BF02
:10103000C81738BF6FEAE17018BF40F00100704771
:101040007FEA226C02D15FEA402C05D17FEA236C53
:10105000E4D15FEA412CE1D05DF8040B704700BF9A
:10106000844608466146FFE70FB5FFF7C9FF002831
:1010700048BF10F1000F0FBD4DF808EDFFF7F4FF6A
:101080000CBF012000205DF808FB00BF4DF808ED03
:10109000FFF7EAFF34BF012000205DF808FB00BF26
:1010A0004DF808EDFFF7E0FF94BF012000205DF848
:1010B00008FB00BF4DF808EDFFF7D2FF94BF0120F9
:1010C00000205DF808FB00BF4DF808EDFFF7C8FFF2
:1010D00034BF012000205DF808FB00BF42000ED2A3
:1010E000B2F1FE4F0BD34FF09E03B3EB126209D463
:1010F0004FEA002343F0004323FA02F070474FF019
:101100000000704712F1610F01D1420202D14FF08D
:10111000FF3070474FF00000704700BF80B485B0CB
:1011200000AF786039600023FB600023FB727B68AE
:101130005B68FB60FB6823F4702323F48073FB601F
:101140003B681A683B681B791B021343FA68134318
:10115000FB607B68FA685A607B689B68FB60FA6892
:10116000164B1340FB603B68DA683B689B681A4388
:101170003B685B795B001343FA681343FB607B6851
:10118000FA689A607B68DB6AFB60FB6823F4700393
:10119000FB603B681B7C013BDAB2FB7A1343FB72BA
:1011A000FB7A1B05FA681343FB607B68FA68DA6216
:1011B00000BF1437BD4680BC704700BFFDF7F1FF8C
:1011C00080B483B000AF78607B6800221A607B68CF
:1011D00000221A717B6800225A717B6800229A6093
:1011E0007B680022DA607B6801221A7400BF0C372A
:1011F000BD4680BC704780B483B000AF78600B46BA
:10120000FB70FB78002B06D07B689B6843F00102E3
:101210007B689A6005E07B689B6823F001027B682D
:101220009A6000BF0C37BD4680BC704780B483B065
:1012300000AF78600B46FB70FB78002B06D07B6814
:101240009B6843F480727B689A6005E07B689B68CA
:1012500023F480727B689A6000BF0C37BD4680BC67
:10126000704780B483B000AF78607B689B6843F0C0
:1012700004027B689A6000BF0C37BD4680BC704793
:1012800080B483B000AF78600B46FB70FB78002B16
:1012900006D07B689B6843F4A0027B689A6005E0F7
:1012A0007B689B6823F4A0027B689A6000BF0C37C0
:1012B000BD4680BC704780B485B000AF78600846FA
:1012C00011461A460346FB700B46BB7013467B70F3
:1012D0000023FB600023BB60FB78092B23D97B68CC
:1012E000DB68FB60FB78A3F10A0213465B00134442
:1012F000072202FA03F3BB60BB68DB43FA681340C2
:10130000FB607978FB78A3F10A0213465B00134473
:1013100001FA03F3BB60FA68BB681343FB607B68A8
:10132000FA68DA601EE07B681B69FB60FA78134696
:101330005B001344072202FA03F3BB60BB68DB4384
:10134000FA681340FB607978FA7813465B0013441F
:1013500001FA03F3BB60FA68BB681343FB607B6868
:10136000FA681A61BB78062B21D87B685B6BFB603F
:10137000BB785A1E13469B0013441F2202FA03F344
:10138000BB60BB68DB43FA681340FB60F978BB784D
:101390005A1E13469B00134401FA03F3BB60FA681C
:1013A000BB681343FB607B68FA685A6347E0BB780D
:1013B0000C2B21D87B681B6BFB60BB78DA1F1346B4
:1013C0009B0013441F2202FA03F3BB60BB68DB439C
:1013D000FA681340FB60F978BB78DA1F13469B006C
:1013E000134401FA03F3BB60FA68BB681343FB6064
:1013F0007B68FA681A6322E07B68DB6AFB60BB7873
:10140000A3F10D0213469B0013441F2202FA03F3BB
:10141000BB60BB68DB43FA681340FB60F978BB78BC
:10142000A3F10D0213469B00134401FA03F3BB60C2
:10143000FA68BB681343FB607B68FA68DA6200BF36
:101440001437BD4680BC704780B485B000AF78606B
:1014500039600023FB607B681B68FB60FB6823F43A
:10146000FF4323F07003FB603B689A683B681B6A8C
:101470001A433B681B691A433B685B691A433B6824
:101480009B691A433B68DB691A433B685B6A1A43F2
:101490003B689B6A1343FA681343FB607B68FA68F6
:1014A0001A603B68DA687B685A603B681A687B6838
:1014B0009A603B685A687B68DA6000BF1437BD46A3
:1014C00080BC704780B483B000AF78607B68002236
:1014D0001A607B6800225A607B6800229A607B68F1
:1014E0000022DA607B6800221A617B6800225A6160
:1014F0007B6800229A617B680022DA617B680022A7
:101500001A627B6800225A627B6800229A6200BFDE
:101510000C37BD4680BC704780B483B000AF7860A4
:101520000B46FB70FB78002B06D07B681B6843F0F2
:1015300001027B681A6006E07B681A684FF6FE734A
:1015400013407A68136000BF0C37BD4680BC7047FB
:1015500080B483B000AF78607B685B689BB218464C
:101560000C37BD4680BC704780B485B000AF786052
:101570000023FB730023BB607B6803F08053002BC8
:1015800003D00B4B1B68BB6002E00A4B1B68BB60BF
:10159000BA687B681340002B02D00123FB7301E083
:1015A0000023FB73FB7B18461437BD4680BC704795
:1015B000000402400000024080B483B000AF7860B5
:1015C0007B6803F08053002B03D0064A7B6853608E
:1015D00002E0054A7B68536000BF0C37BD4680BC03
:1015E000704700BF000402400000024080B400AF1A
:1015F000044B054A5A60034B044A5A6000BFBD467B
:1016000080BC70470020024023016745AB89EFCDC5
:1016100080B400AF044A044B1B6943F0800313619C
:1016200000BFBD4680BC70470020024080B584B03A
:1016300000AF78600423FB734FF4302000F080F893
:101640000346FB73FB7B042B1BD1104A0F4B1B691A
:1016500043F0020313610D4A7B6853610B4A0B4B45
:101660001B6943F0400313614FF4302000F068F829
:101670000346FB730549054B1A6941F6FD73134098
:101680000B61FB7B18461037BD4680BD0020024031
:1016900080B584B000AF78600B467B800423FB7379
:1016A0004FF4005000F04CF80346FB73FB7B042B17
:1016B00015D10D4A0C4B1B6943F0010313617B6884
:1016C0007A881A804FF4005000F03AF80346FB7312
:1016D0000549054B1A6941F6FE7313400B61FB7B0C
:1016E00018461037BD4680BD0020024080B483B04C
:1016F00000AF0423FB71114BDB6803F00103012BE6
:1017000002D10123FB7113E00C4BDB6803F00403EF
:10171000002B02D00223FB710AE0084BDB6803F0C8
:101720001003002B02D00323FB7101E00423FB71A3
:10173000FB7918460C37BD4680BC7047002002403C
:1017400080B584B000AF78600423FB73FFF7CEFF51
:101750000346FB7306E0FFF7C9FF0346FB737B6894
:10176000013B7B60FB7B012B02D17B68002BF2D11C
:101770007B68002B01D10523FB73FB7B18461037D8
:10178000BD4680BD80B489B000AF78603960002369
:10179000FB6100233B610023BB610023FB6000234E
:1017A0007B610023BB603B68DB7803F00F03FB61C8
:1017B0003B68DB7803F01003002B05D03B689B7877
:1017C0001A46FB691343FB613B681B88DBB2002BA5
:1017D00044D07B681B687B610023BB6138E0012239
:1017E000BB6902FA03F3FB603B681B881A46FB687F
:1017F00013403B613A69FB689A4226D1BB699B0062
:10180000FB600F22FB6802FA03F3BB60BB68DB439B
:101810007A6913407B61FA69FB6802FA03F37A691B
:1018200013437B613B68DB78282B05D10122BB6920
:101830009A407B685A6108E03B68DB78482B04D10A
:101840000122BB699A407B681A61BB690133BB61A5
:10185000BB69072BC3D97B687A691A603B681B8810
:10186000FF2B46D97B685B687B610023BB613AE054
:10187000BB690833012202FA03F3FB603B681B8853
:101880001A46FB6813403B613A69FB689A4227D1CC
:10189000BB699B00FB600F22FB6802FA03F3BB608D
:1018A000BB68DB437A6913407B61FA69FB6802FA23
:1018B00003F37A6913437B613B68DB78282B05D1FE
:1018C000BB69083301229A407B685A613B68DB7828
:1018D000482B05D1BB69083301229A407B681A6105
:1018E000BB690133BB61BB69072BC1D97B687A69CE
:1018F0005A6000BF2437BD4680BC704780B483B0B7
:1019000000AF78607B684FF6FF721A807B68022216
:101910009A707B680422DA7000BF0C37BD4680BC29
:101920007047000080B485B000AF78600023FB6092
:10193000094B5B68FB60FB6823F44043FB60FA687B
:101940007B681343FB60044AFB68536000BF143795
:10195000BD4680BC704700BF0010024080B487B015
:1019600000AF786000237B6100233B610023FB60B4
:101970000023BB604C4B5B6803F00C037B617B690D
:10198000042B07D0082B09D0002B33D17B68474AA2
:101990001A6033E07B68454A1A602FE0424B5B686F
:1019A00003F470133B61404B5B6803F48033FB60CE
:1019B0003B699B0C02333B61FB68002B06D13B6902
:1019C0003B4A02FB03F27B681A6017E0364B5B6808
:1019D00003F40033002B06D03B69354A02FB03F2C7
:1019E0007B681A600AE03B69304A02FB03F27B68BD
:1019F0001A6003E07B682D4A1A6000BF2A4B5B68BF
:101A000003F0F0037B617B691B097B61294A7B69D9
:101A100013441B78DBB2BB607B681A68BB68DA4092
:101A20007B685A60204B5B6803F4E0637B617B69F1
:101A30001B0A7B611F4A7B6913441B78DBB2BB60C6
:101A40007B685A68BB68DA407B689A60164B5B68B3
:101A500003F460537B617B69DB0A7B61154A7B6918
:101A600013441B78DBB2BB607B685A68BB68DA4002
:101A70007B68DA600C4B5B6803F440437B617B69F5
:101A80009B0B7B610C4A7B6913441B78DBB2BB6008
:101A90007B68DA68BB68B2FBF3F27B681A6100BF4F
:101AA0001C37BD4680BC70470010024000127A000F
:101AB00000093D00040000201400002080B483B021
:101AC00000AF78600B46FB70FB78002B06D009490D
:101AD000084B5A697B6813434B6106E00549054B87
:101AE0005A697B68DB4313404B6100BF0C37BD462E
:101AF00080BC70470010024080B483B000AF7860B3
:101B00000B46FB70FB78002B06D00949084B9A69FD
:101B10007B6813438B6106E00549054B9A697B6836
:101B2000DB4313408B6100BF0C37BD4680BC704760
:101B30000010024080B483B000AF78600B46FB70A9
:101B4000FB78002B06D00949084BDA697B68134300
:101B5000CB6106E00549054BDA697B68DB4313403E
:101B6000CB6100BF0C37BD4680BC704700100240FF
:101B700080B485B000AF786039600023FB817B685A
:101B80001B88FB81FB8903F44153FB813B681A8866
:101B90003B685B8813439AB23B689B8813439AB2B5
:101BA0003B68DB8813439AB23B681B8913439AB2A4
:101BB0003B685B8913439AB23B689B8913439AB293
:101BC0003B68DB8913439AB2FB891343FB817B6833
:101BD000FA891A807B689B8B9BB223F400639AB2CC
:101BE0007B689A833B681A8A7B681A8200BF143725
:101BF000BD4680BC704780B483B000AF78607B681E
:101C000000221A807B6800225A807B6800229A801A
:101C10007B680022DA807B6800221A817B680022C0
:101C20005A817B6800229A817B680022DA817B6876
:101C300007221A8200BF0C37BD4680BC704780B4B3
:101C400083B000AF78600B46FB70FB78002B08D0A8
:101C50007B681B889BB243F040039AB27B681A8072
:101C600007E07B681B889BB223F040039AB27B6835
:101C70001A8000BF0C37BD4680BC704780B483B06B
:101C800000AF78600B467B8013467B707B78002B1F
:101C900008D07B689B889AB27B8813439AB27B6892
:101CA0009A8009E07B689B889AB27B88DB439BB271
:101CB00013409AB27B689A8000BF0C37BD4680BC47
:101CC0007047000080B485B000AF786039600023B1
:101CD000FB817B681B88FB817B682E4A934213D073
:101CE0007B682D4A93420FD07B68B3F1804F0BD0B5
:101CF0007B682A4A934207D07B68294A934203D0E3
:101D00007B68284A934208D1FB8923F07003FB814A
:101D10003B685A88FB891343FB817B68224A9342C4
:101D20000CD07B68214A934208D0FB8923F440738E
:101D3000FB813B68DA88FB891343FB817B68FA8966
:101D40001A803B689A887B689A853B681A887B680A
:101D50001A857B680F4A93420FD07B680E4A9342E4
:101D60000BD07B68124A934207D07B68114A93429A
:101D700003D07B68104A934204D13B681B7A9AB225
:101D80007B681A867B6801229A8200BF1437BD46A1
:101D900080BC7047002C014000340140000400402A
:101DA00000080040000C00400010004000140040FB
:101DB00000400140004401400048014080B582B02D
:101DC00000AF786039603B681B88002B0FD13B68FF
:101DD00059883B689A883B681B89786800F04EF9FF
:101DE0003B68DB881946786800F08CF836E03B6881
:101DF0001B88042B0FD13B6859883B689A883B6845
:101E00001B89786800F0AAF93B68DB881946786876
:101E100000F093F822E03B681B88082B0FD13B6849
:101E200059883B689A883B681B89786800F010FAEB
:101E30003B68DB881946786800F09CF80EE03B6848
:101E400059883B689A883B681B89786800F076FA65
:101E50003B68DB881946786800F0A7F800BF0837B0
:101E6000BD4680BD80B483B000AF78607B684FF61C
:101E7000FF729A807B6800221A807B680022DA80D9
:101E80007B6800225A807B6800221A7200BF0C37E0
:101E9000BD4680BC704780B483B000AF78607B687B
:101EA00000221A807B6800225A807B6801229A8077
:101EB0007B680022DA807B6800221A8100BF0C3721
:101EC000BD4680BC704780B483B000AF78600B46DD
:101ED000FB70FB78002B08D07B681B889BB243F01B
:101EE00001039AB27B681A8007E07B681B889BB26B
:101EF00023F001039AB27B681A8000BF0C37BD46FD
:101F000080BC704780B483B000AF78600B467B80A4
:101F10007B681B8B9BB223F00C039AB27B681A83FD
:101F20007B681B8B9AB27B8813439AB27B681A83B7
:101F300000BF0C37BD4680BC704780B483B000AF93
:101F400078600B467B807B681B8B9BB223F44063DD
:101F50009AB27B681A837B681B8B9AB27B881B02C0
:101F60009BB213439AB27B681A8300BF0C37BD46FD
:101F700080BC704780B483B000AF78600B467B8034
:101F80007B689B8B9BB223F00C039AB27B689A838D
:101F90007B689B8B9AB27B8813439AB27B689A8347
:101FA00000BF0C37BD4680BC704780B483B000AF23
:101FB00078600B467B807B689B8B9BB223F44063ED
:101FC0009AB27B689A837B689B8B9AB27B881B0250
:101FD0009BB213439AB27B689A8300BF0C37BD460D
:101FE00080BC704780B483B000AF78607B689B8E04
:101FF0009BB218460C37BD4680BC704780B483B096
:1020000000AF78607B681B8F9BB218460C37BD46CB
:1020100080BC704780B483B000AF78607B689B8FD2
:102020009BB218460C37BD4680BC704780B483B065
:1020300000AF78607B68B3F840309BB218460C372D
:10204000BD4680BC704780B485B000AF78600B4659
:102050007B800023FB737B681B8A9AB27B881340CA
:102060009BB2002B02D00123FB7301E00023FB7322
:10207000FB7B18461437BD4680BC704780B487B0E0
:1020800000AFF860084611461A4603467B810B46AE
:102090003B811346FB800023BB820023FB82FB684D
:1020A0001B8C9BB223F001039AB2FB681A84FB6875
:1020B0001B8BBB82FB681B8CFB82BB8A23F0F30368
:1020C000BB82FB881B019AB23B8913439AB2BB8A3D
:1020D0001343BB82FB681C4A934213D0FB681B4A24
:1020E00093420FD0FB68B3F1804F0BD0FB68184AC6
:1020F000934207D0FB68174A934203D0FB68164A05
:1021000093420BD1FB8A23F00203FB827A89FB8A7C
:1021100013439BB243F00103FB820AE0FB8A23F0E6
:102120000A03FB827A89FB8A13439BB243F00103C3
:10213000FB82FB68BA8A1A83FB68FA8A1A8400BF9A
:102140001C37BD4680BC7047002C01400034014064
:102150000004004000080040000C004080B487B03C
:1021600000AFF860084611461A4603467B810B46CD
:102170003B811346FB800023BB820023FB820023AC
:102180007B82FB681B8C9BB223F010039AB2FB6826
:102190001A84FB681B8BBB82FB681B8CFB827B89D0
:1021A0001B017B82BB8A23F440731B051B0DBB8282
:1021B000FB881B039AB2BB8A1343BB823B891B0279
:1021C0009AB2BB8A1343BB82FB681C4A934213D06A
:1021D000FB681B4A93420FD0FB68B3F1804F0BD0D2
:1021E000FB68184A934207D0FB68174A934203D012
:1021F000FB68164A93420BD1FB8A23F02003FB8233
:102200007A8AFB8A13439BB243F01003FB820AE0F5
:10221000FB8A23F0A003FB827A89FB8A13439BB2DB
:1022200043F01003FB82FB68BA8A1A83FB68FA8AC0
:102230001A8400BF1C37BD4680BC7047002C01408B
:10224000003401400004004000080040000C004041
:1022500080B487B000AFF860084611461A460346BE
:102260007B810B463B811346FB800023BB8200230E
:10227000FB8200237B82FB681B8C9BB223F4807360
:102280009AB2FB681A84FB689B8BBB82FB681B8C31
:10229000FB827B891B027B82BB8A23F0F303BB8218
:1022A000FB881B019AB23B8913439AB2BB8A134342
:1022B000BB82FB681C4A934213D0FB681B4A9342C3
:1022C0000FD0FB68B3F1804F0BD0FB68184A9342E4
:1022D00007D0FB68174A934203D0FB68164A934223
:1022E0000BD1FB8A23F40073FB827A8AFB8A1343A7
:1022F0009BB243F48073FB820AE0FB8A23F42063E1
:10230000FB827A89FB8A13439BB243F48073FB827E
:10231000FB68BA8A9A83FB68FA8A1A8400BF1C3762
:10232000BD4680BC704700BF002C01400034014016
:102330000004004000080040000C004080B487B05A
:1023400000AFF860084611461A4603467B810B46EB
:102350003B811346FB800023BB820023FB820023CA
:102360007B82FB681B8C9BB223F480539AB2FB6880
:102370001A84FB689B8BBB82FB681B8CFB827B896E
:102380001B037B82BB8A23F440731B051B0DBB829E
:102390003B891B029AB2BB8A1343BB82FB881B0397
:1023A0009AB2BB8A1343BB82FB681D4A934213D087
:1023B000FB681C4A93420FD0FB68B3F1804F0BD0EF
:1023C000FB68194A934207D0FB68184A934203D02E
:1023D000FB68174A93420BD1FB8A23F40053FB821C
:1023E0007A8AFB8A13439BB243F48053FB820CE04E
:1023F000FB8A23F400735B045B0CFB827A89FB8A03
:1024000013439BB243F48053FB82FB68BA8A9A83DE
:10241000FB68FA8A1A8400BF1C37BD4680BC70472F
:10242000002C01400034014000040040000800403E
:10243000000C004080B58CB000AF7860396000239C
:10244000FB620023BB6200237B6200233B6200230C
:10245000FB617B68FB617B681B8A9BB2FB62FA6A4B
:102460004CF6FF731340FB623B68DB881A46FB6A3D
:102470001343FB62FB6A9AB27B681A827B689B8972
:102480009BB2FB62FA6A4EF6F3131340FB623B68A1
:102490009A883B681B8913439AB23B685B89134354
:1024A0009BB21A46FB6A1343FB62FB6A9AB27B68D3
:1024B0009A817B689B8A9BB2FB62FA6A4FF6FF4364
:1024C0001340FB623B689B891A46FB6A1343FB621D
:1024D000FB6A9AB27B689A8207F108031846FFF7F5
:1024E0003DFAFB692E4A934202D17B69BB6201E04F
:1024F0003B69BB627B689B899BB21BB2002B0CDAE9
:10250000BA6A13469B0013449A001A443B681B683E
:102510005B00B2FBF3F37B620BE0BA6A13469B00ED
:1025200013449A001A443B681B689B00B2FBF3F308
:102530007B627B6A1B4AA2FB03235B091B01FB62D4
:10254000FB6A1B09642202FB03F37A6AD31A3B621B
:102550007B689B899BB21BB2002B0CDA3B6ADB00C9
:102560003233104AA2FB03235B0903F00703FA6A24
:102570001343FB620BE03B6A1B013233094AA2FBA7
:1025800003235B0903F00F03FA6A1343FB62FB6A40
:102590009AB27B681A8100BF3037BD4680BD00BF4C
:1025A000003801401F85EB5180B483B000AF7860E4
:1025B0000B46FB70FB78002B08D07B689B899BB295
:1025C00043F400539AB27B689A8107E07B689B8949
:1025D0009BB223F400539AB27B689A8100BF0C37F8
:1025E000BD4680BC704780B483B000AF78600B46B6
:1025F0007B8013467B707B78002B08D07B689B8A9E
:102600009AB27B8813439AB27B689A8209E07B680E
:102610009B8A9AB27B88DB439BB213409AB27B6859
:102620009A8200BF0C37BD4680BC704780B483B02F
:1026300000AF78600B467B807B88C3F308039AB2B7
:102640007B689A8000BF0C37BD4680BC704780B461
:1026500085B000AF78600B467B800023FB737B68FE
:102660001B889AB27B8813409BB2002B02D00123B7
:10267000FB7301E00023FB73FB7B18461437BD4658
:1026800080BC704710B5C0F89C1100F5D07411469D
:10269000204601F06BFC41F28831204601F072FCCB
:1026A00010BD142903DC523100EB81014A607047F0
:1026B000F0B5ADF5237D044600F5D075284601F050
:1026C00066FC28B10346B4F8482112B9002300E0A3
:1026D000002313B10023A4F84831D4F89C01036807
:1026E0009B68984710B90DF5237DF0BDB4F848619B
:1026F000D4F89C0103681B6998472644B0712846AA
:1027000001F036FCB4F84831E21892790A2A0AD06E
:1027100001339BB2A4F84831B3F5A17FE3DD002378
:10272000A4F84831DFE74FF4A1720021684602F0B7
:102730005FFDA61D211D304603F0C0FB02F00DFB1E
:1027400087B207F1520304EB83035D6875B130462D
:10275000FDF7FEFC0130204469460630A8479DF88D
:1027600000303BB90023A4F84831BCE70023A4F8AB
:102770004831B8E73A46074951A802F0CCFA694611
:1027800051A802F059FDD4F89C0103685B6851A977
:102790009847E7E7D872000810B50446074B036076
:1027A0002C23838000F5D07001F004FC0023A4F8F2
:1027B0004831C4F89C31204610BD00BFE4720008C7
:1027C00010B50446034B036000F5D07001F0C7FB61
:1027D000204610BDE472000810B50446FFF7F0FF74
:1027E000204602F0AFFA204610BD000010B50446A6
:1027F000054B03CBC4F81F01C4F8231104F5A470E2
:1028000001F0D8FB204610BDD0720008F0B49DF84E
:10281000105090F81441B1EB441F2CDA90F8156178
:10282000B2EB061F27DAC1F34716170907FB04F4BA
:10283000E4B23444E4B201F01F0101EB441102F0B0
:102840000F02C1F3CF0690F81641A40004FB026208
:1028500092B201F00701014491F81F11042B0AD82C
:10286000DFE803F003111D2A3200012D05D00068B6
:10287000835C19438154F0BC70470068835C23EA91
:1028800001018154F7E72DB90068835C23EA010157
:102890008154F0E70068835C19438154EBE7012D14
:1028A000E9D10068835C194202D10B438354E2E70B
:1028B00023EA01038354DEE7012DDCD10068835C49
:1028C00023EA01018154D6E7012DD4D10368985C35
:1028D0000142D0D101439954CDE708B539B990F8F8
:1028E000162192010021006802F082FC08BD90F8D8
:1028F00016219201FF21006802F07AFC08BD2DE943
:10290000F04104461F46099DBDF8306080F814115F
:1029100080F8152102FB01F0C0B284F81601030112
:10292000A4F818314301A4F81A31C30003EB800363
:102930009B00A4F81C31800102F03EFA20600121C6
:102940002046FFF7CAFF4FF0000884F81E8184F884
:102950007881C4F83871069BC4F83C3104F5A4773B
:102960000799384601F002FB3146384601F00AFB70
:10297000A4F84061089BC4F83431C4F828510A9B7C
:10298000C4F82C310B9BC4F830312B685B682846A7
:102990009847D4F82C0103685B689847D4F8300155
:1029A00003685B689847D4F83C0103689B68102172
:1029B000984701212046FFF790FF84F81E81BDE86B
:1029C000F0812DE9F04F87B002900C4615469B46EA
:1029D000BDF940A09DF84430039392B2AAEB0200E7
:1029E00080B207B289B2ABEB01039BB21EB2002FDB
:1029F0001BDB4FF00109002E1CDB4FF001087F00AC
:102A00003BB20493760030B2059001230093039B00
:102A10000298FFF7FBFE049B0598834229DABFB2B8
:102A2000A7EB600A0FFA8AFA17E047423FB24FF06D
:102A3000FF39E0E75B421EB24FF0FF38DFE704EBFF
:102A4000080189B20CB2BA440FFA8AFA0123009342
:102A5000039BAAB20298FFF7D9FE5C4526D0BAF1D3
:102A6000000FECDB4D442DB2AAEB060A0FFA8AFAEE
:102A7000E5E71FFA86FB049BABEB630636B20CE07E
:102A800005EB090292B215B25E4436B201230093FF
:102A9000039BA1B20298FFF7B9FE554506D0002E60
:102AA000EEDB444424B2F61B36B2E9E707B0BDE8DA
:102AB000F08F2DE9F04383B081460C4690461D46C9
:102AC000BDF928709DF82C60AC420ADC0196009795
:102AD0002346424621464846FFF773FF013424B29D
:102AE000F2E703B0BDE8F083F8B5044690F878311A
:102AF00013B1012B78D0F8BD00F5A475284601F07C
:102B000046FA00B9F8BDB4F84071D4F844114FF05A
:102B10007E50FEF713F806463846FEF7C5F83146F4
:102B2000FEF716F9FEF7DAFA81B2284601F02AFA22
:102B300094F816319B000FFA83FE94F81E7107FB80
:102B400003F73FB200231D4673452ADA6A1C92B28E
:102B5000D4F800C0FE18B4F91C1131441CF801006F
:102B6000611981F85801A91C89B2B4F91A013044DD
:102B70001CF80000224482F85801EA1C92B2B4F911
:102B8000180130441CF80000214481F85801043534
:102B9000ADB21CF80610224482F8581101331BB262
:102BA000D2E7D4F83C010368DB68D4F8381104F5A7
:102BB000AC720C319847D4F83C0103685B69294634
:102BC0009847D4F8340103685B689847D4F83C010F
:102BD00003681B689847D4F8300103685B6898471E
:102BE000012384F87831F8BD00F5A475284601F07A
:102BF000CEF9002886D0D4F84461B4F84001FEF73D
:102C000053F83146FEF7A4F8FEF768FA81B2284679
:102C100001F0B8F9D4F83C0103689B699847002893
:102C20003FF470AFD4F83C0103685B689847D4F870
:102C3000340103681B68984794F81E31DBB2032BFC
:102C400010D8DFE803F002182634D4F82C0103680A
:102C50005B689847D4F8280103685B6898470123AC
:102C600084F81E31D4F8300103681B6898470023AC
:102C700084F8783146E7D4F82C0103685B689847FC
:102C8000D4F8280103681B689847022384F81E3192
:102C9000E8E7D4F82C0103681B689847D4F82801AA
:102CA00003685B689847032384F81E31DAE7D4F899
:102CB0002C0103681B689847D4F8280103681B6837
:102CC0009847002384F81E31CCE738B505460C46FA
:102CD0004FF07E512046FEF7F7F900B138BD0021D4
:102CE0002046FEF7D3F90028F8D1C5F84441F5E7AE
:102CF000C0F810117047202910D0D0F810311A797F
:102D00005879914210DB104481420FDA891AC9B216
:102D10001A782AB95A781AB9987803E06E21ECE744
:102D20000631585C00B270470020704700207047A1
:102D30002DE9F04F8BB09DF85040049490F8144169
:102D4000B1EB441F00F3C38090F81541B2EB041FB0
:102D500000F3C180039202918246D0F81001C2783C
:102D60000892202B21D0089A90460732D210069262
:102D7000D2B215460992017944798B42C0F2AF80F4
:102D80006218934280F2B1805B1AD9B203781BBB00
:102D9000437863BB83782A4601FB02F202FB03F20D
:102DA00092B2063292B207922FE020215046FFF7EE
:102DB000A2FF0446029803462344089A039D2A442E
:102DC00012B20121019100921BB22A4601465046DF
:102DD000FFF76FFE059484E0002213468A4209DA69
:102DE000951D455D2B449BB20132D2B2F6E700221D
:102DF0001346F3E7099A02FB03F39BB223449BB209
:102E000006339BB207930631435C05935B42029AFB
:102E10009A4266DB089B5B42039A9A4261DB4FF061
:102E200000094DE0012B45DD089BA3F1080541E0B9
:102E3000029B09EB0301039B5A1992B2224400231F
:102E40000093049B92B289B25046FFF7DFFC013435
:102E5000E4B2072C1ADC2B19B3EBC70FF7DB98454C
:102E6000F5DB4BFA04F212F0010FE1D0029B09EB03
:102E70000301039B5A1992B2224401230093049B3D
:102E800092B289B25046FFF7C1FCE0E7013EF6B2CC
:102E90003746FD2E10DCDAF81021079B4B440599CC
:102EA00006FB013312F803B0F5009DF818305A1EE6
:102EB0009642B7D00024CCE709F101095FFA89F9FD
:102EC000059B4B450DDD099B5E1EF6B2E0E74FF01A
:102ED000FF33059305E04FF0FF33059301E0002336
:102EE000059305980BB0BDE8F08F00230593F8E734
:102EF0002DE9F04F87B09DF840909DF844A090F8E0
:102F00001441B1EB441F56DA8B46039290F81541F9
:102F1000B2EB041F4FDAD0F81041E478D4424AD41F
:102F20001D46029207461FFA81F808F1FF3109B2E7
:102F3000144420B205900123019300900B463846BB
:102F4000FFF73FFD00263446CDF810A0AA4610E05A
:102F5000002B30DB04EB0B0397F81421B3EB421F7B
:102F600029DA97F81531039AB2EB031F23DA0136F9
:102F700036B24E451FDAA5B208EB05011AF8063045
:102F8000049A0092029A09B23846FFF7D1FE03B2C2
:102F9000002BDDDD0544ADB208EB050109B20123CC
:102FA0000193059B00930B46029A3846FFF709FDF3
:102FB00001352CB2CEE707B0BDE8F08F2DE9F04324
:102FC00083B005460F4616469846BDF92890002462
:102FD000A0F806413346B4420FDA3A5D2B191A7154
:102FE000395D2846FFF787FE0130B5F806311844F1
:102FF000A5F80601013424B2ECE7D5F81021D27807
:10300000A5F808212B4400221A71A5F80C91A5F807
:103010000A8185F80461019200962B1D4A464146BB
:103020002846FFF765FF03B0BDE8F0832DE9F041C6
:1030300082B004460F461546B0F80A310B441BB265
:10304000A0F80A31B0F80C212A44A0F80C21B0F9FC
:10305000062151428B4229DB90F81411B3EB411F3A
:103060002EDC0026B4F90C21B4F9083159428A4209
:103070002FDB94F81511B2EB011F35DC15B9B7F150
:10308000FF3F43D00DB9012F7DD0B4F90A11B4F937
:103090000C2194F80431002001900093231D204658
:1030A000FFF726FF304602B0BDE8F08190F81431FA
:1030B0005B01A0F80A310121FFF70FFC0126D1E7DF
:1030C00092B25242A0F80A210121FFF706FC012624
:1030D000C8E794F815311B01A4F80C3101212046F2
:1030E000FFF7FBFB0126C9E79BB25B42A4F80C315A
:1030F00001212046FFF7F1FB0126BFE72268535D5F
:103100005B00DBB20133535501352DB294F8163113
:10311000B5EB831F13DA94F814319B0095FBF3F29F
:1031200003FB1252013B9A42E8D022685119535DC9
:103130005B00DBB2497803EBD1135355E4E7B4F9F4
:103140000A71002594F804319D42ABDA631993F8B3
:10315000048041462046FFF7CEFD3B1894F8142129
:10316000B3EB421F05DA3844013007B20135EDB246
:10317000E8E7B4F90C210023009343463946204682
:10318000FFF7D6FD8EE794F816319B01013B0AE06C
:103190002168CA18C85C12F8012CD20102EB600247
:1031A000CA54013B1BB2002B0FDB94F81421920090
:1031B00093FBF2F102FB1132002AE9D12168CA5CCB
:1031C000521042F08002CA54EBE7B4F90A710025AC
:1031D00094F804319D42BFF665AF631993F80480FB
:1031E00041462046FFF787FDC74205D538440130E8
:1031F00007B20135EDB2EBE7B4F90C2100230093DF
:10320000434639462046FFF793FD4BE710B58161F1
:10321000C261036200F108040299204600F0A6FE94
:1032200041F28831204600F0ADFE10BD70B5044675
:1032300000F10805284600F0AAFE064608B9304607
:1032400070BD284600F094FE00224FF0FF31206A46
:10325000FFF7ECFE074A138801339BB21380B4F8E2
:103260000C24934203DD0022024B1A80E7E700267C
:10327000E5E700BFA806002038B5044600F12405A4
:10328000284601F0E8FF2846FCF762FFA4F80C048A
:103290000023237141F2883104F1080000F072FE2E
:1032A00038BD000010B50446054B40F8083B00F05F
:1032B00081FE00232371A4F80C34204610BD00BF0A
:1032C00014730008837813B9B0F8CC0070470088F5
:1032D000704700002DE9F04F91B0074600F1080457
:1032E000204600F054FE814618B9484611B0BDE8AA
:1032F000F08F204600F03CFEB86900F005FDFDF7B8
:1033000093F80022644BFDF7E3F8FDF7A3FB80B2CE
:10331000DFF8A481A8FB0032604EA6FB00135B0916
:103320005F4CA4FB0351C90801EB81014D005B1BFD
:10333000A4FB0051C9081FFA81FEA4FB0EC5ED08CD
:1033400005EB85054FEA450CAEEB0C0E1FFA8EFE21
:1033500001EB81014D00401B80B200250B950C95BF
:103360000D950E950F950190CDF800E09BB2920956
:103370004C490BA801F0CFFCD7F81CA0DAF804B038
:10338000DAF82800FDF78CFC05900AF12C00FFF715
:1033900099FFFDF785FC01460598FDF78DFD014677
:1033A0005846FDF7D5FCDAF80810FDF7C9FB3E4991
:1033B000FDF7CEFCFDF792FE80B23C4AA2FB003244
:1033C000A8FB00139B09A4FB03E1C90801EB8101E1
:1033D0004FEA4108A3EB0803A6FB00167609A4FBFD
:1033E00006E1C90801EB81014FEA410EA6EB0E068A
:1033F000B6B2A4FB00E1C9081FFA81FEA4FB0EC40B
:10340000E40804EB84044FEA440CAEEB0C0E1FFA04
:103410008EF401EB81014FEA410EA0EB0E0080B269
:1034200006950795089509950A95029001940096CE
:103430009BB2520B1E4906A801F06DFC3C6A0BA81A
:10344000FCF786FEC0B2019500900BAB07220F215E
:103450002046FFF74DFD3C6A06A8FCF779FEC0B296
:103460000195009006AB4FF0FF320F212046FFF789
:103470003FFDB7F80C341BB10E4A1388013313809B
:103480000C4B1B880A2B03DD00220A4B1A802CE709
:103490004FF0000929E700BF00408F401F85EB5126
:1034A000CDCCCCCCEC7200080000C8425917B7D183
:1034B000FC720008AA060020D34D621070B582B0DD
:1034C000044603791BB1012B1AD002B070BDFFF77F
:1034D00001FF0028F9D0266A04F124052846FCF7EC
:1034E00037FE00230093C2B229463046FFF766FD3F
:1034F000642104F1080000F045FD01232371E4E795
:10350000FFF794FE0028E0D041F2883104F1080072
:1035100000F038FD00232371D7E7000010B5044602
:10352000034B40F8083B00F01AFD204610BD00BFD9
:103530001473000810B50446FFF7F0FF204601F0B1
:1035400001FC204610BD38B51D464161041D1146E1
:10355000204600F00BFD2946204600F013FD38BD43
:1035600038B50446051D284600F011FD00B938BDE8
:10357000284600F0FDFC646923689B682046984754
:1035800020B923681B6820469847F0E723685B68EA
:103590002046984738BD000010B50446034B40F85C
:1035A000043B00F007FD204610BD00BF2473000857
:1035B00010B50446034B40F8043B00F0D0FC204615
:1035C00010BD00BF2473000810B50446FFF7F0FFDC
:1035D000204601F0B7FB204610BD00238370A0F801
:1035E000CC30704710B504460830FFF7F6FF0023D3
:1035F00023600023636010BD10B50446642303817B
:1036000000238372A0F8D4300830FFF7E6FF20468D
:10361000FFF7E8FF204610BD012800D0704738B5FD
:1036200004464FF6FF73994200D038BD184D284626
:10363000FFF7B2FF1835002C13DB2846154B40F876
:103640000C3B00F0B7FC05F12400FFF7D5FF002389
:103650002B62114A6A600022AA60EB61FC35013CD2
:10366000E9E70B4C04F50470FFF7C0F804F563704C
:10367000FFF718FE04F29C7000F092FB04F509605D
:10368000FFF78AF8054A0649204601F05DFBCCE7C2
:10369000AC06002034730008FCA9713D0000002036
:1036A000B336000808B54FF6FF710120FFF7B4FFED
:1036B00008BD70B5064600F50960FFF781F806F20F
:1036C0009C7000F0EFFA06F56370FFF727FF06F530
:1036D000047406F5567000F042FC16F1180507D088
:1036E000A54205D054F8FC3D1B6820469847F7E7F3
:1036F0003046FFF75DFF304670BD000010B5044650
:10370000034B40F80C3B00F02AFC204610BD00BFE4
:103710003473000810B50446044B40F80C3B00F02D
:103720001EFC204601F00EFB204610BD347300083D
:10373000436818887047704710B5044601F002FBD3
:10374000204610BD41607047014B0360704700BFC9
:1037500044730008704708B5416100F10C018068AE
:10376000FDF772FE08BD08B5C160026100F10C01F1
:103770008068FDF769FE08BD08B5816100F10C01A4
:103780008068FDF761FE08BD08B501218068FDF77E
:10379000C3FE08BD08B500218068FDF7BDFE08BD69
:1037A00010B5048B8068FDF7D3FE201A80B210BDDF
:1037B00010B50446806BFDF7D7FE08B9002010BD98
:1037C000A06BFDF7F9FE012010BD10B5044601F015
:1037D000B9FA204610BD000010B504464160826071
:1037E000C362029B036300238362436280230362FC
:1037F00000F10C011046FDF727FEA368264A93420C
:1038000021D0264A934221D0254A934221D0254AED
:10381000934222D0244A934223D0244A934224D074
:10382000234A934225D0234A934226D0224A9342E8
:1038300026D0224A934226D0214A934226D0214ABA
:10384000934226D010BD0223A36310BD2023A3639F
:1038500010BD4FF40073A36310BD4FF40053A36376
:1038600010BD4FF40033A36310BD4FF40013A363E6
:1038700010BD4FF00073A36310BD134BA36310BDC5
:10388000124BA36310BD124BA36310BD114BA36376
:1038900010BD114BA363D5E7080002401C00024095
:1038A0003000024044000240580002406C000240D8
:1038B00080000240080402401C0402403004024020
:1038C000440402405804024002000010200000108E
:1038D00000020010002000100000021010B5044685
:1038E000044B40F80C3BFDF7EDFD002363602046E0
:1038F00010BD00BF587300084268136981680B430C
:103900001361704742681369C1680B4313617047C4
:1039100043689A6883681A4214BF012000207047E8
:10392000704710B5044601F00DFA204610BD0F2A6D
:1039300008DC4160012303FA02F18160103203FACE
:1039400002F2C26070470000024A02600022426038
:103950008260704784730008704708B503890C2B98
:1039600018D8DFE803F0071717170B1717170F17EB
:10397000171713004068FEF735FB08BD4068FEF7D7
:103980003DFB08BD4068FEF745FB08BD4068FEF7FB
:103990004DFB08BD002008BD08B503890C2B28D8B5
:1039A000DFE803F0072727270F27272717272727D1
:1039B0001F0002214068FEF746FB003018BF0120BF
:1039C00008BD04214068FEF73EFB003018BF01200F
:1039D00008BD08214068FEF736FB003018BF012003
:1039E00008BD10214068FEF72EFB003018BF0120F3
:1039F00008BD002008BD10B5044601F0A3F920461B
:103A000010BD416002817047014B0360704700BFE9
:103A1000A07300084368988C80B27047704710B557
:103A2000044601F08FF9204610BD41607047000048
:103A3000014B0360704700BFB87300080020704757
:103A40007047704710B5044601F07CF9204610BD60
:103A500010B5044601F076F9204610BD0161C26040
:103A60004360BDF80030038170470000074A0260E0
:103A70000749416100228261C0F86021C0F86411E9
:103A8000C0F86821C0F8B02242817047DC7300089A
:103A9000CC730008D0F84C214068824214BF00204B
:103AA0000120704708B500F5B270FFF7F3FF80F012
:103AB0000100C0B208BD00000131064BA3FB012389
:103AC000C81A03EB50031B0A40F2431000FB13100B
:103AD000704700BFBFB0CB9538B504460D4641686E
:103AE000FFF7EAFFD4F84C31984206D063682A7891
:103AF00023441A726060012038BD002038BDF0B543
:103B000083B0074616460024B4420DDA4D1C0B78EC
:103B100002A901F8013D07F11400FFF7DDFF18B11C
:103B20000134A4B22946EFE7204603B0F0BD70B5DA
:103B300082B006460D4600242B785BB1013502A900
:103B400001F8013D06F11400FFF7C6FF10B1013482
:103B5000A4B2F1E7204602B070BD10B582B043892F
:103B60000489C2685268A21A934201D102B010BD02
:103B70004268D25C02A901F8012D013393FBF4F2F3
:103B800004FB1233438100F5B270FFF7A5FFEDE7A8
:103B9000D0F84C2143689A420ED010B50446D0F8B4
:103BA0004C3103441B7A0B70D0F84C11FFF784FFA3
:103BB000C4F84C01012010BD0020704710B582B040
:103BC000044603689B68984710B9002002B010BDF6
:103BD0000DF1070104F5B270FFF7DAFF9DF8070059
:103BE000F4E730B583B0044600F114052846FFF72A
:103BF00051FF08B103B030BD80212069FEF727FDD9
:103C00000028F7D00DF107012846FFF7C1FF9DF806
:103C100007102069FEF70AFDECE710B50446FFF730
:103C2000E0FF2046FFF799FF10BD416082607047BA
:103C3000C0F8EC10C0F8F0207047D0F8EC300B6002
:103C4000D0F8F030136070470388994213DC10B449
:103C500084781CB9B0F8CC2091420EDAB0F8CC20B0
:103C600004FB021191FBF3F203FB121100EB410084
:103C7000808810BC7047002070470020F9E7B0F83A
:103C8000CC3000EB430291805A1C018892FBF1F387
:103C900001FB13239BB2A0F8CC300BB90123837036
:103CA00070470000014B0360704700BF00740008BC
:103CB00010B50446FFF7F6FF204601F043F8204612
:103CC00010BD80787047F8B506460F4600F108052C
:103CD0002846FFF7F6FFA8B100212846FFF7B4FFFA
:103CE000044639462846FFF7CAFF2846FFF7EAFA96
:103CF000411E89B22846FFF7A7FF001B74682044C5
:103D00007060F8BD0024ECE738B504468069FCF724
:103D1000C7FF054604F11C00FFF7D4FAFCF7C0FF0B
:103D200001462846FDF7C8F801460248FDF7C4F8E9
:103D300038BD00BF00401C4638B50446FFF7E4FF1D
:103D40000546D4F8EC10FDF7BFF928B9D4F8F01007
:103D50002846FDF79BF920B1A06803681B689847C7
:103D600038BDA06803685B68984738BD10B5044645
:103D7000406803681B68984700B910BD6068036815
:103D80005B689847E081A189411A89B204F1140067
:103D9000FFF799FFE389A3812046FFF7CDFFECE70A
:103DA00010B50446044B40F8143BFFF725FC0023F4
:103DB0002361204610BD00BF00740008704700005A
:103DC000012800D0704708B54FF6FF73994200D024
:103DD00008BD07480023036043608360C36003613C
:103DE00043618361034A044900F0AEFFF0E700BF7E
:103DF000EC10002000000020BD3D000870B5054615
:103E0000FDF7F4FB0024012C08DC04F500303E3003
:103E10008002FDF70BFC0134E4B2F4E744F26921BF
:103E20000948FDF735FC00240D2C0AD8074820442A
:103E3000AE1C29884000FDF72BFC0134E4B2354666
:103E4000F2E7FDF7E5FB70BD00F80008017C000417
:103E5000F8B504460023012B10D854F823709A1C9F
:103E600054F822600B499A01D51AA8000546084467
:103E7000C76129440E620133DBB2ECE7064DA1694C
:103E80002846FEF722FF6269216905F28C50FFF790
:103E9000CFFEF8BDAC060020BC080020F8B50446F3
:103EA0000023012B15D84FF07E5244F823209A1C92
:103EB000002544F8225054F823700E499A01D61A6E
:103EC000B00006460844C76131440D620133DBB2DD
:103ED000E7E74FF07E51A161074D2846FEF7F5FE5A
:103EE00006492161064A626105F28C50FFF7A0FE87
:103EF000F8BD00BFAC060020BC08002000004C420A
:103F00000000444238B504460F4B1A8844F2692336
:103F10009A4205D0FFF7C2FF2046FFF76FFF38BD7A
:103F20000A4B186859689A68DD6820606160A26071
:103F3000E560186959699A6920616161A26120464A
:103F4000FFF786FF38BD00BF00F8000802F8000840
:103F500008B54FF6FF710120FFF732FF08BD70472B
:103F600010B5044600F0EEFE204610BD41607047DB
:103F700010B50446406803681B68984760810023B9
:103F8000237310BD08B50181FFF7F2FF08BD10B51E
:103F90000446037B0BB1207B10BD406803681B689F
:103FA00098476389C01A80B223899842F3DB0123C2
:103FB0002373F0E7014B0360704700BF10740008E3
:103FC000BFF34F8F0449CA6802F4E062034B134306
:103FD000CB60BFF34F8FFEE700ED00E00400FA0571
:103FE000F8B50E460846FCF7B3F807463518064CF8
:103FF0000FCCF0516960AA60EB6003CC2861696165
:1040000023882B83F8BD00BF6477000808B50248F9
:10401000FFF7F4FE08BD00BFEC100020F0B583B040
:104020000E4602AD2C2325F8043D294601F046FF3B
:1040300000F093FE04462946002001F03FFF00F007
:1040400089FEFCF727FD07462946002001F036FFD0
:1040500000F080FEFCF71EFDA3B209499A01D51AB3
:10406000AC0025460C44E76129440862054A42F841
:104070002370023342F823000023337003B0F0BDF5
:10408000AC060020EC10002070B58EB00C460EA9D6
:104090002C2321F8383D01F011FF00F05EFE80B2C4
:1040A0000F4983011D1AAA000A44166A0D49D069F6
:1040B000FCF74EFEFDF712F885B20A493046FCF7D0
:1040C00047FEFDF70BF883B22A46074901A800F026
:1040D00022FE01A9204601F0AFF80EB070BD00BF6E
:1040E000AC0600200000C8425877000810B58EB01A
:1040F0000C460948FFF708FE0849FCF729FEFCF7C3
:10410000EDFF82B2064901A800F005FE01A9204694
:1041100001F092F80EB010BD480E002000007A4465
:104120006077000830B583B00D4602A92C2321F832
:10413000043D002001F0C2FE00F00CFEFCF7AAFCDA
:10414000044601460448FEF7C0FD044B9C61002371
:104150002B7003B030BD00BFBC080020EC10002065
:1041600010B582B00C4602A92C2321F8043D002092
:1041700001F0A4FE01460348FFF77EF800232370F8
:1041800002B010BD380A002070B582B00E4602ACF5
:104190002C2324F8043D214601F090FE00F0DAFDC6
:1041A000FCF778FC05462146002001F087FE00F070
:1041B000D1FDFCF76FFC0446024629460448FFF790
:1041C00037FD044B1D615C610023337002B070BD8C
:1041D000480E0020EC10002030B591B00C460023B2
:1041E000019310AA42F8383D01A90E48FFF725FDBA
:1041F0000D490198FCF7ACFDFCF770FF85B20A4948
:104200000298FCF7A5FDFCF769FF83B22A4607492F
:1042100003A800F080FD03A9204601F00DF811B0BD
:1042200030BD00BF480E00200000C842587700088B
:104230002DE9F0478EB088460EA92C2321F8383D91
:1042400001F03CFE00F089FD87B2BD01EB1B9C0034
:10425000194E3444D4F81C90206CFCF721FD8246A2
:1042600004F14400FFF72EF8FCF71AFD0146504612
:10427000FCF722FE044601464846FCF769FDED1BAB
:10428000AB001E44316AFCF75BFC0C49FCF760FD97
:10429000FCF724FF85B22046FCF720FF83B22A46B4
:1042A000074901A800F037FD01A9404600F0C4FF0E
:1042B0000EB0BDE8F08700BFAC0600200000C84289
:1042C000587700082DE9F04FADF2645D00F08AFBED
:1042D0004FF44040FDF726FB01217F48FDF72AFC03
:1042E00001214FF40770FDF707FC01210846FDF797
:1042F000E5FB0DF25450FDF7B5FD4FF6FF74ADF838
:10430000584540F2CF23ADF85435744D0DF2545159
:104310002846FDF7D7FC01212846FDF7D4FD0DF214
:104320005450FDF79FFDADF8584541F61F43ADF8D9
:1043300054350DF254514FF08040FDF7C3FC01217C
:104340004FF08040FDF7BFFD4FF40053ADF85035FE
:1043500002258DF8525514238DF85335604E0DF516
:10436000AA613046FDF70EFA0823ADF850358DF8F6
:10437000525510238DF853355A4C0DF5AA6120463D
:10438000FDF700FA0DF5A860FFF7DEFA03222146DB
:104390000DF5A860FFF7CBFA0DF5A760FFF748FB16
:1043A0004FF080410DF5A760FFF73FFB0DF5A560CD
:1043B000FFF7CAFA0D2231460DF5A560FFF7B7FAEF
:1043C00041F288330DF5A7620DF5A5614648FFF768
:1043D000BAF84FF40063ADF850358DF85255042308
:1043E0008DF853350DF5AA612046FDF7CBF94FF452
:1043F0008063ADF850358DF8525518238DF853353C
:104400000DF5AA612046FDF7BDF90DF2FC40FDF760
:1044100059F80024CDF81845CDF81445CDF80445D9
:104420008023CDF810352023CDF81C354FF4A1772B
:10443000CDF808754FF48053CDF82035EEAECDF8A9
:1044400000652A4BCDF8FC34294D0DF2FC4128467D
:10445000FCF7FAFF01212846FDF75EF84FF41643FA
:10446000EA93ADF8B4430C23ADF8B233ADF8B043E2
:10447000ADF8AE43ADF8AC431E4CEAA92046FDF7BB
:10448000D9FF012240212046FEF7ADF80121204648
:10449000FEF78AF83DA8FFF7E9FA009733462A4667
:1044A00021463DA8FFF7DAFA012539AC002D05DBDE
:1044B0002046FFF749F90834013DF7E70024012CB5
:1044C0001ADC38AB03EB440139AB03EBC400FFF754
:1044D00039F90134A4B2F2E70340040000040040BB
:1044E00000100140000C0140AC06002004480040D0
:1044F00030000240004800400DF5AA60FDF7FEF9CB
:104500004FF00308ADF8508500248DF85345D34F84
:104510000DF5AA613846FDF735F90DF2FC40FCF7C0
:10452000D1FF4FF48063CDF818354FF48073CDF888
:104530001435CDF804454FF0800ACDF810A520239E
:10454000CDF81C350226CDF80865CDF8204538ABEE
:10455000CDF80035C24BCDF8FC34C24D0DF2FC4114
:104560002846FCF771FF01212846FCF7D5FF33A848
:10457000FCF726FE01258DF8D1508DF8DC608DF812
:10458000D050DFF82C9333A94846FCF7C7FD07232A
:104590002A4621464846FCF78EFE07233246294626
:1045A0004846FCF788FED9F8083043F46023C9F880
:1045B000083029464846FCF739FE29464846FCF7AC
:1045C0001AFE29464846FCF75BFE4846FCF749FEC2
:1045D0000DF5AA60FDF792F9ADF850A548238DF8C6
:1045E00053358DF852850DF5AA613846FDF7CAF8A6
:1045F00030A8FDF750FC4FF0040AADF8C0A0ADF8AC
:10460000C450ADF8C240ADF8C840A9F5903930A902
:104610004846FDF7D3FB2DA8FFF7F6F95246494669
:104620002DA8FFF7EEF90DF5AA60FDF767F94FF435
:104630002043ADF850358DF852854FF0180A8DF8AB
:1046400053A509F584390DF5AA614846FDF79AF896
:104650000DF5AA60FDF752F94FF4A043ADF85035BF
:104660008DF852854FF0100B8DF853B50DF5AA61FA
:104670004846FDF787F829A8FFF766F90E22494654
:1046800029A8FFF754F925A8FFF75EF90C2249463F
:1046900025A8FFF74CF90DF5AA60FDF72FF94FF4A7
:1046A0004073ADF850358DF852858DF853B50DF542
:1046B000AA613846FDF766F80DF184084046FFF719
:1046C00043F9092239464046FFF731F90DF17409E3
:1046D0004846FFF739F9082239464846FFF727F9D7
:1046E0000DF1380B5846FFF7F9F84FF4405300939B
:1046F00023465D4A5D495846FFF76EF809A8FDF765
:104700007AFA4FF48273ADF826304FF44043ADF897
:104710002430ADF830A04FF40073ADF82E30DFF840
:1047200094A109A95046FDF723FA2A46314650467E
:10473000FDF7A4FA29465046FDF781FA4C4F0DF5D6
:10474000A8622DA93846FFF770FAA7F28C5749499D
:104750003846FEF7CDFA1423069329AB0593CDF81E
:104760001090CDF80C8025AB02930DF5A763019353
:10477000CDF800B053462A4631463846FEF7BFF81A
:10478000012C1BDCC4EB84139D003B4B1D4439AB57
:1047900003EBC403AB630DF5A761696305F1240660
:1047A0003046FFF7E3FB64213046FFF7EBFB05F1F2
:1047B0003C00FEF717FF0134A4B2E1E72F4C0DF5E2
:1047C000A76500952346A4F5FC7204F28C5104F50C
:1047D000BE70FEF71BFD04F5D0642A463DA92046B5
:1047E000FDF750FF264A00212046FDF75AFF254AD3
:1047F00001212046FDF755FF234A02212046FDF7FF
:1048000050FF224A03212046FDF74BFF204A042196
:104810002046FDF746FF1F4A05212046FDF741FFD0
:104820001D4A06212046FDF73CFF1C4A0721204671
:10483000FDF737FF1A4A08212046FDF732FF194AD3
:1048400009212046FDF72DFF174A0A212046FDF7D2
:1048500028FF1648FFF756FB5CE000BF0008014048
:104860004C24014008000240580002400000024071
:10487000480E002018740008AC060020BC08002078
:10488000E13F00080D400008C13F00081D4000083E
:104890008940000831420008ED4000082541000829
:1048A0006141000889410008D9410008EC1000204E
:1048B00000240140003800400135ADB2012D1DDC5F
:1048C000C5EB85139C001A4B1C44636B1834002BFA
:1048D000F2D004F10C063046FFF759FB0028EBD06C
:1048E0003046FFF745FB04F12406206A03681B6885
:1048F000984701463046FFF7E6F9DDE70D4C2046C4
:10490000FEF7DCFDA4F5BE70FEF7EEF8A4F56370CB
:10491000FEF726FE3DA8FFF780F9074C2046FDF77D
:10492000C7FEA4F1F400FFF721FA0025C6E700BF97
:10493000AC060020380A00203C0F0020DFF834D0FD
:10494000002103E00C4B5B58435004310B480C4BE7
:1049500042189A42F6D30B4A02E0002342F8043B85
:10496000094B9A42F9D300F03DF800F001FAFFF745
:10497000A9FC704700500020087A000800000020C1
:104980008C0600208C06002058120020FEE780B420
:1049900000AF00BFBD4680BC704780B400AFFEE7EB
:1049A00080B400AFFEE780B400AFFEE780B400AF94
:1049B000FEE780B400AF00BFBD4680BC704780B446
:1049C00000AF00BFBD4680BC704780B400AF00BFE1
:1049D000BD4680BC704780B400AF00BFBD4680BC00
:1049E0007047000080B500AF154A154B1B6843F0B7
:1049F000010313601249124B5A68124B13404B606B
:104A00000F4A0F4B1B6823F0847323F48033136029
:104A10000B4A0B4B1B6823F480231360084A084B96
:104A20005B6823F4FE035360054B4FF41F029A604A
:104A300000F00CF8044B4FF000629A6000BF80BD9C
:104A4000001002400000FFF800ED00E080B500AF6C
:104A500000F002F800BF80BD80B483B000AF002337
:104A60007B6000233B603A4A394B1B6843F4803338
:104A70001360374B1B6803F400333B607B680133E2
:104A80007B603B68002B03D17B68B3F5A06FF0D14E
:104A90002F4B1B6803F40033002B02D001233B6033
:104AA00001E000233B603B68012B4BD1294A294B95
:104AB0001B6843F010031360264A264B1B6823F043
:104AC00003031360234A234B1B6843F00203136064
:104AD0001F4A1F4B5B6853601D4A1D4B5B68536048
:104AE0001B4A1B4B5B6843F480635360184A184BA6
:104AF0005B6823F47C135360154A154B5B6843F4E1
:104B0000E8135360124A124B1B6843F08073136022
:104B100000BF0F4B1B6803F00073002BF9D00C4A49
:104B20000B4B5B6823F003035360094A084B5B6837
:104B300043F00203536000BF054B5B6803F00C03B6
:104B4000082BF9D100BF0C37BD4680BC704700BFB1
:104B5000001002400020024080B487B000AFF8602F
:104B6000B9607A6001237B6104E07B697A6802FBAB
:104B700003F37B617B69BA68B2FBF3F27B689A420C
:104B8000F3D229E07B69BA68B2FBF3F33B617A693F
:104B9000BB68B3FBF2F102FB01F29B1ABB607A69BE
:104BA0007B6892FBF3F37B613B69092B0ADDFB68B1
:104BB0001B68591CFA6811603A69D2B23732D2B216
:104BC0001A7009E0FB681B68591CFA6811603A69A1
:104BD000D2B23032D2B21A707B69002BD2D100BF70
:104BE0001C37BD4680BC704780B588B000AFF86008
:104BF000B9607A60FB687B617DE0BB681B78252B20
:104C000071D1BB680133BB60BB681B78642B1ED0BD
:104C1000642B06DC582B50D0632B0ED0252B58D09C
:104C20005DE0732B2BD0732B02DC692B0FD056E089
:104C3000752B37D0782B40D051E0FB685A1CFA60B6
:104C40007A68111D79601268D2B21A7047E07B68E9
:104C50001A1D7A601B68FB61FB69002B07DAFB6990
:104C60005B42FB61FB685A1CFA602D221A70F969DD
:104C700007F10C030A221846FFF76EFF2FE07B684E
:104C80001A1D7A601B68BB6107E0FB685A1CFA605A
:104C9000BA69511CB96112781A70BB691B78002B74
:104CA000F3D11CE07B681A1D7A60196807F10C03C8
:104CB0000A221846FFF750FF11E07B681A1D7A6040
:104CC0001B68194607F10C0310221846FFF744FF32
:104CD00005E0FB685A1CFA6025221A7000BFBB6809
:104CE0000133BB6007E0FB685A1CFA60BA68511CCC
:104CF000B96012781A70BB681B78002B7FF47DAF07
:104D0000FB6800221A70FB681A467B69D31A1846A2
:104D10002037BD4680BD0EB480B585B000AF786049
:104D200007F12003BB60BA68F9697868FFF75CFF98
:104D3000F860FB6818461437BD46BDE8804003B0F4
:104D40007047000000F040B80B460146184600F0DE
:104D500008B800BF002101F09FB80A22002101F02D
:104D600083B913460A460146022001F093B90000B8
:104D700070B500250C4E0D4CA41BA410A54209D102
:104D800002F098FA00250A4E0A4CA41BA410A54272
:104D900005D170BD56F8253098470135EEE756F835
:104DA000253098470135F2E7F8790008F8790008CE
:104DB000F8790008047A0008024B0146186800F0F0
:104DC0000BB800BF2C040020024B0146186801F00C
:104DD00031BA00BF2C0400202DE9F74F01F10B047C
:104DE000162C814607D934F0070405D50C23C9F8E1
:104DF0000030002631E110248C42F7D3484600F001
:104E0000FFF9B4F5FC7F9B4D36D204F108022A4429
:104E10005668A2F108018E424FEAD40302D1D66847
:104E2000B24210D07368F268B16823F00303CA601D
:104E3000334491605A6842F001025A60484600F0DB
:104E4000E5F9083609E102338B4A2E69114696428C
:104E50006DD0706820F00300071B0F2F47DD33195A
:104E600044F0010474606B612B61DA609A6047F072
:104E700001025A603750E1E7630A2AD0042B12D8A6
:104E8000A30938335A1C05EBC2025668A2F1080088
:104E9000864206D0726822F00302111B0F291CDD26
:104EA000013B0133D0E7142B01D85B33EAE7542BE5
:104EB00002D8230B6E33E5E7B3F5AA7F02D8E30BE4
:104EC0007733DFE740F25452934204D8A30C7C338B
:104ED000D8E73F23D6E77E23D4E70029F16804DB37
:104EE000B368D9608B60B318A4E70E46D0E7002FF3
:104EF0006A612A6105DB3044436843F00103436083
:104F00009CE7B0F5007F44D20122C008871002FA66
:104F100007F76A6801303A436A6055F8307005EB6C
:104F2000C002083AF260B76045F83060FE600120C8
:104F30009A1000FA02F26868824200F29F800242F0
:104F400006D123F003035200024203F10403FAD016
:104F500005EBC30CE0469E46D8F80C60464553D19D
:104F60000EF1010E1EF0030F08F10808F4D19807A6
:104F700079D16B6823EA02036B6068685200824251
:104F80007CD8002A7AD073460242E1D10433520021
:104F9000FAE7420A042A15D882093832571C55F814
:104FA000377005EBC20EBE4526D10120921000FAE3
:104FB00002F2686810436860C6F80CE0B760CEF88B
:104FC0000860B3E7142A01D85B32E7E7542A02D815
:104FD000020B6E32E2E7B2F5AA7F02D8C20B77323B
:104FE000DCE740F25457BA429ABF820C7C327E22F0
:104FF000D4E7BF68BE4504D07A6822F0030290422D
:10500000F7D3D7F80CE0D7E77068F76820F0030013
:10501000A0EB040ABAF10F0F10DDB268331944F0A7
:1050200001047460D760BA604AF001026B612B61C1
:10503000D96099605A6046F800A0FFE6BAF1000F07
:105040000FDB3044436843F00103436056F8083FE8
:105050004846DF60BB6000F0D9F8304603B0BDE8D9
:10506000F08F3E467AE75CF80809013B84453FF43F
:105070007EAF82E71800002020000020D5F808B09D
:10508000DBF8046026F00306B44203D8331B0F2B71
:1050900000F395804F4A0BEB060317684E4A103712
:1050A00011682744013105D04C4901390F440131C1
:1050B00049420F40394648460192009300F0ACF84F
:1050C000B0F1FF3F804655D0009B019A834201D941
:1050D000AB454FD1424843450168824607EB010E7C
:1050E000C0F800E03F4913D10B4211D1AB683E44F8
:1050F00046F001065E603C4ADAF8003011688B42E7
:1051000088BF1360394A11688B4288BF136031E051
:10511000106801301BBFA8EB03037344C2F8008082
:10512000CAF8003018F007001CBFC0F10800804426
:105130002A4B474418440F40C71B3946484600F0E5
:105140006BF8431C04BF40460027DAF80030A0EBA0
:1051500008003B44074447F00107AB45C5F8088009
:10516000CAF80030C8F80470C5D00F2E10D801233B
:10517000C8F80430AB685A6822F003029442A2EBEC
:10518000040301D80F2B1ADC484600F03FF830E644
:105190000522DBF804300C3E26F0070603F001037D
:1051A0003343CBF804300F2E0BEB06035A609A60A2
:1051B000A1D90BF10801484601F03CF89BE7AE6825
:1051C00044F0010243F0010334447260AC60636058
:1051D00034E600BF381100202004002080000000C9
:1051E000081100207F000000301100203411002041
:1051F00003460244934200D1704703F8011BF9E7CC
:10520000014801F0F6BB00BF4C120020014801F03C
:10521000F2BB00BF4C12002038B50023054C0546F8
:105220000846236002F038F8431C02D1236803B11A
:105230002B6038BD54120020024610B513461C786E
:105240000132002CFAD1013B11F8012B03F8012F98
:10525000002AF9D110BD034611F8012B03F8012BE8
:10526000002AF9D170472DE9F0410F46904601F030
:105270009FFE04460D46B8F1000F11D0C7F30A5344
:10528000C3F16B03002B0BDD00241B0503F17F55DD
:1052900005F5401522462B46FBF71AF904460D4644
:1052A00020462946BDE8F0812DE9F04F99460023BC
:1052B0009FB0804648460C4615921A9301F097FB22
:1052C00007460068FAF744FF4FF0000A05464FF022
:1052D000000B1994199B1A780D2A33D8092A37D252
:1052E000002A3FD000230993199E3378302B40F0D9
:1052F00001817378582B01D0782B6BD1099BCDF8A5
:10530000089001931AAB0093AA4A1BAB19A9404617
:1053100001F096F810F00704054605D0062C2BD1B5
:105320000023013619960993159B002B40F09D85AB
:10533000099BE3B152460BF10043104619461FB0DA
:10534000BDE8F08F2B2A06D02D2A13D0202AC9D1F0
:1053500001331993BEE7002209925A1C19925B7817
:10536000002BC1D1159B1994002B40F07C8552462F
:105370005B46E2E70122EFE71A9A3AB135211CA811
:1053800001F003FF1A99404601F087FB013C042C11
:1053900008D8DFE804F00C03171A0C00DDF870A041
:1053A000DDF874B02907BFD54BF0004BBCE71D9B5F
:1053B0001B9A23F4801302F23342DDF870A043EA13
:1053C000025BEFE7DFF8F8B1ECE76FF0004B4FF06E
:1053D000FF3AE7E7199B5A1C19925B78302BF9D0FA
:1053E000002BA1D001230893199B0A220A930023C2
:1053F00005930693049319980678A6F13003D9B261
:10540000092979D92A46396801F0FAFE002800F006
:1054100085800020334602460146049D652B02D05C
:10542000452B40F0EF8025B910B9089B002B99D08F
:105430000025199C631C199363782B2B00F0CF80F7
:105440002D2B00F0D28000260796A3F13006092EFE
:1054500000F2D780302B00F0CA80A3F13106082E6D
:1054600000F2D080A3F1300E199B4FF00A0C1F46BA
:10547000199B5E1C19965B78A3F13009B9F1090FED
:1054800040F2BA80F61B082E44F61F6902DCF14593
:10549000A8BFF146079E0EB1C9F10009002D40F0EA
:1054A000D78000287FF440AF089A002A7FF43CAFF1
:1054B00000297FF457AF4E2B00F0AD8000F3A5809C
:1054C000492B7FF44FAF3C4919A801F0EAF90028B5
:1054D0003FF448AF199B3949013B19A8199301F0D2
:1054E000E0F910B9199B01331993DFF8D4B04FF0EC
:1054F000000A19E7002376E7049901300829D5BF8F
:105500000699059902FB013302FB0133D4BF0693D0
:105510000593049B1990013304936CE7199B5A1966
:105520001992049A5B5D002A54D11046302B2AD080
:10553000A3F13102082A00F29D84199A0A920246C8
:1055400000200546303B00F1010111D00A440A2633
:10555000294600EB050C61451BD12844082800F1C1
:1055600001052FDC0A21069801FB00330693002178
:10557000199B581C199008465B78A3F13001092942
:10558000E0D901214AE7199B01305A1C19925B7836
:10559000CCE7013101F1FF3EBEF1080F03DC069FAD
:1055A00077430697D7E71029DEBF059F7743059716
:1055B000D1E700BF9077000884770008877700085C
:1055C0000000F07F102DDFBF0A21059801FB00339A
:1055D0000593CCE70246049DCFE7012124E7002391
:1055E0000793A31C1993A3782FE70123F8E7199BCE
:1055F0005E1C19965B782DE70CFB0E3EAEF1300E6B
:1056000036E719944FF0000948E7692B3FF45BAF88
:105610006E2B7FF4A7AE8C4919A801F042F900283F
:105620003FF4A0AE199B1B78282B0ED11CAA8749EA
:1056300019A801F049F9052807D11D9BDDF870A0D4
:1056400043F0FF4B4BF4E00B6EE6DFF810B24EE791
:10565000049B2C46002B08BF2B46102DA8BF1024FE
:105660000698A9EB02090493FAF7BCFE092C8246BE
:105670008B4613DD764B03EBC40353E91223FAF791
:1056800027FF064605980F46FAF7ACFE02460B4682
:1056900030463946FAF76AFD82468B460F2D36DCD6
:1056A000B9F1000F3FF440AE24DDB9F1160F0BDC69
:1056B00052465B46664D05EBC909D9E90001FAF788
:1056C00007FF82468B462FE6C5F1250399451EDC70
:1056D0005F4CC5F10F0504EBC501A9EB050552466A
:1056E000D1E900015B4604EBC504FAF7F1FED4E909
:1056F0000023E4E719F1160F09DB554D5046A5EBE1
:10570000C909D9E900235946FBF70CF8D9E72C1B46
:105710004C44002C73DD14F00F030AD04C49524660
:1057200001EBC301D1E900015B46FAF7D1FE8246E5
:105730008B4634F00F0454D0B4F59A7F27DD4FF038
:105740000009CDF81090CDF81C90CDF818902223C8
:105750004FF0000ADFF808B1C8F80030079B002BB3
:105760003FF4E2AD1A99404601F097F90699404698
:1057700001F093F90499404601F08FF907994046EA
:1057800001F08BF94946404601F087F9CCE500234A
:10579000504659461F462F4E2411012C24DC0BB1D4
:1057A00082468B462B4BABF1547B03EBC70752462B
:1057B000D7E900015B46FAF78BFE21F000438B46E8
:1057C0000A461B0D24491B058B428246B7D8A1F51A
:1057D00080118B4286BF4FF0FF3ADFF888B002F1AC
:1057E000547B0023059370E0E20704D5D6E900233B
:1057F000FAF76EFE0123013764100836CDE7F0D0CA
:10580000644214F00F020AD0114B504603EBC2035E
:105810005946D3E90023FAF785FF82468B462411C7
:10582000DFD01F2C20DD4FF00009CDF81090CDF80F
:105830001C90CDF8189022234FF0000A4FF0000B77
:10584000C8F800308AE700BF8D770008A477000809
:1058500018780008F07700080000A07C0000F8FF2E
:105860000000F07FFFFFEF7F14F0100318BF6A23E2
:1058700050460593594600239F4E002C00F30981A2
:105880000BB182468B46059BBBB1CBF30A53C3F1E8
:105890006B03002B594610DD1F2B40F30481342B82
:1058A000D8BF4FF0FF324FF0000ACFBF4FF05C7B04
:1058B000203B02FA03F303EA010B002200235046C7
:1058C0005946FBF76DF80028ADD1069B049A00936A
:1058D0000A992B46404601F032F9079000283FF420
:1058E0002EAFB9F1000FC9F10003A8BF00230E933A
:1058F00029EAE9734FF000090F93CDF81090079B48
:105900004046596801F095F8069000283FF41FAF13
:10591000079B0C301A6903F10C010232920001F06E
:105920007DF81CAB01931BAB009352465B4640468F
:10593000CDE90AAB01F0B2FB1A9000283FF407AFA3
:105940000121404601F087F90490034600283FF406
:10595000FEAE1B9D1C9A002DABBF0E9B0F9B5E19CC
:105960005C1B059BA8BF0F9CA5EB03051544634B6F
:1059700005F1FF35B8BF0E9E9D42C2F1360280F29E
:10598000A4805B1B1F2BA2EB03024FF0010700F367
:105990009180002507FA03F31493B718059BBE42C4
:1059A00014441C443346A8BF3B46A342A8BF234629
:1059B000002BC2BFFF1AE41AF61A0E9BBBB11A469F
:1059C0000499404601F0DCF9049000283FF4BFAE92
:1059D00001461A9A404601F047F9089000283FF422
:1059E000B6AE1A99404601F058F8089B1A93002F5A
:1059F0006FDC0F9B002B75D1002C08DD2246069929
:105A0000404601F00BFA069000283FF4A0AE002EAD
:105A100008DD32460499404601F000FA049000285F
:105A20003FF495AE069A1A99404601F062FA814613
:105A300000283FF48CAE0024C3680499C460089326
:105A400001F03DFAA0425BDA089BF3B9BAF1000F0E
:105A50001BD1CBF31303C3B92BF000431B0D1B0564
:105A6000B3F1D66F11D9D9F814301BB9D9F8103069
:105A7000012B0ADD49460122404601F0CFF9049985
:105A8000814601F01CFA00286BDC059B002B75D1C8
:105A900068E6E20704D5D6E90023FAF719FD0123E9
:105AA00064100836E9E64FF0FF3202FA03F303EA26
:105AB0000A0A02E7C5F17F4505F57F0505F57B4537
:105AC000E23507FA05F5149767E7012300251493DB
:105AD00063E73A461A99404601F0A0F91A90002867
