:020000040800F2
:1000000000500020F93700084B3800085738000826
:100010005D380008633800086938000800000000F7
:100020000000000000000000000000006F38000821
:100030007B3800080000000087380008933800086B
:10004000493800084938000849380008493800088C
:10005000493800084938000849380008493800087C
:10006000493800084938000849380008493800086C
:10007000493800084938000849380008493800085C
:10008000493800084938000849380008493800084C
:10009000493800084938000849380008493800083C
:1000A000493800084938000849380008493800082C
:1000B000493800084938000849380008493800081C
:1000C000493800084938000849380008493800080C
:1000D00049380008493800084938000849380008FC
:1000E0004938000849380008493800080000000075
:1000F0000000000000000000000000000000000000
:0C01000000000000000000005FF808F1A3
:10010C0010B5054C237833B9044B13B10448AFF345
:10011C0000800123237010BD180500200000000092
:10012C001043000808B5034B1BB103490348AFF358
:10013C00008008BD000000001C05002010430008D2
:10014C00034613F8012B002AFBD1181A013870470B
:10015C0081F0004102E000BF83F0004330B54FEA6C
:10016C0041044FEA430594EA050F08BF90EA020FD9
:10017C001FBF54EA000C55EA020C7FEA645C7FEA6C
:10018C00655C00F0E2804FEA5454D4EB5555B8BF8F
:10019C006D420CDD2C4480EA020281EA030382EA00
:1001AC00000083EA010180EA020281EA0303362D92
:1001BC0088BF30BD11F0004F4FEA01314FF4801C65
:1001CC004CEA113102D0404261EB410113F0004F77
:1001DC004FEA03334CEA133302D0524263EB43032E
:1001EC0094EA050F00F0A780A4F10104D5F1200ECC
:1001FC000DDB02FA0EFC22FA05F2801841F1000127
:10020C0003FA0EF2801843FA05F359410EE0A5F1FA
:10021C0020050EF1200E012A03FA0EFC28BF4CF02B
:10022C00020C43FA05F3C01851EBE37101F00045E1
:10023C0007D54FF0000EDCF1000C7EEB00006EEBEE
:10024C000101B1F5801F1BD3B1F5001F0CD3490878
:10025C005FEA30004FEA3C0C04F101044FEA4452CF
:10026C0012F5800F80F09A80BCF1004F08BF5FEA56
:10027C00500C50F1000041EB045141EA050130BD36
:10028C005FEA4C0C404141EB010111F4801FA4F1D9
:10029C000104E9D191F0000F04BF01460020B1FA2E
:1002AC0081F308BF2033A3F10B03B3F120020CDA66
:1002BC000C3208DD02F1140CC2F10C0201FA0CF044
:1002CC0021FA02F10CE002F11402D8BFC2F1200CA9
:1002DC0001FA02F120FA0CFCDCBF41EA0C0190405F
:1002EC00E41AA2BF01EB0451294330BD6FEA0404A8
:1002FC001F3C1CDA0C340EDC04F11404C4F1200293
:10030C0020FA04F001FA02F340EA030021FA04F3A4
:10031C0045EA030130BDC4F10C04C4F1200220FAFB
:10032C0002F001FA04F340EA0300294630BD21FA39
:10033C0004F0294630BD94F0000F83F4801306BFFF
:10034C0081F480110134013D4EE77FEA645C18BFF3
:10035C007FEA655C29D094EA050F08BF90EA020F8A
:10036C0005D054EA000C04BF1946104630BD91EA82
:10037C00030F1EBF0021002030BD5FEA545C05D185
:10038C004000494128BF41F0004130BD14F58004C4
:10039C003CBF01F5801130BD01F0004545F0FE4138
:1003AC0041F470014FF0000030BD7FEA645C1ABF6D
:1003BC00194610467FEA655C1CBF0B46024650EAA4
:1003CC00013406BF52EA033591EA030F41F40021D0
:1003DC0030BD00BF90F0000F04BF0021704730B556
:1003EC004FF4806404F132044FF000054FF000012B
:1003FC0050E700BF90F0000F04BF0021704730B5EC
:10040C004FF4806404F1320410F0004548BF4042C0
:10041C004FF000013EE700BF42004FEAE2014FEA15
:10042C0031014FEA02701FBF12F07F4393F07F4FF0
:10043C0081F06051704792F0000F14BF93F07F4F22
:10044C00704730B54FF4607401F0004521F0004165
:10045C0020E700BF50EA010208BF704730B54FF0EB
:10046C0000050AE050EA010208BF704730B511F0F0
:10047C00004502D5404261EB41014FF4806404F128
:10048C0032045FEA915C3FF4DCAE4FF003025FEAAA
:10049C00DC0C18BF03325FEADC0C18BF033202EB32
:1004AC00DC02C2F1200300FA03FC20FA02F001FA8C
:1004BC0003FE40EA0E0021FA02F11444C1E600BF2B
:1004CC0070B54FF0FF0C4CF4E06C1CEA11541DBFDE
:1004DC001CEA135594EA0C0F95EA0C0F00F0DEF8A9
:1004EC002C4481EA030621EA4C5123EA4C5350EA8E
:1004FC00013518BF52EA033541F4801143F48013DF
:10050C0038D0A0FB02CE4FF00005E1FB02E506F06F
:10051C000042E0FB03E54FF00006E1FB03569CF0C4
:10052C00000F18BF4EF0010EA4F1FF04B6F5007FCA
:10053C0064F5407404D25FEA4E0E6D4146EB06063C
:10054C0042EAC62141EA55514FEAC52040EA5E50C5
:10055C004FEACE2EB4F1FD0C88BFBCF5E06F1ED86F
:10056C00BEF1004F08BF5FEA500E50F1000041EBA6
:10057C00045170BD06F0004646EA010140EA020053
:10058C0081EA0301B4EB5C04C2BFD4EB0C0541EA75
:10059C00045170BD41F480114FF0000E013C00F38A
:1005AC00AB8014F1360FDEBF002001F0004170BDAE
:1005BC00C4F10004203C35DA0C341BDC04F11404C7
:1005CC00C4F1200500FA05F320FA04F001FA05F253
:1005DC0040EA020001F0004221F0004110EBD37020
:1005EC0021FA04F642EB06015EEA430E08BF20EA4C
:1005FC00D37070BDC4F10C04C4F1200500FA04F3EF
:10060C0020FA05F001FA04F240EA020001F0004180
:10061C0010EBD37041F100015EEA430E08BF20EAF3
:10062C00D37070BDC4F1200500FA05F24EEA020E3B
:10063C0020FA04F301FA05F243EA020321FA04F06A
:10064C0001F0004121FA04F220EA020000EBD37021
:10065C005EEA430E08BF20EAD37070BD94F0000F21
:10066C000FD101F00046400041EB010111F4801F55
:10067C0008BF013CF7D041EA060195F0000F18BF06
:10068C00704703F00046520043EB030313F4801F42
:10069C0008BF013DF7D043EA0603704794EA0C0FFC
:1006AC000CEA135518BF95EA0C0F0CD050EA410612
:1006BC0018BF52EA4306D1D181EA030101F000418F
:1006CC004FF0000070BD50EA410606BF10461946B7
:1006DC0052EA430619D094EA0C0F02D150EA0136C3
:1006EC0013D195EA0C0F05D152EA03361CBF104604
:1006FC0019460AD181EA030101F0004141F0FE41A3
:10070C0041F470014FF0000070BD41F0FE4141F426
:10071C00780170BD70B54FF0FF0C4CF4E06C1CEA26
:10072C0011541DBF1CEA135594EA0C0F95EA0C0FDB
:10073C0000F0A7F8A4EB050481EA030E52EA033596
:10074C004FEA013100F088804FEA03334FF08055B7
:10075C0045EA131343EA12634FEA022245EA1115E4
:10076C0045EA10654FEA00260EF000419D4208BF95
:10077C00964244F1FD0404F5407402D25B084FEA42
:10078C003202B61A65EB03055B084FEA32024FF4EE
:10079C0080104FF4002CB6EB020E75EB030E22BF4B
:1007AC00B61A754640EA0C005B084FEA3202B6EB0B
:1007BC00020E75EB030E22BFB61A754640EA5C00BA
:1007CC005B084FEA3202B6EB020E75EB030E22BF4A
:1007DC00B61A754640EA9C005B084FEA3202B6EB4B
:1007EC00020E75EB030E22BFB61A754640EADC000A
:1007FC0055EA060E18D04FEA051545EA16754FEA6C
:10080C0006164FEAC30343EA52734FEAC2025FEA89
:10081C001C1CC0D111F4801F0BD141EA00014FF018
:10082C0000004FF0004CB6E711F4801F04BF0143E9
:10083C000020B4F1FD0C88BFBCF5E06F3FF6AFAE05
:10084C00B5EB030C04BFB6EB020C5FEA500C50F195
:10085C00000041EB045170BD0EF0004E4EEA113118
:10086C0014EB5C04C2BFD4EB0C0541EA045170BD1F
:10087C0041F480114FF0000E013C90E645EA060E63
:10088C008DE60CEA135594EA0C0F08BF95EA0C0F91
:10089C003FF43BAF94EA0C0F0AD150EA01347FF4D9
:1008AC0034AF95EA0C0F7FF425AF104619462CE7B0
:1008BC0095EA0C0F06D152EA03353FF4FDAE104613
:1008CC00194622E750EA410618BF52EA43067FF464
:1008DC00C5AE50EA41047FF40DAF52EA43057FF4F4
:1008EC00EBAE12E74A0011D212F5001211D20DD55F
:1008FC006FF47873B3EB62520ED44FEAC12343F01A
:10090C00004343EA505323FA02F070474FF00000C3
:10091C00704750EA013002D14FF0FF3070474FF072
:10092C000000704780F0004002E000BF81F0004101
:10093C0042001FBF5FEA410392EA030F7FEA226C79
:10094C007FEA236C6AD04FEA1262D2EB1363C1BF09
:10095C00D218414048404140B8BF5B42192B88BF78
:10096C00704710F0004F40F4000020F07F4018BF9B
:10097C00404211F0004F41F4000121F07F4118BFBB
:10098C00494292EA030F3FD0A2F1010241FA03FC63
:10099C0010EB0C00C3F1200301FA03F100F000434B
:1009AC0002D5494260EB4000B0F5000F13D3B0F113
:1009BC00807F06D340084FEA310102F10102FE2A82
:1009CC0051D2B1F1004F40EBC25008BF20F00100F2
:1009DC0040EA03007047490040EB000010F4000FA0
:1009EC00A2F10102EDD1B0FA80FCACF1080CB2EB33
:1009FC000C0200FA0CF0AABF00EBC2505242184392
:100A0C00BCBFD0401843704792F0000F81F4000136
:100A1C0006BF80F400000132013BB5E74FEA410309
:100A2C007FEA226C18BF7FEA236C21D092EA030F75
:100A3C0004D092F0000F08BF0846704790EA010FEF
:100A4C001CBF0020704712F07F4F04D1400028BF1C
:100A5C0040F00040704712F100723CBF00F50000FE
:100A6C00704700F0004343F0FE4040F40000704734
:100A7C007FEA226216BF08467FEA236301464202E0
:100A8C0006BF5FEA412390EA010F40F480007047F3
:100A9C004FF0000304E000BF10F0004348BF404299
:100AAC005FEA000C08BF704743F0964301464FF0D5
:100ABC0000001CE050EA010208BF70474FF0000331
:100ACC000AE000BF50EA010208BF704711F0004372
:100ADC0002D5404261EB41015FEA010C02BF844642
:100AEC000146002043F0B64308BFA3F18053A3F5A1
:100AFC000003BCFA8CF2083AA3EBC25310DB01FAE8
:100B0C0002FC634400FA02FCC2F12002BCF1004F6B
:100B1C0020FA02F243EB020008BF20F001007047FC
:100B2C0002F1200201FA02FCC2F1200250EA4C0050
:100B3C0021FA02F243EB020008BF20EADC70704796
:100B4C004FF0FF0C1CEAD0521EBF1CEAD15392EAA4
:100B5C000C0F93EA0C0F6FD01A4480EA010C400280
:100B6C0018BF5FEA41211ED04FF0006343EA5010DA
:100B7C0043EA5111A0FB01310CF00040B1F5000F1C
:100B8C003EBF490041EAD3715B0040EA010062F1CB
:100B9C007F02FD2A1DD8B3F1004F40EBC25008BFB5
:100BAC0020F00100704790F0000F0CF0004C08BFD3
:100BBC0049024CEA502040EA51207F3AC2BFD2F1A0
:100BCC00FF0340EAC250704740F400004FF00003AE
:100BDC00013A5DDC12F1190FDCBF00F000407047E8
:100BEC00C2F10002410021FA02F1C2F1200200FA26
:100BFC0002FC5FEA310040F1000053EA4C0308BFED
:100C0C0020EADC70704792F0000F00F0004C02BF3D
:100C1C00400010F4000F013AF9D040EA0C0093F0B8
:100C2C00000F01F0004C02BF490011F4000F013B12
:100C3C00F9D041EA0C018FE70CEAD15392EA0C0F80
:100C4C0018BF93EA0C0F0AD030F0004C18BF31F0EB
:100C5C00004CD8D180EA010000F00040704790F0C1
:100C6C00000F17BF90F0004F084691F0000F91F065
:100C7C00004F14D092EA0C0F01D142020FD193EA2B
:100C8C000C0F03D14B0218BF084608D180EA0100B3
:100C9C0000F0004040F0FE4040F40000704740F08F
:100CAC00FE4040F4400070474FF0FF0C1CEAD0525D
:100CBC001EBF1CEAD15392EA0C0F93EA0C0F69D0B9
:100CCC00A2EB030280EA010C49024FEA402037D024
:100CDC004FF0805343EA111143EA10130CF000401B
:100CEC008B4238BF5B0042F17D024FF4000C8B420B
:100CFC0024BF5B1A40EA0C00B3EB510F24BFA3EBEB
:100D0C00510340EA5C00B3EB910F24BFA3EB9103BA
:100D1C0040EA9C00B3EBD10F24BFA3EBD10340EA14
:100D2C00DC001B0118BF5FEA1C1CE0D1FD2A3FF65A
:100D3C0050AF8B4240EBC25008BF20F0010070470F
:100D4C000CF0004C4CEA50207F32C2BFD2F1FF03B2
:100D5C0040EAC250704740F400004FF00003013AE3
:100D6C0037E792F0000F00F0004C02BF400010F487
:100D7C00000F013AF9D040EA0C0093F0000F01F09B
:100D8C00004C02BF490011F4000F013BF9D041EABD
:100D9C000C0195E70CEAD15392EA0C0F08D14202F0
:100DAC007FF47DAF93EA0C0F7FF470AF084676E7C3
:100DBC0093EA0C0F04D14B023FF44CAF08466EE79C
:100DCC0030F0004C18BF31F0004CCAD130F000426A
:100DDC007FF45CAF31F000437FF43CAF5FE700BFC2
:100DEC0042000ED2B2F1FE4F0BD34FF09E03B3EB89
:100DFC00126209D44FEA002343F0004323FA02F0B5
:100E0C0070474FF00000704712F1610F01D14202A0
:100E1C0002D14FF0FF3070474FF00000704700BF19
:100E2C0080B485B000AF786039600023FB6000238C
:100E3C00FB727B685B68FB60FB6823F4702323F414
:100E4C008073FB603B681A683B681B791B02134379
:100E5C00FA681343FB607B68FA685A607B689B688E
:100E6C00FB60FA68164B1340FB603B68DA683B6822
:100E7C009B681A433B685B795B001343FA68134326
:100E8C00FB607B68FA689A607B68DB6AFB60FB68D6
:100E9C0023F47003FB603B681B7C013BDAB2FB7AEA
:100EAC001343FB72FB7A1B05FA681343FB607B68E8
:100EBC00FA68DA6200BF1437BD4680BC704700BFC9
:100ECC00FDF7F1FF80B483B000AF78607B6800223F
:100EDC001A607B6800221A717B6800225A717B6849
:100EEC0000229A607B680022DA607B6801221A7407
:100EFC0000BF0C37BD4680BC704780B483B000AFD8
:100F0C0078600B46FB70FB78002B06D07B689B68E7
:100F1C0043F001027B689A6005E07B689B6823F0D4
:100F2C0001027B689A6000BF0C37BD4680BC7047DD
:100F3C0080B483B000AF78600B46FB70FB78002B5D
:100F4C0006D07B689B6843F480727B689A6005E0EE
:100F5C007B689B6823F480727B689A6000BF0C37B7
:100F6C00BD4680BC704780B483B000AF78607B68AE
:100F7C009B6843F004027B689A6000BF0C37BD4647
:100F8C0080BC704780B483B000AF78600B46FB70B8
:100F9C00FB78002B06D07B689B6843F4A0027B682F
:100FAC009A6005E07B689B6823F4A0027B689A60DA
:100FBC0000BF0C37BD4680BC704780B485B000AF15
:100FCC007860084611461A460346FB700B46BB7008
:100FDC0013467B700023FB600023BB60FB78092B5E
:100FEC0023D97B68DB68FB60FB78A3F10A0213460C
:100FFC005B001344072202FA03F3BB60BB68DB43BC
:10100C00FA681340FB607978FB78A3F10A02134667
:10101C005B00134401FA03F3BB60FA68BB6813432B
:10102C00FB607B68FA68DA601EE07B681B69FB601A
:10103C00FA7813465B001344072202FA03F3BB60F1
:10104C00BB68DB43FA681340FB607978FA78134687
:10105C005B00134401FA03F3BB60FA68BB681343EB
:10106C00FB607B68FA681A61BB78062B21D87B6819
:10107C005B6BFB60BB785A1E13469B0013441F220C
:10108C0002FA03F3BB60BB68DB43FA681340FB60F6
:10109C00F978BB785A1E13469B00134401FA03F3EC
:1010AC00BB60FA68BB681343FB607B68FA685A63E1
:1010BC0047E0BB780C2B21D87B681B6BFB60BB78A3
:1010CC00DA1F13469B0013441F2202FA03F3BB6082
:1010DC00BB68DB43FA681340FB60F978BB78DA1F16
:1010EC0013469B00134401FA03F3BB60FA68BB6818
:1010FC001343FB607B68FA681A6322E07B68DB6A47
:10110C00FB60BB78A3F10D0213469B0013441F2216
:10111C0002FA03F3BB60BB68DB43FA681340FB6065
:10112C00F978BB78A3F10D0213469B00134401FA26
:10113C0003F3BB60FA68BB681343FB607B68FA6817
:10114C00DA6200BF1437BD4680BC704780B485B0EE
:10115C0000AF786039600023FB607B681B68FB6024
:10116C00FB6823F4FF4323F07003FB603B689A6831
:10117C003B681B6A1A433B681B691A433B685B69F3
:10118C001A433B689B691A433B68DB691A433B680B
:10119C005B6A1A433B689B6A1343FA681343FB6010
:1011AC007B68FA681A603B68DA687B685A603B684F
:1011BC001A687B689A603B685A687B68DA6000BF83
:1011CC001437BD4680BC704780B483B000AF7860E4
:1011DC007B6800221A607B6800225A607B680022C0
:1011EC009A607B680022DA607B6800221A617B6857
:1011FC0000225A617B6800229A617B680022DA61C6
:10120C007B6800221A627B6800225A627B6800228B
:10121C009A6200BF0C37BD4680BC704780B483B067
:10122C0000AF78600B46FB70FB78002B06D07B6818
:10123C001B6843F001027B681A6006E07B681A6841
:10124C004FF6FE7313407A68136000BF0C37BD462F
:10125C0080BC704780B483B000AF78607B685B68FB
:10126C009BB218460C37BD4680BC704780B485B025
:10127C0000AF78600023FB730023BB607B6803F036
:10128C008053002B03D00B4B1B68BB6002E00A4B56
:10129C001B68BB60BA687B681340002B02D001232B
:1012AC00FB7301E00023FB73FB7B18461437BD4630
:1012BC0080BC7047000402400000024080B483B040
:1012CC0000AF78607B6803F08053002B03D0064A94
:1012DC007B68536002E0054A7B68536000BF0C37A3
:1012EC00BD4680BC704700BF0004024000000240B5
:1012FC0080B489B000AF786039600023FB610023B3
:10130C003B610023BB610023FB6000237B61002356
:10131C00BB603B68DB7803F00F03FB613B68DB7859
:10132C0003F01003002B05D03B689B781A46FB6931
:10133C001343FB613B681B88DBB2002B44D07B68FA
:10134C001B687B610023BB6138E00122BB6902FA98
:10135C0003F3FB603B681B881A46FB6813403B6138
:10136C003A69FB689A4226D1BB699B00FB600F224D
:10137C00FB6802FA03F3BB60BB68DB437A6913407A
:10138C007B61FA69FB6802FA03F37A6913437B61A8
:10139C003B68DB78282B05D10122BB699A407B681E
:1013AC005A6108E03B68DB78482B04D10122BB6909
:1013BC009A407B681A61BB690133BB61BB69072B1F
:1013CC00C3D97B687A691A603B681B88FF2B46D9A6
:1013DC007B685B687B610023BB613AE0BB690833C7
:1013EC00012202FA03F3FB603B681B881A46FB6878
:1013FC0013403B613A69FB689A4227D1BB699B0059
:10140C00FB600F22FB6802FA03F3BB60BB68DB4393
:10141C007A6913407B61FA69FB6802FA03F37A6913
:10142C0013437B613B68DB78282B05D1BB69083300
:10143C0001229A407B685A613B68DB78482B05D1C6
:10144C00BB69083301229A407B681A61BB6901337E
:10145C00BB61BB69072BC1D97B687A695A6000BF35
:10146C002437BD4680BC704780B483B000AF786031
:10147C007B684FF6FF721A807B6802229A707B6839
:10148C000422DA7000BF0C37BD4680BC70470000E8
:10149C0080B485B000AF78600023FB60094B5B68BB
:1014AC00FB60FB6823F44043FB60FA687B681343E2
:1014BC00FB60044AFB68536000BF1437BD4680BC18
:1014CC00704700BF0010024080B487B000AF786056
:1014DC0000237B6100233B610023FB600023BB6086
:1014EC004C4B5B6803F00C037B617B69042B07D0CE
:1014FC00082B09D0002B33D17B68474A1A6033E0A4
:10150C007B68454A1A602FE0424B5B6803F470130A
:10151C003B61404B5B6803F48033FB603B699B0C85
:10152C0002333B61FB68002B06D13B693B4A02FB53
:10153C0003F27B681A6017E0364B5B6803F40033E8
:10154C00002B06D03B69354A02FB03F27B681A601C
:10155C000AE03B69304A02FB03F27B681A6003E045
:10156C007B682D4A1A6000BF2A4B5B6803F0F003BE
:10157C007B617B691B097B61294A7B6913441B785E
:10158C00DBB2BB607B681A68BB68DA407B685A6068
:10159C00204B5B6803F4E0637B617B691B0A7B6116
:1015AC001F4A7B6913441B78DBB2BB607B685A68AB
:1015BC00BB68DA407B689A60164B5B6803F4605337
:1015CC007B617B69DB0A7B61154A7B6913441B7861
:1015DC00DBB2BB607B685A68BB68DA407B68DA6058
:1015EC000C4B5B6803F440437B617B699B0B7B6119
:1015FC000C4A7B6913441B78DBB2BB607B68DA68EE
:10160C00BB68B2FBF3F27B681A6100BF1C37BD46A6
:10161C0080BC70470010024000127A0000093D00A7
:10162C00000000201000002080B483B000AF786070
:10163C000B46FB70FB78002B06D00949084B5A6906
:10164C007B6813434B6106E00549054B5A697B687F
:10165C00DB4313404B6100BF0C37BD4680BC704769
:10166C000010024080B483B000AF78600B46FB7072
:10167C00FB78002B06D00949084B9A697B68134309
:10168C008B6106E00549054B9A697B68DB43134087
:10169C008B6100BF0C37BD4680BC70470010024008
:1016AC0080B483B000AF78600B46FB70FB78002BE6
:1016BC0006D00949084BDA697B681343CB6106E015
:1016CC000549054BDA697B68DB431340CB6100BFEE
:1016DC000C37BD4680BC70470010024080B485B00A
:1016EC0000AF786039600023FB817B681B88FB812D
:1016FC00FB8903F44153FB813B681A883B685B8888
:10170C0013439AB23B689B8813439AB23B68DB88BD
:10171C0013439AB23B681B8913439AB23B685B89AB
:10172C0013439AB23B689B8913439AB23B68DB899B
:10173C0013439AB2FB891343FB817B68FA891A80A5
:10174C007B689B8B9BB223F400639AB27B689A8371
:10175C003B681A8A7B681A8200BF1437BD4680BC6E
:10176C00704780B483B000AF78607B6800221A8029
:10177C007B6800225A807B6800229A807B6800225A
:10178C00DA807B6800221A817B6800225A817B6890
:10179C0000229A817B680022DA817B6807221A82F8
:1017AC0000BF0C37BD4680BC704780B483B000AF1F
:1017BC0078600B46FB70FB78002B08D07B681B888D
:1017CC009BB243F040039AB27B681A8007E07B68B7
:1017DC001B889BB223F040039AB27B681A8000BF2F
:1017EC000C37BD4680BC704780B483B000AF7860C6
:1017FC000B467B8013467B707B78002B08D07B6874
:10180C009B889AB27B8813439AB27B689A8009E0D2
:10181C007B689B889AB27B88DB439BB213409AB25D
:10182C007B689A8000BF0C37BD4680BC70470000B7
:10183C0080B485B000AF786039600023FB817B6891
:10184C001B88FB817B682E4A934213D07B682D4A00
:10185C0093420FD07B68B3F1804F0BD07B682A4A40
:10186C00934207D07B68294A934203D07B68284A6D
:10187C00934208D1FB8923F07003FB813B685A88A3
:10188C00FB891343FB817B68224A93420CD07B6813
:10189C00214A934208D0FB8923F44073FB813B68B7
:1018AC00DA88FB891343FB817B68FA891A803B68D1
:1018BC009A887B689A853B681A887B681A857B684E
:1018CC000F4A93420FD07B680E4A93420BD07B6831
:1018DC00124A934207D07B68114A934203D07B682B
:1018EC00104A934204D13B681B7A9AB27B681A86E1
:1018FC007B6801229A8200BF1437BD4680BC7047BA
:10190C00002C01400034014000040040000800405D
:10191C00000C00400010004000140040004001404A
:10192C00004401400048014080B582B000AF7860AF
:10193C0039603B681B88002B0FD13B6859883B688A
:10194C009A883B681B89786800F04EF93B68DB8805
:10195C001946786800F08CF836E03B681B88042B3D
:10196C000FD13B6859883B689A883B681B8978681B
:10197C0000F0AAF93B68DB881946786800F093F808
:10198C0022E03B681B88082B0FD13B6859883B68C9
:10199C009A883B681B89786800F010FA3B68DB88F2
:1019AC001946786800F09CF80EE03B6859883B6853
:1019BC009A883B681B89786800F076FA3B68DB886C
:1019CC001946786800F0A7F800BF0837BD4680BDFF
:1019DC0080B483B000AF78607B684FF6FF729A805A
:1019EC007B6800221A807B680022DA807B680022E8
:1019FC005A807B6800221A7200BF0C37BD4680BC2F
:101A0C00704780B483B000AF78607B6800221A8086
:101A1C007B6800225A807B6801229A807B680022B6
:101A2C00DA807B6800221A8100BF0C37BD4680BC6F
:101A3C00704780B483B000AF78600B46FB70FB78C6
:101A4C00002B08D07B681B889BB243F001039AB231
:101A5C007B681A8007E07B681B889BB223F001032C
:101A6C009AB27B681A8000BF0C37BD4680BC7047A9
:101A7C0080B483B000AF78600B467B807B681B8B97
:101A8C009BB223F00C039AB27B681A837B681B8B86
:101A9C009AB27B8813439AB27B681A8300BF0C37C7
:101AAC00BD4680BC704780B483B000AF78600B46F5
:101ABC007B807B681B8B9BB223F440639AB27B6860
:101ACC001A837B681B8B9AB27B881B029BB21343D5
:101ADC009AB27B681A8300BF0C37BD4680BC704736
:101AEC0080B483B000AF78600B467B807B689B8BA7
:101AFC009BB223F00C039AB27B689A837B689B8B16
:101B0C009AB27B8813439AB27B689A8300BF0C37D6
:101B1C00BD4680BC704780B483B000AF78600B4684
:101B2C007B807B689B8B9BB223F440639AB27B686F
:101B3C009A837B689B8B9AB27B881B029BB2134364
:101B4C009AB27B689A8300BF0C37BD4680BC704745
:101B5C0080B483B000AF78607B689B8E9BB21846D4
:101B6C000C37BD4680BC704780B483B000AF786042
:101B7C007B681B8F9BB218460C37BD4680BC7047E8
:101B8C0080B483B000AF78607B689B8F9BB21846A3
:101B9C000C37BD4680BC704780B483B000AF786012
:101BAC007B68B3F840309BB218460C37BD4680BCFE
:101BBC00704780B485B000AF78600B467B80002303
:101BCC00FB737B681B8A9AB27B8813409BB2002BF9
:101BDC0002D00123FB7301E00023FB73FB7B18464F
:101BEC001437BD4680BC704780B487B000AFF86036
:101BFC00084611461A4603467B810B463B81134629
:101C0C00FB800023BB820023FB82FB681B8C9BB2F6
:101C1C0023F001039AB2FB681A84FB681B8BBB820E
:101C2C00FB681B8CFB82BB8A23F0F303BB82FB8813
:101C3C001B019AB23B8913439AB2BB8A1343BB82F2
:101C4C00FB681C4A934213D0FB681B4A93420FD08B
:101C5C00FB68B3F1804F0BD0FB68184A934207D056
:101C6C00FB68174A934203D0FB68164A93420BD188
:101C7C00FB8A23F00203FB827A89FB8A13439BB213
:101C8C0043F00103FB820AE0FB8A23F00A03FB8288
:101C9C007A89FB8A13439BB243F00103FB82FB68F6
:101CAC00BA8A1A83FB68FA8A1A8400BF1C37BD46AD
:101CBC0080BC7047002C01400034014000040040FF
:101CCC0000080040000C004080B487B000AFF86002
:101CDC00084611461A4603467B810B463B81134648
:101CEC00FB800023BB820023FB8200237B82FB68EA
:101CFC001B8C9BB223F010039AB2FB681A84FB680E
:101D0C001B8BBB82FB681B8CFB827B891B017B8240
:101D1C00BB8A23F440731B051B0DBB82FB881B0382
:101D2C009AB2BB8A1343BB823B891B029AB2BB8A11
:101D3C001343BB82FB681C4A934213D0FB681B4ABB
:101D4C0093420FD0FB68B3F1804F0BD0FB68184A5D
:101D5C00934207D0FB68174A934203D0FB68164A9C
:101D6C0093420BD1FB8A23F02003FB827A8AFB8AF5
:101D7C0013439BB243F01003FB820AE0FB8A23F06F
:101D8C00A003FB827A89FB8A13439BB243F01003B6
:101D9C00FB82FB68BA8A1A83FB68FA8A1A8400BF32
:101DAC001C37BD4680BC7047002C014000340140FC
:101DBC000004004000080040000C004080B487B0D4
:101DCC0000AFF860084611461A4603467B810B4665
:101DDC003B811346FB800023BB820023FB82002344
:101DEC007B82FB681B8C9BB223F480739AB2FB68DA
:101DFC001A84FB689B8BBB82FB681B8CFB827B89E8
:101E0C001B027B82BB8A23F0F303BB82FB881B0182
:101E1C009AB23B8913439AB2BB8A1343BB82FB68C9
:101E2C001C4A934213D0FB681B4A93420FD0FB68A9
:101E3C00B3F1804F0BD0FB68184A934207D0FB6874
:101E4C00174A934203D0FB68164A93420BD1FB8A84
:101E5C0023F40073FB827A8AFB8A13439BB243F40C
:101E6C008073FB820AE0FB8A23F42063FB827A896D
:101E7C00FB8A13439BB243F48073FB82FB68BA8AE0
:101E8C009A83FB68FA8A1A8400BF1C37BD4680BC53
:101E9C00704700BF002C014000340140000400409A
:101EAC0000080040000C004080B487B000AFF86020
:101EBC00084611461A4603467B810B463B81134666
:101ECC00FB800023BB820023FB8200237B82FB6808
:101EDC001B8C9BB223F480539AB2FB681A84FB6868
:101EEC009B8BBB82FB681B8CFB827B891B037B82DD
:101EFC00BB8A23F440731B051B0DBB823B891B0261
:101F0C009AB2BB8A1343BB82FB881B039AB2BB8A6F
:101F1C001343BB82FB681D4A934213D0FB681C4AD7
:101F2C0093420FD0FB68B3F1804F0BD0FB68194A7A
:101F3C00934207D0FB68184A934203D0FB68174AB8
:101F4C0093420BD1FB8A23F40053FB827A8AFB8ADF
:101F5C0013439BB243F48053FB820CE0FB8A23F4C3
:101F6C0000735B045B0CFB827A89FB8A13439BB284
:101F7C0043F48053FB82FB68BA8A9A83FB68FA8A23
:101F8C001A8400BF1C37BD4680BC7047002C014032
:101F9C00003401400004004000080040000C0040E8
:101FAC0080B58CB000AF786039600023FB620023F1
:101FBC00BB6200237B6200233B620023FB617B68D6
:101FCC00FB617B681B8A9BB2FB62FA6A4CF6FF735F
:101FDC001340FB623B68DB881A46FB6A1343FB62C7
:101FEC00FB6A9AB27B681A827B689B899BB2FB6204
:101FFC00FA6A4EF6F3131340FB623B689A883B680F
:10200C001B8913439AB23B685B8913439BB21A46F4
:10201C00FB6A1343FB62FB6A9AB27B689A817B680A
:10202C009B8A9BB2FB62FA6A4FF6FF431340FB623A
:10203C003B689B891A46FB6A1343FB62FB6A9AB2A4
:10204C007B689A8207F108031846FFF73DFAFB6993
:10205C002E4A934202D17B69BB6201E03B69BB62B1
:10206C007B689B899BB21BB2002B0CDABA6A1346B5
:10207C009B0013449A001A443B681B685B00B2FB3C
:10208C00F3F37B620BE0BA6A13469B0013449A008D
:10209C001A443B681B689B00B2FBF3F37B627B6AC0
:1020AC001B4AA2FB03235B091B01FB62FB6A1B0996
:1020BC00642202FB03F37A6AD31A3B627B689B8926
:1020CC009BB21BB2002B0CDA3B6ADB003233104A9A
:1020DC00A2FB03235B0903F00703FA6A1343FB62B9
:1020EC000BE03B6A1B013233094AA2FB03235B0959
:1020FC0003F00F03FA6A1343FB62FB6A9AB27B6824
:10210C001A8100BF3037BD4680BD00BF003801408A
:10211C001F85EB5180B483B000AF78600B46FB7029
:10212C00FB78002B08D07B689B899BB243F400534F
:10213C009AB27B689A8107E07B689B899BB223F4F7
:10214C0000539AB27B689A8100BF0C37BD4680BCA5
:10215C00704780B483B000AF78600B467B807B887F
:10216C00C3F308039AB27B689A8000BF0C37BD4654
:10217C0080BC704780B483B000AF78607B689B886C
:10218C009BB2C3F308039BB218460C37BD4680BC08
:10219C00704780B485B000AF78600B467B8000231D
:1021AC00FB737B681B889AB27B8813409BB2002B15
:1021BC0002D00123FB7301E00023FB73FB7B184669
:1021CC001437BD4680BC7047704710B5044601F00B
:1021DC0011FD204610BDC0F8481170470A2903DCD8
:1021EC00523100EB81014A6070470000034A0260E3
:1021FC000022A0F84621C0F8482170473843000857
:10220C00F0B49DF8105090F81441B1EB441F2CDA47
:10221C0090F81561B2EB061F27DAC1F347161709C0
:10222C0007FB04F4E4B23444E4B201F01F0101EB07
:10223C00441102F00F02C1F3CF0690F81641A4002E
:10224C0004FB026292B201F00701014491F81F11E4
:10225C00042B0AD8DFE803F003111D2A3200012DEC
:10226C0005D00068835C19438154F0BC704700684A
:10227C00835C23EA01018154F7E72DB90068835C84
:10228C0023EA01018154F0E70068835C194381540F
:10229C00EBE7012DE9D10068835C194202D10B43B5
:1022AC008354E2E723EA01038354DEE7012DDCD1FA
:1022BC000068835C23EA01018154D6E7012DD4D157
:1022CC000368985C0142D0D101439954CDE708B51D
:1022DC0039B990F8162192010021006801F0CCFE6A
:1022EC0008BD90F816219201FF21006801F0C4FE90
:1022FC0008BD000070B504460E461546164B03CBC0
:10230C00C4F81F01C4F8231104F5A47000F01CFFDD
:10231C0084F8146184F8155105FB06F0C0B284F8FA
:10232C0016010301A4F818314301A4F81A31C300B3
:10233C0003EB80039B00A4F81C31800101F080FCAE
:10234C00206001212046FFF7C2FF002384F81E31D4
:10235C0084F87831204670BD28430008F8B504464F
:10236C00079DBDF82860C0F83811C0F83C2100F575
:10237C00A4771946384600F0C2FE3146384600F0C4
:10238C00CAFEA4F84061069BC4F83431C4F8285145
:10239C00089BC4F82C31099BC4F830312B685B685E
:1023AC0028469847D4F82C0103685B689847D4F802
:1023BC00300103685B689847D4F83C0103689B685C
:1023CC001021984701212046FFF781FF002384F854
:1023DC001E31F8BD2DE9F04F87B002900C46154622
:1023EC009B46BDF940A09DF84430039392B2AAEBF2
:1023FC00020080B207B289B2ABEB01039BB21EB2F2
:10240C00002F1BDB4FF00109002E1CDB4FF00108E5
:10241C007F003BB20493760030B205900123009309
:10242C00039B0298FFF7ECFE049B0598834229DA84
:10243C00BFB2A7EB600A0FFA8AFA17E047423FB225
:10244C004FF0FF39E0E75B421EB24FF0FF38DFE799
:10245C0004EB080189B20CB2BA440FFA8AFA0123D0
:10246C000093039BAAB20298FFF7CAFE5C4526D0E4
:10247C00BAF1000FECDB4D442DB2AAEB060A0FFAB1
:10248C008AFAE5E71FFA86FB049BABEB630636B2D0
:10249C000CE005EB090292B215B25E4436B2012390
:1024AC000093039BA1B20298FFF7AAFE554506D0F4
:1024BC00002EEEDB444424B2F61B36B2E9E707B03B
:1024CC00BDE8F08F2DE9F04383B081460C46904671
:1024DC001D46BDF928709DF82C60AC420ADC0196B3
:1024EC0000972346424621464846FFF773FF0134C6
:1024FC0024B2F2E703B0BDE8F083F8B5044690F8D7
:10250C00783113B1012B6DD0F8BD00F5A4752846B8
:10251C0000F006FE00B9F8BDD4F84461B4F84001EF
:10252C00FEF7BAFA3146FEF70BFBFEF759FC81B207
:10253C00284600F0F0FD94F816319B000FFA83FE4C
:10254C0094F81E7107FB03F73FB200231D46734539
:10255C002ADA6A1C92B2D4F800C0FE18B4F91C1125
:10256C0031441CF80100611981F85801A91C89B289
:10257C00B4F91A0130441CF80000224482F85801C6
:10258C00EA1C92B2B4F9180130441CF80000214442
:10259C0081F858010435ADB21CF80610224482F8BB
:1025AC00581101331BB2D2E7D4F83C010368DB6845
:1025BC00D4F8381104F5AC720C319847D4F83C01BE
:1025CC0003685B6929469847D4F8340103685B6853
:1025DC009847D4F83C0103681B689847012384F89A
:1025EC007831F8BD00F5A475284600F099FD002857
:1025FC0091D0B4F84071D4F844114FF07E50FEF7EE
:10260C0095F906463846FEF747FA3146FEF798FA32
:10261C00FEF7E6FB81B2284600F07DFDD4F83C01C4
:10262C0003689B69984700283FF475AFD4F83C01C8
:10263C0003685B689847D4F8300103685B68984777
:10264C00D4F8340103681B68984794F81E31DBB248
:10265C00032B10D8DFE803F002182634D4F82C0131
:10266C0003685B689847D4F8280103685B6898474F
:10267C00012384F81E31D4F8300103681B68984795
:10268C00002384F8783146E7D4F82C0103685B68A2
:10269C009847D4F8280103681B689847022384F8EC
:1026AC001E31E8E7D4F82C0103681B689847D4F86E
:1026BC00280103685B689847032384F81E31DAE726
:1026CC00D4F82C0103681B689847D4F828010368D8
:1026DC001B689847002384F81E31CCE7C0F8101112
:1026EC007047202910D0D0F810311A7958799142BE
:1026FC0010DB104481420FDA891AC9B21A782AB950
:10270C005A781AB9987803E06E21ECE70631585CD8
:10271C0000B2704700207047002070472DE9F04F41
:10272C008BB09DF85040049490F81441B1EB441FC9
:10273C0000F3C38090F81541B2EB041F00F3C18085
:10274C00039202918246D0F81001C2780892202B95
:10275C0021D0089A90460732D2100692D2B2154672
:10276C000992017944798B42C0F2AF80621893428E
:10277C0080F2B1805B1AD9B203781BBB437863BB80
:10278C0083782A4601FB02F202FB03F292B2063274
:10279C0092B207922FE020215046FFF7A2FF044689
:1027AC00029803462344089A039D2A4412B201213D
:1027BC00019100921BB22A4601465046FFF782FE59
:1027CC00059484E0002213468A4209DA951D455D82
:1027DC002B449BB20132D2B2F6E700221346F3E748
:1027EC00099A02FB03F39BB223449BB206339BB2C0
:1027FC0007930631435C05935B42029A9A4266DB6F
:10280C00089B5B42039A9A4261DB4FF000094DE052
:10281C00012B45DD089BA3F1080541E0029B09EB68
:10282C000301039B5A1992B2224400230093049B88
:10283C0092B289B25046FFF7E3FC0134E4B2072CA4
:10284C001ADC2B19B3EBC70FF7DB9845F5DB4BFA0A
:10285C0004F212F0010FE1D0029B09EB0301039B80
:10286C005A1992B2224401230093049B92B289B26A
:10287C005046FFF7C5FCE0E7013EF6B23746FD2EA9
:10288C0010DCDAF81021079B4B44059906FB013349
:10289C0012F803B0F5009DF818305A1E9642B7D0C6
:1028AC000024CCE709F101095FFA89F9059B4B4536
:1028BC000DDD099B5E1EF6B2E0E74FF0FF3305938A
:1028CC0005E04FF0FF33059301E0002305930598D5
:1028DC000BB0BDE8F08F00230593F8E72DE9F04F1E
:1028EC0087B09DF840909DF844A090F81441B1EB4E
:1028FC00441F56DA8B46039290F81541B2EB041F35
:10290C004FDAD0F81041E478D4424AD41D460292F2
:10291C0007461FFA81F808F1FF3109B2144420B2BE
:10292C0005900123019300900B463846FFF752FDAA
:10293C0000263446CDF810A0AA4610E0002B30DB60
:10294C0004EB0B0397F81421B3EB421F29DA97F829
:10295C001531039AB2EB031F23DA013636B24E451A
:10296C001FDAA5B208EB05011AF80630049A00929A
:10297C00029A09B23846FFF7D1FE03B2002BDDDD17
:10298C000544ADB208EB050109B201230193059B87
:10299C0000930B46029A3846FFF71CFD01352CB20A
:1029AC00CEE707B0BDE8F08F08B541618261C36125
:1029BC000299043000F0A3FB08BD000010B50446DA
:1029CC00034B40F8043B00F0BFFB204610BD00BF9A
:1029DC005043000883780BB9808D7047008870478E
:1029EC002DE9F04F8DB00446051D284600F098FBEC
:1029FC0010B90DB0BDE8F08F284600F082FB60697D
:102A0C0000F06CFBFDF708FD0022354BFDF758FD7F
:102A1C00FDF768FF80B2334EA6FB003252096427E3
:102A2C0007FB120300250795089509950A950B9548
:102A3C00DFF8B8809BB2414607A801F0C4F8D4F87F
:102A4C001890D9F804A0B9F82800FEF721F88346AD
:102A5C0009F12A00FFF7BEFFFEF71AF801465846A7
:102A6C00FEF722F901465046FEF76AF8D9F808102D
:102A7C00FDF75EFF1C49FEF763F8FEF7B1F983B270
:102A8C00A6FB0312520907FB12330295039504951A
:102A9C00059506959BB2414602A801F094F80121D8
:102AAC00E069FFF714FCE76907A8FDF749FBC0B222
:102ABC0001260196009007AB2A4629463846FFF7B7
:102ACC000DFFE46902A8FDF73BFBC0B20196009034
:102ADC0002AB0F2229462046FFF700FF89E700BF13
:102AEC00000059401F85EB510000C84240430008CC
:102AFC0010B50446034B40F8043B00F0F9FA2046AD
:102B0C0010BD00BF5043000810B50446FFF7F0FF9E
:102B1C00204601F06FF8204610BD38B51D464161C6
:102B2C00041D1146204600F0EAFA2946204600F022
:102B3C00F2FA38BD38B50446051D284600F0F0FA07
:102B4C0000B938BD284600F0DCFA646923689B683C
:102B5C002046984720B923681B6820469847F0E721
:102B6C0023685B682046984738BD000010B50446C2
:102B7C00034B40F8043B00F0E7FA204610BD00BFC1
:102B8C006043000810B50446034B40F8043B00F0CA
:102B9C00AFFA204610BD00BF6043000810B50446D4
:102BAC00FFF7F0FF204601F025F8204610BD4368E2
:102BBC0018887047704710B5044601F01BF8204682
:102BCC0010BD416070470000014B0360704700BFAF
:102BDC0070430008704708B5416100F10C01806832
:102BEC00FEF7B4FA08BD08B5C160026100F10C0132
:102BFC008068FEF7ABFA08BD08B5816100F10C01E5
:102C0C008068FEF7A3FA08BD08B501218068FEF7BD
:102C1C0005FB08BD08B500218068FEF7FFFA08BD6A
:102C2C0010B5048B8068FEF715FB201A80B210BD1E
:102C3C0010B50446806BFEF719FB08B9002010BDD7
:102C4C00A06BFEF73BFB012010BD10B5044600F055
:102C5C00D1FF204610BD000010B5044641608260D3
:102C6C00C362029B0363002383624362802303627B
:102C7C0000F10C011046FEF769FAA368264A93424C
:102C8C0021D0264A934221D0254A934221D0254A6D
:102C9C00934222D0244A934223D0244A934224D0F4
:102CAC00234A934225D0234A934226D0224A934268
:102CBC0026D0224A934226D0214A934226D0214A3A
:102CCC00934226D010BD0223A36310BD2023A3631F
:102CDC0010BD4FF40073A36310BD4FF40053A363F6
:102CEC0010BD4FF40033A36310BD4FF40013A36366
:102CFC0010BD4FF00073A36310BD134BA36310BD45
:102D0C00124BA36310BD124BA36310BD114BA363F5
:102D1C0010BD114BA363D5E7080002401C00024014
:102D2C003000024044000240580002406C00024057
:102D3C0080000240080402401C040240300402409F
:102D4C00440402405804024002000010200000100D
:102D5C0000020010002000100000021010B5044604
:102D6C00044B40F80C3BFEF72FFA0023636020461F
:102D7C0010BD00BF844300084268136981680B438F
:102D8C001361704742681369C1680B431361704744
:102D9C0043689A6883681A4214BF01200020704768
:102DAC00704710B5044600F025FF204610BD0F2AD1
:102DBC0008DC4160012303FA02F18160103203FA4E
:102DCC0002F2C26070470000024A026000224260B8
:102DDC0082607047B0430008704708B503890C2B1C
:102DEC0018D8DFE803F0071717170B1717170F176B
:102DFC00171713004068FEF7ABFE08BD4068FEF7DE
:102E0C00B3FE08BD4068FEF7BBFE08BD4068FEF788
:102E1C00C3FE08BD002008BD08B503890C2B28D8BB
:102E2C00DFE803F0072727270F2727271727272750
:102E3C001F0002214068FEF7BCFE003018BF0120C5
:102E4C0008BD04214068FEF7B4FE003018BF012015
:102E5C0008BD08214068FEF7ACFE003018BF012009
:102E6C0008BD10214068FEF7A4FE003018BF0120F9
:102E7C0008BD002008BD10B5044600F0BBFE20467E
:102E8C0010BD416002817047014B0360704700BF69
:102E9C00CC4300084368988C80B27047704710B5DB
:102EAC00044600F0A7FE204610BD416070470000AC
:102EBC00014B0360704700BFE443000800207047DB
:102ECC007047704710B5044600F094FE204610BDC4
:102EDC0010B5044600F08EFE204610BD41607047D0
:102EEC00074A0260074981600022C260C0F8542181
:102EFC00C0F85811C0F85C21C0F8A422704700BF7C
:102F0C0008440008F8430008D0F84C21406882427D
:102F1C0014BF00200120704708B500F5AC70FFF716
:102F2C00F3FF80F00100C0B208BD00000131064B78
:102F3C00A3FB0123C81A03EB50031B0A40F24310F6
:102F4C0000FB1310704700BFBFB0CB9538B50446DB
:102F5C000D464168FFF7EAFFD4F84C31984206D091
:102F6C0063682A7823441A726060012038BD0020FF
:102F7C0038BDF0B583B0074616460024B4420DDACE
:102F8C004D1C0B7802A901F8013D07F10800FFF771
:102F9C00DDFF18B10134A4B22946EFE7204603B097
:102FAC00F0BD70B582B006460D4600242B785BB19F
:102FBC00013502A901F8013D06F10800FFF7C6FF33
:102FCC0010B10134A4B2F1E7204602B070BD10B5C7
:102FDC0082B0044620214068FFF7DBF808B902B044
:102FEC0010BD6068FFF7C6F802A901F8010D04F5E1
:102FFC00AC70FFF7ABFFF2E7D0F84C2143689A4274
:10300C000ED010B50446D0F84C3103441B7A0B702B
:10301C00D0F84C11FFF78AFFC4F84C01012010BD09
:10302C000020704710B582B0044603689B6898472F
:10303C0010B9002002B010BD0DF1070104F5AC7001
:10304C00FFF7DAFF9DF80700F4E730B583B00446CC
:10305C0000F108052846FFF757FF08B103B030BD53
:10306C0080216068FFF795F80028F7D00DF1070173
:10307C002846FFF7C1FF9DF807106068FFF769F855
:10308C00ECE710B50446FFF7E0FF2046FFF79FFF83
:10309C0010BD704710B5044600F0ACFD204610BDC5
:1030AC004160704738B50446406803681B68984710
:1030BC0000B938BD606803685B6898470546608155
:1030CC002089281A80B2FDF7E7FC01460248FDF77B
:1030DC00EBFDE0602581ECE700007A44C0687047A6
:1030EC00024A02600022C260704700BF2C440008F4
:1030FC00704710B5044600F07DFD204610BD4160C0
:10310C00704710B50446406803681B689847608197
:10311C000023237310BD08B50181FFF7F2FF08BD32
:10312C0010B50446037B0BB1207B10BD40680368CF
:10313C001B6898476389C01A80B223899842F3DBD5
:10314C0001232373F0E70000014B0360704700BFBD
:10315C003C44000800230B70704700238370838568
:10316C00704710B504460630FFF7F7FF00232360C5
:10317C000023A38010BD10B504461423C380002384
:10318C00037243860630FFF7E8FF2046FFF7E9FF9E
:10319C00204610BD0388994211DC10B4847814B910
:1031AC00828D91420DDA828D04FB021191FBF3F2B8
:1031BC0003FB121100EB4100808810BC704700200B
:1031CC0070470020F9E7838D00EB430291805A1C75
:1031DC00018892FBF1F301FB13239BB283850BB99E
:1031EC0001238370704780787047F8B506460F4608
:1031FC00851D2846FFF7F7FFA8B100212846FFF7E9
:10320C00C9FF044639462846FFF7DDFF2846FFF77D
:10321C00E1FB411E89B22846FFF7BCFF001BB488B6
:10322C002044B080F8BD0024ECE700002DE9F04FFD
:10323C00ADF2E47D00F02EFB4FF44040FEF728F990
:10324C0001216348FEF72CFA01214FF40770FEF7B9
:10325C0009FA01210846FEF7E7F90DF2D470FEF7E2
:10326C00B7FB4FF6FF74ADF8D84740F2CF23ADF85B
:10327C00D437584D0DF2D4712846FEF7D9FA0121F6
:10328C002846FEF7D6FB0DF2D470FEF7A1FBADF885
:10329C00D84741F61F43ADF8D4370DF2D4714FF037
:1032AC008040FEF7C5FA01214FF08040FEF7C1FBCC
:1032BC004FF40053ADF8D03702248DF8D2471423C5
:1032CC008DF8D33705F586350DF5FA612846FEF7EE
:1032DC000FF80DF5F960FFF7EBFD4FF080410DF5A0
:1032EC00F960FFF7E2FD0DF5F760FFF76DFD0D22BC
:1032FC0029460DF5F760FFF75AFD0DF5F460FFF761
:10330C0035FC41F288330DF5F9620DF5F7610DF5D9
:10331C00F460FFF702FC4FF40063ADF8D0378DF882
:10332C00D24704238DF8D337A5F580650DF5FA61E6
:10333C002846FDF7DDFF4FF48063ADF8D0378DF8EC
:10334C00D24718238DF8D3370DF5FA612846FDF7CF
:10335C00CFFF4FF41653CDF890370023ADF89C37C0
:10336C000C22ADF89A27ADF89837ADF89637ADF832
:10337C009437194C0DF5F2612046FEF711FE012130
:10338C002046FEF7C7FE0DF59D60FFF7A9FD21460F
:10339C000DF59D60FFF7A2FD01250DF59B64002D39
:1033AC0005DB2046FFF710FC0834013DF7E700244D
:1033BC00012C13DC0DF2D44303EB44010DF59B639C
:1033CC0003EBC400FFF7FDFB0134A4B2F0E700BF30
:1033DC000340040000040040004800400DF5FA6072
:1033EC00FEF742F84FF00308ADF8D08700258DF8B2
:1033FC00D357DC4F0DF5FA613846FDF779FF0DF523
:10340C009560FDF7E1FE4FF48063CDF8C4344FF4C2
:10341C008073CDF8C034CDF8B0548023CDF8BC34D3
:10342C002023CDF8C8340226CDF8B464CDF8CC54A2
:10343C000DF2D443CDF8AC34CB4BCDF8A834CB4CF7
:10344C000DF595612046FDF781FE01212046FDF723
:10345C00E5FE0DF29440FDF735FD01248DF89944FD
:10346C008DF8A4648DF89844DFF820930DF2944104
:10347C004846FDF7D5FC0723224629464846FDF76A
:10348C009CFD0723324621464846FDF796FDD9F8A8
:10349C00083043F46023C9F8083021464846FDF74C
:1034AC0047FD21464846FDF728FD21464846FDF7D5
:1034BC0069FD4846FDF757FD0DF5FA60FDF7D4FFA1
:1034CC004023ADF8D03704238DF8D3378DF8D2676D
:1034DC000DF5FA613846FDF70BFF0DF59160FEF71F
:1034EC0090FAADF88854ADF88C44ADF88A644FF07E
:1034FC00090AADF890A4A9F590390DF591614846EB
:10350C00FEF712FA0DF27C40FFF7BEFC2A46494644
:10351C000DF27C40FFF7B5FC0DF5FA60FDF7A4FF4A
:10352C004FF42043ADF8D0378DF8D2874FF01809FF
:10353C008DF8D3970DF5FA618D48FDF7D9FE0DF591
:10354C00FA60FDF791FF4FF4A043ADF8D0378DF83A
:10355C00D2874FF0100B8DF8D3B70DF5FA61844874
:10356C00FDF7C6FE0DF26C40FFF72EFC0E228049D3
:10357C000DF26C40FFF71BFC0DF25C40FFF724FCD6
:10358C000C227B490DF25C40FFF711FC0DF5FA6043
:10359C00FDF76AFF4FF44073ADF8D0378DF8D28742
:1035AC008DF8D3B70DF5FA613846FDF7A1FE0DF293
:1035BC004C40FFF709FC524639460DF24C40FFF7E0
:1035CC00F6FB0DF23C40FFF7FFFB082239460DF2EB
:1035DC003C40FFF7ECFB0DF58060FFF7BFFB4FF4B1
:1035EC00405300932B46634A63490DF58060FFF707
:1035FC0033FBFBA8FEF7B5F84FF48273ADF8EE334E
:10360C004FF44043ADF8EC33ADF8F8934FF400733E
:10361C00ADF8F633594DFBA92846FEF75FF8224664
:10362C0031462846FEF7E0F821462846FEF7BDF85D
:10363C00F7A8FFF755FD0DF27C41F7A8FFF730FD19
:10364C00CBAD002C14DB28464D4B40F80C3BFFF760
:10365C007BFD05F12400FFF78EFD00232B624FF05C
:10366C007E526A600022AA60EB615835013CE8E7A3
:10367C00012202216CA8FEF73DFE42496CA8FFF71F
:10368C002DF80A2304930DF26C4303930DF23C4383
:10369C0002930DF24C4301930DF25C4300930DF534
:1036AC00F9630DF5806235496CA8FEF757FE0024CE
:1036BC00012C1CDC0DF59B6303EBC403582505FBA7
:1036CC0004F5CBAA2A4413620DF5F961D16105F119
:1036DC000800CBAB18440430FFF711FD2035CBAB01
:1036EC001D44281DFFF73DFD0134A4B2E0E764A89A
:1036FC00FFF764F90DF5F96300936CABCBAAF7A94E
:10370C0064A8FFF751F907A8FEF770FD0DF59D6150
:10371C0007A8FEF760FD1C4A002107A8FEF75EFD16
:10372C0040E00134A4B2012C32DC5825CBAB05FBB4
:10373C000435EB69002BF4D005F10C063046FFF78D
:10374C00EFFC0028EDD03046FFF7DBFC05F124063A
:10375C00286A03681B68984701463046FFF745FD09
:10376C00DFE700BF000801404C2401400800024084
:10377C00000C01405800024000000240003800409C
:10378C004C440008544400086131000800240140F6
:10379C0064A8FFF725F96CA8FEF7AFFE0DF5F460F1
:1037AC00FFF7C8F90DF59D60FFF76BFCF7A8FFF765
:1037BC0079FC0024B7E700BF10B50446034B40F872
:1037CC000C3BFFF795FC204610BD00BF4C44000895
:1037DC0010B50446044B40F80C3BFFF789FC20461F
:1037EC0000F008FA204610BD4C440008DFF834D035
:1037FC00002103E00C4B5B58435004310B480C4B3D
:10380C0042189A42F6D30B4A02E0002342F8043BDA
:10381C00094B9A42F9D300F03DF800F0EDF9FFF7AF
:10382C0005FD7047005000201449000800000020DE
:10383C0018050020180500207C050020FEE780B448
:10384C0000AF00BFBD4680BC704780B400AFFEE740
:10385C0080B400AFFEE780B400AFFEE780B400AFE9
:10386C00FEE780B400AF00BFBD4680BC704780B49B
:10387C0000AF00BFBD4680BC704780B400AF00BF36
:10388C00BD4680BC704780B400AF00BFBD4680BC55
:10389C007047000080B500AF154A154B1B6843F00C
:1038AC00010313601249124B5A68124B13404B60C0
:1038BC000F4A0F4B1B6823F0847323F4803313607F
:1038CC000B4A0B4B1B6823F480231360084A084BEC
:1038DC005B6823F4FE035360054B4FF41F029A60A0
:1038EC0000F00CF8044B4FF000629A6000BF80BDF2
:1038FC00001002400000FFF800ED00E080B500AFC2
:10390C0000F002F800BF80BD80B483B000AF00238C
:10391C007B6000233B603A4A394B1B6843F480338D
:10392C001360374B1B6803F400333B607B68013337
:10393C007B603B68002B03D17B68B3F5A06FF0D1A3
:10394C002F4B1B6803F40033002B02D001233B6088
:10395C0001E000233B603B68012B4BD1294A294BEA
:10396C001B6843F010031360264A264B1B6823F098
:10397C0003031360234A234B1B6843F002031360B9
:10398C001F4A1F4B5B6853601D4A1D4B5B6853609D
:10399C001B4A1B4B5B6843F480635360184A184BFB
:1039AC005B6823F47C135360154A154B5B6843F436
:1039BC00E8135360124A124B1B6843F08073136078
:1039CC0000BF0F4B1B6803F00073002BF9D00C4A9F
:1039DC000B4B5B6823F003035360094A084B5B688D
:1039EC0043F00203536000BF054B5B6803F00C030C
:1039FC00082BF9D100BF0C37BD4680BC704700BF07
:103A0C00001002400020024080B487B000AFF86084
:103A1C00B9607A6001237B6104E07B697A6802FB00
:103A2C0003F37B617B69BA68B2FBF3F27B689A4261
:103A3C00F3D229E07B69BA68B2FBF3F33B617A6994
:103A4C00BB68B3FBF2F102FB01F29B1ABB607A6913
:103A5C007B6892FBF3F37B613B69092B0ADDFB6806
:103A6C001B68591CFA6811603A69D2B23732D2B26B
:103A7C001A7009E0FB681B68591CFA6811603A69F6
:103A8C00D2B23032D2B21A707B69002BD2D100BFC5
:103A9C001C37BD4680BC704780B588B000AFF8605D
:103AAC00B9607A60FB687B617DE0BB681B78252B75
:103ABC0071D1BB680133BB60BB681B78642B1ED013
:103ACC00642B06DC582B50D0632B0ED0252B58D0F2
:103ADC005DE0732B2BD0732B02DC692B0FD056E0DF
:103AEC00752B37D0782B40D051E0FB685A1CFA600C
:103AFC007A68111D79601268D2B21A7047E07B683F
:103B0C001A1D7A601B68FB61FB69002B07DAFB69E5
:103B1C005B42FB61FB685A1CFA602D221A70F96932
:103B2C0007F10C030A221846FFF76EFF2FE07B68A3
:103B3C001A1D7A601B68BB6107E0FB685A1CFA60AF
:103B4C00BA69511CB96112781A70BB691B78002BC9
:103B5C00F3D11CE07B681A1D7A60196807F10C031D
:103B6C000A221846FFF750FF11E07B681A1D7A6095
:103B7C001B68194607F10C0310221846FFF744FF87
:103B8C0005E0FB685A1CFA6025221A7000BFBB685E
:103B9C000133BB6007E0FB685A1CFA60BA68511C21
:103BAC00B96012781A70BB681B78002B7FF47DAF5C
:103BBC00FB6800221A70FB681A467B69D31A1846F8
:103BCC002037BD4680BD0EB480B585B000AF78609F
:103BDC0007F12003BB60BA68F9697868FFF75CFFEE
:103BEC00F860FB6818461437BD46BDE8804003B04A
:103BFC007047000000F02CB870B500250C4E0D4C31
:103C0C00A41BA410A54209D100F07CFB00250A4E90
:103C1C000A4CA41BA410A54205D170BD56F8253042
:103C2C0098470135EEE756F8253098470135F2E70D
:103C3C000C4900080C4900080C4900081049000800
:103C4C00024B0146186800F00BB800BF240400209A
:103C5C00024B0146186800F089BA00BF240400200A
:103C6C002DE9F74F01F10B04162C814607D934F0DE
:103C7C00070405D50C23C9F80030002631E11024C7
:103C8C008C42F7D3484600F0FFF9B4F5FC7F9B4D0E
:103C9C0036D204F108022A445668A2F108018E4279
:103CAC004FEAD40302D1D668B24210D07368F268DE
:103CBC00B16823F00303CA60334491605A6842F040
:103CCC0001025A60484600F0E5F9083609E1023372
:103CDC008B4A2E69114696426DD0706820F0030015
:103CEC00071B0F2F47DD331944F0010474606B611F
:103CFC002B61DA609A6047F001025A603750E1E7B5
:103D0C00630A2AD0042B12D8A30938335A1C05EBAA
:103D1C00C2025668A2F10800864206D0726822F0F0
:103D2C000302111B0F291CDD013B0133D0E7142BBF
:103D3C0001D85B33EAE7542B02D8230B6E33E5E74B
:103D4C00B3F5AA7F02D8E30B7733DFE740F2545286
:103D5C00934204D8A30C7C33D8E73F23D6E77E23C9
:103D6C00D4E70029F16804DBB368D9608B60B31821
:103D7C00A4E70E46D0E7002F6A612A6105DB3044C8
:103D8C00436843F0010343609CE7B0F5007F44D2E5
:103D9C000122C008871002FA07F76A6801303A431B
:103DAC006A6055F8307005EBC002083AF260B760F3
:103DBC0045F83060FE6001209A1000FA02F2686843
:103DCC00824200F29F80024206D123F0030352008C
:103DDC00024203F10403FAD005EBC30CE0469E4605
:103DEC00D8F80C60464553D10EF1010E1EF0030FAE
:103DFC0008F10808F4D1980779D16B6823EA02031B
:103E0C006B606868520082427CD8002A7AD0734674
:103E1C000242E1D104335200FAE7420A042A15D8CF
:103E2C0082093832571C55F8377005EBC20EBE4567
:103E3C0026D10120921000FA02F2686810436860E3
:103E4C00C6F80CE0B760CEF80860B3E7142A01D8C6
:103E5C005B32E7E7542A02D8020B6E32E2E7B2F586
:103E6C00AA7F02D8C20B7732DCE740F25457BA4231
:103E7C009ABF820C7C327E22D4E7BF68BE4504D048
:103E8C007A6822F003029042F7D3D7F80CE0D7E718
:103E9C007068F76820F00300A0EB040ABAF10F0F6A
:103EAC0010DDB268331944F001047460D760BA6055
:103EBC004AF001026B612B61D96099605A6046F837
:103ECC0000A0FFE6BAF1000F0FDB3044436843F06B
:103EDC000103436056F8083F4846DF60BB6000F0C2
:103EEC00D9F8304603B0BDE8F08F3E467AE75CF86F
:103EFC000809013B84453FF47EAF82E714000020A3
:103F0C001C000020D5F808B0DBF8046026F003068E
:103F1C00B44203D8331B0F2B00F395804F4A0BEBA5
:103F2C00060317684E4A103711682744013105D033
:103F3C004C4901390F44013149420F40394648463A
:103F4C000192009300F0ACF8B0F1FF3F804655D0E1
:103F5C00009B019A834201D9AB454FD1424843455E
:103F6C000168824607EB010EC0F800E03F4913D10F
:103F7C000B4211D1AB683E4446F001065E603C4AF0
:103F8C00DAF8003011688B4288BF1360394A116827
:103F9C008B4288BF136031E0106801301BBFA8EB67
:103FAC0003037344C2F80080CAF8003018F007000D
:103FBC001CBFC0F1080080442A4B474418440F40F2
:103FCC00C71B3946484600F06BF8431C04BF4046FB
:103FDC000027DAF80030A0EB08003B44074447F018
:103FEC000107AB45C5F80880CAF80030C8F8047062
:103FFC00C5D00F2E10D80123C8F80430AB685A680E
:10400C0022F003029442A2EB040301D80F2B1ADC1A
:10401C00484600F03FF830E60522DBF804300C3E51
:10402C0026F0070603F001033343CBF804300F2EC0
:10403C000BEB06035A609A60A1D90BF108014846B4
:10404C0000F094F89BE7AE6844F0010243F00103E2
:10405C0034447260AC60636034E600BF64050020D9
:10406C001C04002080000000340500207F000000AC
:10407C005C0500206005002003460244934200D1F9
:10408C00704703F8011BF9E7014800F02BB900BF9A
:10409C0070050020014800F026B900BF7005002013
:1040AC0038B50023054C05460846236000F01CF982
:1040BC00431C02D1236803B12B6038BD7805002066
:1040CC002DE9F8438946254F0646FFF7DDFFBB680F
:1040DC00DFF894805D68A8F1110425F00305A4EBCA
:1040EC0009042C44B4FBF8F4013C08FB04F44445EB
:1040FC0005DA3046FFF7CEFF0020BDE8F88300213B
:10410C003046FFF7CDFFBB682B449842F1D161429A
:10411C003046FFF7C5FF013010D100213046FFF7C4
:10412C00BFFFBA68831A0F2BE3DD0D4943F001037F
:10413C0009685360401A0B490860DAE7BB68094A02
:10414C002D1B45F001055D60136830461C1B146087
:10415C00FFF7A0FF0120BDE8F88300BF140000208A
:10416C001C04002034050020800000002DE9F041E3
:10417C0004468846002900F0AB80FFF785FF58F80D
:10418C00042C544D22F00100A8F108031F18A96853
:10419C007E688F4226F0030602F001021BD13044E8
:1041AC003AB958F8082C9B1A99681044DA68CA6016
:1041BC00916040F001025A60AB60474B1B6898421B
:1041CC0004D3464B20461968FFF77AFF2046BDE81A
:1041DC00F041FFF75FBF7E60002A39D158F8081C08
:1041EC0005F1080E5B1A08449968714532D0D3F872
:1041FC000CE0C1F80CE0CEF80810B9194968C907F1
:10420C000AD43044B9683ABB354EB14224D10122AC
:10421C006B612B61D960996040F0010159601850B5
:10422C00002AD3D1B0F5007F1AD20122C008811028
:10423C008A40696801300A436A6055F8301005EB12
:10424C00C002083ADA60996045F83030CB60BDE7BF
:10425C000022D2E70122D0E7FE68CE60B160DBE736
:10426C00420A042A13D882093832511C55F83110ED
:10427C0005EBC2068E4224D10120921000FA02F204
:10428C00686802436A60DE609960B360DEE7142AF6
:10429C0001D85B32E9E7542A02D8020B6E32E4E70C
:1042AC00B2F5AA7F02D8C20B7732DEE740F2545146
:1042BC008A429ABF820C7C327E22D6E789688E4273
:1042CC0004D04A6822F003029042F7D3CE68DAE7B2
:1042DC00BDE8F081140000202004002064050020BB
:1042EC001C00002070477047044B0246196809B93E
:1042FC0003491960186802441A6070476805002069
:10430C007C050020F8B500BFF8BC08BC9E46704781
:0C431C00F8B500BFF8BC08BC9E46704716
:104328008040201008040201000000000000000086
:10433800D5210008D721000825642E2564487A0075
:104348000000000000000000FD2A0008152B0008EE
:104358000000000000000000912B0008A92B0008B5
:104368000000000000000000BB2B0008C12B000863
:10437800C32B00080000000000000000152C0008F6
:10438800212C0008E32B0008F32B00082D2C000833
:10439800052C00083D2C0008E12B0008572C0008CC
:1043A8000000000000000000852D0008912D000885
:1043B8009D2D0008AD2D0008AF2D0008000000005D
:1043C80000000000252E0008E72D0008E52D000854
:1043D800832E00080000000000000000A12E000845
:1043E800A92E0008AB2E0008000000000000000005
:1043F800CF2E0008D12E00080000000000000000A9
:104408007F2F0008AF2F0008252F0008C92E0008AD
:1044180031300008CD2E0008DD2E00080000000015
:10442800000000009F300008A130000800000000D4
:1044380000000000FD300008FF3000080000000008
:1044480000000000C5370008DD3700081E6C0A0EA2
:10445800206000010308070A080103030507010497
:1044680001040603060607060606060601010606F7
:1044780006060D09070808070709070105080709BF
:104488000709070908070707090D080908020402B0
:1044980005080206060506060406060102060109C5
:1044A80006060606040504060709060706030103AF
:1044B8000707FE141E001E0000009090F89690F862
:1044C8009690001C00001C000000182422FF4242A5
:1044D800840810103C1008041C22221CC0308C4296
:1044E80040800000100C00000C10100C805C226250
:1044F800920C80000C101010100C08101E00F00C0C
:10450800021C6080020CF080601C04140E1404006D
:1045180000000000404040F84040400000000C000F
:10452800000000708080808000000000001000C043
:10453800380618040000FC02020202FC0C101010DD
:10454800100C0804FE00001C0C020282423C1018E9
:10455800141010100C02222222DC0C101010100C67
:104568008040300804FE0004040404041C043816C7
:10457800121212E20C1010101804F844222222C45D
:104588000C101010100C020202E21A0600001C00A7
:104598000000DC22222222DC0C101010100C3C42FD
:1045A800424222FC0810101008040810087040A0AD
:1045B800A0101008000000040408909090909090BB
:1045C800000000000000081010A0A040080404002B
:1045D80000000C028242221C000014000000E018B7
:1045E80004C422121212A2720408F00C30404C903B
:1045F8009090889C90504C200080E09C829CE080A9
:1046080000180400000000000418FE2222222222C2
:10461800DC1C10101010100CF8040202020204082E
:104628000408101010100804FE020202020204F826
:104638001C10101010100804FE2222222222221C14
:10464800101010101010FE2222222222021C00003C
:1046580000000000F804020202424244C8040810A4
:10466800101010100804FE2020202020FE1C00003E
:104678000000001CFE1C00000000FE0C1010100CB6
:10468800FE804020508804021C000000000408102E
:10469800FE0000000000001C101010101010FE0C8E
:1046A80030C000C0300CFE1C000004180400001CC0
:1046B800FE0418608000FE1C00000004081CF804BA
:1046C800020202020204F804081010101010080474
:1046D800FE42424242423C1C000000000000F80436
:1046E800020202020204F8040810101014081C1038
:1046F800FE424242C242423C1C0000000004081034
:104708001C22222242428C0C10101010100C0202A3
:1047180002FE0202020000001C000000FE00000071
:104728000000FE04081010100804061860800080BD
:104738006018060000000418040000000638C000D5
:10474800C03C023CC000C038060000041804000049
:10475800000418040000020C906060900C02100C19
:10476800000000040C1002041820C02018040200E5
:104778000000001C0000000000028242221A06020B
:104788001018141010101010FE02FC800638C0001B
:104798000000041802FE80FC201C021C20000000FF
:1047A8000000000000000000000080808080808001
:1047B8008080020400001088484848F00C1010104F
:1047C800081CFE10080808F01C081010100CF0084F
:1047D8000808100C10101008F008080810FE0C103B
:1047E8001010081CF048484848700C1010101008A9
:1047F80008FC0A0A001C0000F008080810F84C9091
:104808009090887CFE10080808F01C000000001C2E
:10481800FA1C00FA807CFE8040A010081C000000F2
:104828000C10FE1CF8100808F0100808F01C000016
:10483800001C0000001CF810080808F01C0000000C
:10484800001CF008080808F00C101010100CF810E4
:10485800080808F0FC081010100CF008080810F8F8
:104868000C10101008FCF81008081C000000304854
:10487800484890081010100C08FE0808001C10107A
:10488800F800000000F80C101010081C18608000D8
:104898008060180000041804000018E000E018E028
:1048A80000E0180004180400041804000830C0C010
:1048B8003008100C00000C10186080008060180090
:1048C800808C700C000008088868180810181410EC
:1048D8001010807C02007C80FEFC027C80807C00C2
:1048E8004020206040402000000000000000FC0440
:0C48F80004040404FC1C10101010101C20
:08490400FCF2FF7F010000003E
:04490C00310100086D
:044910000D0100088D
:104914000000000001020304010203040607080961
:10492400020406080000000000000000140000203B
:10493400140000201C0000201C0000202400002083
:10494400240000202C0000202C0000203400002033
:10495400340000203C0000203C00002044000020E3
:10496400440000204C0000204C0000205400002093
:10497400540000205C0000205C0000206400002043
:10498400640000206C0000206C00002074000020F3
:10499400740000207C0000207C00002084000020A3
:1049A400840000208C0000208C0000209400002053
:1049B400940000209C0000209C000020A400002003
:1049C400A4000020AC000020AC000020B4000020B3
:1049D400B4000020BC000020BC000020C400002063
:1049E400C4000020CC000020CC000020D400002013
:1049F400D4000020DC000020DC000020E4000020C3
:104A0400E4000020EC000020EC000020F400002072
:104A1400F4000020FC000020FC0000200401002021
:104A2400040100200C0100200C01002014010020CE
:104A3400140100201C0100201C010020240100207E
:104A4400240100202C0100202C010020340100202E
:104A5400340100203C0100203C01002044010020DE
:104A6400440100204C0100204C010020540100208E
:104A7400540100205C0100205C010020640100203E
:104A8400640100206C0100206C01002074010020EE
:104A9400740100207C0100207C010020840100209E
:104AA400840100208C0100208C010020940100204E
:104AB400940100209C0100209C010020A4010020FE
:104AC400A4010020AC010020AC010020B4010020AE
:104AD400B4010020BC010020BC010020C40100205E
:104AE400C4010020CC010020CC010020D40100200E
:104AF400D4010020DC010020DC010020E4010020BE
:104B0400E4010020EC010020EC010020F40100206D
:104B1400F4010020FC010020FC010020040200201C
:104B2400040200200C0200200C02002014020020C9
:104B3400140200201C0200201C0200202402002079
:104B4400240200202C0200202C0200203402002029
:104B5400340200203C0200203C02002044020020D9
:104B6400440200204C0200204C0200205402002089
:104B7400540200205C0200205C0200206402002039
:104B8400640200206C0200206C02002074020020E9
:104B9400740200207C0200207C0200208402002099
:104BA400840200208C0200208C0200209402002049
:104BB400940200209C0200209C020020A4020020F9
:104BC400A4020020AC020020AC020020B4020020A9
:104BD400B4020020BC020020BC020020C402002059
:104BE400C4020020CC020020CC020020D402002009
:104BF400D4020020DC020020DC020020E4020020B9
:104C0400E4020020EC020020EC020020F402002068
:104C1400F4020020FC020020FC0200200403002017
:104C2400040300200C0300200C03002014030020C4
:104C3400140300201C0300201C0300202403002074
:104C4400240300202C0300202C0300203403002024
:104C5400340300203C0300203C03002044030020D4
:104C6400440300204C0300204C0300205403002084
:104C7400540300205C0300205C0300206403002034
:104C8400640300206C0300206C03002074030020E4
:104C9400740300207C0300207C0300208403002094
:104CA400840300208C0300208C0300209403002044
:104CB400940300209C0300209C030020A4030020F4
:104CC400A4030020AC030020AC030020B4030020A4
:104CD400B4030020BC030020BC030020C403002054
:104CE400C4030020CC030020CC030020D403002004
:104CF400D4030020DC030020DC030020E4030020B4
:104D0400E4030020EC030020EC030020F403002063
:104D1400F4030020FC030020FC0300200404002012
:104D2400040400200C0400200C040020FFFFFFFFFB
:104D34000000020028040020000000000000000021
:104D4400000000000000000000000000000000005F
:104D5400000000000000000000000000000000004F
:104D6400000000000000000000000000000000003F
:104D7400000000000000000000000000000000002F
:104D8400000000000000000000000000000000001F
:104D9400000000000000000000000000000000000F
:104DA40000000000000000000000000000000000FF
:104DB40000000000000000000000000000000000EF
:104DC40000000000000000000000000000000000DF
:104DD40000000000000000000000000000000000CF
:104DE40000000000000000000000000000000000BF
:104DF40000000000000000000000000000000000AF
:104E0400000000000000000000000000000000009E
:104E1400000000000000000000000000000000008E
:084E2400000000000000000086
:04000005080037F9BF
:00000001FF
