:020000040800F2
:1000000000500020D52700082728000833280008C2
:10001000392800083F280008452800080000000093
:100020000000000000000000000000004B28000855
:100030005728000800000000632800086F28000807
:10004000252800082528000825280008252800085C
:10005000252800082528000825280008252800084C
:10006000252800082528000825280008252800083C
:10007000252800082528000825280008252800082C
:10008000252800082528000825280008252800081C
:10009000252800082528000825280008252800080C
:1000A00025280008252800082528000825280008FC
:1000B00025280008252800082528000825280008EC
:1000C00025280008252800082528000825280008DC
:1000D00025280008252800082528000825280008CC
:1000E0002528000825280008252800080000000011
:1000F0000000000000000000000000000000000000
:0C01000000000000000000005FF808F1A3
:10010C0010B5054C237833B9044B13B10448AFF345
:10011C0000800123237010BD180500200000000092
:10012C00EC32000808B5034B1BB103490348AFF38D
:10013C00008008BD000000001C050020EC32000807
:10014C0080F0004002E000BF81F0004142001FBF80
:10015C005FEA410392EA030F7FEA226C7FEA236C89
:10016C006AD04FEA1262D2EB1363C1BFD21841407E
:10017C0048404140B8BF5B42192B88BF704710F014
:10018C00004F40F4000020F07F4018BF404211F0B7
:10019C00004F41F4000121F07F4118BF494292EA1F
:1001AC00030F3FD0A2F1010241FA03FC10EB0C004B
:1001BC00C3F1200301FA03F100F0004302D54942D8
:1001CC0060EB4000B0F5000F13D3B0F1807F06D385
:1001DC0040084FEA310102F10102FE2A51D2B1F17D
:1001EC00004F40EBC25008BF20F0010040EA030072
:1001FC007047490040EB000010F4000FA2F101021F
:10020C00EDD1B0FA80FCACF1080CB2EB0C0200FAA8
:10021C000CF0AABF00EBC25052421843BCBFD040F6
:10022C001843704792F0000F81F4000106BF80F470
:10023C0000000132013BB5E74FEA41037FEA226C33
:10024C0018BF7FEA236C21D092EA030F04D092F0FE
:10025C00000F08BF0846704790EA010F1CBF002032
:10026C00704712F07F4F04D1400028BF40F000408F
:10027C00704712F100723CBF00F50000704700F0AF
:10028C00004343F0FE4040F4000070477FEA2262D6
:10029C0016BF08467FEA23630146420206BF5FEAA7
:1002AC00412390EA010F40F4800070474FF00003A7
:1002BC0004E000BF10F0004348BF40425FEA000C6E
:1002CC0008BF704743F0964301464FF000001CE016
:1002DC0050EA010208BF70474FF000030AE000BF6C
:1002EC0050EA010208BF704711F0004302D54042AA
:1002FC0061EB41015FEA010C02BF8446014600201C
:10030C0043F0B64308BFA3F18053A3F50003BCFA36
:10031C008CF2083AA3EBC25310DB01FA02FC6344E3
:10032C0000FA02FCC2F12002BCF1004F20FA02F2EA
:10033C0043EB020008BF20F00100704702F12002DD
:10034C0001FA02FCC2F1200250EA4C0021FA02F23E
:10035C0043EB020008BF20EADC7070474FF0FF0C43
:10036C001CEAD0521EBF1CEAD15392EA0C0F93EA3E
:10037C000C0F6FD01A4480EA010C400218BF5FEAE0
:10038C0041211ED04FF0006343EA501043EA511153
:10039C00A0FB01310CF00040B1F5000F3EBF49004D
:1003AC0041EAD3715B0040EA010062F17F02FD2A51
:1003BC001DD8B3F1004F40EBC25008BF20F0010034
:1003CC00704790F0000F0CF0004C08BF49024CEA4B
:1003DC00502040EA51207F3AC2BFD2F1FF0340EADD
:1003EC00C250704740F400004FF00003013A5DDC4E
:1003FC0012F1190FDCBF00F000407047C2F100028F
:10040C00410021FA02F1C2F1200200FA02FC5FEA7B
:10041C00310040F1000053EA4C0308BF20EADC70C5
:10042C00704792F0000F00F0004C02BF400010F437
:10043C00000F013AF9D040EA0C0093F0000F01F0E4
:10044C00004C02BF490011F4000F013BF9D041EA06
:10045C000C018FE70CEAD15392EA0C0F18BF93EA08
:10046C000C0F0AD030F0004C18BF31F0004CD8D132
:10047C0080EA010000F00040704790F0000F17BFB9
:10048C0090F0004F084691F0000F91F0004F14D0FF
:10049C0092EA0C0F01D142020FD193EA0C0F03D157
:1004AC004B0218BF084608D180EA010000F000405A
:1004BC0040F0FE4040F40000704740F0FE4040F435
:1004CC00400070474FF0FF0C1CEAD0521EBF1CEAD4
:1004DC00D15392EA0C0F93EA0C0F69D0A2EB0302F2
:1004EC0080EA010C49024FEA402037D04FF080538C
:1004FC0043EA111143EA10130CF000408B4238BF51
:10050C005B0042F17D024FF4000C8B4224BF5B1A5E
:10051C0040EA0C00B3EB510F24BFA3EB510340EAAC
:10052C005C00B3EB910F24BFA3EB910340EA9C005A
:10053C00B3EBD10F24BFA3EBD10340EADC001B01CA
:10054C0018BF5FEA1C1CE0D1FD2A3FF650AF8B426E
:10055C0040EBC25008BF20F0010070470CF0004C7B
:10056C004CEA50207F32C2BFD2F1FF0340EAC250A6
:10057C00704740F400004FF00003013A37E792F067
:10058C00000F00F0004C02BF400010F4000F013AC5
:10059C00F9D040EA0C0093F0000F01F0004C02BFC0
:1005AC00490011F4000F013BF9D041EA0C0195E729
:1005BC000CEAD15392EA0C0F08D142027FF47DAFC2
:1005CC0093EA0C0F7FF470AF084676E793EA0C0FB2
:1005DC0004D14B023FF44CAF08466EE730F0004CB0
:1005EC0018BF31F0004CCAD130F000427FF45CAF40
:1005FC0031F000437FF43CAF5FE700BF42000ED206
:10060C00B2F1FE4F0BD34FF09E03B3EB126209D441
:10061C004FEA002343F0004323FA02F070474FF0F7
:10062C000000704712F1610F01D1420202D14FF06C
:10063C00FF3070474FF00000704700BF80B485B0AA
:10064C0000AF786039600023FB600023FB727B688D
:10065C005B68FB60FB6823F4702323F48073FB60FE
:10066C003B681A683B681B791B021343FA681343F7
:10067C00FB607B68FA685A607B689B68FB60FA6871
:10068C00164B1340FB603B68DA683B689B681A4367
:10069C003B685B795B001343FA681343FB607B6830
:1006AC00FA689A607B68DB6AFB60FB6823F4700372
:1006BC00FB603B681B7C013BDAB2FB7A1343FB7299
:1006CC00FB7A1B05FA681343FB607B68FA68DA62F5
:1006DC0000BF1437BD4680BC704700BFFDF7F1FF6B
:1006EC0080B483B000AF78607B6800221A607B68AE
:1006FC0000221A717B6800225A717B6800229A6072
:10070C007B680022DA607B6801221A7400BF0C3708
:10071C00BD4680BC704780B483B000AF78600B4698
:10072C00FB70FB78002B06D07B689B6843F00102C2
:10073C007B689A6005E07B689B6823F001027B680C
:10074C009A6000BF0C37BD4680BC704780B483B044
:10075C0000AF78600B46FB70FB78002B06D07B68F3
:10076C009B6843F480727B689A6005E07B689B68A9
:10077C0023F480727B689A6000BF0C37BD4680BC46
:10078C00704780B483B000AF78607B689B6843F09F
:10079C0004027B689A6000BF0C37BD4680BC704772
:1007AC0080B483B000AF78600B46FB70FB78002BF5
:1007BC0006D07B689B6843F4A0027B689A6005E0D6
:1007CC007B689B6823F4A0027B689A6000BF0C379F
:1007DC00BD4680BC704780B485B000AF78600846D9
:1007EC0011461A460346FB700B46BB7013467B70D2
:1007FC000023FB600023BB60FB78092B23D97B68AB
:10080C00DB68FB60FB78A3F10A0213465B00134420
:10081C00072202FA03F3BB60BB68DB43FA681340A0
:10082C00FB607978FB78A3F10A0213465B00134452
:10083C0001FA03F3BB60FA68BB681343FB607B6887
:10084C00FA68DA601EE07B681B69FB60FA78134675
:10085C005B001344072202FA03F3BB60BB68DB4363
:10086C00FA681340FB607978FA7813465B001344FE
:10087C0001FA03F3BB60FA68BB681343FB607B6847
:10088C00FA681A61BB78062B21D87B685B6BFB601E
:10089C00BB785A1E13469B0013441F2202FA03F323
:1008AC00BB60BB68DB43FA681340FB60F978BB782C
:1008BC005A1E13469B00134401FA03F3BB60FA68FB
:1008CC00BB681343FB607B68FA685A6347E0BB78EC
:1008DC000C2B21D87B681B6BFB60BB78DA1F134693
:1008EC009B0013441F2202FA03F3BB60BB68DB437B
:1008FC00FA681340FB60F978BB78DA1F13469B004B
:10090C00134401FA03F3BB60FA68BB681343FB6042
:10091C007B68FA681A6322E07B68DB6AFB60BB7851
:10092C00A3F10D0213469B0013441F2202FA03F39A
:10093C00BB60BB68DB43FA681340FB60F978BB789B
:10094C00A3F10D0213469B00134401FA03F3BB60A1
:10095C00FA68BB681343FB607B68FA68DA6200BF15
:10096C001437BD4680BC704780B485B000AF78604A
:10097C0039600023FB607B681B68FB60FB6823F419
:10098C00FF4323F07003FB603B689A683B681B6A6B
:10099C001A433B681B691A433B685B691A433B6803
:1009AC009B691A433B68DB691A433B685B6A1A43D1
:1009BC003B689B6A1343FA681343FB607B68FA68D5
:1009CC001A603B68DA687B685A603B681A687B6817
:1009DC009A603B685A687B68DA6000BF1437BD4682
:1009EC0080BC704780B483B000AF78607B68002215
:1009FC001A607B6800225A607B6800229A607B68D0
:100A0C000022DA607B6800221A617B6800225A613E
:100A1C007B6800229A617B680022DA617B68002285
:100A2C001A627B6800225A627B6800229A6200BFBD
:100A3C000C37BD4680BC704780B483B000AF786083
:100A4C000B46FB70FB78002B06D07B681B6843F0D1
:100A5C0001027B681A6006E07B681A684FF6FE7329
:100A6C0013407A68136000BF0C37BD4680BC7047DA
:100A7C0080B483B000AF78607B685B689BB218462B
:100A8C000C37BD4680BC704780B485B000AF786031
:100A9C000023FB730023BB607B6803F08053002BA7
:100AAC0003D00B4B1B68BB6002E00A4B1B68BB609E
:100ABC00BA687B681340002B02D00123FB7301E062
:100ACC000023FB73FB7B18461437BD4680BC704774
:100ADC00000402400000024080B483B000AF786094
:100AEC007B6803F08053002B03D0064A7B6853606D
:100AFC0002E0054A7B68536000BF0C37BD4680BCE2
:100B0C00704700BF000402400000024080B489B06E
:100B1C0000AF786039600023FB6100233B61002348
:100B2C00BB610023FB6000237B610023BB603B683F
:100B3C00DB7803F00F03FB613B68DB7803F01003F9
:100B4C00002B05D03B689B781A46FB691343FB616D
:100B5C003B681B88DBB2002B44D07B681B687B6135
:100B6C000023BB6138E00122BB6902FA03F3FB608E
:100B7C003B681B881A46FB6813403B613A69FB686B
:100B8C009A4226D1BB699B00FB600F22FB6802FADC
:100B9C0003F3BB60BB68DB437A6913407B61FA6982
:100BAC00FB6802FA03F37A6913437B613B68DB78D9
:100BBC00282B05D10122BB699A407B685A6108E059
:100BCC003B68DB78482B04D10122BB699A407B68D7
:100BDC001A61BB690133BB61BB69072BC3D97B6845
:100BEC007A691A603B681B88FF2B46D97B685B6867
:100BFC007B610023BB613AE0BB690833012202FA36
:100C0C0003F3FB603B681B881A46FB6813403B618F
:100C1C003A69FB689A4227D1BB699B00FB600F22A3
:100C2C00FB6802FA03F3BB60BB68DB437A691340D1
:100C3C007B61FA69FB6802FA03F37A6913437B61FF
:100C4C003B68DB78282B05D1BB69083301229A401D
:100C5C007B685A613B68DB78482B05D1BB6908334C
:100C6C0001229A407B681A61BB690133BB61BB6985
:100C7C00072BC1D97B687A695A6000BF2437BD46FF
:100C8C0080BC704780B483B000AF78607B684FF64F
:100C9C00FF721A807B6802229A707B680422DA70D9
:100CAC0000BF0C37BD4680BC7047000080B485B0D7
:100CBC0000AF78600023FB60094B5B68FB60FB684E
:100CCC0023F44043FB60FA687B681343FB60044ADF
:100CDC00FB68536000BF1437BD4680BC704700BF33
:100CEC000010024080B487B000AF786000237B61B5
:100CFC0000233B610023FB600023BB604C4B5B6813
:100D0C0003F00C037B617B69042B07D0082B09D003
:100D1C00002B33D17B68474A1A6033E07B68454A25
:100D2C001A602FE0424B5B6803F470133B61404B3D
:100D3C005B6803F48033FB603B699B0C02333B61C3
:100D4C00FB68002B06D13B693B4A02FB03F27B6834
:100D5C001A6017E0364B5B6803F40033002B06D0A7
:100D6C003B69354A02FB03F27B681A600AE03B6977
:100D7C00304A02FB03F27B681A6003E07B682D4A61
:100D8C001A6000BF2A4B5B6803F0F0037B617B6940
:100D9C001B097B61294A7B6913441B78DBB2BB605E
:100DAC007B681A68BB68DA407B685A60204B5B68CA
:100DBC0003F4E0637B617B691B0A7B611F4A7B69DF
:100DCC0013441B78DBB2BB607B685A68BB68DA40A3
:100DDC007B689A60164B5B6803F460537B617B699C
:100DEC00DB0A7B61154A7B6913441B78DBB2BB6061
:100DFC007B685A68BB68DA407B68DA600C4B5B68CE
:100E0C0003F440437B617B699B0B7B610C4A7B69E0
:100E1C0013441B78DBB2BB607B68DA68BB68B2FB3F
:100E2C00F3F27B681A6100BF1C37BD4680BC70476B
:100E3C000010024000127A0000093D000000002062
:100E4C001000002080B483B000AF78600B46FB70BC
:100E5C00FB78002B06D00949084B5A697B68134371
:100E6C004B6106E00549054B5A697B68DB4313402F
:100E7C004B6100BF0C37BD4680BC70470010024070
:100E8C0080B483B000AF78600B46FB70FB78002B0E
:100E9C0006D00949084B9A697B6813438B6106E0BD
:100EAC000549054B9A697B68DB4313408B6100BF96
:100EBC000C37BD4680BC70470010024080B483B034
:100ECC0000AF78600B46FB70FB78002B06D009490D
:100EDC00084BDA697B681343CB6106E00549054B87
:100EEC00DA697B68DB431340CB6100BF0C37BD462E
:100EFC0080BC70470010024080B485B000AF7860B1
:100F0C0039600023FB817B681B88FB81FB8903F420
:100F1C004153FB813B681A883B685B8813439AB248
:100F2C003B689B8813439AB23B68DB8813439AB2A5
:100F3C003B681B8913439AB23B685B8913439AB293
:100F4C003B689B8913439AB23B68DB8913439AB283
:100F5C00FB891343FB817B68FA891A807B689B8B26
:100F6C009BB223F400639AB27B689A833B681A8A1B
:100F7C007B681A8200BF1437BD4680BC704780B4B2
:100F8C0083B000AF78607B6800221A807B680022F7
:100F9C005A807B6800229A807B680022DA807B680A
:100FAC0000221A817B6800225A817B6800229A8178
:100FBC007B680022DA817B6807221A8200BF0C371B
:100FCC00BD4680BC704780B483B000AF78600B46E0
:100FDC00FB70FB78002B08D07B681B889BB243F01E
:100FEC0040039AB27B681A8007E07B681B889BB22F
:100FFC0023F040039AB27B681A8000BF0C37BD46C1
:10100C0080BC704780B483B000AF78600B467B80A7
:10101C0013467B707B78002B08D07B689B889AB238
:10102C007B8813439AB27B689A8009E07B689B8823
:10103C009AB27B88DB439BB213409AB27B689A804E
:10104C0000BF0C37BD4680BC7047000080B485B033
:10105C0000AF786039600023FB817B681B88FB81C3
:10106C007B682E4A934213D07B682D4A93420FD053
:10107C007B68B3F1804F0BD07B682A4A934207D030
:10108C007B68294A934203D07B68284A934208D153
:10109C00FB8923F07003FB813B685A88FB8913435F
:1010AC00FB817B68224A93420CD07B68214A934295
:1010BC0008D0FB8923F44073FB813B68DA88FB89F9
:1010CC001343FB817B68FA891A803B689A887B689A
:1010DC009A853B681A887B681A857B680F4A93420D
:1010EC000FD07B680E4A93420BD07B68124A934216
:1010FC0007D07B68114A934203D07B68104A934215
:10110C0004D13B681B7A9AB27B681A867B680122F1
:10111C009A8200BF1437BD4680BC7047002C01403A
:10112C00003401400004004000080040000C004066
:10113C0000100040001400400040014000440140F9
:10114C000048014080B582B000AF786039603B68E0
:10115C001B88002B0FD13B6859883B689A883B68E9
:10116C001B89786800F04EF93B68DB881946786873
:10117C0000F08CF836E03B681B88042B0FD13B68E1
:10118C0059883B689A883B681B89786800F0AAF9F3
:10119C003B68DB881946786800F093F822E03B68DE
:1011AC001B88082B0FD13B6859883B689A883B6891
:1011BC001B89786800F010FA3B68DB881946786860
:1011CC0000F09CF80EE03B6859883B689A883B68B5
:1011DC001B89786800F076FA3B68DB8819467868DA
:1011EC0000F0A7F800BF0837BD4680BD80B483B0BF
:1011FC0000AF78607B684FF6FF729A807B680022A4
:10120C001A807B680022DA807B6800225A807B6817
:10121C0000221A7200BF0C37BD4680BC704780B4E8
:10122C0083B000AF78607B6800221A807B68002254
:10123C005A807B6801229A807B680022DA807B6866
:10124C0000221A8100BF0C37BD4680BC704780B4A9
:10125C0083B000AF78600B46FB70FB78002B08D096
:10126C007B681B889BB243F001039AB27B681A809F
:10127C0007E07B681B889BB223F001039AB27B6862
:10128C001A8000BF0C37BD4680BC704780B483B059
:10129C0000AF78600B467B807B681B8B9BB223F086
:1012AC000C039AB27B681A837B681B8B9AB27B887F
:1012BC0013439AB27B681A8300BF0C37BD4680BCBF
:1012CC00704780B483B000AF78600B467B807B683E
:1012DC001B8B9BB223F440639AB27B681A837B68A6
:1012EC001B8B9AB27B881B029BB213439AB27B680E
:1012FC001A8300BF0C37BD4680BC704780B483B0E6
:10130C0000AF78600B467B807B689B8B9BB223F095
:10131C000C039AB27B689A837B689B8B9AB27B880E
:10132C0013439AB27B689A8300BF0C37BD4680BCCE
:10133C00704780B483B000AF78600B467B807B68CD
:10134C009B8B9BB223F440639AB27B689A837B6835
:10135C009B8B9AB27B881B029BB213439AB27B681D
:10136C009A8300BF0C37BD4680BC704780B483B0F5
:10137C0000AF78607B689B8E9BB218460C37BD46DD
:10138C0080BC704780B483B000AF78607B681B8FE3
:10139C009BB218460C37BD4680BC704780B483B0F6
:1013AC0000AF78607B689B8F9BB218460C37BD46AC
:1013BC0080BC704780B483B000AF78607B68B3F8B2
:1013CC0040309BB218460C37BD4680BC704780B489
:1013DC0085B000AF78600B467B800023FB737B6885
:1013EC001B8A9AB27B8813409BB2002B02D001233C
:1013FC00FB7301E00023FB73FB7B18461437BD46DF
:10140C0080BC704780B487B000AFF86008461146C6
:10141C001A4603467B810B463B811346FB80002317
:10142C00BB820023FB82FB681B8C9BB223F0010365
:10143C009AB2FB681A84FB681B8BBB82FB681B8C03
:10144C00FB82BB8A23F0F303BB82FB881B019AB29D
:10145C003B8913439AB2BB8A1343BB82FB681C4A79
:10146C00934213D0FB681B4A93420FD0FB68B3F135
:10147C00804F0BD0FB68184A934207D0FB68174A81
:10148C00934203D0FB68164A93420BD1FB8A23F09C
:10149C000203FB827A89FB8A13439BB243F001035C
:1014AC00FB820AE0FB8A23F00A03FB827A89FB8A1F
:1014BC0013439BB243F00103FB82FB68BA8A1A8385
:1014CC00FB68FA8A1A8400BF1C37BD4680BC704783
:1014DC00002C014000340140000400400008004092
:1014EC00000C004080B487B000AFF860084611468D
:1014FC001A4603467B810B463B811346FB80002337
:10150C00BB820023FB8200237B82FB681B8C9BB27B
:10151C0023F010039AB2FB681A84FB681B8BBB8206
:10152C00FB681B8CFB827B891B017B82BB8A23F4AF
:10153C0040731B051B0DBB82FB881B039AB2BB8A35
:10154C001343BB823B891B029AB2BB8A1343BB82F7
:10155C00FB681C4A934213D0FB681B4A93420FD082
:10156C00FB68B3F1804F0BD0FB68184A934207D04D
:10157C00FB68174A934203D0FB68164A93420BD17F
:10158C00FB8A23F02003FB827A8AFB8A13439BB2EB
:10159C0043F01003FB820AE0FB8A23F0A003FB82DA
:1015AC007A89FB8A13439BB243F01003FB82FB68DE
:1015BC00BA8A1A83FB68FA8A1A8400BF1C37BD46A4
:1015CC0080BC7047002C01400034014000040040F6
:1015DC0000080040000C004080B487B000AFF860F9
:1015EC00084611461A4603467B810B463B8113463F
:1015FC00FB800023BB820023FB8200237B82FB68E1
:10160C001B8C9BB223F480739AB2FB681A84FB6820
:10161C009B8BBB82FB681B8CFB827B891B027B82B6
:10162C00BB8A23F0F303BB82FB881B019AB23B8974
:10163C0013439AB2BB8A1343BB82FB681C4A934286
:10164C0013D0FB681B4A93420FD0FB68B3F1804F59
:10165C000BD0FB68184A934207D0FB68174A934299
:10166C0003D0FB68164A93420BD1FB8A23F4007318
:10167C00FB827A8AFB8A13439BB243F48073FB820E
:10168C000AE0FB8A23F42063FB827A89FB8A1343EA
:10169C009BB243F48073FB82FB68BA8A9A83FB6823
:1016AC00FA8A1A8400BF1C37BD4680BC704700BF45
:1016BC00002C0140003401400004004000080040B0
:1016CC00000C004080B487B000AFF86008461146AB
:1016DC001A4603467B810B463B811346FB80002355
:1016EC00BB820023FB8200237B82FB681B8C9BB29A
:1016FC0023F480539AB2FB681A84FB689B8BBB82E1
:10170C00FB681B8CFB827B891B037B82BB8A23F4CB
:10171C0040731B051B0DBB823B891B029AB2BB8A13
:10172C001343BB82FB881B039AB2BB8A1343BB8255
:10173C00FB681D4A934213D0FB681C4A93420FD09E
:10174C00FB68B3F1804F0BD0FB68194A934207D06A
:10175C00FB68184A934203D0FB68174A93420BD19B
:10176C00FB8A23F40053FB827A8AFB8A13439BB2D5
:10177C0043F48053FB820CE0FB8A23F400735B047C
:10178C005B0CFB827A89FB8A13439BB243F4805334
:10179C00FB82FB68BA8A9A83FB68FA8A1A8400BFB8
:1017AC001C37BD4680BC7047002C01400034014002
:1017BC000004004000080040000C004080B58CB0D4
:1017CC0000AF786039600023FB620023BB6200230A
:1017DC007B6200233B620023FB617B68FB617B68BF
:1017EC001B8A9BB2FB62FA6A4CF6FF731340FB62D6
:1017FC003B68DB881A46FB6A1343FB62FB6A9AB2AE
:10180C007B681A827B689B899BB2FB62FA6A4EF6F4
:10181C00F3131340FB623B689A883B681B891343A4
:10182C009AB23B685B8913439BB21A46FB6A13431B
:10183C00FB62FB6A9AB27B689A817B689B8A9BB23B
:10184C00FB62FA6A4FF6FF431340FB623B689B89CD
:10185C001A46FB6A1343FB62FB6A9AB27B689A8254
:10186C0007F108031846FFF73DFAFB692E4A93422D
:10187C0002D17B69BB6201E03B69BB627B689B89DF
:10188C009BB21BB2002B0CDABA6A13469B001344B2
:10189C009A001A443B681B685B00B2FBF3F37B6253
:1018AC000BE0BA6A13469B0013449A001A443B6837
:1018BC001B689B00B2FBF3F37B627B6A1B4AA2FBA7
:1018CC0003235B091B01FB62FB6A1B09642202FBFD
:1018DC0003F37A6AD31A3B627B689B899BB21BB277
:1018EC00002B0CDA3B6ADB003233104AA2FB0323D9
:1018FC005B0903F00703FA6A1343FB620BE03B6AD4
:10190C001B013233094AA2FB03235B0903F00F03CB
:10191C00FA6A1343FB62FB6A9AB27B681A8100BFB6
:10192C003037BD4680BD00BF003801401F85EB51EC
:10193C0080B483B000AF78600B46FB70FB78002B53
:10194C0008D07B689B899BB243F400539AB27B68A6
:10195C009A8107E07B689B899BB223F400539AB26F
:10196C007B689A8100BF0C37BD4680BC704780B441
:10197C0083B000AF78600B467B807B88C3F3080391
:10198C009AB27B689A8000BF0C37BD4680BC70470A
:10199C0080B483B000AF78607B689B889BB2C3F344
:1019AC0008039BB218460C37BD4680BC704780B408
:1019BC0085B000AF78600B467B800023FB737B689F
:1019CC001B889AB27B8813409BB2002B02D0012358
:1019DC00FB7301E00023FB73FB7B18461437BD46F9
:1019EC0080BC704708B539B990F8162192010021D6
:1019FC00006801F02FFB08BD90F816219201FF2121
:101A0C00006801F027FB08BD70B504460E4615466C
:101A1C0000F59C7000F036FC84F8146184F81551C4
:101A2C0005FB06F0C0B284F816010301A4F81831C6
:101A3C004301A4F81A31C30003EB80039B00A4F804
:101A4C001C31800101F0EAF8206001212046FFF7EB
:101A5C00C9FF002384F81E3184F83035204670BD50
:101A6C0070B50446059DC0F83011C0F8342100F55E
:101A7C009C761946304600F0E0FB6421304600F0BD
:101A8C00E8FB049BC4F82C31C4F82051069BC4F825
:101A9C002431079BC4F828312B685B68284698478B
:101AAC00D4F8240103685B689847D4F828010368CC
:101ABC005B689847D4F8340103689B6810219847F9
:101ACC0001212046FFF78EFF002384F81E3170BDE4
:101ADC00F8B5044690F8303553B1012B5FD004F5BE
:101AEC009C74204600F0BAFB002840F0B780F8BD8B
:101AFC0090F816319B000FFA83FE90F81E7107FBCD
:101B0C0003F73FB200231D4673452ADA6A1C92B2D2
:101B1C00D4F800C0FE18B4F91C1131441CF80100B3
:101B2C00611981F84801A91C89B2B4F91A01304431
:101B3C001CF80000224482F84801EA1C92B2B4F965
:101B4C00180130441CF80000214481F84801043588
:101B5C00ADB21CF80610224482F8481101331BB2B6
:101B6C00D2E7D4F834010368DB68D4F8301104F5FB
:101B7C00A4720C319847D4F8340103685B69294688
:101B8C009847D4F82C0103685B689847D4F8340163
:101B9C0003681B689847012384F830359FE7D0F819
:101BAC00340103689B6998470028A0D0D4F834010D
:101BBC0003685B689847D4F8280103685B6898470A
:101BCC00D4F82C0103681B68984794F81E31DBB2DB
:101BDC00032B10D8DFE803F002182634D4F82401C4
:101BEC0003685B689847D4F8200103685B689847E2
:101BFC00012384F81E31D4F8280103681B68984728
:101C0C00002384F830356AE7D4F8240103685B6854
:101C1C009847D4F8200103681B689847022384F87E
:101C2C001E31E8E7D4F8240103681B689847D4F800
:101C3C00200103685B689847032384F81E31DAE7B8
:101C4C00D4F8240103681B689847D4F82001036872
:101C5C001B689847002384F81E31CCE7204600F01F
:101C6C00EEFA44E738B51D464161041D1146204685
:101C7C0000F0E3FA2946204600F0EBFA38BD38B5FF
:101C8C000446051D284600F0E9FA00B938BD28467F
:101C9C0000F0D5FA646923689B682046984720B900
:101CAC0023681B6820469847F0E723685B6820464A
:101CBC00984738BD10B50446034B40F8043B00F080
:101CCC00E1FA204610BD00BF0C33000810B50446E5
:101CDC00034B40F8043B00F0A9FA204610BD00BFAE
:101CEC000C33000810B50446FFF7F0FF204600F057
:101CFC006FFF204610BD436818887047704710B5B9
:101D0C00044600F065FF204610BD4160704700009E
:101D1C00014B0360704700BF1C330008704708B5C7
:101D2C00416100F10C018068FEF71EFE08BD08B58C
:101D3C00C160026100F10C018068FEF715FE08BD60
:101D4C0008B5816100F10C018068FEF70DFE08BD3D
:101D5C0008B501218068FEF76FFE08BD08B50021AB
:101D6C008068FEF769FE08BD10B5048B8068FEF72D
:101D7C007FFE201A80B210BD10B50446806BFEF7B2
:101D8C0083FE08B9002010BDA06BFEF7A5FE012054
:101D9C0010BD10B5044600F01BFF204610BD00001E
:101DAC0010B5044641608260C362029B036300234A
:101DBC00836243628023036200F10C011046FEF73C
:101DCC00D3FDA368264A934221D0264A934221D0C0
:101DDC00254A934221D0254A934222D0244A934249
:101DEC0023D0244A934224D0234A934225D0234A19
:101DFC00934226D0224A934226D0224A934226D09E
:101E0C00214A934226D0214A934226D010BD022368
:101E1C00A36310BD2023A36310BD4FF40073A36311
:101E2C0010BD4FF40053A36310BD4FF40033A363F4
:101E3C0010BD4FF40013A36310BD4FF00073A363E8
:101E4C0010BD134BA36310BD124BA36310BD124BFB
:101E5C00A36310BD114BA36310BD114BA363D5E756
:101E6C00080002401C0002403000024044000240C6
:101E7C00580002406C0002408000024008040240FE
:101E8C001C04024030040240440402405804024046
:101E9C0002000010200000100002001000200010B2
:101EAC000000021010B50446044B40F80C3BFEF742
:101EBC0099FD00236360204610BD00BF303300083D
:101ECC004268136981680B43136170474268136958
:101EDC00C1680B431361704743689A6883681A4260
:101EEC0014BF012000207047704710B5044600F065
:101EFC006FFE204610BD0F2A08DC4160012303FA57
:101F0C0002F18160103203FA02F2C26070470000E5
:101F1C00024A026000224260826070475C33000813
:101F2C00704708B503890C2B18D8DFE803F00717A6
:101F3C0017170B1717170F17171713004068FFF712
:101F4C0015FA08BD4068FFF71DFA08BD4068FFF799
:101F5C0025FA08BD4068FFF72DFA08BD002008BD22
:101F6C0008B503890C2B28D8DFE803F007272727AF
:101F7C000F272727172727271F0002214068FFF765
:101F8C0026FA003018BF012008BD04214068FFF775
:101F9C001EFA003018BF012008BD08214068FFF769
:101FAC0016FA003018BF012008BD10214068FFF759
:101FBC000EFA003018BF012008BD002008BD10B576
:101FCC00044600F005FE204610BD416002817047BA
:101FDC00014B0360704700BF783300084368988C4E
:101FEC0080B27047704710B5044600F0F1FD2046F2
:101FFC0010BD416070470000014B0360704700BF8B
:10200C0090330008002070477047704710B50446A5
:10201C0000F0DEFD204610BD10B5044600F0D8FDE2
:10202C00204610BD41607047074A02600749816035
:10203C000022C260C0F85421C0F85811C0F85C21CD
:10204C00C0F8A422704700BFB4330008A4330008C2
:10205C00D0F84C214068824214BF00200120704708
:10206C0008B500F5AC70FFF7F3FF80F00100C0B2CB
:10207C0008BD00000131064BA3FB0123C81A03EB7A
:10208C0050031B0A40F2431000FB1310704700BFB3
:10209C00BFB0CB9538B504460D464168FFF7EAFF53
:1020AC00D4F84C31984206D063682A7823441A72CB
:1020BC006060012038BD002038BDF0B583B0074604
:1020CC0016460024B4420DDA4D1C0B7802A901F817
:1020DC00013D07F10800FFF7DDFF18B10134A4B290
:1020EC002946EFE7204603B0F0BD70B582B0064636
:1020FC000D4600242B785BB1013502A901F8013D96
:10210C0006F10800FFF7C6FF10B10134A4B2F1E7E5
:10211C00204602B070BD10B582B004462021406844
:10212C00FFF745FC08B902B010BD6068FFF730FC42
:10213C0002A901F8010D04F5AC70FFF7ABFFF2E753
:10214C00D0F84C2143689A420ED010B50446D0F812
:10215C004C3103441B7A0B70D0F84C11FFF78AFFFB
:10216C00C4F84C01012010BD0020704700B583B0AD
:10217C000DF1070100F5AC70FFF7E2FF9DF80700C9
:10218C0003B05DF804FB30B583B0044600F10805DC
:10219C002846FFF75DFF08B103B030BD80216068B1
:1021AC00FFF705FC0028F7D00DF107012846FFF7D3
:1021BC00C7FF9DF807106068FFF7D9FBECE710B577
:1021CC000446FFF7E0FF2046FFF7A5FF10BD704760
:1021DC0010B5044600F0FCFC204610BD4160704771
:1021EC0038B50446406803681B68984700B938BD89
:1021FC00606803685B689847054660812089281AE7
:10220C0080B2FEF757F801460248FEF75BF9E06032
:10221C002581ECE700007A44C0687047024A0260EE
:10222C000022C260704700BFD8330008704710B559
:10223C00044600F0CDFC204610BD4160704710B53F
:10224C000446406803681B68984760810023237329
:10225C0010BD08B50181FFF7F2FF08BD10B50446AB
:10226C00037B0BB1207B10BD406803681B6898474B
:10227C006389C01A80B223899842F3DB012323734C
:10228C00F0E70000014B0360704700BFE833000823
:10229C00704710B5044600F09BFC204610BD0000B2
:1022AC002DE9F04FADF69C1D00F0E2FA4FF44040E2
:1022BC00FEF7FCFC01216348FEF700FE01214FF400
:1022CC000770FEF7DDFD01210846FEF7BBFD0DF69C
:1022DC008C10FEF78BFF4FF6FF74ADF8904940F26F
:1022EC00CF23ADF88C39584D0DF68C112846FEF7DE
:1022FC00ADFE01212846FEF7AAFF0DF68C10FEF765
:10230C0075FFADF8904941F61F43ADF88C390DF6C9
:10231C008C114FF08040FEF799FE01214FF0804068
:10232C00FEF795FF4FF40053ADF8883902248DF871
:10233C008A4914238DF88B3905F586350DF68811ED
:10234C002846FEF7E3FB0DF51860FFF755FE4FF03E
:10235C0080410DF51860FFF74CFE0DF51760FFF787
:10236C00D7FD0D2229460DF51760FFF7C4FD0DF6BC
:10237C005810FFF79FFC41F288330DF518620DF5EC
:10238C0017610DF65810FFF76DFC4FF40063ADF8B4
:10239C0088398DF88A4904238DF88B39A5F5806529
:1023AC000DF688112846FEF7B1FB4FF48063ADF8AB
:1023BC0088398DF88A4918238DF88B390DF68811D8
:1023CC002846FEF7A3FB4FF41653CDF848390023EB
:1023DC00ADF854390C22ADF85229ADF85039ADF89E
:1023EC004E39ADF84C39194C0DF648112046FFF713
:1023FC00E5F901212046FFF79BFA0DF5D460FFF7B4
:10240C0013FE21460DF5D460FFF70CFE01250DF5EA
:10241C00D264002D05DB2046FFF77AFC0834013D21
:10242C00F7E70024012C13DC0DF28C6303EB440161
:10243C000DF5D26303EBC400FFF767FC0134A4B2C3
:10244C00F0E700BF034004000004004000480040D7
:10245C000DF68810FEF716FC4FF00308ADF88889CE
:10246C0000268DF88B69CD4F0DF688113846FEF796
:10247C004DFB0DF5CC60FEF7B5FA4FF48063CDF84B
:10248C007C364FF48073CDF87836CDF868668023AF
:10249C00CDF874362023CDF880360225CDF86C5655
:1024AC00CDF884660DF28C63CDF86436BC4BCDF858
:1024BC006036BC4C0DF5CC612046FEF755FA012177
:1024CC002046FEF7B9FA0DF24C60FEF709F901242B
:1024DC008DF851468DF85C568DF85046DFF8E49235
:1024EC000DF24C614846FEF7A9F807232246314607
:1024FC004846FEF770F907232A4621464846FEF760
:10250C006AF9D9F8083043F46023C9F80830214639
:10251C004846FEF71BF921464846FEF7FCF82146D3
:10252C004846FEF73DF94846FEF72BF90DF68810A4
:10253C00FEF7A8FB4023ADF8883904238DF88B39BE
:10254C008DF88A590DF688113846FEF7DFFA0DF52D
:10255C00C860FEF764FEADF84066ADF84446ADF8D1
:10256C0042564FF0090AADF848A6A9F590390DF579
:10257C00C8614846FEF7E6FD0DF23460FFF728FD12
:10258C00324649460DF23460FFF71FFD0DF68810F8
:10259C00FEF778FB4FF42043ADF888398DF88A8923
:1025AC004FF018098DF88B990DF688117E48FEF7BF
:1025BC00ADFA0DF68810FEF765FB0623ADF88839E9
:1025CC008DF88A894FF0100B8DF88BB90DF68811A8
:1025DC007548FEF79BFA0DF22460FFF799FC224632
:1025EC0071490DF22460FFF786FC0DF21460FFF7C1
:1025FC008FFC2A466C490DF21460FFF77CFC0DF63B
:10260C008810FEF73FFB4FF44073ADF888398DF816
:10261C008A898DF88BB90DF688113846FEF776FA53
:10262C000DF20460FFF774FC524639460DF204605B
:10263C00FFF761FC0DF2F450FFF76AFC08223946F3
:10264C000DF2F450FFF757FC0DF5B760FFF72AFCBD
:10265C004FF4405300933346544A55490DF5B76037
:10266C00FFF79EFB0DF2A450FEF789FC4FF482732A
:10267C00ADF8A6354FF44043ADF8A435ADF8B095A0
:10268C004FF40073ADF8AE354A4E0DF2A4513046FE
:10269C00FEF732FC224629463046FEF7B3FC2146B3
:1026AC003046FEF790FC0DF29450FFF7B7FD0DF29B
:1026BC0034610DF29450FFF791FD0DF27453002C20
:1026CC000BDB3D4A1A600022DA604FF07E525A60F2
:1026DC0000229A601033013CF1E70122022110A87C
:1026EC00FFF792F90DF2246303930DF2F453029366
:1026FC000DF2046301930DF2146300930DF518634E
:10270C000DF5B7622B4910A8FFF7AAF90023012B8E
:10271C000BDC0DF5D26202EBC3010DF2745202EB2D
:10272C000312D16001339BB2F1E70CA8FFF7AAFDAD
:10273C000DF518610CA8FFF780FD42F210710CA882
:10274C00FFF787FD0DF29450FFF74AFD10A8FFF735
:10275C00BFF90DF65810FFF792FA0DF5D460FFF79C
:10276C002EFD0CA8FFF77AFD0028EBD00CA8FFF784
:10277C0066FD0DF29450FFF74FFD1049FDF7EEFD8D
:10278C00FDF73CFF82B20E4904A800F00AFA04A936
:10279C000DF5D460FFF7A9FCD4E700BF0008014099
:1027AC004C24014008000240000C0140580002403B
:1027BC000000024000380040F833000800401C467E
:1027CC000034000800240140DFF834D0002103E07D
:1027DC000C4B5B58435004310B480C4B42189A423B
:1027EC00F6D30B4A02E0002342F8043B094B9A4211
:1027FC00F9D300F03DF800F0EDF9FFF751FD70470B
:10280C00005000201834000800000020180500209B
:10281C00180500207C050020FEE780B400AF00BF47
:10282C00BD4680BC704780B400AFFEE780B400AFFB
:10283C00FEE780B400AFFEE780B400AFFEE780B4E3
:10284C0000AF00BFBD4680BC704780B400AF00BF76
:10285C00BD4680BC704780B400AF00BFBD4680BC95
:10286C00704780B400AF00BFBD4680BC704700000D
:10287C0080B500AF154A154B1B6843F0010313607C
:10288C001249124B5A68124B13404B600F4A0F4BB4
:10289C001B6823F0847323F4803313600B4A0B4BB7
:1028AC001B6823F480231360084A084B5B6823F4ED
:1028BC00FE035360054B4FF41F029A6000F00CF8B6
:1028CC00044B4FF000629A6000BF80BD00100240C4
:1028DC000000FFF800ED00E080B500AF00F002F85A
:1028EC0000BF80BD80B483B000AF00237B600023A9
:1028FC003B603A4A394B1B6843F480331360374BC7
:10290C001B6803F400333B607B6801337B603B68DE
:10291C00002B03D17B68B3F5A06FF0D12F4B1B6854
:10292C0003F40033002B02D001233B6001E00023B1
:10293C003B603B68012B4BD1294A294B1B6843F068
:10294C0010031360264A264B1B6823F00303136005
:10295C00234A234B1B6843F0020313601F4A1F4B8F
:10296C005B6853601D4A1D4B5B6853601B4A1B4BD5
:10297C005B6843F480635360184A184B5B6823F41C
:10298C007C135360154A154B5B6843F4E813536092
:10299C00124A124B1B6843F08073136000BF0F4B3D
:1029AC001B6803F00073002BF9D00C4A0B4B5B68CF
:1029BC0023F003035360094A084B5B6843F002039E
:1029CC00536000BF054B5B6803F00C03082BF9D177
:1029DC0000BF0C37BD4680BC704700BF00100240E2
:1029EC000020024080B487B000AFF860B9607A6014
:1029FC0001237B6104E07B697A6802FB03F37B6152
:102A0C007B69BA68B2FBF3F27B689A42F3D229E095
:102A1C007B69BA68B2FBF3F33B617A69BB68B3FBC1
:102A2C00F2F102FB01F29B1ABB607A697B6892FBA4
:102A3C00F3F37B613B69092B0ADDFB681B68591CAE
:102A4C00FA6811603A69D2B23732D2B21A7009E020
:102A5C00FB681B68591CFA6811603A69D2B23032B3
:102A6C00D2B21A707B69002BD2D100BF1C37BD4685
:102A7C0080BC704780B588B000AFF860B9607A60F0
:102A8C00FB687B617DE0BB681B78252B71D1BB6833
:102A9C000133BB60BB681B78642B1ED0642B06DC37
:102AAC00582B50D0632B0ED0252B58D05DE0732BB8
:102ABC002BD0732B02DC692B0FD056E0752B37D043
:102ACC00782B40D051E0FB685A1CFA607A68111DD3
:102ADC0079601268D2B21A7047E07B681A1D7A606E
:102AEC001B68FB61FB69002B07DAFB695B42FB612E
:102AFC00FB685A1CFA602D221A70F96907F10C0355
:102B0C000A221846FFF76EFF2FE07B681A1D7A60C9
:102B1C001B68BB6107E0FB685A1CFA60BA69511C60
:102B2C00B96112781A70BB691B78002BF3D11CE0C9
:102B3C007B681A1D7A60196807F10C030A22184683
:102B4C00FFF750FF11E07B681A1D7A601B6819466D
:102B5C0007F10C0310221846FFF744FF05E0FB6851
:102B6C005A1CFA6025221A7000BFBB680133BB6087
:102B7C0007E0FB685A1CFA60BA68511CB9601278FD
:102B8C001A70BB681B78002B7FF47DAFFB680022AA
:102B9C001A70FB681A467B69D31A18462037BD4653
:102BAC0080BD0EB480B585B000AF786007F120030E
:102BBC00BB60BA68F9697868FFF75CFFF860FB687E
:102BCC0018461437BD46BDE8804003B0704700007E
:102BDC0000F02CB870B500250C4E0D4CA41BA410A5
:102BEC00A54209D100F07CFB00250A4E0A4CA41B1F
:102BFC00A410A54205D170BD56F825309847013573
:102C0C00EEE756F8253098470135F2E71034000806
:102C1C00103400081034000814340008024B01462C
:102C2C00186800F00BB800BF24040020024B0146CA
:102C3C00186800F089BA00BF240400202DE9F74F72
:102C4C0001F10B04162C814607D934F0070405D585
:102C5C000C23C9F80030002631E110248C42F7D344
:102C6C00484600F0FFF9B4F5FC7F9B4D36D204F1D9
:102C7C0008022A445668A2F108018E424FEAD40396
:102C8C0002D1D668B24210D07368F268B16823F0F2
:102C9C000303CA60334491605A6842F001025A60DF
:102CAC00484600F0E5F9083609E102338B4A2E69F3
:102CBC00114696426DD0706820F00300071B0F2F51
:102CCC0047DD331944F0010474606B612B61DA60E9
:102CDC009A6047F001025A603750E1E7630A2AD044
:102CEC00042B12D8A30938335A1C05EBC2025668C0
:102CFC00A2F10800864206D0726822F00302111B72
:102D0C000F291CDD013B0133D0E7142B01D85B33B9
:102D1C00EAE7542B02D8230B6E33E5E7B3F5AA7F11
:102D2C0002D8E30B7733DFE740F25452934204D8D6
:102D3C00A30C7C33D8E73F23D6E77E23D4E70029C6
:102D4C00F16804DBB368D9608B60B318A4E70E4656
:102D5C00D0E7002F6A612A6105DB3044436843F0F9
:102D6C00010343609CE7B0F5007F44D20122C00808
:102D7C00871002FA07F76A6801303A436A6055F81F
:102D8C00307005EBC002083AF260B76045F830606D
:102D9C00FE6001209A1000FA02F26868824200F28A
:102DAC009F80024206D123F003035200024203F13A
:102DBC000403FAD005EBC30CE0469E46D8F80C6031
:102DCC00464553D10EF1010E1EF0030F08F1080811
:102DDC00F4D1980779D16B6823EA02036B606868B9
:102DEC00520082427CD8002A7AD073460242E1D14A
:102DFC0004335200FAE7420A042A15D88209383201
:102E0C00571C55F8377005EBC20EBE4526D1012074
:102E1C00921000FA02F2686810436860C6F80CE081
:102E2C00B760CEF80860B3E7142A01D85B32E7E745
:102E3C00542A02D8020B6E32E2E7B2F5AA7F02D80E
:102E4C00C20B7732DCE740F25457BA429ABF820C7D
:102E5C007C327E22D4E7BF68BE4504D07A6822F06B
:102E6C0003029042F7D3D7F80CE0D7E77068F76805
:102E7C0020F00300A0EB040ABAF10F0F10DDB268CA
:102E8C00331944F001047460D760BA604AF001024F
:102E9C006B612B61D96099605A6046F800A0FFE61F
:102EAC00BAF1000F0FDB3044436843F00103436079
:102EBC0056F8083F4846DF60BB6000F0D9F8304652
:102ECC0003B0BDE8F08F3E467AE75CF80809013B99
:102EDC0084453FF47EAF82E7140000201C000020E4
:102EEC00D5F808B0DBF8046026F00306B44203D82A
:102EFC00331B0F2B00F395804F4A0BEB060317681F
:102F0C004E4A103711682744013105D04C4901391C
:102F1C000F44013149420F40394648460192009313
:102F2C0000F0ACF8B0F1FF3F804655D0009B019A01
:102F3C00834201D9AB454FD1424843450168824693
:102F4C0007EB010EC0F800E03F4913D10B4211D141
:102F5C00AB683E4446F001065E603C4ADAF800304D
:102F6C0011688B4288BF1360394A11688B4288BF45
:102F7C00136031E0106801301BBFA8EB03037344EE
:102F8C00C2F80080CAF8003018F007001CBFC0F16E
:102F9C00080080442A4B474418440F40C71B39464D
:102FAC00484600F06BF8431C04BF40460027DAF893
:102FBC000030A0EB08003B44074447F00107AB4549
:102FCC00C5F80880CAF80030C8F80470C5D00F2EB8
:102FDC0010D80123C8F80430AB685A6822F00302F9
:102FEC009442A2EB040301D80F2B1ADC484600F0E4
:102FFC003FF830E60522DBF804300C3E26F00706DD
:10300C0003F001033343CBF804300F2E0BEB060314
:10301C005A609A60A1D90BF10801484600F094F867
:10302C009BE7AE6844F0010243F001033444726044
:10303C00AC60636034E600BF640500201C04002013
:10304C000010000034050020FF0F00005C0500207C
:10305C006005002003460244934200D1704703F8F8
:10306C00011BF9E7014800F02BB900BF70050020E7
:10307C00014800F026B900BF7005002038B50023C8
:10308C00054C05460846236000F01CF9431C02D190
:10309C00236803B12B6038BD780500202DE9F84377
:1030AC008946254F0646FFF7DDFFBB68DFF89480A5
:1030BC005D68A8F1110425F00305A4EB09042C4468
:1030CC00B4FBF8F4013C08FB04F4444505DA304643
:1030DC00FFF7CEFF0020BDE8F88300213046FFF754
:1030EC00CDFFBB682B449842F1D161423046FFF7CB
:1030FC00C5FF013010D100213046FFF7BFFFBA6881
:10310C00831A0F2BE3DD0D4943F00103096853606B
:10311C00401A0B490860DAE7BB68094A2D1B45F0D9
:10312C0001055D60136830461C1B1460FFF7A0FF9F
:10313C000120BDE8F88300BF140000201C0400200F
:10314C0034050020001000002DE9F04104468846AB
:10315C00002900F0AB80FFF785FF58F8042C544D84
:10316C0022F00100A8F108031F18A9687E688F429D
:10317C0026F0030602F001021BD130443AB958F88C
:10318C00082C9B1A99681044DA68CA60916040F068
:10319C0001025A60AB60474B1B68984204D3464B04
:1031AC0020461968FFF77AFF2046BDE8F041FFF78B
:1031BC005FBF7E60002A39D158F8081C05F1080E53
:1031CC005B1A08449968714532D0D3F80CE0C1F809
:1031DC000CE0CEF80810B9194968C9070AD4304474
:1031EC00B9683ABB354EB14224D101226B612B61D7
:1031FC00D960996040F0010159601850002AD3D170
:10320C00B0F5007F1AD20122C00881108A4069688B
:10321C0001300A436A6055F8301005EBC002083AD9
:10322C00DA60996045F83030CB60BDE70022D2E718
:10323C000122D0E7FE68CE60B160DBE7420A042AC7
:10324C0013D882093832511C55F8311005EBC206DF
:10325C008E4224D10120921000FA02F268680243D7
:10326C006A60DE609960B360DEE7142A01D85B32D5
:10327C00E9E7542A02D8020B6E32E4E7B2F5AA7FD2
:10328C0002D8C20B7732DEE740F254518A429ABF21
:10329C00820C7C327E22D6E789688E4204D04A6842
:1032AC0022F003029042F7D3CE68DAE7BDE8F08152
:1032BC001400002020040020640500201C000020C5
:1032CC0070477047044B0246196809B903491960E5
:1032DC00186802441A607047680500207C050020BD
:1032EC00F8B500BFF8BC08BC9E467047F8B500BFE7
:0832FC00F8BC08BC9E467047B7
:103304000000000000000000D91C0008F11C0008A7
:103314000000000000000000031D0008091D000853
:103324000B1D000800000000000000005D1D0008E7
:10333400691D00082B1D00083B1D0008751D0008B1
:103344004D1D0008851D0008291D00089F1D00084B
:103354000000000000000000CD1E0008D91E000877
:10336400E51E0008F51E0008F71E00080000000016
:10337400000000006D1F00082F1F00082D1F00080B
:10338400CB1F00080000000000000000E91F000837
:10339400F11F0008F31F00080000000000000000F7
:1033A4001720000819200008000000000000000099
:1033B400C7200008F72000086D200008112000082D
:1033C40079210008152000082520000800000000CD
:1033D40000000000DB210008DD21000800000000DF
:1033E40000000000392200083B2200080000000011
:1033F400000000009D2200089F22000825750D0A88
:0434040000000000C4
:08340800D4F7FF7F0100000072
:04341000310100087E
:043414000D0100089E
:103418000000000001020304010203040607080972
:10342800020406080000000000000000140000204C
:10343800140000201C0000201C0000202400002094
:10344800240000202C0000202C0000203400002044
:10345800340000203C0000203C00002044000020F4
:10346800440000204C0000204C00002054000020A4
:10347800540000205C0000205C0000206400002054
:10348800640000206C0000206C0000207400002004
:10349800740000207C0000207C00002084000020B4
:1034A800840000208C0000208C0000209400002064
:1034B800940000209C0000209C000020A400002014
:1034C800A4000020AC000020AC000020B4000020C4
:1034D800B4000020BC000020BC000020C400002074
:1034E800C4000020CC000020CC000020D400002024
:1034F800D4000020DC000020DC000020E4000020D4
:10350800E4000020EC000020EC000020F400002083
:10351800F4000020FC000020FC0000200401002032
:10352800040100200C0100200C01002014010020DF
:10353800140100201C0100201C010020240100208F
:10354800240100202C0100202C010020340100203F
:10355800340100203C0100203C01002044010020EF
:10356800440100204C0100204C010020540100209F
:10357800540100205C0100205C010020640100204F
:10358800640100206C0100206C01002074010020FF
:10359800740100207C0100207C01002084010020AF
:1035A800840100208C0100208C010020940100205F
:1035B800940100209C0100209C010020A40100200F
:1035C800A4010020AC010020AC010020B4010020BF
:1035D800B4010020BC010020BC010020C40100206F
:1035E800C4010020CC010020CC010020D40100201F
:1035F800D4010020DC010020DC010020E4010020CF
:10360800E4010020EC010020EC010020F40100207E
:10361800F4010020FC010020FC010020040200202D
:10362800040200200C0200200C02002014020020DA
:10363800140200201C0200201C020020240200208A
:10364800240200202C0200202C020020340200203A
:10365800340200203C0200203C02002044020020EA
:10366800440200204C0200204C020020540200209A
:10367800540200205C0200205C020020640200204A
:10368800640200206C0200206C02002074020020FA
:10369800740200207C0200207C02002084020020AA
:1036A800840200208C0200208C020020940200205A
:1036B800940200209C0200209C020020A40200200A
:1036C800A4020020AC020020AC020020B4020020BA
:1036D800B4020020BC020020BC020020C40200206A
:1036E800C4020020CC020020CC020020D40200201A
:1036F800D4020020DC020020DC020020E4020020CA
:10370800E4020020EC020020EC020020F402002079
:10371800F4020020FC020020FC0200200403002028
:10372800040300200C0300200C03002014030020D5
:10373800140300201C0300201C0300202403002085
:10374800240300202C0300202C0300203403002035
:10375800340300203C0300203C03002044030020E5
:10376800440300204C0300204C0300205403002095
:10377800540300205C0300205C0300206403002045
:10378800640300206C0300206C03002074030020F5
:10379800740300207C0300207C03002084030020A5
:1037A800840300208C0300208C0300209403002055
:1037B800940300209C0300209C030020A403002005
:1037C800A4030020AC030020AC030020B4030020B5
:1037D800B4030020BC030020BC030020C403002065
:1037E800C4030020CC030020CC030020D403002015
:1037F800D4030020DC030020DC030020E4030020C5
:10380800E4030020EC030020EC030020F403002074
:10381800F4030020FC030020FC0300200404002023
:10382800040400200C0400200C040020FFFFFFFF0C
:103838000000020028040020000000000000000032
:103848000000000000000000000000000000000070
:103858000000000000000000000000000000000060
:103868000000000000000000000000000000000050
:103878000000000000000000000000000000000040
:103888000000000000000000000000000000000030
:103898000000000000000000000000000000000020
:1038A8000000000000000000000000000000000010
:1038B8000000000000000000000000000000000000
:1038C80000000000000000000000000000000000F0
:1038D80000000000000000000000000000000000E0
:1038E80000000000000000000000000000000000D0
:1038F80000000000000000000000000000000000C0
:1039080000000000000000000000000000000000AF
:10391800000000000000000000000000000000009F
:08392800000000000000000097
:04000005080027D5F3
:00000001FF
