:020000040800F2
:10000000005000202D1F00087F1F00088B1F0008D4
:10001000911F0008971F00089D1F000800000000A6
:10002000000000000000000000000000A31F000806
:10003000AF1F000800000000BB1F0008C71F00081A
:100040007D1F00087D1F00087D1F00087D1F000820
:100050007D1F00087D1F00087D1F00087D1F000810
:100060007D1F00087D1F00087D1F00087D1F000800
:100070007D1F00087D1F00087D1F00087D1F0008F0
:100080007D1F00087D1F00087D1F00087D1F0008E0
:100090007D1F00087D1F00087D1F00087D1F0008D0
:1000A0007D1F00087D1F00087D1F00087D1F0008C0
:1000B0007D1F00087D1F00087D1F00087D1F0008B0
:1000C0007D1F00087D1F00087D1F00087D1F0008A0
:1000D0007D1F00087D1F00087D1F00087D1F000890
:1000E0007D1F00087D1F00087D1F00080000000024
:1000F0000000000000000000000000000000000000
:0C01000000000000000000005FF808F1A3
:10010C0010B5054C237833B9044B13B10448AFF345
:10011C0000800123237010BD180500200000000092
:10012C002024000808B5034B1BB103490348AFF367
:10013C00008008BD000000001C05002020240008E1
:10014C0080F0004002E000BF81F0004142001FBF80
:10015C005FEA410392EA030F7FEA226C7FEA236C89
:10016C006AD04FEA1262D2EB1363C1BFD21841407E
:10017C0048404140B8BF5B42192B88BF704710F014
:10018C00004F40F4000020F07F4018BF404211F0B7
:10019C00004F41F4000121F07F4118BF494292EA1F
:1001AC00030F3FD0A2F1010241FA03FC10EB0C004B
:1001BC00C3F1200301FA03F100F0004302D54942D8
:1001CC0060EB4000B0F5000F13D3B0F1807F06D385
:1001DC0040084FEA310102F10102FE2A51D2B1F17D
:1001EC00004F40EBC25008BF20F0010040EA030072
:1001FC007047490040EB000010F4000FA2F101021F
:10020C00EDD1B0FA80FCACF1080CB2EB0C0200FAA8
:10021C000CF0AABF00EBC25052421843BCBFD040F6
:10022C001843704792F0000F81F4000106BF80F470
:10023C0000000132013BB5E74FEA41037FEA226C33
:10024C0018BF7FEA236C21D092EA030F04D092F0FE
:10025C00000F08BF0846704790EA010F1CBF002032
:10026C00704712F07F4F04D1400028BF40F000408F
:10027C00704712F100723CBF00F50000704700F0AF
:10028C00004343F0FE4040F4000070477FEA2262D6
:10029C0016BF08467FEA23630146420206BF5FEAA7
:1002AC00412390EA010F40F4800070474FF00003A7
:1002BC0004E000BF10F0004348BF40425FEA000C6E
:1002CC0008BF704743F0964301464FF000001CE016
:1002DC0050EA010208BF70474FF000030AE000BF6C
:1002EC0050EA010208BF704711F0004302D54042AA
:1002FC0061EB41015FEA010C02BF8446014600201C
:10030C0043F0B64308BFA3F18053A3F50003BCFA36
:10031C008CF2083AA3EBC25310DB01FA02FC6344E3
:10032C0000FA02FCC2F12002BCF1004F20FA02F2EA
:10033C0043EB020008BF20F00100704702F12002DD
:10034C0001FA02FCC2F1200250EA4C0021FA02F23E
:10035C0043EB020008BF20EADC7070474FF0FF0C43
:10036C001CEAD0521EBF1CEAD15392EA0C0F93EA3E
:10037C000C0F6FD01A4480EA010C400218BF5FEAE0
:10038C0041211ED04FF0006343EA501043EA511153
:10039C00A0FB01310CF00040B1F5000F3EBF49004D
:1003AC0041EAD3715B0040EA010062F17F02FD2A51
:1003BC001DD8B3F1004F40EBC25008BF20F0010034
:1003CC00704790F0000F0CF0004C08BF49024CEA4B
:1003DC00502040EA51207F3AC2BFD2F1FF0340EADD
:1003EC00C250704740F400004FF00003013A5DDC4E
:1003FC0012F1190FDCBF00F000407047C2F100028F
:10040C00410021FA02F1C2F1200200FA02FC5FEA7B
:10041C00310040F1000053EA4C0308BF20EADC70C5
:10042C00704792F0000F00F0004C02BF400010F437
:10043C00000F013AF9D040EA0C0093F0000F01F0E4
:10044C00004C02BF490011F4000F013BF9D041EA06
:10045C000C018FE70CEAD15392EA0C0F18BF93EA08
:10046C000C0F0AD030F0004C18BF31F0004CD8D132
:10047C0080EA010000F00040704790F0000F17BFB9
:10048C0090F0004F084691F0000F91F0004F14D0FF
:10049C0092EA0C0F01D142020FD193EA0C0F03D157
:1004AC004B0218BF084608D180EA010000F000405A
:1004BC0040F0FE4040F40000704740F0FE4040F435
:1004CC00400070474FF0FF0C1CEAD0521EBF1CEAD4
:1004DC00D15392EA0C0F93EA0C0F69D0A2EB0302F2
:1004EC0080EA010C49024FEA402037D04FF080538C
:1004FC0043EA111143EA10130CF000408B4238BF51
:10050C005B0042F17D024FF4000C8B4224BF5B1A5E
:10051C0040EA0C00B3EB510F24BFA3EB510340EAAC
:10052C005C00B3EB910F24BFA3EB910340EA9C005A
:10053C00B3EBD10F24BFA3EBD10340EADC001B01CA
:10054C0018BF5FEA1C1CE0D1FD2A3FF650AF8B426E
:10055C0040EBC25008BF20F0010070470CF0004C7B
:10056C004CEA50207F32C2BFD2F1FF0340EAC250A6
:10057C00704740F400004FF00003013A37E792F067
:10058C00000F00F0004C02BF400010F4000F013AC5
:10059C00F9D040EA0C0093F0000F01F0004C02BFC0
:1005AC00490011F4000F013BF9D041EA0C0195E729
:1005BC000CEAD15392EA0C0F08D142027FF47DAFC2
:1005CC0093EA0C0F7FF470AF084676E793EA0C0FB2
:1005DC0004D14B023FF44CAF08466EE730F0004CB0
:1005EC0018BF31F0004CCAD130F000427FF45CAF40
:1005FC0031F000437FF43CAF5FE700BF80B485B0BF
:10060C0000AF786039600023FB600023FB727B68CD
:10061C005B68FB60FB6823F4702323F48073FB603E
:10062C003B681A683B681B791B021343FA68134337
:10063C00FB607B68FA685A607B689B68FB60FA68B1
:10064C00164B1340FB603B68DA683B689B681A43A7
:10065C003B685B795B001343FA681343FB607B6870
:10066C00FA689A607B68DB6AFB60FB6823F47003B2
:10067C00FB603B681B7C013BDAB2FB7A1343FB72D9
:10068C00FB7A1B05FA681343FB607B68FA68DA6235
:10069C0000BF1437BD4680BC704700BFFDF7F1FFAB
:1006AC0080B483B000AF78607B6800221A607B68EE
:1006BC0000221A717B6800225A717B6800229A60B2
:1006CC007B680022DA607B6801221A7400BF0C3749
:1006DC00BD4680BC704780B483B000AF78600B46D9
:1006EC00FB70FB78002B06D07B689B6843F0010203
:1006FC007B689A6005E07B689B6823F001027B684D
:10070C009A6000BF0C37BD4680BC704780B483B084
:10071C0000AF78600B46FB70FB78002B06D07B6833
:10072C009B6843F480727B689A6005E07B689B68E9
:10073C0023F480727B689A6000BF0C37BD4680BC86
:10074C00704780B483B000AF78607B689B6843F0DF
:10075C0004027B689A6000BF0C37BD4680BC7047B2
:10076C0080B483B000AF78600B46FB70FB78002B35
:10077C0006D07B689B6843F4A0027B689A6005E016
:10078C007B689B6823F4A0027B689A6000BF0C37DF
:10079C00BD4680BC704780B485B000AF7860084619
:1007AC0011461A460346FB700B46BB7013467B7012
:1007BC000023FB600023BB60FB78092B23D97B68EB
:1007CC00DB68FB60FB78A3F10A0213465B00134461
:1007DC00072202FA03F3BB60BB68DB43FA681340E1
:1007EC00FB607978FB78A3F10A0213465B00134493
:1007FC0001FA03F3BB60FA68BB681343FB607B68C8
:10080C00FA68DA601EE07B681B69FB60FA781346B5
:10081C005B001344072202FA03F3BB60BB68DB43A3
:10082C00FA681340FB607978FA7813465B0013443E
:10083C0001FA03F3BB60FA68BB681343FB607B6887
:10084C00FA681A61BB78062B21D87B685B6BFB605E
:10085C00BB785A1E13469B0013441F2202FA03F363
:10086C00BB60BB68DB43FA681340FB60F978BB786C
:10087C005A1E13469B00134401FA03F3BB60FA683B
:10088C00BB681343FB607B68FA685A6347E0BB782C
:10089C000C2B21D87B681B6BFB60BB78DA1F1346D3
:1008AC009B0013441F2202FA03F3BB60BB68DB43BB
:1008BC00FA681340FB60F978BB78DA1F13469B008B
:1008CC00134401FA03F3BB60FA68BB681343FB6083
:1008DC007B68FA681A6322E07B68DB6AFB60BB7892
:1008EC00A3F10D0213469B0013441F2202FA03F3DB
:1008FC00BB60BB68DB43FA681340FB60F978BB78DC
:10090C00A3F10D0213469B00134401FA03F3BB60E1
:10091C00FA68BB681343FB607B68FA68DA6200BF55
:10092C001437BD4680BC704780B485B000AF78608A
:10093C0039600023FB607B681B68FB60FB6823F459
:10094C00FF4323F07003FB603B689A683B681B6AAB
:10095C001A433B681B691A433B685B691A433B6843
:10096C009B691A433B68DB691A433B685B6A1A4311
:10097C003B689B6A1343FA681343FB607B68FA6815
:10098C001A603B68DA687B685A603B681A687B6857
:10099C009A603B685A687B68DA6000BF1437BD46C2
:1009AC0080BC704780B483B000AF78607B68002255
:1009BC001A607B6800225A607B6800229A607B6810
:1009CC000022DA607B6800221A617B6800225A617F
:1009DC007B6800229A617B680022DA617B680022C6
:1009EC001A627B6800225A627B6800229A6200BFFE
:1009FC000C37BD4680BC704780B483B000AF7860C4
:100A0C000B46FB70FB78002B06D07B681B6843F011
:100A1C0001027B681A6006E07B681A684FF6FE7369
:100A2C0013407A68136000BF0C37BD4680BC70471A
:100A3C0080B489B000AF786039600023FB6100237B
:100A4C003B610023BB610023FB6000237B6100231F
:100A5C00BB603B68DB7803F00F03FB613B68DB7822
:100A6C0003F01003002B05D03B689B781A46FB69FA
:100A7C001343FB613B681B88DBB2002B44D07B68C3
:100A8C001B687B610023BB6138E00122BB6902FA61
:100A9C0003F3FB603B681B881A46FB6813403B6101
:100AAC003A69FB689A4226D1BB699B00FB600F2216
:100ABC00FB6802FA03F3BB60BB68DB437A69134043
:100ACC007B61FA69FB6802FA03F37A6913437B6171
:100ADC003B68DB78282B05D10122BB699A407B68E7
:100AEC005A6108E03B68DB78482B04D10122BB69D2
:100AFC009A407B681A61BB690133BB61BB69072BE8
:100B0C00C3D97B687A691A603B681B88FF2B46D96E
:100B1C007B685B687B610023BB613AE0BB6908338F
:100B2C00012202FA03F3FB603B681B881A46FB6840
:100B3C0013403B613A69FB689A4227D1BB699B0021
:100B4C00FB600F22FB6802FA03F3BB60BB68DB435C
:100B5C007A6913407B61FA69FB6802FA03F37A69DC
:100B6C0013437B613B68DB78282B05D1BB690833C9
:100B7C0001229A407B685A613B68DB78482B05D18F
:100B8C00BB69083301229A407B681A61BB69013347
:100B9C00BB61BB69072BC1D97B687A695A6000BFFE
:100BAC002437BD4680BC704780B483B000AF7860FA
:100BBC007B684FF6FF721A807B6802229A707B6802
:100BCC000422DA7000BF0C37BD4680BC70470000B1
:100BDC0080B485B000AF78600023FB60094B5B6884
:100BEC00FB60FB6823F44043FB60FA687B681343AB
:100BFC00FB60044AFB68536000BF1437BD4680BCE1
:100C0C00704700BF0010024080B487B000AF78601E
:100C1C0000237B6100233B610023FB600023BB604E
:100C2C004C4B5B6803F00C037B617B69042B07D096
:100C3C00082B09D0002B33D17B68474A1A6033E06C
:100C4C007B68454A1A602FE0424B5B6803F47013D3
:100C5C003B61404B5B6803F48033FB603B699B0C4E
:100C6C0002333B61FB68002B06D13B693B4A02FB1C
:100C7C0003F27B681A6017E0364B5B6803F40033B1
:100C8C00002B06D03B69354A02FB03F27B681A60E5
:100C9C000AE03B69304A02FB03F27B681A6003E00E
:100CAC007B682D4A1A6000BF2A4B5B6803F0F00387
:100CBC007B617B691B097B61294A7B6913441B7827
:100CCC00DBB2BB607B681A68BB68DA407B685A6031
:100CDC00204B5B6803F4E0637B617B691B0A7B61DF
:100CEC001F4A7B6913441B78DBB2BB607B685A6874
:100CFC00BB68DA407B689A60164B5B6803F4605300
:100D0C007B617B69DB0A7B61154A7B6913441B7829
:100D1C00DBB2BB607B685A68BB68DA407B68DA6020
:100D2C000C4B5B6803F440437B617B699B0B7B61E1
:100D3C000C4A7B6913441B78DBB2BB607B68DA68B6
:100D4C00BB68B2FBF3F27B681A6100BF1C37BD466F
:100D5C0080BC70470010024000127A0000093D0070
:100D6C00000000201000002080B483B000AF786039
:100D7C000B46FB70FB78002B06D00949084B5A69CF
:100D8C007B6813434B6106E00549054B5A697B6848
:100D9C00DB4313404B6100BF0C37BD4680BC704732
:100DAC000010024080B483B000AF78600B46FB703B
:100DBC00FB78002B06D00949084B9A697B681343D2
:100DCC008B6106E00549054B9A697B68DB43134050
:100DDC008B6100BF0C37BD4680BC704700100240D1
:100DEC0080B483B000AF78600B46FB70FB78002BAF
:100DFC0006D00949084BDA697B681343CB6106E0DE
:100E0C000549054BDA697B68DB431340CB6100BFB6
:100E1C000C37BD4680BC70470010024080B485B0D2
:100E2C0000AF786039600023FB817B681B88FB81F5
:100E3C007B682E4A934213D07B682D4A93420FD085
:100E4C007B68B3F1804F0BD07B682A4A934207D062
:100E5C007B68294A934203D07B68284A934208D185
:100E6C00FB8923F07003FB813B685A88FB89134391
:100E7C00FB817B68224A93420CD07B68214A9342C7
:100E8C0008D0FB8923F44073FB813B68DA88FB892B
:100E9C001343FB817B68FA891A803B689A887B68CC
:100EAC009A853B681A887B681A857B680F4A93423F
:100EBC000FD07B680E4A93420BD07B68124A934248
:100ECC0007D07B68114A934203D07B68104A934247
:100EDC0004D13B681B7A9AB27B681A867B68012224
:100EEC009A8200BF1437BD4680BC7047002C01406D
:100EFC00003401400004004000080040000C004099
:100F0C00001000400014004000400140004401402B
:100F1C000048014080B582B000AF786039603B6812
:100F2C001B88002B0FD13B6859883B689A883B681B
:100F3C001B89786800F04EF93B68DB8819467868A5
:100F4C0000F08CF836E03B681B88042B0FD13B6813
:100F5C0059883B689A883B681B89786800F0AAF925
:100F6C003B68DB881946786800F093F822E03B6810
:100F7C001B88082B0FD13B6859883B689A883B68C3
:100F8C001B89786800F010FA3B68DB881946786892
:100F9C0000F09CF80EE03B6859883B689A883B68E7
:100FAC001B89786800F076FA3B68DB88194678680C
:100FBC0000F0A7F800BF0837BD4680BD80B483B0F1
:100FCC0000AF78607B684FF6FF729A807B680022D6
:100FDC001A807B680022DA807B6800225A807B684A
:100FEC0000221A7200BF0C37BD4680BC704780B41B
:100FFC0083B000AF78607B6800221A807B68002287
:10100C005A807B6801229A807B680022DA807B6898
:10101C0000221A8100BF0C37BD4680BC704780B4DB
:10102C0083B000AF78600B46FB70FB78002B08D0C8
:10103C007B681B889BB243F001039AB27B681A80D1
:10104C0007E07B681B889BB223F001039AB27B6894
:10105C001A8000BF0C37BD4680BC704780B483B08B
:10106C0000AF78600B467B807B681B8B9BB223F0B8
:10107C000C039AB27B681A837B681B8B9AB27B88B1
:10108C0013439AB27B681A8300BF0C37BD4680BCF1
:10109C00704780B483B000AF78600B467B807B6870
:1010AC001B8B9BB223F440639AB27B681A837B68D8
:1010BC001B8B9AB27B881B029BB213439AB27B6840
:1010CC001A8300BF0C37BD4680BC704780B483B018
:1010DC0000AF78600B467B807B689B8B9BB223F0C8
:1010EC000C039AB27B689A837B689B8B9AB27B8841
:1010FC0013439AB27B689A8300BF0C37BD4680BC01
:10110C00704780B483B000AF78600B467B807B68FF
:10111C009B8B9BB223F440639AB27B689A837B6867
:10112C009B8B9AB27B881B029BB213439AB27B684F
:10113C009A8300BF0C37BD4680BC704780B483B027
:10114C0000AF78607B689B8E9BB218460C37BD460F
:10115C0080BC704780B483B000AF78607B681B8F15
:10116C009BB218460C37BD4680BC704780B483B028
:10117C0000AF78607B689B8F9BB218460C37BD46DE
:10118C0080BC704780B483B000AF78607B68B3F8E4
:10119C0040309BB218460C37BD4680BC704780B4BB
:1011AC0085B000AF78600B467B800023FB737B68B7
:1011BC001B8A9AB27B8813409BB2002B02D001236E
:1011CC00FB7301E00023FB73FB7B18461437BD4611
:1011DC0080BC704780B487B000AFF86008461146F9
:1011EC001A4603467B810B463B811346FB8000234A
:1011FC00BB820023FB82FB681B8C9BB223F0010398
:10120C009AB2FB681A84FB681B8BBB82FB681B8C35
:10121C00FB82BB8A23F0F303BB82FB881B019AB2CF
:10122C003B8913439AB2BB8A1343BB82FB681C4AAB
:10123C00934213D0FB681B4A93420FD0FB68B3F167
:10124C00804F0BD0FB68184A934207D0FB68174AB3
:10125C00934203D0FB68164A93420BD1FB8A23F0CE
:10126C000203FB827A89FB8A13439BB243F001038E
:10127C00FB820AE0FB8A23F00A03FB827A89FB8A51
:10128C0013439BB243F00103FB82FB68BA8A1A83B7
:10129C00FB68FA8A1A8400BF1C37BD4680BC7047B5
:1012AC00002C0140003401400004004000080040C4
:1012BC00000C004080B487B000AFF86008461146BF
:1012CC001A4603467B810B463B811346FB80002369
:1012DC00BB820023FB8200237B82FB681B8C9BB2AE
:1012EC0023F010039AB2FB681A84FB681B8BBB8239
:1012FC00FB681B8CFB827B891B017B82BB8A23F4E2
:10130C0040731B051B0DBB82FB881B039AB2BB8A67
:10131C001343BB823B891B029AB2BB8A1343BB8229
:10132C00FB681C4A934213D0FB681B4A93420FD0B4
:10133C00FB68B3F1804F0BD0FB68184A934207D07F
:10134C00FB68174A934203D0FB68164A93420BD1B1
:10135C00FB8A23F02003FB827A8AFB8A13439BB21D
:10136C0043F01003FB820AE0FB8A23F0A003FB820C
:10137C007A89FB8A13439BB243F01003FB82FB6810
:10138C00BA8A1A83FB68FA8A1A8400BF1C37BD46D6
:10139C0080BC7047002C0140003401400004004028
:1013AC0000080040000C004080B487B000AFF8602B
:1013BC00084611461A4603467B810B463B81134671
:1013CC00FB800023BB820023FB8200237B82FB6813
:1013DC001B8C9BB223F480739AB2FB681A84FB6853
:1013EC009B8BBB82FB681B8CFB827B891B027B82E9
:1013FC00BB8A23F0F303BB82FB881B019AB23B89A7
:10140C0013439AB2BB8A1343BB82FB681C4A9342B8
:10141C0013D0FB681B4A93420FD0FB68B3F1804F8B
:10142C000BD0FB68184A934207D0FB68174A9342CB
:10143C0003D0FB68164A93420BD1FB8A23F400734A
:10144C00FB827A8AFB8A13439BB243F48073FB8240
:10145C000AE0FB8A23F42063FB827A89FB8A13431C
:10146C009BB243F48073FB82FB68BA8A9A83FB6855
:10147C00FA8A1A8400BF1C37BD4680BC704700BF77
:10148C00002C0140003401400004004000080040E2
:10149C00000C004080B487B000AFF86008461146DD
:1014AC001A4603467B810B463B811346FB80002387
:1014BC00BB820023FB8200237B82FB681B8C9BB2CC
:1014CC0023F480539AB2FB681A84FB689B8BBB8213
:1014DC00FB681B8CFB827B891B037B82BB8A23F4FE
:1014EC0040731B051B0DBB823B891B029AB2BB8A46
:1014FC001343BB82FB881B039AB2BB8A1343BB8288
:10150C00FB681D4A934213D0FB681C4A93420FD0D0
:10151C00FB68B3F1804F0BD0FB68194A934207D09C
:10152C00FB68184A934203D0FB68174A93420BD1CD
:10153C00FB8A23F40053FB827A8AFB8A13439BB207
:10154C0043F48053FB820CE0FB8A23F400735B04AE
:10155C005B0CFB827A89FB8A13439BB243F4805366
:10156C00FB82FB68BA8A9A83FB68FA8A1A8400BFEA
:10157C001C37BD4680BC7047002C01400034014034
:10158C000004004000080040000C004080B58CB006
:10159C0000AF786039600023FB620023BB6200233C
:1015AC007B6200233B620023FB617B68FB617B68F1
:1015BC001B8A9BB2FB62FA6A4CF6FF731340FB6208
:1015CC003B68DB881A46FB6A1343FB62FB6A9AB2E0
:1015DC007B681A827B689B899BB2FB62FA6A4EF627
:1015EC00F3131340FB623B689A883B681B891343D7
:1015FC009AB23B685B8913439BB21A46FB6A13434E
:10160C00FB62FB6A9AB27B689A817B689B8A9BB26D
:10161C00FB62FA6A4FF6FF431340FB623B689B89FF
:10162C001A46FB6A1343FB62FB6A9AB27B689A8286
:10163C0007F108031846FFF7E7FAFB692E4A9342B5
:10164C0002D17B69BB6201E03B69BB627B689B8911
:10165C009BB21BB2002B0CDABA6A13469B001344E4
:10166C009A001A443B681B685B00B2FBF3F37B6285
:10167C000BE0BA6A13469B0013449A001A443B6869
:10168C001B689B00B2FBF3F37B627B6A1B4AA2FBD9
:10169C0003235B091B01FB62FB6A1B09642202FB2F
:1016AC0003F37A6AD31A3B627B689B899BB21BB2A9
:1016BC00002B0CDA3B6ADB003233104AA2FB03230B
:1016CC005B0903F00703FA6A1343FB620BE03B6A06
:1016DC001B013233094AA2FB03235B0903F00F03FE
:1016EC00FA6A1343FB62FB6A9AB27B681A8100BFE9
:1016FC003037BD4680BD00BF003801401F85EB511F
:10170C0080B483B000AF78600B46FB70FB78002B85
:10171C0008D07B689B899BB243F400539AB27B68D8
:10172C009A8107E07B689B899BB223F400539AB2A1
:10173C007B689A8100BF0C37BD4680BC704780B473
:10174C0083B000AF78600B467B807B88C3F30803C3
:10175C009AB27B689A8000BF0C37BD4680BC70473C
:10176C0080B483B000AF78607B689B889BB2C3F376
:10177C0008039BB218460C37BD4680BC704780B43A
:10178C0085B000AF78600B467B800023FB737B68D1
:10179C001B889AB27B8813409BB2002B02D001238A
:1017AC00FB7301E00023FB73FB7B18461437BD462B
:1017BC0080BC704738B51D464161041D114620465A
:1017CC0000F00DFA2946204600F015FA38BD38B560
:1017DC000446051D284600F013FA00B938BD28460A
:1017EC0000F0FFF9646923689B682046984720B98C
:1017FC0023681B6820469847F0E723685B682046FF
:10180C00984738BD10B50446034B40F8043B00F034
:10181C000BFA204610BD00BF4024000810B504464A
:10182C00034B40F8043B00F0D3F9204610BD00BF39
:10183C004024000810B50446FFF7F0FF204600F0E6
:10184C007DFC204610BD436818887047704710B562
:10185C00044600F073FC204610BD41607047000048
:10186C00014B0360704700BF5024000842681369A5
:10187C0081680B431361704742681369C1680B435D
:10188C001361704743689A6883681A4214BF012039
:10189C0000207047704710B5044600F04FFC2046FE
:1018AC0010BD0F2A08DC4160012303FA02F18160AC
:1018BC00103203FA02F2C26070470000024A026062
:1018CC00002242608260704764240008704708B5AB
:1018DC0003890C2B18D8DFE803F0071717170B1721
:1018EC0017170F17171713004068FFF727FC08BDD1
:1018FC004068FFF72FFC08BD4068FFF737FC08BDB8
:10190C004068FFF73FFC08BD002008BD08B50389FF
:10191C000C2B28D8DFE803F0072727270F272727CA
:10192C00172727271F0002214068FFF738FC0030DB
:10193C0018BF012008BD04214068FFF730FC0030BF
:10194C0018BF012008BD08214068FFF728FC0030B3
:10195C0018BF012008BD10214068FFF720FC0030A3
:10196C0018BF012008BD002008BD10B5044600F0CA
:10197C00E5FB204610BD416002817047014B0360BE
:10198C00704700BF802400084368988C80B2704771
:10199C00704710B5044600F0D1FB204610BD4160E5
:1019AC0070470000014B0360704700BF982400088B
:1019BC00002070477047704710B5044600F0BEFB1E
:1019CC00204610BD10B5044600F0B8FB204610BDF3
:1019DC0041607047074A0260074981600022C2607B
:1019EC00C0F85421C0F85811C0F85C21C0F8A422EA
:1019FC00704700BFBC240008AC240008D0F84C2170
:101A0C004068824214BF00200120704708B500F5E1
:101A1C00AC70FFF7F3FF80F00100C0B208BD00000E
:101A2C000131064BA3FB0123C81A03EB50031B0A1D
:101A3C0040F2431000FB1310704700BFBFB0CB95B2
:101A4C0038B504460D464168FFF7EAFFD4F84C312F
:101A5C00984206D063682A7823441A726060012089
:101A6C0038BD002038BDF0B583B0074616460024BB
:101A7C00B4420DDA4D1C0B7802A901F8013D07F1B7
:101A8C000800FFF7DDFF18B10134A4B22946EFE7D7
:101A9C00204603B0F0BD70B582B006460D4600245A
:101AAC002B785BB1013502A901F8013D06F1080064
:101ABC00FFF7C6FF10B10134A4B2F1E7204602B023
:101ACC0070BD10B582B0044620214068FFF757FE68
:101ADC0008B902B010BD6068FFF742FE02A901F818
:101AEC00010D04F5AC70FFF7ABFFF2E7D0F84C2119
:101AFC0043689A420ED010B50446D0F84C310344DA
:101B0C001B7A0B70D0F84C11FFF78AFFC4F84C010C
:101B1C00012010BD0020704700B583B00DF1070106
:101B2C0000F5AC70FFF7E2FF9DF8070003B05DF81D
:101B3C0004FB30B583B0044600F108052846FFF7D6
:101B4C005DFF08B103B030BD80216068FFF717FE60
:101B5C000028F7D00DF107012846FFF7C7FF9DF8C5
:101B6C0007106068FFF7EBFDECE710B50446FFF7D4
:101B7C00E0FF2046FFF7A5FF10BD704710B50446E7
:101B8C0000F0DCFA204610BD4160704738B50446C1
:101B9C00406803681B68984700B938BD60680368E3
:101BAC005B689847054660812089281AFEF782FBFE
:101BBC0001460348FEF786FCE0602581EDE700BF97
:101BCC0000401C46014B0360704700BFE024000836
:101BDC00704710B5044600F0B1FA204610BD4160C4
:101BEC00704710B50446406803681B6898476081CD
:101BFC000023237310BD08B50181FFF7F2FF08BD68
:101C0C0010B50446037B0BB1207B10BD4068036804
:101C1C001B6898476389C01A80B223899842F3DB0A
:101C2C0001232373F0E70000014B0360704700BFF2
:101C3C00F0240008704710B5044600F07FFA2046E7
:101C4C0010BD00002DE9F041ADF5667D00F0BCF94A
:101C5C004FF44040FEF7BCFF0121A848FFF7C0F845
:101C6C0001214FF40770FFF79DF801210846FFF79B
:101C7C007BF8E3A8FFF7A2F94FF6FF73ADF89033AA
:101C8C0041F61F43ADF88C339D4DE3A92846FFF771
:101C9C00C5F801212846FFF7C2F94FF40053ADF8FF
:101CAC00883302248DF88A4314238DF88B33954E98
:101CBC00E2A93046FEF7BCFEE0A8FFF773FE29460A
:101CCC00E0A8FFF76CFEDCA8FFF7F8FD0D2231460B
:101CDC00DCA8FFF7E6FDD6A8FFF794FD41F28833A8
:101CEC00E0AADCA9D6A8FFF765FDC023ADF88833C0
:101CFC008DF88A431C268DF88B6305F58435E2A993
:101D0C002846FEF795FE4FF48063ADF888338DF8C6
:101D1C008A4318238DF88B33E2A92846FEF788FEF8
:101D2C004FF40063ADF888338DF88A438DF88B63DC
:101D3C00E2A92846FEF77CFE4FF41653D2930023FB
:101D4C00ADF854330C22ADF85223ADF85033ADF846
:101D5C004E33ADF84C336C4CD2A92046FFF716FC31
:101D6C0001212046FFF7CCFC28A8FFF733FE2146C3
:101D7C0028A8FFF72DFE012524AC002D05DB2046FD
:101D8C00FFF76EFD0834013DF7E70024012C0ADC57
:101D9C0023AB03EB440124AB03EBC400FFF75DFD65
:101DAC000134A4B2F2E7E2A8FEF7FEFE0323ADF87D
:101DBC00883300268DF88B63DFF86081E2A94046FA
:101DCC00FEF736FE18A8FEF7EDFD4FF480631F9367
:101DDC004FF480731E931A9680231D932023209317
:101DEC0002271B97219623AB1993484B1893484C09
:101DFC0018A92046FEF798FD01212046FEF7FCFDB0
:101E0C0013A8FEF74DFC01248DF851408DF85C7041
:101E1C008DF850403F4D13A92846FEF7EFFB0723E2
:101E2C00224631462846FEF7B6FC07233A462146A1
:101E3C002846FEF7B0FCAB6843F46023AB60214648
:101E4C002846FEF763FC21462846FEF744FC214653
:101E5C002846FEF785FC2846FEF773FCE2A8FEF741
:101E6C00A3FE4023ADF888331C238DF88B338DF8FB
:101E7C008A73E2A94046FEF7DBFD10A8FFF7B7F81E
:101E8C00ADF84060A5F5903510A92846FFF742F84B
:101E9C000DA8FFF773FD324629460DA8FFF76BFD21
:101EAC0009A8FFF78FFE0DA909A8FFF76DFE01AB7E
:101EBC00002C0BDB184A1A600022DA604FF07E52BD
:101ECC005A6000229A601033013CF1E70023012B89
:101EDC0009DC24AA02EBC30101AA02EB0312D160B4
:101EEC0001339BB2F3E709A8FFF750FED6A8FFF722
:101EFC006EFC28A8FFF739FEF5E700BF024004008E
:101F0C000004004000100140004800404C240140F7
:101F1C000800024000240140002500080008014090
:101F2C00DFF834D0002103E00C4B5B5843500431F4
:101F3C000B480C4B42189A42F6D30B4A02E0002392
:101F4C0042F8043B094B9A42F9D300F03DF800F0FB
:101F5C00F7F8FFF777FE70470050002018250008AF
:101F6C000000002018050020180500207405002032
:101F7C00FEE780B400AF00BFBD4680BC704780B4A4
:101F8C0000AFFEE780B400AFFEE780B400AFFEE721
:101F9C0080B400AFFEE780B400AF00BFBD4680BC8C
:101FAC00704780B400AF00BFBD4680BC704780B4A2
:101FBC0000AF00BFBD4680BC704780B400AF00BF0F
:101FCC00BD4680BC7047000080B500AF154A154B6C
:101FDC001B6843F0010313601249124B5A68124BF1
:101FEC0013404B600F4A0F4B1B6823F0847323F490
:101FFC00803313600B4A0B4B1B6823F48023136054
:10200C00084A084B5B6823F4FE035360054B4FF4FE
:10201C001F029A6000F00CF8044B4FF000629A60BB
:10202C0000BF80BD001002400000FFF800ED00E092
:10203C0080B500AF00F002F800BF80BD80B483B063
:10204C0000AF00237B6000233B603A4A394B1B688E
:10205C0043F480331360374B1B6803F400333B604D
:10206C007B6801337B603B68002B03D17B68B3F545
:10207C00A06FF0D12F4B1B6803F40033002B02D060
:10208C0001233B6001E000233B603B68012B4BD1FB
:10209C00294A294B1B6843F010031360264A264B30
:1020AC001B6823F003031360234A234B1B6843F084
:1020BC00020313601F4A1F4B5B6853601D4A1D4B84
:1020CC005B6853601B4A1B4B5B6843F48063536033
:1020DC00184A184B5B6823F47C135360154A154B54
:1020EC005B6843F4E8135360124A124B1B6843F0CD
:1020FC008073136000BF0F4B1B6803F00073002B41
:10210C00F9D00C4A0B4B5B6823F003035360094A6C
:10211C00084B5B6843F00203536000BF054B5B68E0
:10212C0003F00C03082BF9D100BF0C37BD4680BC63
:10213C00704700BF001002400020024000F024B89D
:10214C0070B500250C4E0D4CA41BA410A54209D152
:10215C0000F060F900250A4E0A4CA41BA410A542FD
:10216C0005D170BD56F8253098470135EEE756F885
:10217C00253098470135F2E7102500081025000896
:10218C001025000814250008024B0146186800F0C1
:10219C0075B800BF24040020014800F02BB900BF23
:1021AC0068050020014800F026B900BF6805002032
:1021BC0038B50023054C05460846236000F01CF991
:1021CC00431C02D1236803B12B6038BD700500207D
:1021DC002DE9F8438946254F0646FFF7DDFFBB681E
:1021EC00DFF894805D68A8F1110425F00305A4EBD9
:1021FC0009042C44B4FBF8F4013C08FB04F44445FA
:10220C0005DA3046FFF7CEFF0020BDE8F883002149
:10221C003046FFF7CDFFBB682B449842F1D16142A9
:10222C003046FFF7C5FF013010D100213046FFF7D3
:10223C00BFFFBA68831A0F2BE3DD0D4943F001038E
:10224C0009685360401A0B490860DAE7BB68094A11
:10225C002D1B45F001055D60136830461C1B146096
:10226C00FFF7A0FF0120BDE8F88300BF1400002099
:10227C001C04002034050020800000002DE9F041F2
:10228C0004468846002900F0AB80FFF785FF58F81C
:10229C00042C544D22F00100A8F108031F18A96862
:1022AC007E688F4226F0030602F001021BD13044F7
:1022BC003AB958F8082C9B1A99681044DA68CA6025
:1022CC00916040F001025A60AB60474B1B6898422A
:1022DC0004D3464B20461968FFF77AFF2046BDE829
:1022EC00F041FFF75FBF7E60002A39D158F8081C17
:1022FC0005F1080E5B1A08449968714532D0D3F881
:10230C000CE0C1F80CE0CEF80810B9194968C907FF
:10231C000AD43044B9683ABB354EB14224D10122BB
:10232C006B612B61D960996040F0010159601850C4
:10233C00002AD3D1B0F5007F1AD20122C008811037
:10234C008A40696801300A436A6055F8301005EB21
:10235C00C002083ADA60996045F83030CB60BDE7CE
:10236C000022D2E70122D0E7FE68CE60B160DBE745
:10237C00420A042A13D882093832511C55F83110FC
:10238C0005EBC2068E4224D10120921000FA02F213
:10239C00686802436A60DE609960B360DEE7142A05
:1023AC0001D85B32E9E7542A02D8020B6E32E4E71B
:1023BC00B2F5AA7F02D8C20B7732DEE740F2545155
:1023CC008A429ABF820C7C327E22D6E789688E4282
:1023DC0004D04A6822F003029042F7D3CE68DAE7C1
:1023EC00BDE8F08114000020200400205C050020D2
:1023FC001C00002070477047044B0246196809B94D
:10240C0003491960186802441A607047600500207F
:10241C0074050020F8B500BFF8BC08BC9E46704798
:0C242C00F8B500BFF8BC08BC9E46704725
:1024380000000000000000002918000841180008EA
:102448000000000000000000531800085918000898
:102458005B18000800000000000000007918000860
:102468008518000891180008A1180008A31800088A
:10247800000000000000000019190008DB1800081F
:10248800D9180008771900080000000000000000B3
:10249800951900089D1900089F1900080000000000
:1024A80000000000C3190008C5190008000000005A
:1024B80000000000731A0008A31A0008191A00087F
:1024C800BD190008251B0008C1190008D11900080A
:1024D8000000000000000000871B0008891B00089E
:1024E8000000000000000000DD1B0008DF1B0008E2
:1024F8000000000000000000411C0008431C000808
:0825080040FCFF7F0100000010
:04251000310100088D
:042514000D010008AD
:102518000000000001020304010203040607080981
:10252800020406080000000000000000140000205B
:10253800140000201C0000201C00002024000020A3
:10254800240000202C0000202C0000203400002053
:10255800340000203C0000203C0000204400002003
:10256800440000204C0000204C00002054000020B3
:10257800540000205C0000205C0000206400002063
:10258800640000206C0000206C0000207400002013
:10259800740000207C0000207C00002084000020C3
:1025A800840000208C0000208C0000209400002073
:1025B800940000209C0000209C000020A400002023
:1025C800A4000020AC000020AC000020B4000020D3
:1025D800B4000020BC000020BC000020C400002083
:1025E800C4000020CC000020CC000020D400002033
:1025F800D4000020DC000020DC000020E4000020E3
:10260800E4000020EC000020EC000020F400002092
:10261800F4000020FC000020FC0000200401002041
:10262800040100200C0100200C01002014010020EE
:10263800140100201C0100201C010020240100209E
:10264800240100202C0100202C010020340100204E
:10265800340100203C0100203C01002044010020FE
:10266800440100204C0100204C01002054010020AE
:10267800540100205C0100205C010020640100205E
:10268800640100206C0100206C010020740100200E
:10269800740100207C0100207C01002084010020BE
:1026A800840100208C0100208C010020940100206E
:1026B800940100209C0100209C010020A40100201E
:1026C800A4010020AC010020AC010020B4010020CE
:1026D800B4010020BC010020BC010020C40100207E
:1026E800C4010020CC010020CC010020D40100202E
:1026F800D4010020DC010020DC010020E4010020DE
:10270800E4010020EC010020EC010020F40100208D
:10271800F4010020FC010020FC010020040200203C
:10272800040200200C0200200C02002014020020E9
:10273800140200201C0200201C0200202402002099
:10274800240200202C0200202C0200203402002049
:10275800340200203C0200203C02002044020020F9
:10276800440200204C0200204C02002054020020A9
:10277800540200205C0200205C0200206402002059
:10278800640200206C0200206C0200207402002009
:10279800740200207C0200207C02002084020020B9
:1027A800840200208C0200208C0200209402002069
:1027B800940200209C0200209C020020A402002019
:1027C800A4020020AC020020AC020020B4020020C9
:1027D800B4020020BC020020BC020020C402002079
:1027E800C4020020CC020020CC020020D402002029
:1027F800D4020020DC020020DC020020E4020020D9
:10280800E4020020EC020020EC020020F402002088
:10281800F4020020FC020020FC0200200403002037
:10282800040300200C0300200C03002014030020E4
:10283800140300201C0300201C0300202403002094
:10284800240300202C0300202C0300203403002044
:10285800340300203C0300203C03002044030020F4
:10286800440300204C0300204C03002054030020A4
:10287800540300205C0300205C0300206403002054
:10288800640300206C0300206C0300207403002004
:10289800740300207C0300207C03002084030020B4
:1028A800840300208C0300208C0300209403002064
:1028B800940300209C0300209C030020A403002014
:1028C800A4030020AC030020AC030020B4030020C4
:1028D800B4030020BC030020BC030020C403002074
:1028E800C4030020CC030020CC030020D403002024
:1028F800D4030020DC030020DC030020E4030020D4
:10290800E4030020EC030020EC030020F403002083
:10291800F4030020FC030020FC0300200404002032
:10292800040400200C0400200C040020FFFFFFFF1B
:102938000000020028040020000000000000000041
:10294800000000000000000000000000000000007F
:10295800000000000000000000000000000000006F
:10296800000000000000000000000000000000005F
:10297800000000000000000000000000000000004F
:10298800000000000000000000000000000000003F
:10299800000000000000000000000000000000002F
:1029A800000000000000000000000000000000001F
:1029B800000000000000000000000000000000000F
:1029C80000000000000000000000000000000000FF
:1029D80000000000000000000000000000000000EF
:1029E80000000000000000000000000000000000DF
:1029F80000000000000000000000000000000000CF
:102A080000000000000000000000000000000000BE
:102A180000000000000000000000000000000000AE
:082A28000000000000000000A6
:0400000508001F2DA3
:00000001FF
