:020000040800F2
:100000000050002089460008DB460008E74600084B
:10001000ED460008F3460008F9460008000000001D
:10002000000000000000000000000000FF46000883
:100030000B4700080000000017470008234700088E
:10004000D9460008D9460008D9460008D946000814
:10005000D9460008D9460008D9460008D946000804
:10006000D9460008D9460008D9460008D9460008F4
:10007000D9460008D9460008D9460008D9460008E4
:10008000D9460008D9460008D9460008D9460008D4
:10009000D9460008D9460008D9460008D9460008C4
:1000A000D9460008D9460008D9460008D9460008B4
:1000B000D9460008D9460008D9460008D9460008A4
:1000C000D9460008D9460008D9460008D946000894
:1000D000D9460008D9460008D9460008D946000884
:1000E000D9460008D9460008D9460008000000009B
:1000F0000000000000000000000000000000000000
:0C01000000000000000000005FF808F1A3
:1001100010B5054C237833B9044B13B10448AFF341
:1001200000800123237010BD8C0600200000000019
:100130000470000808B5034B1BB103490348AFF333
:10014000008008BD00000000900600200470000838
:10015000034613F8012B002AFBD1181A0138704707
:1001600081F0004102E000BF83F0004330B54FEA68
:1001700041044FEA430594EA050F08BF90EA020FD5
:100180001FBF54EA000C55EA020C7FEA645C7FEA68
:10019000655C00F0E2804FEA5454D4EB5555B8BF8B
:1001A0006D420CDD2C4480EA020281EA030382EAFC
:1001B000000083EA010180EA020281EA0303362D8E
:1001C00088BF30BD11F0004F4FEA01314FF4801C61
:1001D0004CEA113102D0404261EB410113F0004F73
:1001E0004FEA03334CEA133302D0524263EB43032A
:1001F00094EA050F00F0A780A4F10104D5F1200EC8
:100200000DDB02FA0EFC22FA05F2801841F1000122
:1002100003FA0EF2801843FA05F359410EE0A5F1F6
:1002200020050EF1200E012A03FA0EFC28BF4CF027
:10023000020C43FA05F3C01851EBE37101F00045DD
:1002400007D54FF0000EDCF1000C7EEB00006EEBEA
:100250000101B1F5801F1BD3B1F5001F0CD3490874
:100260005FEA30004FEA3C0C04F101044FEA4452CB
:1002700012F5800F80F09A80BCF1004F08BF5FEA52
:10028000500C50F1000041EB045141EA050130BD32
:100290005FEA4C0C404141EB010111F4801FA4F1D5
:1002A0000104E9D191F0000F04BF01460020B1FA2A
:1002B00081F308BF2033A3F10B03B3F120020CDA62
:1002C0000C3208DD02F1140CC2F10C0201FA0CF040
:1002D00021FA02F10CE002F11402D8BFC2F1200CA5
:1002E00001FA02F120FA0CFCDCBF41EA0C0190405B
:1002F000E41AA2BF01EB0451294330BD6FEA0404A4
:100300001F3C1CDA0C340EDC04F11404C4F120028E
:1003100020FA04F001FA02F340EA030021FA04F3A0
:1003200045EA030130BDC4F10C04C4F1200220FAF7
:1003300002F001FA04F340EA0300294630BD21FA35
:1003400004F0294630BD94F0000F83F4801306BFFB
:1003500081F480110134013D4EE77FEA645C18BFEF
:100360007FEA655C29D094EA050F08BF90EA020F86
:1003700005D054EA000C04BF1946104630BD91EA7E
:10038000030F1EBF0021002030BD5FEA545C05D181
:100390004000494128BF41F0004130BD14F58004C0
:1003A0003CBF01F5801130BD01F0004545F0FE4134
:1003B00041F470014FF0000030BD7FEA645C1ABF69
:1003C000194610467FEA655C1CBF0B46024650EAA0
:1003D000013406BF52EA033591EA030F41F40021CC
:1003E00030BD00BF90F0000F04BF0021704730B552
:1003F0004FF4806404F132044FF000054FF0000127
:1004000050E700BF90F0000F04BF0021704730B5E7
:100410004FF4806404F1320410F0004548BF4042BC
:100420004FF000013EE700BF42004FEAE2014FEA11
:1004300031014FEA02701FBF12F07F4393F07F4FEC
:1004400081F06051704792F0000F14BF93F07F4F1E
:10045000704730B54FF4607401F0004521F0004161
:1004600020E700BF50EA010208BF704730B54FF0E7
:1004700000050AE050EA010208BF704730B511F0EC
:10048000004502D5404261EB41014FF4806404F124
:1004900032045FEA915C3FF4DCAE4FF003025FEAA6
:1004A000DC0C18BF03325FEADC0C18BF033202EB2E
:1004B000DC02C2F1200300FA03FC20FA02F001FA88
:1004C00003FE40EA0E0021FA02F11444C1E600BF27
:1004D00070B54FF0FF0C4CF4E06C1CEA11541DBFDA
:1004E0001CEA135594EA0C0F95EA0C0F00F0DEF8A5
:1004F0002C4481EA030621EA4C5123EA4C5350EA8A
:10050000013518BF52EA033541F4801143F48013DA
:1005100038D0A0FB02CE4FF00005E1FB02E506F06B
:100520000042E0FB03E54FF00006E1FB03569CF0C0
:10053000000F18BF4EF0010EA4F1FF04B6F5007FC6
:1005400064F5407404D25FEA4E0E6D4146EB060638
:1005500042EAC62141EA55514FEAC52040EA5E50C1
:100560004FEACE2EB4F1FD0C88BFBCF5E06F1ED86B
:10057000BEF1004F08BF5FEA500E50F1000041EBA2
:10058000045170BD06F0004646EA010140EA02004F
:1005900081EA0301B4EB5C04C2BFD4EB0C0541EA71
:1005A000045170BD41F480114FF0000E013C00F386
:1005B000AB8014F1360FDEBF002001F0004170BDAA
:1005C000C4F10004203C35DA0C341BDC04F11404C3
:1005D000C4F1200500FA05F320FA04F001FA05F24F
:1005E00040EA020001F0004221F0004110EBD3701C
:1005F00021FA04F642EB06015EEA430E08BF20EA48
:10060000D37070BDC4F10C04C4F1200500FA04F3EA
:1006100020FA05F001FA04F240EA020001F000417C
:1006200010EBD37041F100015EEA430E08BF20EAEF
:10063000D37070BDC4F1200500FA05F24EEA020E37
:1006400020FA04F301FA05F243EA020321FA04F066
:1006500001F0004121FA04F220EA020000EBD3701D
:100660005EEA430E08BF20EAD37070BD94F0000F1D
:100670000FD101F00046400041EB010111F4801F51
:1006800008BF013CF7D041EA060195F0000F18BF02
:10069000704703F00046520043EB030313F4801F3E
:1006A00008BF013DF7D043EA0603704794EA0C0FF8
:1006B0000CEA135518BF95EA0C0F0CD050EA41060E
:1006C00018BF52EA4306D1D181EA030101F000418B
:1006D0004FF0000070BD50EA410606BF10461946B3
:1006E00052EA430619D094EA0C0F02D150EA0136BF
:1006F00013D195EA0C0F05D152EA03361CBF104600
:1007000019460AD181EA030101F0004141F0FE419E
:1007100041F470014FF0000070BD41F0FE4141F422
:10072000780170BD70B54FF0FF0C4CF4E06C1CEA22
:1007300011541DBF1CEA135594EA0C0F95EA0C0FD7
:1007400000F0A7F8A4EB050481EA030E52EA033592
:100750004FEA013100F088804FEA03334FF08055B3
:1007600045EA131343EA12634FEA022245EA1115E0
:1007700045EA10654FEA00260EF000419D4208BF91
:10078000964244F1FD0404F5407402D25B084FEA3E
:100790003202B61A65EB03055B084FEA32024FF4EA
:1007A00080104FF4002CB6EB020E75EB030E22BF47
:1007B000B61A754640EA0C005B084FEA3202B6EB07
:1007C000020E75EB030E22BFB61A754640EA5C00B6
:1007D0005B084FEA3202B6EB020E75EB030E22BF46
:1007E000B61A754640EA9C005B084FEA3202B6EB47
:1007F000020E75EB030E22BFB61A754640EADC0006
:1008000055EA060E18D04FEA051545EA16754FEA67
:1008100006164FEAC30343EA52734FEAC2025FEA85
:100820001C1CC0D111F4801F0BD141EA00014FF014
:1008300000004FF0004CB6E711F4801F04BF0143E5
:100840000020B4F1FD0C88BFBCF5E06F3FF6AFAE01
:10085000B5EB030C04BFB6EB020C5FEA500C50F191
:10086000000041EB045170BD0EF0004E4EEA113114
:1008700014EB5C04C2BFD4EB0C0541EA045170BD1B
:1008800041F480114FF0000E013C90E645EA060E5F
:100890008DE60CEA135594EA0C0F08BF95EA0C0F8D
:1008A0003FF43BAF94EA0C0F0AD150EA01347FF4D5
:1008B00034AF95EA0C0F7FF425AF104619462CE7AC
:1008C00095EA0C0F06D152EA03353FF4FDAE10460F
:1008D000194622E750EA410618BF52EA43067FF460
:1008E000C5AE50EA41047FF40DAF52EA43057FF4F0
:1008F000EBAE12E74FF0FF3C06E000BF4FF0010CFB
:1009000002E000BF4FF0010C4DF804CD4FEA410C5E
:100910007FEA6C5C4FEA430C18BF7FEA6C5C1BD02B
:1009200001B050EA410C0CBF52EA430C91EA030FAC
:1009300002BF90EA020F0020704710F1000F91EA09
:10094000030F58BF994208BF90422CBFD8176FEAD7
:10095000E37040F0010070474FEA410C7FEA6C5CA5
:1009600002D150EA013C07D14FEA430C7FEA6C5CAC
:10097000D6D152EA033CD3D05DF8040B704700BFD8
:100980008446104662468C461946634600E000BF26
:1009900001B5FFF7B7FF002848BF10F1000F01BDF8
:1009A0004DF808EDFFF7F4FF0CBF012000205DF8C3
:1009B00008FB00BF4DF808EDFFF7EAFF34BF012048
:1009C00000205DF808FB00BF4DF808EDFFF7E0FFE1
:1009D00094BF012000205DF808FB00BF4DF808ED32
:1009E000FFF7CEFF94BF012000205DF808FB00BF99
:1009F0004DF808EDFFF7C4FF34BF012000205DF87B
:100A000008FB00BF4FEA410212F5001215D211D5C2
:100A10006FF47873B3EB625212D94FEAC12343F0FB
:100A2000004343EA505311F0004F23FA02F018BF7D
:100A3000404270474FF00000704750EA013005D146
:100A400011F0004008BF6FF0004070474FF0000009
:100A5000704700BF4A0011D212F5001211D20DD515
:100A60006FF47873B3EB62520ED44FEAC12343F0B4
:100A7000004343EA505323FA02F070474FF000005E
:100A8000704750EA013002D14FF0FF3070474FF00D
:100A9000000070474FEA4102B2F1E04324BFB3F5D2
:100AA000001CDCF1FE5C0DD901F0004C4FEAC002E5
:100AB0004CEA5070B2F1004F40EB830008BF20F0C9
:100AC0000100704711F0804F21D113F13872BCBF83
:100AD00001F00040704741F480114FEA5252C2F1D8
:100AE0001802C2F1200C10FA0CF320FA02F018BF21
:100AF00040F001004FEAC1234FEAD32303FA0CFC74
:100B000040EA0C0023FA02F34FEA4303CCE77FEA02
:100B1000625307D150EA01331EBF4FF0FE4040F44C
:100B20004000704701F0004040F0FE4040F40000FB
:100B3000704700BF80F0004002E000BF81F000413C
:100B400042001FBF5FEA410392EA030F7FEA226C73
:100B50007FEA236C6AD04FEA1262D2EB1363C1BF03
:100B6000D218414048404140B8BF5B42192B88BF72
:100B7000704710F0004F40F4000020F07F4018BF95
:100B8000404211F0004F41F4000121F07F4118BFB5
:100B9000494292EA030F3FD0A2F1010241FA03FC5D
:100BA00010EB0C00C3F1200301FA03F100F0004345
:100BB00002D5494260EB4000B0F5000F13D3B0F10D
:100BC000807F06D340084FEA310102F10102FE2A7C
:100BD00051D2B1F1004F40EBC25008BF20F00100EC
:100BE00040EA03007047490040EB000010F4000F9A
:100BF000A2F10102EDD1B0FA80FCACF1080CB2EB2D
:100C00000C0200FA0CF0AABF00EBC250524218438B
:100C1000BCBFD0401843704792F0000F81F4000130
:100C200006BF80F400000132013BB5E74FEA410303
:100C30007FEA226C18BF7FEA236C21D092EA030F6F
:100C400004D092F0000F08BF0846704790EA010FE9
:100C50001CBF0020704712F07F4F04D1400028BF16
:100C600040F00040704712F100723CBF00F50000F8
:100C7000704700F0004343F0FE4040F4000070472E
:100C80007FEA226216BF08467FEA236301464202DA
:100C900006BF5FEA412390EA010F40F480007047ED
:100CA0004FF0000304E000BF10F0004348BF404293
:100CB0005FEA000C08BF704743F0964301464FF0CF
:100CC00000001CE050EA010208BF70474FF000032B
:100CD0000AE000BF50EA010208BF704711F000436C
:100CE00002D5404261EB41015FEA010C02BF84463C
:100CF0000146002043F0B64308BFA3F18053A3F59B
:100D00000003BCFA8CF2083AA3EBC25310DB01FAE1
:100D100002FC634400FA02FCC2F12002BCF1004F65
:100D200020FA02F243EB020008BF20F001007047F6
:100D300002F1200201FA02FCC2F1200250EA4C004A
:100D400021FA02F243EB020008BF20EADC70704790
:100D50004FF0FF0C1CEAD0521EBF1CEAD15392EA9E
:100D60000C0F93EA0C0F6FD01A4480EA010C40027A
:100D700018BF5FEA41211ED04FF0006343EA5010D4
:100D800043EA5111A0FB01310CF00040B1F5000F16
:100D90003EBF490041EAD3715B0040EA010062F1C5
:100DA0007F02FD2A1DD8B3F1004F40EBC25008BFAF
:100DB00020F00100704790F0000F0CF0004C08BFCD
:100DC00049024CEA502040EA51207F3AC2BFD2F19A
:100DD000FF0340EAC250704740F400004FF00003A8
:100DE000013A5DDC12F1190FDCBF00F000407047E2
:100DF000C2F10002410021FA02F1C2F1200200FA20
:100E000002FC5FEA310040F1000053EA4C0308BFE6
:100E100020EADC70704792F0000F00F0004C02BF37
:100E2000400010F4000F013AF9D040EA0C0093F0B2
:100E3000000F01F0004C02BF490011F4000F013B0C
:100E4000F9D041EA0C018FE70CEAD15392EA0C0F7A
:100E500018BF93EA0C0F0AD030F0004C18BF31F0E5
:100E6000004CD8D180EA010000F00040704790F0BB
:100E7000000F17BF90F0004F084691F0000F91F05F
:100E8000004F14D092EA0C0F01D142020FD193EA25
:100E90000C0F03D14B0218BF084608D180EA0100AD
:100EA00000F0004040F0FE4040F40000704740F089
:100EB000FE4040F4400070474FF0FF0C1CEAD05257
:100EC0001EBF1CEAD15392EA0C0F93EA0C0F69D0B3
:100ED000A2EB030280EA010C49024FEA402037D01E
:100EE0004FF0805343EA111143EA10130CF0004015
:100EF0008B4238BF5B0042F17D024FF4000C8B4205
:100F000024BF5B1A40EA0C00B3EB510F24BFA3EBE4
:100F1000510340EA5C00B3EB910F24BFA3EB9103B4
:100F200040EA9C00B3EBD10F24BFA3EBD10340EA0E
:100F3000DC001B0118BF5FEA1C1CE0D1FD2A3FF654
:100F400050AF8B4240EBC25008BF20F00100704709
:100F50000CF0004C4CEA50207F32C2BFD2F1FF03AC
:100F600040EAC250704740F400004FF00003013ADD
:100F700037E792F0000F00F0004C02BF400010F481
:100F8000000F013AF9D040EA0C0093F0000F01F095
:100F9000004C02BF490011F4000F013BF9D041EAB7
:100FA0000C0195E70CEAD15392EA0C0F08D14202EA
:100FB0007FF47DAF93EA0C0F7FF470AF084676E7BD
:100FC00093EA0C0F04D14B023FF44CAF08466EE796
:100FD00030F0004C18BF31F0004CCAD130F0004264
:100FE0007FF45CAF31F000437FF43CAF5FE700BFBC
:100FF0004FF0FF3C06E000BF4FF0010C02E000BFE5
:101000004FF0010C4DF804CD4FEA40024FEA410386
:101010007FEA226C18BF7FEA236C11D001B052EA3C
:10102000530C18BF90EA010F58BFB2EB030088BF02
:10103000C81738BF6FEAE17018BF40F00100704771
:101040007FEA226C02D15FEA402C05D17FEA236C53
:10105000E4D15FEA412CE1D05DF8040B704700BF9A
:10106000844608466146FFE70FB5FFF7C9FF002831
:1010700048BF10F1000F0FBD4DF808EDFFF7F4FF6A
:101080000CBF012000205DF808FB00BF4DF808ED03
:10109000FFF7EAFF34BF012000205DF808FB00BF26
:1010A0004DF808EDFFF7E0FF94BF012000205DF848
:1010B00008FB00BF4DF808EDFFF7D2FF94BF0120F9
:1010C00000205DF808FB00BF4DF808EDFFF7C8FFF2
:1010D00034BF012000205DF808FB00BF42000ED2A3
:1010E000B2F1FE4F0BD34FF09E03B3EB126209D463
:1010F0004FEA002343F0004323FA02F070474FF019
:101100000000704712F1610F01D1420202D14FF08D
:10111000FF3070474FF00000704700BF80B485B0CB
:1011200000AF786039600023FB600023FB727B68AE
:101130005B68FB60FB6823F4702323F48073FB601F
:101140003B681A683B681B791B021343FA68134318
:10115000FB607B68FA685A607B689B68FB60FA6892
:10116000164B1340FB603B68DA683B689B681A4388
:101170003B685B795B001343FA681343FB607B6851
:10118000FA689A607B68DB6AFB60FB6823F4700393
:10119000FB603B681B7C013BDAB2FB7A1343FB72BA
:1011A000FB7A1B05FA681343FB607B68FA68DA6216
:1011B00000BF1437BD4680BC704700BFFDF7F1FF8C
:1011C00080B483B000AF78607B6800221A607B68CF
:1011D00000221A717B6800225A717B6800229A6093
:1011E0007B680022DA607B6801221A7400BF0C372A
:1011F000BD4680BC704780B483B000AF78600B46BA
:10120000FB70FB78002B06D07B689B6843F00102E3
:101210007B689A6005E07B689B6823F001027B682D
:101220009A6000BF0C37BD4680BC704780B483B065
:1012300000AF78600B46FB70FB78002B06D07B6814
:101240009B6843F480727B689A6005E07B689B68CA
:1012500023F480727B689A6000BF0C37BD4680BC67
:10126000704780B483B000AF78607B689B6843F0C0
:1012700004027B689A6000BF0C37BD4680BC704793
:1012800080B483B000AF78600B46FB70FB78002B16
:1012900006D07B689B6843F4A0027B689A6005E0F7
:1012A0007B689B6823F4A0027B689A6000BF0C37C0
:1012B000BD4680BC704780B485B000AF78600846FA
:1012C00011461A460346FB700B46BB7013467B70F3
:1012D0000023FB600023BB60FB78092B23D97B68CC
:1012E000DB68FB60FB78A3F10A0213465B00134442
:1012F000072202FA03F3BB60BB68DB43FA681340C2
:10130000FB607978FB78A3F10A0213465B00134473
:1013100001FA03F3BB60FA68BB681343FB607B68A8
:10132000FA68DA601EE07B681B69FB60FA78134696
:101330005B001344072202FA03F3BB60BB68DB4384
:10134000FA681340FB607978FA7813465B0013441F
:1013500001FA03F3BB60FA68BB681343FB607B6868
:10136000FA681A61BB78062B21D87B685B6BFB603F
:10137000BB785A1E13469B0013441F2202FA03F344
:10138000BB60BB68DB43FA681340FB60F978BB784D
:101390005A1E13469B00134401FA03F3BB60FA681C
:1013A000BB681343FB607B68FA685A6347E0BB780D
:1013B0000C2B21D87B681B6BFB60BB78DA1F1346B4
:1013C0009B0013441F2202FA03F3BB60BB68DB439C
:1013D000FA681340FB60F978BB78DA1F13469B006C
:1013E000134401FA03F3BB60FA68BB681343FB6064
:1013F0007B68FA681A6322E07B68DB6AFB60BB7873
:10140000A3F10D0213469B0013441F2202FA03F3BB
:10141000BB60BB68DB43FA681340FB60F978BB78BC
:10142000A3F10D0213469B00134401FA03F3BB60C2
:10143000FA68BB681343FB607B68FA68DA6200BF36
:101440001437BD4680BC704780B485B000AF78606B
:1014500039600023FB607B681B68FB60FB6823F43A
:10146000FF4323F07003FB603B689A683B681B6A8C
:101470001A433B681B691A433B685B691A433B6824
:101480009B691A433B68DB691A433B685B6A1A43F2
:101490003B689B6A1343FA681343FB607B68FA68F6
:1014A0001A603B68DA687B685A603B681A687B6838
:1014B0009A603B685A687B68DA6000BF1437BD46A3
:1014C00080BC704780B483B000AF78607B68002236
:1014D0001A607B6800225A607B6800229A607B68F1
:1014E0000022DA607B6800221A617B6800225A6160
:1014F0007B6800229A617B680022DA617B680022A7
:101500001A627B6800225A627B6800229A6200BFDE
:101510000C37BD4680BC704780B483B000AF7860A4
:101520000B46FB70FB78002B06D07B681B6843F0F2
:1015300001027B681A6006E07B681A684FF6FE734A
:1015400013407A68136000BF0C37BD4680BC7047FB
:1015500080B483B000AF78607B685B689BB218464C
:101560000C37BD4680BC704780B485B000AF786052
:101570000023FB730023BB607B6803F08053002BC8
:1015800003D00B4B1B68BB6002E00A4B1B68BB60BF
:10159000BA687B681340002B02D00123FB7301E083
:1015A0000023FB73FB7B18461437BD4680BC704795
:1015B000000402400000024080B483B000AF7860B5
:1015C0007B6803F08053002B03D0064A7B6853608E
:1015D00002E0054A7B68536000BF0C37BD4680BC03
:1015E000704700BF000402400000024080B489B090
:1015F00000AF786039600023FB6100233B6100236A
:10160000BB610023FB6000237B610023BB603B6860
:10161000DB7803F00F03FB613B68DB7803F010031A
:10162000002B05D03B689B781A46FB691343FB618E
:101630003B681B88DBB2002B44D07B681B687B6156
:101640000023BB6138E00122BB6902FA03F3FB60AF
:101650003B681B881A46FB6813403B613A69FB688C
:101660009A4226D1BB699B00FB600F22FB6802FAFD
:1016700003F3BB60BB68DB437A6913407B61FA69A3
:10168000FB6802FA03F37A6913437B613B68DB78FA
:10169000282B05D10122BB699A407B685A6108E07A
:1016A0003B68DB78482B04D10122BB699A407B68F8
:1016B0001A61BB690133BB61BB69072BC3D97B6866
:1016C0007A691A603B681B88FF2B46D97B685B6888
:1016D0007B610023BB613AE0BB690833012202FA57
:1016E00003F3FB603B681B881A46FB6813403B61B1
:1016F0003A69FB689A4227D1BB699B00FB600F22C5
:10170000FB6802FA03F3BB60BB68DB437A691340F2
:101710007B61FA69FB6802FA03F37A6913437B6120
:101720003B68DB78282B05D1BB69083301229A403E
:101730007B685A613B68DB78482B05D1BB6908336D
:1017400001229A407B681A61BB690133BB61BB69A6
:10175000072BC1D97B687A695A6000BF2437BD4620
:1017600080BC704780B483B000AF78607B684FF670
:10177000FF721A807B6802229A707B680422DA70FA
:1017800000BF0C37BD4680BC7047000080B485B0F8
:1017900000AF78600023FB60094B5B68FB60FB686F
:1017A00023F44043FB60FA687B681343FB60044A00
:1017B000FB68536000BF1437BD4680BC704700BF54
:1017C0000010024080B487B000AF786000237B61D6
:1017D00000233B610023FB600023BB604C4B5B6834
:1017E00003F00C037B617B69042B07D0082B09D025
:1017F000002B33D17B68474A1A6033E07B68454A47
:101800001A602FE0424B5B6803F470133B61404B5E
:101810005B6803F48033FB603B699B0C02333B61E4
:10182000FB68002B06D13B693B4A02FB03F27B6855
:101830001A6017E0364B5B6803F40033002B06D0C8
:101840003B69354A02FB03F27B681A600AE03B6998
:10185000304A02FB03F27B681A6003E07B682D4A82
:101860001A6000BF2A4B5B6803F0F0037B617B6961
:101870001B097B61294A7B6913441B78DBB2BB607F
:101880007B681A68BB68DA407B685A60204B5B68EB
:1018900003F4E0637B617B691B0A7B611F4A7B6900
:1018A00013441B78DBB2BB607B685A68BB68DA40C4
:1018B0007B689A60164B5B6803F460537B617B69BD
:1018C000DB0A7B61154A7B6913441B78DBB2BB6082
:1018D0007B685A68BB68DA407B68DA600C4B5B68EF
:1018E00003F440437B617B699B0B7B610C4A7B6902
:1018F00013441B78DBB2BB607B68DA68BB68B2FB61
:10190000F3F27B681A6100BF1C37BD4680BC70478C
:101910000010024000127A0000093D00040000207F
:101920001400002080B483B000AF78600B46FB70D9
:10193000FB78002B06D00949084B5A697B68134392
:101940004B6106E00549054B5A697B68DB43134050
:101950004B6100BF0C37BD4680BC70470010024091
:1019600080B483B000AF78600B46FB70FB78002B2F
:1019700006D00949084B9A697B6813438B6106E0DE
:101980000549054B9A697B68DB4313408B6100BFB7
:101990000C37BD4680BC70470010024080B483B055
:1019A00000AF78600B46FB70FB78002B06D009492E
:1019B000084BDA697B681343CB6106E00549054BA8
:1019C000DA697B68DB431340CB6100BF0C37BD464F
:1019D00080BC70470010024080B485B000AF7860D2
:1019E00039600023FB817B681B88FB81FB8903F442
:1019F0004153FB813B681A883B685B8813439AB26A
:101A00003B689B8813439AB23B68DB8813439AB2C6
:101A10003B681B8913439AB23B685B8913439AB2B4
:101A20003B689B8913439AB23B68DB8913439AB2A4
:101A3000FB891343FB817B68FA891A807B689B8B47
:101A40009BB223F400639AB27B689A833B681A8A3C
:101A50007B681A8200BF1437BD4680BC704780B4D3
:101A600083B000AF78607B6800221A807B68002218
:101A70005A807B6800229A807B680022DA807B682B
:101A800000221A817B6800225A817B6800229A8199
:101A90007B680022DA817B6807221A8200BF0C373C
:101AA000BD4680BC704780B483B000AF78600B4601
:101AB000FB70FB78002B08D07B681B889BB243F03F
:101AC00040039AB27B681A8007E07B681B889BB250
:101AD00023F040039AB27B681A8000BF0C37BD46E2
:101AE00080BC704780B483B000AF78600B467B80C9
:101AF00013467B707B78002B08D07B689B889AB25A
:101B00007B8813439AB27B689A8009E07B689B8844
:101B10009AB27B88DB439BB213409AB27B689A806F
:101B200000BF0C37BD4680BC7047000080B485B054
:101B300000AF786039600023FB817B681B88FB81E4
:101B40007B682E4A934213D07B682D4A93420FD074
:101B50007B68B3F1804F0BD07B682A4A934207D051
:101B60007B68294A934203D07B68284A934208D174
:101B7000FB8923F07003FB813B685A88FB89134380
:101B8000FB817B68224A93420CD07B68214A9342B6
:101B900008D0FB8923F44073FB813B68DA88FB891A
:101BA0001343FB817B68FA891A803B689A887B68BB
:101BB0009A853B681A887B681A857B680F4A93422E
:101BC0000FD07B680E4A93420BD07B68124A934237
:101BD00007D07B68114A934203D07B68104A934236
:101BE00004D13B681B7A9AB27B681A867B68012213
:101BF0009A8200BF1437BD4680BC7047002C01405C
:101C0000003401400004004000080040000C004087
:101C1000001000400014004000400140004401401A
:101C20000048014080B582B000AF786039603B6801
:101C30001B88002B0FD13B6859883B689A883B680A
:101C40001B89786800F04EF93B68DB881946786894
:101C500000F08CF836E03B681B88042B0FD13B6802
:101C600059883B689A883B681B89786800F0AAF914
:101C70003B68DB881946786800F093F822E03B68FF
:101C80001B88082B0FD13B6859883B689A883B68B2
:101C90001B89786800F010FA3B68DB881946786881
:101CA00000F09CF80EE03B6859883B689A883B68D6
:101CB0001B89786800F076FA3B68DB8819467868FB
:101CC00000F0A7F800BF0837BD4680BD80B483B0E0
:101CD00000AF78607B684FF6FF729A807B680022C5
:101CE0001A807B680022DA807B6800225A807B6839
:101CF00000221A7200BF0C37BD4680BC704780B40A
:101D000083B000AF78607B6800221A807B68002275
:101D10005A807B6801229A807B680022DA807B6887
:101D200000221A8100BF0C37BD4680BC704780B4CA
:101D300083B000AF78600B46FB70FB78002B08D0B7
:101D40007B681B889BB243F001039AB27B681A80C0
:101D500007E07B681B889BB223F001039AB27B6883
:101D60001A8000BF0C37BD4680BC704780B483B07A
:101D700000AF78600B467B807B681B8B9BB223F0A7
:101D80000C039AB27B681A837B681B8B9AB27B88A0
:101D900013439AB27B681A8300BF0C37BD4680BCE0
:101DA000704780B483B000AF78600B467B807B685F
:101DB0001B8B9BB223F440639AB27B681A837B68C7
:101DC0001B8B9AB27B881B029BB213439AB27B682F
:101DD0001A8300BF0C37BD4680BC704780B483B007
:101DE00000AF78600B467B807B689B8B9BB223F0B7
:101DF0000C039AB27B689A837B689B8B9AB27B8830
:101E000013439AB27B689A8300BF0C37BD4680BCEF
:101E1000704780B483B000AF78600B467B807B68EE
:101E20009B8B9BB223F440639AB27B689A837B6856
:101E30009B8B9AB27B881B029BB213439AB27B683E
:101E40009A8300BF0C37BD4680BC704780B483B016
:101E500000AF78607B689B8E9BB218460C37BD46FE
:101E600080BC704780B483B000AF78607B681B8F04
:101E70009BB218460C37BD4680BC704780B483B017
:101E800000AF78607B689B8F9BB218460C37BD46CD
:101E900080BC704780B483B000AF78607B68B3F8D3
:101EA00040309BB218460C37BD4680BC704780B4AA
:101EB00085B000AF78600B467B800023FB737B68A6
:101EC0001B8A9AB27B8813409BB2002B02D001235D
:101ED000FB7301E00023FB73FB7B18461437BD4600
:101EE00080BC704780B487B000AFF86008461146E8
:101EF0001A4603467B810B463B811346FB80002339
:101F0000BB820023FB82FB681B8C9BB223F0010386
:101F10009AB2FB681A84FB681B8BBB82FB681B8C24
:101F2000FB82BB8A23F0F303BB82FB881B019AB2BE
:101F30003B8913439AB2BB8A1343BB82FB681C4A9A
:101F4000934213D0FB681B4A93420FD0FB68B3F156
:101F5000804F0BD0FB68184A934207D0FB68174AA2
:101F6000934203D0FB68164A93420BD1FB8A23F0BD
:101F70000203FB827A89FB8A13439BB243F001037D
:101F8000FB820AE0FB8A23F00A03FB827A89FB8A40
:101F900013439BB243F00103FB82FB68BA8A1A83A6
:101FA000FB68FA8A1A8400BF1C37BD4680BC7047A4
:101FB000002C0140003401400004004000080040B3
:101FC000000C004080B487B000AFF86008461146AE
:101FD0001A4603467B810B463B811346FB80002358
:101FE000BB820023FB8200237B82FB681B8C9BB29D
:101FF00023F010039AB2FB681A84FB681B8BBB8228
:10200000FB681B8CFB827B891B017B82BB8A23F4D0
:1020100040731B051B0DBB82FB881B039AB2BB8A56
:102020001343BB823B891B029AB2BB8A1343BB8218
:10203000FB681C4A934213D0FB681B4A93420FD0A3
:10204000FB68B3F1804F0BD0FB68184A934207D06E
:10205000FB68174A934203D0FB68164A93420BD1A0
:10206000FB8A23F02003FB827A8AFB8A13439BB20C
:1020700043F01003FB820AE0FB8A23F0A003FB82FB
:102080007A89FB8A13439BB243F01003FB82FB68FF
:10209000BA8A1A83FB68FA8A1A8400BF1C37BD46C5
:1020A00080BC7047002C0140003401400004004017
:1020B00000080040000C004080B487B000AFF8601A
:1020C000084611461A4603467B810B463B81134660
:1020D000FB800023BB820023FB8200237B82FB6802
:1020E0001B8C9BB223F480739AB2FB681A84FB6842
:1020F0009B8BBB82FB681B8CFB827B891B027B82D8
:10210000BB8A23F0F303BB82FB881B019AB23B8995
:1021100013439AB2BB8A1343BB82FB681C4A9342A7
:1021200013D0FB681B4A93420FD0FB68B3F1804F7A
:102130000BD0FB68184A934207D0FB68174A9342BA
:1021400003D0FB68164A93420BD1FB8A23F4007339
:10215000FB827A8AFB8A13439BB243F48073FB822F
:102160000AE0FB8A23F42063FB827A89FB8A13430B
:102170009BB243F48073FB82FB68BA8A9A83FB6844
:10218000FA8A1A8400BF1C37BD4680BC704700BF66
:10219000002C0140003401400004004000080040D1
:1021A000000C004080B487B000AFF86008461146CC
:1021B0001A4603467B810B463B811346FB80002376
:1021C000BB820023FB8200237B82FB681B8C9BB2BB
:1021D00023F480539AB2FB681A84FB689B8BBB8202
:1021E000FB681B8CFB827B891B037B82BB8A23F4ED
:1021F00040731B051B0DBB823B891B029AB2BB8A35
:102200001343BB82FB881B039AB2BB8A1343BB8276
:10221000FB681D4A934213D0FB681C4A93420FD0BF
:10222000FB68B3F1804F0BD0FB68194A934207D08B
:10223000FB68184A934203D0FB68174A93420BD1BC
:10224000FB8A23F40053FB827A8AFB8A13439BB2F6
:1022500043F48053FB820CE0FB8A23F400735B049D
:102260005B0CFB827A89FB8A13439BB243F4805355
:10227000FB82FB68BA8A9A83FB68FA8A1A8400BFD9
:102280001C37BD4680BC7047002C01400034014023
:102290000004004000080040000C004080B58CB0F5
:1022A00000AF786039600023FB620023BB6200232B
:1022B0007B6200233B620023FB617B68FB617B68E0
:1022C0001B8A9BB2FB62FA6A4CF6FF731340FB62F7
:1022D0003B68DB881A46FB6A1343FB62FB6A9AB2CF
:1022E0007B681A827B689B899BB2FB62FA6A4EF616
:1022F000F3131340FB623B689A883B681B891343C6
:102300009AB23B685B8913439BB21A46FB6A13433C
:10231000FB62FB6A9AB27B689A817B689B8A9BB25C
:10232000FB62FA6A4FF6FF431340FB623B689B89EE
:102330001A46FB6A1343FB62FB6A9AB27B689A8275
:1023400007F108031846FFF73DFAFB692E4A93424E
:1023500002D17B69BB6201E03B69BB627B689B8900
:102360009BB21BB2002B0CDABA6A13469B001344D3
:102370009A001A443B681B685B00B2FBF3F37B6274
:102380000BE0BA6A13469B0013449A001A443B6858
:102390001B689B00B2FBF3F37B627B6A1B4AA2FBC8
:1023A00003235B091B01FB62FB6A1B09642202FB1E
:1023B00003F37A6AD31A3B627B689B899BB21BB298
:1023C000002B0CDA3B6ADB003233104AA2FB0323FA
:1023D0005B0903F00703FA6A1343FB620BE03B6AF5
:1023E0001B013233094AA2FB03235B0903F00F03ED
:1023F000FA6A1343FB62FB6A9AB27B681A8100BFD8
:102400003037BD4680BD00BF003801401F85EB510D
:1024100080B483B000AF78600B46FB70FB78002B74
:1024200008D07B689B899BB243F400539AB27B68C7
:102430009A8107E07B689B899BB223F400539AB290
:102440007B689A8100BF0C37BD4680BC704780B462
:1024500083B000AF78600B467B8013467B707B783F
:10246000002B08D07B689B8A9AB27B8813439AB270
:102470007B689A8209E07B689B8A9AB27B88DB43FF
:102480009BB213409AB27B689A8200BF0C37BD465C
:1024900080BC704780B483B000AF78600B467B800F
:1024A0007B88C3F308039AB27B689A8000BF0C371D
:1024B000BD4680BC704780B485B000AF78600B46E5
:1024C0007B800023FB737B681B889AB27B88134058
:1024D0009BB2002B02D00123FB7301E00023FB73AE
:1024E000FB7B18461437BD4680BC704710B500F51D
:1024F000BC74C0F874112046114601F03DFC204622
:10250000BDE8104041F2883101F042BC0A29DCBF2D
:1025100000EB8100C0F84C21704700BFF0B500F51A
:10252000BC75ADF5237D0446284601F03DFC28B17D
:10253000B4F8483113B10023A4F84831D4F8740139
:1025400003689B68984710B90DF5237DF0BDD4F85A
:102550007401B4F84861036826441B699847B07158
:10256000284601F00BFCB4F84831E21892790A2AA7
:102570000AD001339BB2B3F5A17F00D90023A4F8A0
:1025800048310DF5237DF0BD4FF4A172002168465E
:10259000A61D02F0D3FC211D304603F037FB02F0EC
:1025A00082FA87B204EB8703D3F84C51002DE5D0B3
:1025B0003046FDF7CDFD073020446946A8479DF819
:1025C0000030002BDAD03A4651A8074902F049FA08
:1025D000694651A802F0DFFCD4F8740151A90368E0
:1025E0005B689847CAE700BF287000082C22084B98
:1025F00010B504468280036000F5BC7001F0EAFB70
:1026000000232046A4F84831C4F8743110BD00BF3F
:102610003470000810B50446034B00F5BC7023600D
:1026200001F0A2FB204610BD3470000810B504462E
:10263000054B00F5BC70236001F096FB204602F0CC
:1026400027FA204610BD00BF3470000870B490F81F
:102650001441B1EB441F28DA90F81551B2EB051F75
:1026600023DA16094D0906FB045401F01F01E4B2F8
:1026700090F8165101EB4411CE0802F00F02AC00A5
:1026800004FB026201F00701014491F81F1192B2AC
:10269000042B0AD8DFE803F00B11160B03000368C4
:1026A000985C014204BF0143995470BC70470068B4
:1026B000835C23EA01018154F7E70068835C1943D6
:1026C0008154F2E70068835C19420CBF0B438B43D3
:1026D0008354EAE710B50446054B03CBC4F81F0149
:1026E000C4F8231104F5A47001F074FB204610BD5A
:1026F000207000082DE9F84F804602FB01F0C0B2BF
:10270000C40004EB800407014601A4004FEA801ACC
:1027100088F8141188F8160188F81521A8F818719E
:10272000A8F81A61A8F81C4150461E460D9CBDF839
:1027300040B00A9F02F0E6F94FF000095246FF212F
:1027400008F5A475C8F8000002F0F8FB28460B99BC
:10275000C8F83861C8F83C7188F81E9188F87891FB
:1027600001F00AFB5946284601F012FB0C9A236837
:10277000C8F834210E9A5B68C8F82C210F9A2046BD
:10278000C8F83021A8F840B1C8F828419847D8F8CF
:102790002C0103685B689847D8F8300103685B68D0
:1027A0009847D8F83C01102103689B68984798F82F
:1027B0001621D8F800009201FF2102F0BFFB88F833
:1027C0001E91BDE8F88F00BF2DE9F04F90460646F8
:1027D00087B0BDF940201FFA88F50592521B92B2CE
:1027E0008CB204930F461B1B11B200299BB20FFA47
:1027F00083F9BDBF524211B24FF6FF7B4FF0010B80
:10280000B9F1000FBCBF5B420FFA83F94FEA4103F5
:102810009DF844000193BDF904204FEA4909009056
:102820000FFA89F1029203912A462146009B304615
:10283000B4BF4FF6FF7A4FF0010AFFF707FF029A85
:1028400003998A4255DABDF80400049BA0EB6101AC
:10285000BB4209B24AD01A465444009DA4B2002992
:1028600005DBD844A1EB09010FFA88F809B296F804
:1028700014310144B4EB431F09B280F28B8096F807
:1028800015E11FFA88F7B7EB0E1F80F283804FEA3D
:10289000171E4FEA541C0EFB03CC04F01F035FFA13
:1028A0008CFC96F816E103EB4C134FEAD30C07F0BF
:1028B0000F074FEA8E0E0EFB07C703F007033344E2
:1028C00093F81F31BFB2042D64D8DFE805F05B85B3
:1028D0006D5B8E003068C15C21EA080800F8038057
:1028E00029B20BEB05038E459DB20FD107B0BDE8B1
:1028F000F08F059B1FFA89F9A9EB6202434512B2DA
:10290000F4D09E465D44DDF804C0ADB2002A05DB7C
:1029100057443FB2A2EB0C0212B2BCB296F81411AB
:102920004A44B4EB411F12B2DADA96F81531B5EB2E
:10293000031FD5DA2B09600903FB010104F01F0313
:10294000C9B296F8160103EB41134FEAD308800091
:1029500005F00F0100FB018103F00703334493F8F6
:102960001F818BB200990429BAD801A050F821F038
:10297000D5280008032A0008C5290008D528000822
:10298000112A0008D6F800E01EF807C02CEA03035D
:102990000EF8073027B20AEB040397429CB27FF48B
:1029A0005EAF07B0BDE8F08FD6F800C01CF807E0B6
:1029B00013EA0E0F0CBF43EA0E032EEA03030CF8D2
:1029C0000730E7E73068C15C18EA010F84D148EAB4
:1029D000010800F8038083E7D6F800E01EF807C07E
:1029E00043EA0C030EF80730D4E7D6F800E01EF8EF
:1029F00007C013EA0C0FCDD143EA0C030EF80730E1
:102A0000C8E73068C15C48EA010800F8038067E75E
:102A10003168C85C18EA000F7FF462AF48EA00082A
:102A200001F803805CE700BFF8B590F878510446E0
:102A30005DB1012D08D100F5A475284601F0B4F967
:102A4000002840F08480F8BDF8BD00F5A47630463B
:102A500001F0AAF90028F6D0B4F84001FEF724F9F5
:102A6000D4F8441107464FF07E50FEF767F8014650
:102A70003846FEF76DF9FEF731FB81B2304601F0C2
:102A800087F994F8163194F81E019B0099B200FB67
:102A900001F01BB202B2002B00F0C18001F1FF3E39
:102AA0002B461FFA8EFEB4F91C71B4F91A61B4F901
:102AB000185120680EF1010E96441744164415442F
:102AC0008644074406440544104417F801CBE21835
:102AD00082F858C15A1C16F801CB92B2224482F8EF
:102AE00058C19A1C15F801CB92B2224482F858C101
:102AF00010F801CBDA1C92B222440433704582F8FC
:102B000058C19BB2E1D18D00D4F83C01D4F8381102
:102B1000036804F5AC72DB680C319847D4F83C01CB
:102B2000294603685B699847D4F8340103685B68F9
:102B30009847D4F83C0103681B689847D4F83001E3
:102B400003685B689847012384F87831F8BDB4F8CE
:102B50004001FEF7A9F8D4F84411FEF7F9F8FEF7A2
:102B6000BDFA81B2284601F013F9D4F83C0103689C
:102B70009B69984700283FF466AFD4F83C0103688E
:102B80005B689847D4F8340103681B68984794F849
:102B90001E31032B10D8DFE803F034261802D4F8D6
:102BA0002C0103681B689847D4F8280103681B6848
:102BB0009847002384F81E31D4F8300103681B685D
:102BC0009847002384F878313DE7D4F82C01036856
:102BD0001B689847D4F8280103685B68984703236B
:102BE00084F81E31E8E7D4F82C0103685B68984745
:102BF000D4F8280103681B689847022384F81E3123
:102C0000DAE7D4F82C0103685B689847D4F8280108
:102C100003685B689847012384F81E31CCE71D46A2
:102C200072E700BF38B50C4605464FF07E5120468E
:102C3000FEF74AFA00B138BD00212046FEF726FA19
:102C40000028F8D1C5F8444138BD00BFC0F81011C4
:102C5000704700BF844608462DE9F04F91B00C91B3
:102C60009CF8141191469DF86820B0EB411F079223
:102C700000F35F819CF81521B9EB021F00F3598125
:102C8000DCF81021202B92F8038000F0A08010794E
:102C90008342C0F29680547921188B4280F2918051
:102CA0001B1A08F107051178D8B2EB100993002917
:102CB00000F0FD80002800F0428100252B465119CC
:102CC00089790135EDB20B4485429BB2F7DB099956
:102CD00001FB03F39BB206341044234481799BB279
:102CE00003910E930C984B4298420D916BDBC8F107
:102CF0000003994567DB002965D0099B013B0493DC
:102D0000DBB2FD2B0F935EDC00230A93A8F10803CE
:102D10001BB20B931346CDF814900A990F9D01EB4B
:102D2000000E1FFA8EFECEF3471206920EF01F021F
:102D300008920E9A104600EB01092946039AE80012
:102D400002FB013313F80970049B994200F0DF8005
:102D50000022059BC90003449BB202958418A1423E
:102D600077DCA04575DB47FA02F414F0010F9CF8FC
:102D7000144142D0BEEB441F6BDA9CF81561B3EBF3
:102D8000061F66DA069D1E0906FB0454089D9CF882
:102D90001661E4B205EB44144FEAD40AB60003F01E
:102DA0000F0B06FB0BA604F00704079D644494F880
:102DB0001F41B6B2042D4CD8DFE805F0435A6B43EF
:102DC000630000230D930D9811B0BDE8F08F1379C7
:102DD0006E2B7CDC517919446E2978DD117819B994
:102DE0005178002900F0A980C3F16E03DBB21344CF
:102DF0009B799DB20D930C9C6DE0BEEB441F28DACD
:102E00009CF81561B3EB061F23DA069D1E0906FB2D
:102E10000454089D9CF81661E4B205EB44144FEA93
:102E2000D40B4FEA860A03F00F060AFB06B604F03D
:102E30000704079D644494F81F41B6B2C5B1012D43
:102E400007D1DCF800A01AF806B02BEA04040AF84F
:102E5000064001320133082A9BB27FF47FAF029D06
:102E6000013DEDB2FD2D294657D8DCF8103165E75C
:102E7000DCF800A01AF806B044EA0B040AF8064091
:102E8000E7E7DCF800A01AF806B014EA0B0FF3D05D
:102E9000DFE7DCF800B01BF806A014EA0A0F0CBF4D
:102EA00044EA0A042AEA04040BF80640D1E75378FE
:102EB000002B7FF4FFAE93780999039300FB03F393
:102EC00003FB01F306339BB20E9303990AE7002339
:102ED00004461D460D9325442DB208EB0906AC426D
:102EE00036B23FF770AF4F46E0464FF00109234638
:102EF000214601348DE840023A46404624B2FFF7AD
:102F000063FCA542F3DA0D9811B0BDE8F08F099B80
:102F1000022B0B9BA8BF18461AE70A9B039A0133A2
:102F2000DBB29A420A937FF74EAFDCF810310C986F
:102F3000F3E64FF0FF330D9345E7937859E70346E7
:102F4000C9E600BF2DE9F04F87B090F814419DF815
:102F50004450B1EB441F9DF840A0029551DA90F81F
:102F600015410746B2EB041F90464ADAD0F81041EB
:102F7000E578AD1845D401241FFA81F9039309F1CE
:102F8000FF338B461BB229B204910091019419467C
:102F9000FFF71AFCBAF1000F33D00026059435462E
:102FA0001AE0059A19460192049A38460092424660
:102FB000FFF70AFC013425B297F8142105EB0B0347
:102FC0000136B3EB421F36B21BDA97F81531B8EB76
:102FD000031F16DA564514DA029AACB2039B09EBCA
:102FE00004019B5D09B2009238464246FFF732FE6B
:102FF0000444A4B200B209EB040300281BB2D0DCE5
:10300000DAD007B0BDE8F08F2DE9F043002483B09B
:10301000A0F80641BDF9287016468AB3A446254695
:103020002246D0F810E11AE09EF80590C144A1456F
:1030300021DD9EF80040A5EB0805EDB2ECB99EF845
:103040000140D4B99EF802400134013212B2644406
:103050000FFA84FCB242A0F806C1154612DA8C5C65
:1030600005442C718C5C9EF80480202C08BF6E24D3
:10307000A0452546D8DD0124E7E77544AC79E3E7B0
:10308000D0F810E100229EF8034081190192A0F8C7
:10309000084100960A71A0F80A3119463A46A0F88C
:1030A0000C7180F80461031DFFF74CFF03B0BDE80D
:1030B000F08300BF2DE9F0430F461646B0F80A2111
:1030C000B0F80C31B0F906113A4412B23344494217
:1030D0001BB28A4283B00446A0F80A21A0F80C3142
:1030E00039DB90F81401B2EB401F44DC0025B4F941
:1030F000081149428B4226DB94F81521B3EB021FDD
:1031000016DC26B97B1C00F09180012F38D00020FE
:1031100094F80431B4F90C21B4F90A110190009328
:103120002046231DFFF70EFF284603B0BDE8F083BD
:1031300094F81621A4F80C119201FF21206801F0E7
:10314000FDFE0125DDE794F8153194F816211B01E9
:10315000A4F80C31F0E790F8143190F816215B01D7
:10316000A0F80A319201FF21206801F0E7FE012555
:10317000B4F90C31BBE794F81621A4F80A11F1E771
:1031800094F816319B01013B1BB2581C13D094F8E4
:1031900014215E1E920093FBF2F102FB11323046C5
:1031A0002168002A40F0A180CA5C5210803ACA54BB
:1031B00033B2591CEBD194F804E1B4F90A11BEF111
:1031C000000FB1D00023D4F810711A463E7997F859
:1031D00005C0B4441BE0C44524DD97F80080B8F175
:1031E000000F40F08F8097F80180B8F1000F40F099
:1031F0008980B8780FFA80F8C14240F19980013295
:10320000D2B201314144724509B213468CDA2344EB
:103210001B79202B0DBF4FF06E089846184640468C
:103220004645D8DD4FF000084046E5E794F81631F2
:10323000DBB13246304694F81431561C9B0090FBAB
:10324000F3F103FB1101013B9942216864D08B5CCF
:10325000881840785B0003EBD0138B5494F8163138
:1032600032B2B2EB831F1046E5DB94F804C1B4F927
:103270000A11BCF1000F3FF457AF0023D4F810E15E
:1032800094F814719EF804609EF8058018467F013A
:10329000B0441BE0C84524DD9EF80090B9F1000F52
:1032A00035D19EF80190B9F1000F30D19EF802207F
:1032B0000FFA82F90A44BA423ADA0130C0B2013157
:1032C0004944604509B20346BFF62EAF23441B793B
:1032D000202B0DBF4FF06E0999461A464A464E45BF
:1032E000D8DD4FF000094A46E4E7CA5CCE1816F86C
:1032F000016C521002EBC612CA5403B25A1C7FF47E
:1033000046AF58E7801BC0B23844807972E7921B01
:10331000D2B272449279CBE78B5C5B0001338B5461
:1033200094F8163132B2B2EB831F104683DB9CE770
:103330000020B4F90C2100902046FFF78BFC2846B2
:1033400003B0BDE8F08300BF38B5049D00F1080468
:10335000816103622946C261204600F00DFD2046CE
:10336000BDE8384041F2883100F012BD2DE9F0414E
:1033700000F108048CB00546204600F015FD20B988
:10338000002630460CB0BDE8F0810646204600F02D
:10339000F5FCA86900F0DEFCFDF746F800223B4B87
:1033A000FDF796F8FDF756FB64230024384A80B2F7
:1033B000A2FB0012520903FB120336499BB202A87A
:1033C0000294039404940594069401F04AFBEC697A
:1033D000208DFDF765FC94F82C3080466768608D81
:1033E000002B4DD0FDF75CFC01464046FDF764FD27
:1033F0003946FDF7ADFCA168FDF7A2FB2649FDF7B4
:10340000A7FCFDF76BFE64230024214A80B2A2FBD7
:103410000012520903FB120320499BB207A807942C
:10342000089409940A940B9401F01BFB02A8FCF782
:103430008FFE2F6AC0B202AB224621468DE81100F2
:103440003846FFF77FFD07A8FCF782FE296AC0B265
:103450008DE8110007AB224608462021FFF772FDD8
:10346000B5F80C340E4A73B1138801339BB2138044
:103470000A2B85DD0023304613800CB0BDE8F081B7
:10348000B4F85600AEE71388F2E700BF00005940D9
:103490001F85EB513C7000080000C84244700008D2
:1034A000AA060020F0B5057983B004464DB1012D80
:1034B00005D100F10805284600F076FCD0B903B02C
:1034C000F0BDFFF753FF0028F9D004F12406304681
:1034D000FCF73EFE276AC2B22B46314638460095BD
:1034E000FFF792FD642104F1080000F051FC012374
:1034F0002371E4E7284600F041FC00224FF0FF3141
:10350000206AFFF7D7FD094AB4F80C141388013379
:103510009BB28B421380D2DD0026284641F28831CF
:10352000168000F035FC267103B0F0BDA80600201F
:1035300038B500F124050446284601F023FD002398
:10354000401BA4F80C04237104F1080041F28831F7
:10355000BDE8384000F01CBC064B10B5044640F8EE
:10356000083B00F037FC002320462371A4F80C34FC
:1035700010BD00BF5470000810B50446034B40F85E
:10358000083B00F0F1FB204610BD00BF547000085E
:1035900010B50446044B40F8083B00F0E5FB20461C
:1035A00001F076FA204610BD5470000838B51D466B
:1035B000041D41612046114600F0DEFB29462046ED
:1035C000BDE8384000F0E4BB70B5051D0446284650
:1035D00000F0EAFB00B970BD284600F0CFFB64693B
:1035E000236820469B689847236820B92046BDE899
:1035F00070401B6818472046BDE870405B6818475C
:1036000010B50446034B40F8043B00F0E3FB2046B2
:1036100010BD00BF6470000810B50446034B40F8AD
:10362000043B00F0A1FB204610BD00BF6470000801
:1036300010B50446044B40F8043B00F095FB2046CF
:1036400001F026FA204610BD647000082DE9F0470D
:1036500005464FF0140AFFF7D3FF00264FF07E58BF
:10366000DFF85C9005F1240405F1D40744F80C9CC4
:10367000204600F0AFFB0023A4F81EA0A66144F88A
:10368000088C44F8046C84F82030A4F84A30A383F2
:10369000636123615834BC42E8D105F1C800FFF7EB
:1036A00019F805F51170FFF757FF05F2546000F0A7
:1036B00053FB05F5CD60FEF799FF2846BDE8F0877E
:1036C0007470000810B5054C2046FFF7BFFF204678
:1036D000BDE81040024A034901F0DCB9AC06002005
:1036E000000000201D37000810B50446034B40F8C9
:1036F0000C3B00F039FB204610BD00BF7470000881
:1037000010B50446044B40F80C3B00F02DFB20465E
:1037100001F0BEF9204610BD747000082DE9F0419B
:10372000074600F5CD60FEF775FF07F2546000F024
:10373000EBFA07F51170FFF71FFF07F1C80407F553
:10374000047000F011FB2346124DDFF84C8007F1A6
:10375000180653F8582CA3F14C001268A3F1580432
:10376000AA420CD143F8588C00F0FEFAA642234638
:10377000EFD13846FFF750FF3846BDE8F0812046CC
:103780009047A6422346E4D13846FFF745FF384626
:10379000BDE8F081E93600087470000843681888B5
:1037A000704700BF704700BF10B5044601F070F9C4
:1037B000204610BD41607047014B0360704700BF59
:1037C00084700008704700BF03464161806803F1C0
:1037D0000C01FDF739BE00BFC160026100F10C01B0
:1037E0008068FDF731BE00BF03468161806803F148
:1037F0000C01FDF729BE00BF80680121FDF78CBEDA
:1038000080680021FDF788BE034610B580681C8BD8
:10381000FDF79EFE201A80B210BD00BF10B5044611
:10382000806BFDF7A1FE18B1A06BFDF7C5FE01206E
:1038300010BD00BF10B5044601F02AF9204610BDA6
:10384000F8B5044600258026069F4160C362826069
:1038500004F10C01104627632662A5626562FDF73C
:10386000F3FDA368264A934227D0264A934227D0E5
:10387000254A934227D0254A934228D0244A93428E
:1038800029D0244A93422AD0234A934211D0234A72
:10389000934228D0224A934228D0224A934228D0E9
:1038A000214A934228D0214A934204BF204BA3636C
:1038B000F8BD4FF00073A363F8BD0223A363F8BD06
:1038C0002023A363F8BD4FF40073A363F8BD4FF446
:1038D0000053A363F8BD4FF40033A363F8BD4FF466
:1038E0000013A363F8BD134BA363F8BD124BA3638E
:1038F000F8BD124BA363F8BD114BA363F8BD00BF25
:10390000080002401C000240300002404400024017
:10391000580002406C00024080000240080402404F
:103920001C04024030040240440402405804024097
:103930000000021002000010200000100002001021
:1039400000200010054B10B5044640F80C3BFDF775
:10395000B9FD00232046636010BD00BF98700008C9
:103960004268816813690B43136170474268C168FC
:1039700013690B43136170474268836892681A4267
:1039800014BF012000207047704700BF10B50446E7
:1039900001F07EF8204610BD0F2A0ADC012310B486
:1039A00002F1100403FA02F2A34010BC41608260ED
:1039B000C360704700220249826080E806007047B9
:1039C000C4700008704700BF10B5044601F060F8ED
:1039D000204610BD03890C2B14D8DFE803F0101328
:1039E00013130D1313130A13131307004068FEF784
:1039F00051BA4068FEF742BA4068FEF733BA4068F1
:103A0000FEF724BA0020704708B503890C2B28D88C
:103A1000DFE803F01F272727172727270F27272748
:103A2000070010214068FEF742FA003018BF01205D
:103A300008BD08214068FEF73AFA003018BF01209F
:103A400008BD04214068FEF732FA003018BF01209B
:103A500008BD02214068FEF72AFA003018BF012095
:103A600008BD002008BD00BF41600281704700BF53
:103A7000014B0360704700BFE07000084368988CFA
:103A800080B27047704700BF10B5044601F000F8DF
:103A9000204610BD41607047014B0360704700BF76
:103AA000F87000088AB3F0B540F243170546806904
:103AB000174C0130A4FB0063C61A03EB56031B0A24
:103AC00007FB1303D5F860010E7883421BD0A6468E
:103AD0000020AC69013080B22C4490422677AB6163
:103AE00010DAAC69D5F860C10134AEFB0463E61AA4
:103AF00003EB56031B0A07FB1343634511F8016FE1
:103B0000E7D1F0BDF0BD0020FBE71046704700BFD5
:103B1000BFB0CB95F0B50D7865B340F243160446BF
:103B20008269154F0132A7FB0203D01A03EB500341
:103B30001B0A06FB1323D4F8602100209A4217D0F9
:103B4000A269013022441577A36111F8015F80B2A8
:103B50007DB1A269D4F860E10132A7FB02C3A2EBF8
:103B6000030C03EB5C031B0A06FB13237345E7D12D
:103B7000F0BDF0BD2846F0BDBFB0CB95D0F8B02267
:103B8000D0F86801101A18BF012070470020704754
:103B9000704700BF704700BF10B5044600F078FFC3
:103BA000204610BD10B5044600F072FF204610BD3F
:103BB00038B50368174A9B680446934227D1D0F86A
:103BC000B002D4F86831C01A18BF0120E0B1D4F8AF
:103BD000B022D4F868319A4214D040F24310D4F89D
:103BE000B012D4F8B0220C4B0132A3FB0253D51A09
:103BF00003EB55031B0A00FB1323621892F86C5168
:103C0000C4F8B032284638BD0546284638BD984726
:103C1000DCE700BF7D3B0008BFB0CB9510B4BDF81A
:103C2000044001610481C260436010BC704700BF62
:103C3000F8B5D0F86021836904469A4221D08021EA
:103C40000069FEF738FCE0B1D4F86021A3699A421C
:103C500013D040F24310D4F86011D4F860211E4B09
:103C60000132A3FB0253D51A03EB55031B0A00FBD9
:103C700013236218157FC4F86031A9B22069FEF7DA
:103C800009FCE36820895B686189C31A994221D0E5
:103C90004E1C40F2431796FBF0F5D4F868210E4B0A
:103CA0000132A3FB02E3A2EB030E03EB5E031B0A4C
:103CB00007FB132300FB1560D4F8B022656893421C
:103CC000695C608106D0D4F86821224482F86C11C6
:103CD000C4F86831F8BD00BFBFB0CB95002210B466
:103CE0000749084C82610460C0F860214281C0F835
:103CF00068214161C0F86411C0F8B02210BC70475F
:103D00000C7100081C710008704700BF10B5044614
:103D100000F0BEFE204610BD4160704738B5044635
:103D2000406803681B68984788B1606803685B68EF
:103D30009847054620896581281A80B2A081FCF742
:103D4000B3FF01460248FDF7B7F82581206138BD71
:103D500000002041006970470022024902610160B1
:103D6000704700BF40710008704700BF10B504469F
:103D700000F08EFE204610BD4160704710B504462D
:103D8000406803681B68984700236081237310BD57
:103D900010B504464068218103681B6898470023DA
:103DA0006081237310BD00BF037B0BB118467047C1
:103DB00010B50446406803681B68984763892289E8
:103DC000C01A80B29042A5BF01221346237B227302
:103DD000184610BD014B0360704700BF50710008CA
:103DE000F8B508460E46FCF7B3F90746064C3518F9
:103DF0000FCCF051696003CC2488AA60EB60286185
:103E00002C836961F8BD00BF147600082C2210B520
:103E100082B002AB23F8042D0C460020194601F0B5
:103E2000F5FE00F03DFEFCF735FE01460348FEF7C7
:103E3000F9FE0023237002B010BD00BF74070020FC
:103E400010B50A488EB00C46FFF784FF0849FCF70E
:103E50007FFFFDF743F9074982B201A800F001FE98
:103E600001A9204601F097F80EB010BD000D00200A
:103E70000000C842107600082C2210B582B002ABB8
:103E800023F8042D0C460020194601F0BFFE014620
:103E90000348FFF74DFB0023237002B010BD00BFA5
:103EA000F00800202C232DE9F04782B002AC24F862
:103EB000043D8A46214601F0A9FE00F0F4FD2146AA
:103EC0000546002001F0A2FE00F0EAFD804689468A
:103ED0000020214601F09AFE00F0E2FD58230B4C31
:103EE00006460F46ADB24946404603FB0544FCF783
:103EF000D1FD394660603046FCF7CCFD0023A06060
:103F00008AF8003002B0BDE8F08700BFC406002088
:103F10002C2270B58EB00EAB23F8382D0D46194605
:103F200001F074FE00F0BFFD58230E4C80B203FB7D
:103F300000440D49A068FCF70BFFFDF7CFF80A49D4
:103F400086B26068FCF704FFFDF7C8F8334682B21A
:103F5000064901A800F085FD01A9284601F01BF8DB
:103F60000EB070BDC40600200000C84208760008EC
:103F70002C222DE9F0418EB00EAB23F8382D0F46E0
:103F8000194601F043FE00F08EFD582480B204FB78
:103F900000F5144C6619B06BD6F81C8003681B68DA
:103FA0009847FCF781FE4146FCF7D2FE316AFCF7E8
:103FB000C7FD0D49FCF7CCFEFDF790F8B36B84B25A
:103FC0001A6818461368984722460346074901A80D
:103FD00000F047FD01A9384600F0DDFF0EB0BDE856
:103FE000F08100BFAC0600200000C842087600083F
:103FF0002DE9F04FADF2945D00F09AFB4FF4404094
:10400000FDF7C4FB0121D248FDF7C8FC01214FF4A4
:104010000770FDF7A5FC01210846FDF783FC0CA8FD
:10402000FDF754FE4FF6FF7440F2CF230CA9C948A8
:10403000ADF83030ADF83440FDF778FD0121C548CA
:10404000FDF775FE0CA8FDF741FE41F61F430CA9D4
:104050004FF08040ADF83030ADF83440FDF766FDEC
:1040600001214FF08040FDF762FE4FF400534FF006
:104070000208ADF820304FF014030AAF08A9B64883
:104080008DF823308DF82280FDF7B0FA3846FFF71F
:1040900003FD38464FF08041B04CFFF7FBFC15A8FC
:1040A000FFF788FC15A80D22AB49FFF775FC3A46CF
:1040B00015A9204641F28833FFF778FA4FF40063E0
:1040C000ADF820304FF0040308A9A5484FF0180BB5
:1040D0008DF823308DF82280FDF788FA4FF4806345
:1040E00008A99F48ADF820308DF823B08DF82280C4
:1040F000FDF77CFA3FA8FDF7E5F99A4B00253F93C1
:1041000080234FF480524FF4A176449320230DF581
:10411000CC7A3FA99448489247934296CDF800A1A3
:10412000469545954195FDF78FF901218E48FDF79C
:10413000F3F94FF4164319934FF00C034FF00309B2
:1041400019A98A48ADF86E30ADF87050ADF86C50D2
:10415000ADF86A50ADF86850FEF7A0F80122402192
:104160008248FEF774F901218048FEF751F9B7A89B
:10417000FFF7B4FD53467C4A7C490096B7A8FFF789
:104180004DFD1DA8FFF718FB0DF1240A1FA8FFF72E
:1041900013FB51461DA8FFF70DFB0DF126011FA8CB
:1041A000FFF708FB08A8FDF7DDFA08A970488DF8AD
:1041B0002350ADF82090FDF719FA3FA8FDF782F9DA
:1041C00080234FF4806001264FF4807244932023B3
:1041D000DFF8A4E13FA946906648CDF8FCE047939C
:1041E0004592CDF800A14195DFF890A1CDF8088166
:1041F0004895FDF729F931465E48FDF78DF93AA853
:10420000FCF7DEFF50463AA98DF8F8808DF8ED6096
:104210008DF8EC60FCF782FF5046324629460723B2
:10422000FDF749F84246504631460723FDF743F86B
:10423000DAF80830504643F46023CAF808303146B3
:10424000FCF7F4FF50463146FCF7D5FF31465046A7
:10425000FDF716F85046FDF704F808A8FDF782FAB6
:104260004022482308A94248ADF820208DF8233089
:104270008DF82290FDF7BAF90FA8FDF740FD0F2346
:104280000FA93448ADF84430ADF83C50ADF840606B
:10429000ADF83E50FDF7C6FC12A8FFF7E9FB2A4631
:1042A0002C4912A8FFF7E0FB08A8FDF75BFA4FF4D2
:1042B000204308A92A48ADF820308DF823B08DF8A6
:1042C0002290FDF793F908A8FDF74CFA4FF0100A79
:1042D0004FF4A04308A90DF1840B2148ADF820301C
:1042E0008DF823A08DF82290FDF780F95846FFF74E
:1042F00061FB0E221A495846FFF74EFB25A8FFF72F
:1043000059FB0C22164925A8FFF746FB08A8FDF724
:1043100029FA4FF4407308A91548ADF820308DF8FC
:1043200023A08DF82290FDF761F929A8FFF742FB41
:104330000DF1B40A09220E4929A8FFF72DFB5046BA
:10434000FFF738FB504608220949FFF725FB17E025
:10435000034004000004004000100140AC060020AF
:10436000000C01400448004030000240004800407A
:1043700000080140080002404C2401400024014094
:1043800057A8FFF7DFFA4FF440522B46A94957A828
:104390000092A94AFFF754FA35A8FDF760FBA74B36
:1043A000A74A35A9A748CDF8DE303592FDF714FBB2
:1043B00032464146A348FDF795FB3146A148FDF73B
:1043C00072FB12A904F25460FFF7A6FC04F1C800C6
:1043D0009D49FEF73BFC1423CDF810A04FF0000AD6
:1043E000069329AB039325AB029357AB3246019753
:1043F00000934146934B04F1C800CDF814B0FEF78A
:1044000079F904F1C8009149FEF70CFC1DAB39465F
:1044100004F12400A3636763FFF7AEFC1FAB3946CA
:1044200004F17C00C4F89030C4F88C7084F84450D7
:10443000A4F86E50A4F84050C4F83CA0FFF79CFCD0
:1044400004F1C803009704F1180204F2546104F562
:10445000117084F89C50A4F8C650C4F894A0A4F835
:104460009850FEF771FF3A46B7A904F5CD60FEF704
:104470003DF8294604F5CD60754AFEF747F8314608
:1044800004F5CD60734AFEF741F8414604F5CD606E
:10449000714AFEF73BF8494604F5CD606F4AFEF7D6
:1044A00035F8042104F5CD606D4AFEF72FF804F5C8
:1044B000CD606C4A0521FEF729F86B4A062104F508
:1044C000CD60FEF723F831A8FFF784FC394631A808
:1044D000FFF752FC31A842F21071FFF759FC04F1CA
:1044E000D407B7A8FFF7A4FB6048FEF717F86048A9
:1044F000FFF714FC01265F4D2B692BB12846FFF70F
:1045000053FC8046002831D15835BD42F4D15A4879
:10451000FEF7C8FF5948FEF787FA5948FFF754F8E5
:1045200031A8FFF741FC0028DBD031A8FFF726FCBB
:10453000B4F84000FCF7B4FB94F844300546B4F8F6
:1045400042000BB9B4F86E00FCF7AAFB01462846FE
:10455000FCF7B2FCFCF7C2FD4A4982B24AA800F05F
:1045600080FA4AA9B7A8FFF7D5FABAE72846FFF7B5
:1045700005FC686905F1180903681B68984795F8F8
:1045800020A0BAF1000F29D1B5F84A20B5F81EC015
:10459000531C93FBFCF10CFB113109EB42038AB273
:1045A0005881E646A5F84A20C1BB0A460EF1FF3302
:1045B0009BB2634585F820604FF000012CDC01FBC5
:1045C000083393FBFCF10CFB113309EB4309B9F8F9
:1045D0000A10AB8B9A1A0A44AA8395E7B5F84A20C9
:1045E000B5F81EE0531C92FBFEFA93FBFEF10EFBA6
:1045F0001A2A0EFB113109EB4A0A09EB4203F44671
:10460000BAF80A205881A5F84A100029CED00EF138
:10461000FF339BB26345D2DD0021DAE7013A93B262
:10462000634504DC8B4202DAD0465246C7E7524665
:104630005146CEE700000240580002400002180038
:1046400000C004010038004058710008CDCC4C3F38
:10465000E13D0008A53E0008113F0008713F000839
:10466000413E00080D3E0008793E0008140D002070
:10467000000D0020D0060020F00800207407002064
:10468000AC06002030760008DFF834D0002103E0CB
:104690000C4B5B58435004310B480C4B42189A4268
:1046A000F6D30B4A02E0002342F8043B094B9A423E
:1046B000F9D300F03DF800F001FAFFF799FC7047DC
:1046C00000500020BC780008000000208C0600206C
:1046D0008C060020EC0F0020FEE780B400AF00BF86
:1046E000BD4680BC704780B400AFFEE780B400AF29
:1046F000FEE780B400AFFEE780B400AFFEE780B411
:1047000000AF00BFBD4680BC704780B400AF00BFA3
:10471000BD4680BC704780B400AF00BFBD4680BCC2
:10472000704780B400AF00BFBD4680BC704700003A
:1047300080B500AF154A154B1B6843F001031360A9
:104740001249124B5A68124B13404B600F4A0F4BE1
:104750001B6823F0847323F4803313600B4A0B4BE4
:104760001B6823F480231360084A084B5B6823F41A
:10477000FE035360054B4FF41F029A6000F00CF8E3
:10478000044B4FF000629A6000BF80BD00100240F1
:104790000000FFF800ED00E080B500AF00F002F887
:1047A00000BF80BD80B483B000AF00237B600023D6
:1047B0003B603A4A394B1B6843F480331360374BF4
:1047C0001B6803F400333B607B6801337B603B680C
:1047D000002B03D17B68B3F5A06FF0D12F4B1B6882
:1047E00003F40033002B02D001233B6001E00023DF
:1047F0003B603B68012B4BD1294A294B1B6843F096
:1048000010031360264A264B1B6823F00303136032
:10481000234A234B1B6843F0020313601F4A1F4BBC
:104820005B6853601D4A1D4B5B6853601B4A1B4B02
:104830005B6843F480635360184A184B5B6823F449
:104840007C135360154A154B5B6843F4E8135360BF
:10485000124A124B1B6843F08073136000BF0F4B6A
:104860001B6803F00073002BF9D00C4A0B4B5B68FC
:1048700023F003035360094A084B5B6843F00203CB
:10488000536000BF054B5B6803F00C03082BF9D1A4
:1048900000BF0C37BD4680BC704700BF001002400F
:1048A0000020024080B487B000AFF860B9607A6041
:1048B00001237B6104E07B697A6802FB03F37B617F
:1048C0007B69BA68B2FBF3F27B689A42F3D229E0C3
:1048D0007B69BA68B2FBF3F33B617A69BB68B3FBEF
:1048E000F2F102FB01F29B1ABB607A697B6892FBD2
:1048F000F3F37B613B69092B0ADDFB681B68591CDC
:10490000FA6811603A69D2B23732D2B21A7009E04D
:10491000FB681B68591CFA6811603A69D2B23032E0
:10492000D2B21A707B69002BD2D100BF1C37BD46B2
:1049300080BC704780B588B000AFF860B9607A601D
:10494000FB687B617DE0BB681B78252B71D1BB6860
:104950000133BB60BB681B78642B1ED0642B06DC64
:10496000582B50D0632B0ED0252B58D05DE0732BE5
:104970002BD0732B02DC692B0FD056E0752B37D070
:10498000782B40D051E0FB685A1CFA607A68111D00
:1049900079601268D2B21A7047E07B681A1D7A609B
:1049A0001B68FB61FB69002B07DAFB695B42FB615B
:1049B000FB685A1CFA602D221A70F96907F10C0382
:1049C0000A221846FFF76EFF2FE07B681A1D7A60F7
:1049D0001B68BB6107E0FB685A1CFA60BA69511C8E
:1049E000B96112781A70BB691B78002BF3D11CE0F7
:1049F0007B681A1D7A60196807F10C030A221846B1
:104A0000FFF750FF11E07B681A1D7A601B6819469A
:104A100007F10C0310221846FFF744FF05E0FB687E
:104A20005A1CFA6025221A7000BFBB680133BB60B4
:104A300007E0FB685A1CFA60BA68511CB96012782A
:104A40001A70BB681B78002B7FF47DAFFB680022D7
:104A50001A70FB681A467B69D31A18462037BD4680
:104A600080BD0EB480B585B000AF786007F120033B
:104A7000BB60BA68F9697868FFF75CFFF860FB68AB
:104A800018461437BD46BDE8804003B070470000AB
:104A900000F040B80B460146184600F008B800BFC9
:104AA000002101F0A1B80A22002101F085B91346C6
:104AB0000A460146022001F095B9000070B50025B4
:104AC0000C4E0D4CA41BA410A54209D102F09AFA79
:104AD00000250A4E0A4CA41BA410A54205D170BDA6
:104AE00056F8253098470135EEE756F825309847B7
:104AF0000135F2E7B0780008B0780008B078000817
:104B0000B8780008024B0146186800F00BB800BFE7
:104B10002C040020024B0146186801F033BA00BF94
:104B20002C0400202DE9F74F01F10B04162C8146CF
:104B300007D934F0070405D50C23C9F80030002646
:104B400031E110248C42F7D3484600F0FFF9B4F568
:104B5000FC7F9B4D36D204F108022A445668A2F12C
:104B600008018E424FEAD40302D1D668B24210D077
:104B70007368F268B16823F00303CA60334491603C
:104B80005A6842F001025A60484600F0E5F90836DA
:104B900009E102338B4A2E69114696426DD0706846
:104BA00020F00300071B0F2F47DD331944F00104E9
:104BB00074606B612B61DA609A6047F001025A60A1
:104BC0003750E1E7630A2AD0042B12D8A3093833FF
:104BD0005A1C05EBC2025668A2F10800864206D0B4
:104BE000726822F00302111B0F291CDD013B013307
:104BF000D0E7142B01D85B33EAE7542B02D8230B00
:104C00006E33E5E7B3F5AA7F02D8E30B7733DFE72E
:104C100040F25452934204D8A30C7C33D8E73F238C
:104C2000D6E77E23D4E70029F16804DBB368D960B6
:104C30008B60B318A4E70E46D0E7002F6A612A61A3
:104C400005DB3044436843F0010343609CE7B0F563
:104C5000007F44D20122C008871002FA07F76A6871
:104C600001303A436A6055F8307005EBC002083AEB
:104C7000F260B76045F83060FE6001209A1000FADB
:104C800002F26868824200F29F80024206D123F05D
:104C900003035200024203F10403FAD005EBC30CF4
:104CA000E0469E46D8F80C60464553D10EF1010E01
:104CB0001EF0030F08F10808F4D1980779D16B684A
:104CC00023EA02036B606868520082427CD8002AA3
:104CD0007AD073460242E1D104335200FAE7420A25
:104CE000042A15D882093832571C55F8377005EB5D
:104CF000C20EBE4526D10120921000FA02F2686869
:104D000010436860C6F80CE0B760CEF80860B3E7FF
:104D1000142A01D85B32E7E7542A02D8020B6E321C
:104D2000E2E7B2F5AA7F02D8C20B7732DCE740F2A5
:104D30005457BA429ABF820C7C327E22D4E7BF68B5
:104D4000BE4504D07A6822F003029042F7D3D7F828
:104D50000CE0D7E77068F76820F00300A0EB040AC6
:104D6000BAF10F0F10DDB268331944F0010474601A
:104D7000D760BA604AF001026B612B61D96099601B
:104D80005A6046F800A0FFE6BAF1000F0FDB30448E
:104D9000436843F00103436056F8083F4846DF602C
:104DA000BB6000F0D9F8304603B0BDE8F08F3E4656
:104DB0007AE75CF80809013B84453FF47EAF82E75F
:104DC0001800002020000020D5F808B0DBF80460AF
:104DD00026F00306B44203D8331B0F2B00F3958053
:104DE0004F4A0BEB060317684E4A103711682744E9
:104DF000013105D04C4901390F44013149420F407E
:104E0000394648460192009300F0ACF8B0F1FF3FFC
:104E1000804655D0009B019A834201D9AB454FD1C2
:104E2000424843450168824607EB010EC0F800E0A6
:104E30003F4913D10B4211D1AB683E4446F0010605
:104E40005E603C4ADAF8003011688B4288BF13601C
:104E5000394A11688B4288BF136031E01068013015
:104E60001BBFA8EB03037344C2F80080CAF80030EC
:104E700018F007001CBFC0F1080080442A4B4744CB
:104E800018440F40C71B3946484600F06BF8431CD6
:104E900004BF40460027DAF80030A0EB08003B448E
:104EA000074447F00107AB45C5F80880CAF8003051
:104EB000C8F80470C5D00F2E10D80123C8F80430EC
:104EC000AB685A6822F003029442A2EB040301D8B3
:104ED0000F2B1ADC484600F03FF830E60522DBF8DD
:104EE00004300C3E26F0070603F001033343CBF8F1
:104EF00004300F2E0BEB06035A609A60A1D90BF118
:104F00000801484601F03EF89BE7AE6844F0010214
:104F100043F0010334447260AC60636034E600BF68
:104F2000CC0E002020040020800000009C0E0020F9
:104F30007F000000C40E0020C80E0020034602447B
:104F4000934200D1704703F8011BF9E7014801F0D3
:104F5000F8BB00BFE00F0020014801F0F4BB00BF28
:104F6000E00F002038B50023054C054608462360B5
:104F700002F03AF8431C02D1236803B12B6038BD1C
:104F8000E80F0020034611F8012B184603F8012B07
:104F9000002AF8D17047024610B513461C7801323A
:104FA000002CFAD1013B11F8012B03F8012F002A44
:104FB000F9D110BD2DE9F0410F46904601F0A0FE59
:104FC00004460D46B8F1000F11D0C7F30A53C3F1E0
:104FD0006B03002B0BDD00241B0503F17F5505F54A
:104FE000401522462B46FBF773FA04460D46204631
:104FF0002946BDE8F08100002DE9F04F99460023D5
:105000009FB0804648460C4615921A9301F097FBD4
:1050100007460068FBF79CF84FF0000A05464FF082
:10502000000B1994199B1A780D2A33D8092A37D204
:10503000002A3FD000230993199E3378302B40F08B
:1050400001817378582B01D0782B6BD1099BCDF857
:10505000089001931AAB0093AA4A1BAB19A94046CA
:1050600001F096F810F00704054605D0062C2BD168
:105070000023013619960993159B002B40F09D855E
:10508000099BE3B152460BF10043104619461FB08D
:10509000BDE8F08F2B2A06D02D2A13D0202AC9D1A3
:1050A00001331993BEE7002209925A1C19925B78CA
:1050B000002BC1D1159B1994002B40F07C855246E2
:1050C0005B46E2E70122EFE71A9A3AB135211CA8C4
:1050D00001F003FF1A99404601F087FB013C042CC4
:1050E00008D8DFE804F00C03171A0C00DDF870A0F4
:1050F000DDF874B02907BFD54BF0004BBCE71D9B12
:105100001B9A23F4801302F23342DDF870A043EAC5
:10511000025BEFE7DFF8F8B1ECE76FF0004B4FF020
:10512000FF3AE7E7199B5A1C19925B78302BF9D0AC
:10513000002BA1D001230893199B0A220A93002374
:1051400005930693049319980678A6F13003D9B213
:10515000092979D92A46396801F0FAFE002800F0B9
:1051600085800020334602460146049D652B02D00F
:10517000452B40F0EF8025B910B9089B002B99D042
:105180000025199C631C199363782B2B00F0CF80AA
:105190002D2B00F0D28000260796A3F13006092EB1
:1051A00000F2D780302B00F0CA80A3F13106082E20
:1051B00000F2D080A3F1300E199B4FF00A0C1F466D
:1051C000199B5E1C19965B78A3F13009B9F1090FA0
:1051D00040F2BA80F61B082E44F61F6902DCF14546
:1051E000A8BFF146079E0EB1C9F10009002D40F09D
:1051F000D78000287FF440AF089A002A7FF43CAFA4
:1052000000297FF457AF4E2B00F0AD8000F3A5804E
:10521000492B7FF44FAF3C4919A801F0EAF9002867
:105220003FF448AF199B3949013B19A8199301F084
:10523000E0F910B9199B01331993DFF8D4B04FF09E
:10524000000A19E7002376E7049901300829D5BF41
:105250000699059902FB013302FB0133D4BF069383
:105260000593049B1990013304936CE7199B5A1919
:105270001992049A5B5D002A54D11046302B2AD033
:10528000A3F13102082A00F29D84199A0A9202467B
:1052900000200546303B00F1010111D00A440A26E6
:1052A000294600EB050C61451BD12844082800F174
:1052B00001052FDC0A21069801FB0033069300212B
:1052C000199B581C199008465B78A3F130010929F5
:1052D000E0D901214AE7199B01305A1C19925B78E9
:1052E000CCE7013101F1FF3EBEF1080F03DC069F60
:1052F00077430697D7E71029DEBF059F77430597C9
:10530000D1E700BF487600083C7600083F760008E9
:105310000000F07F102DDFBF0A21059801FB00334C
:105320000593CCE70246049DCFE7012124E7002343
:105330000793A31C1993A3782FE70123F8E7199B80
:105340005E1C19965B782DE70CFB0E3EAEF1300E1D
:1053500036E719944FF0000948E7692B3FF45BAF3B
:105360006E2B7FF4A7AE8C4919A801F042F90028F2
:105370003FF4A0AE199B1B78282B0ED11CAA87499D
:1053800019A801F049F9052807D11D9BDDF870A087
:1053900043F0FF4B4BF4E00B6EE6DFF810B24EE744
:1053A000049B2C46002B08BF2B46102DA8BF1024B1
:1053B0000698A9EB02090493FBF714F8092C82461E
:1053C0008B4613DD764B03EBC40353E91223FBF743
:1053D0007FF8064605980F46FBF704F802460B4691
:1053E00030463946FAF7C2FE82468B460F2D36DC30
:1053F000B9F1000F3FF440AE24DDB9F1160F0BDC1C
:1054000052465B46664D05EBC909D9E90001FBF739
:105410005FF882468B462FE6C5F1250399451EDCD1
:105420005F4CC5F10F0504EBC501A9EB050552461C
:10543000D1E900015B4604EBC504FBF749F8D4E968
:105440000023E4E719F1160F09DB554D5046A5EB93
:10545000C909D9E900235946FBF764F9D9E72C1BA0
:105460004C44002C73DD14F00F030AD04C49524613
:1054700001EBC301D1E900015B46FBF729F8824645
:105480008B4634F00F0454D0B4F59A7F27DD4FF0EB
:105490000009CDF81090CDF81C90CDF8189022237B
:1054A0004FF0000ADFF808B1C8F80030079B002B66
:1054B0003FF4E2AD1A99404601F097F9069940464B
:1054C00001F093F90499404601F08FF9079940469D
:1054D00001F08BF94946404601F087F9CCE50023FD
:1054E000504659461F462F4E2411012C24DC0BB187
:1054F00082468B462B4BABF1547B03EBC7075246DE
:10550000D7E900015B46FAF7E3FF21F000438B4641
:105510000A461B0D24491B058B428246B7D8A1F5CC
:1055200080118B4286BF4FF0FF3ADFF888B002F15E
:10553000547B0023059370E0E20704D5D6E90023ED
:10554000FAF7C6FF0123013764100836CDE7F0D023
:10555000644214F00F020AD0114B504603EBC20311
:105560005946D3E90023FBF7DDF882468B46241128
:10557000DFD01F2C20DD4FF00009CDF81090CDF8C2
:105580001C90CDF8189022234FF0000A4FF0000B2A
:10559000C8F800308AE700BF457600085C7600084E
:1055A000D0760008A87600080000A07C0000F8FF74
:1055B0000000F07FFFFFEF7F14F0100318BF6A2395
:1055C00050460593594600239F4E002C00F3098155
:1055D0000BB182468B46059BBBB1CBF30A53C3F19B
:1055E0006B03002B594610DD1F2B40F30481342B35
:1055F000D8BF4FF0FF324FF0000ACFBF4FF05C7BB7
:10560000203B02FA03F303EA010B00220023504679
:105610005946FBF7C5F90028ADD1069B049A0093C3
:105620000A992B46404601F032F9079000283FF4D2
:105630002EAFB9F1000FC9F10003A8BF00230E93EC
:1056400029EAE9734FF000090F93CDF81090079BFA
:105650004046596801F095F8069000283FF41FAFC6
:10566000079B0C301A6903F10C010232920001F021
:105670007DF81CAB01931BAB009352465B46404642
:10568000CDE90AAB01F0B2FB1A9000283FF407AF56
:105690000121404601F087F90490034600283FF4B9
:1056A000FEAE1B9D1C9A002DABBF0E9B0F9B5E197F
:1056B0005C1B059BA8BF0F9CA5EB03051544634B22
:1056C00005F1FF35B8BF0E9E9D42C2F1360280F251
:1056D000A4805B1B1F2BA2EB03024FF0010700F31A
:1056E0009180002507FA03F31493B718059BBE4277
:1056F00014441C443346A8BF3B46A342A8BF2346DC
:10570000002BC2BFFF1AE41AF61A0E9BBBB11A4651
:105710000499404601F0DCF9049000283FF4BFAE44
:1057200001461A9A404601F047F9089000283FF4D4
:10573000B6AE1A99404601F058F8089B1A93002F0C
:105740006FDC0F9B002B75D1002C08DD22460699DB
:10575000404601F00BFA069000283FF4A0AE002E60
:1057600008DD32460499404601F000FA0490002812
:105770003FF495AE069A1A99404601F062FA8146C6
:1057800000283FF48CAE0024C3680499C4600893D9
:1057900001F03DFAA0425BDA089BF3B9BAF1000FC1
:1057A0001BD1CBF31303C3B92BF000431B0D1B0517
:1057B000B3F1D66F11D9D9F814301BB9D9F810301C
:1057C000012B0ADD49460122404601F0CFF9049938
:1057D000814601F01CFA00286BDC059B002B75D17B
:1057E00068E6E20704D5D6E90023FAF771FE012343
:1057F00064100836E9E64FF0FF3202FA03F303EAD9
:105800000A0A02E7C5F17F4505F57F0505F57B45E9
:10581000E23507FA05F5149767E70123002514938D
:1058200063E73A461A99404601F0A0F91A90002819
:1058300087D134E60F9A0699404601F049F906905F
:10584000002881D12BE600BF7076000802FCFFFF24
:1058500040F08680089ACBF3130332B3AC4A594622
:10586000934252D1059B5046D3B1AA4A4FF0FF3420
:105870000A40B2F1D46F16D8120DC2F16B0304FACC
:1058800003F3834241D1A44A914202D101333FF450
:1058900006AEA04B4FF0000A0B4003F5801B9CE7BF
:1058A0004FF0FF33EDE72346EBE773BBBAF1000F90
:1058B0002BD12BF00043059A1B0D1B05E2B1B3F170
:1058C000D66F19DCB3F15C7F7FF75DAE934B50462A
:1058D0000D9300230C935946DDE90C23FAF7F8FDEC
:1058E00082468B4600297FF4E5AD00287FF4E2ADC7
:1058F0002223C8F80030DDE5A3F580136FEA135BBF
:105900004FF0FF3A6FEA0B5B67E79DB115EA0B0FAB
:105910003FF463AF089B059A5046594673B1FFF7B1
:1059200049FB02460B46DDE90A01FAF71FFC8246F5
:105930008B4652E7149B13EA0A0FE9E7FFF73AFB9D
:1059400002460B46DDE90A01FAF70EFC00220023AD
:1059500082468B46FBF724F800287FF414AE3CE720
:105960000499484601F091FA00224FF08043064620
:105970000F46FBF729F8002870D0089B002B43D076
:105980000026674F664D634B0BEA03031493149A8A
:10599000644B9A4240F0CE80DDE90A23ABF1547BA0
:1059A00050465946CDE90C2301F0AAF902460B46B0
:1059B00030463946FAF78CFD52465B46FAF7D6FB7D
:1059C000544A594B0A409A4282465DD90D9A03F1D6
:1059D00054739A4203D10C9B01333FF460AD4FF0F6
:1059E000FF3ADFF834B11A99404600F0FEFE0699FE
:1059F000404600F0FAFE0499404600F0F6FE4946A3
:105A0000404600F0F2FE22E6BAF1000F18D1CBF3C7
:105A10001303E3B90022424B30463946FAF7CAFF76
:105A2000C8B90022414B30463946FAF751FD0446C9
:105A30000D4605F1004316941793DDE91667A2E7BA
:105A4000BAF1010F03D1BBF1000F3FF49CAD00266A
:105A5000374F002496E7089C344DEAE7334B002289
:105A600030463946FAF734FD089B04460D4633B9F3
:105A700001F1004310901193DDE9106783E70246BE
:105A80000B46CDE91023F7E701F1547B059B002B72
:105A9000A9D12BF000431B0D149A1B059A425E46B8
:105AA000A1D129462046FAF7ADFFFAF7ABFC0B4629
:105AB000024629462046FAF757FB089B04460D4646
:105AC00033B9BAF1000F03D1CBF31306002E6CD01B
:105AD0000BA3D3E9002320462946FAF76BFF0028E1
