:020000040800F2
:1000000000500020491300089B130008A7130008A4
:10001000AD130008B3130008B91300080000000076
:10002000000000000000000000000000BF130008F6
:10003000CB13000800000000D7130008E3130008EA
:1000400099130008991300089913000899130008E0
:1000500099130008991300089913000899130008D0
:1000600099130008991300089913000899130008C0
:1000700099130008991300089913000899130008B0
:1000800099130008991300089913000899130008A0
:100090009913000899130008991300089913000890
:1000A0009913000899130008991300089913000880
:1000B0009913000899130008991300089913000870
:1000C0009913000899130008991300089913000860
:1000D0009913000899130008991300089913000850
:1000E00099130008991300089913000800000000F4
:1000F0000000000000000000000000000000000000
:0C01000000000000000000005FF808F1A3
:10010C0010B5054C237833B9044B13B10448AFF345
:10011C0000800123237010BD180500200000000092
:10012C00281A000808B5034B1BB103490348AFF369
:10013C00008008BD000000001C050020281A0008E3
:10014C0080B485B000AF786039600023FB60002379
:10015C00FB727B685B68FB60FB6823F4702323F401
:10016C008073FB603B681A683B681B791B02134366
:10017C00FA681343FB607B68FA685A607B689B687B
:10018C00FB60FA68164B1340FB603B68DA683B680F
:10019C009B681A433B685B795B001343FA68134313
:1001AC00FB607B68FA689A607B68DB6AFB60FB68C3
:1001BC0023F47003FB603B681B7C013BDAB2FB7AD7
:1001CC001343FB72FB7A1B05FA681343FB607B68D5
:1001DC00FA68DA6200BF1437BD4680BC704700BFB6
:1001EC00FDF7F1FF80B483B000AF78607B6800222C
:1001FC001A607B6800221A717B6800225A717B6836
:10020C0000229A607B680022DA607B6801221A74F3
:10021C0000BF0C37BD4680BC704780B483B000AFC4
:10022C0078600B46FB70FB78002B06D07B689B68D4
:10023C0043F001027B689A6005E07B689B6823F0C1
:10024C0001027B689A6000BF0C37BD4680BC7047CA
:10025C0080B483B000AF78600B46FB70FB78002B4A
:10026C0006D07B689B6843F480727B689A6005E0DB
:10027C007B689B6823F480727B689A6000BF0C37A4
:10028C00BD4680BC704780B483B000AF78607B689B
:10029C009B6843F004027B689A6000BF0C37BD4634
:1002AC0080BC704780B483B000AF78600B46FB70A5
:1002BC00FB78002B06D07B689B6843F4A0027B681C
:1002CC009A6005E07B689B6823F4A0027B689A60C7
:1002DC0000BF0C37BD4680BC704780B485B000AF02
:1002EC007860084611461A460346FB700B46BB70F5
:1002FC0013467B700023FB600023BB60FB78092B4B
:10030C0023D97B68DB68FB60FB78A3F10A021346F8
:10031C005B001344072202FA03F3BB60BB68DB43A8
:10032C00FA681340FB607978FB78A3F10A02134654
:10033C005B00134401FA03F3BB60FA68BB68134318
:10034C00FB607B68FA68DA601EE07B681B69FB6007
:10035C00FA7813465B001344072202FA03F3BB60DE
:10036C00BB68DB43FA681340FB607978FA78134674
:10037C005B00134401FA03F3BB60FA68BB681343D8
:10038C00FB607B68FA681A61BB78062B21D87B6806
:10039C005B6BFB60BB785A1E13469B0013441F22F9
:1003AC0002FA03F3BB60BB68DB43FA681340FB60E3
:1003BC00F978BB785A1E13469B00134401FA03F3D9
:1003CC00BB60FA68BB681343FB607B68FA685A63CE
:1003DC0047E0BB780C2B21D87B681B6BFB60BB7890
:1003EC00DA1F13469B0013441F2202FA03F3BB606F
:1003FC00BB68DB43FA681340FB60F978BB78DA1F03
:10040C0013469B00134401FA03F3BB60FA68BB6804
:10041C001343FB607B68FA681A6322E07B68DB6A33
:10042C00FB60BB78A3F10D0213469B0013441F2203
:10043C0002FA03F3BB60BB68DB43FA681340FB6052
:10044C00F978BB78A3F10D0213469B00134401FA13
:10045C0003F3BB60FA68BB681343FB607B68FA6804
:10046C00DA6200BF1437BD4680BC704780B485B0DB
:10047C0000AF786039600023FB607B681B68FB6011
:10048C00FB6823F4FF4323F07003FB603B689A681E
:10049C003B681B6A1A433B681B691A433B685B69E0
:1004AC001A433B689B691A433B68DB691A433B68F8
:1004BC005B6A1A433B689B6A1343FA681343FB60FD
:1004CC007B68FA681A603B68DA687B685A603B683C
:1004DC001A687B689A603B685A687B68DA6000BF70
:1004EC001437BD4680BC704780B483B000AF7860D1
:1004FC007B6800221A607B6800225A607B680022AD
:10050C009A607B680022DA607B6800221A617B6843
:10051C0000225A617B6800229A617B680022DA61B2
:10052C007B6800221A627B6800225A627B68002278
:10053C009A6200BF0C37BD4680BC704780B483B054
:10054C0000AF78600B46FB70FB78002B06D07B6805
:10055C001B6843F001027B681A6006E07B681A682E
:10056C004FF6FE7313407A68136000BF0C37BD461C
:10057C0080BC704780B489B000AF786039600023CC
:10058C00FB6100233B610023BB610023FB60002364
:10059C007B610023BB603B68DB7803F00F03FB61DE
:1005AC003B68DB7803F01003002B05D03B689B788D
:1005BC001A46FB691343FB613B681B88DBB2002BBB
:1005CC0044D07B681B687B610023BB6138E001224F
:1005DC00BB6902FA03F3FB603B681B881A46FB6895
:1005EC0013403B613A69FB689A4226D1BB699B0078
:1005FC00FB600F22FB6802FA03F3BB60BB68DB43B2
:10060C007A6913407B61FA69FB6802FA03F37A6931
:10061C0013437B613B68DB78282B05D10122BB6936
:10062C009A407B685A6108E03B68DB78482B04D120
:10063C000122BB699A407B681A61BB690133BB61BB
:10064C00BB69072BC3D97B687A691A603B681B8826
:10065C00FF2B46D97B685B687B610023BB613AE06A
:10066C00BB690833012202FA03F3FB603B681B8869
:10067C001A46FB6813403B613A69FB689A4227D1E2
:10068C00BB699B00FB600F22FB6802FA03F3BB60A3
:10069C00BB68DB437A6913407B61FA69FB6802FA39
:1006AC0003F37A6913437B613B68DB78282B05D114
:1006BC00BB69083301229A407B685A613B68DB783E
:1006CC00482B05D1BB69083301229A407B681A611B
:1006DC00BB690133BB61BB69072BC1D97B687A69E4
:1006EC005A6000BF2437BD4680BC704780B483B0CD
:1006FC0000AF78607B684FF6FF721A807B6802222D
:10070C009A707B680422DA7000BF0C37BD4680BC3F
:10071C007047000080B485B000AF78600023FB60A8
:10072C00094B5B68FB60FB6823F44043FB60FA6891
:10073C007B681343FB60044AFB68536000BF1437AB
:10074C00BD4680BC704700BF0010024080B487B02B
:10075C0000AF786000237B6100233B610023FB60CA
:10076C000023BB604C4B5B6803F00C037B617B6923
:10077C00042B07D0082B09D0002B33D17B68474AB8
:10078C001A6033E07B68454A1A602FE0424B5B6885
:10079C0003F470133B61404B5B6803F48033FB60E4
:1007AC003B699B0C02333B61FB68002B06D13B6918
:1007BC003B4A02FB03F27B681A6017E0364B5B681E
:1007CC0003F40033002B06D03B69354A02FB03F2DD
:1007DC007B681A600AE03B69304A02FB03F27B68D3
:1007EC001A6003E07B682D4A1A6000BF2A4B5B68D5
:1007FC0003F0F0037B617B691B097B61294A7B69F0
:10080C0013441B78DBB2BB607B681A68BB68DA40A8
:10081C007B685A60204B5B6803F4E0637B617B6907
:10082C001B0A7B611F4A7B6913441B78DBB2BB60DC
:10083C007B685A68BB68DA407B689A60164B5B68C9
:10084C0003F460537B617B69DB0A7B61154A7B692E
:10085C0013441B78DBB2BB607B685A68BB68DA4018
:10086C007B68DA600C4B5B6803F440437B617B690B
:10087C009B0B7B610C4A7B6913441B78DBB2BB601E
:10088C007B68DA68BB68B2FBF3F27B681A6100BF65
:10089C001C37BD4680BC70470010024000127A0025
:1008AC0000093D00000000201000002080B483B03F
:1008BC0000AF78600B46FB70FB78002B06D0094923
:1008CC00084B5A697B6813434B6106E00549054B9D
:1008DC005A697B68DB4313404B6100BF0C37BD4644
:1008EC0080BC70470010024080B483B000AF7860C9
:1008FC000B46FB70FB78002B06D00949084B9A6914
:10090C007B6813438B6106E00549054B9A697B684C
:10091C00DB4313408B6100BF0C37BD4680BC704776
:10092C000010024080B483B000AF78600B46FB70BF
:10093C00FB78002B06D00949084BDA697B68134316
:10094C00CB6106E00549054BDA697B68DB43134054
:10095C00CB6100BF0C37BD4680BC70470010024015
:10096C0080B485B000AF786039600023FB817B6870
:10097C001B88FB817B682E4A934213D07B682D4ADF
:10098C0093420FD07B68B3F1804F0BD07B682A4A1F
:10099C00934207D07B68294A934203D07B68284A4C
:1009AC00934208D1FB8923F07003FB813B685A8882
:1009BC00FB891343FB817B68224A93420CD07B68F2
:1009CC00214A934208D0FB8923F44073FB813B6896
:1009DC00DA88FB891343FB817B68FA891A803B68B0
:1009EC009A887B689A853B681A887B681A857B682D
:1009FC000F4A93420FD07B680E4A93420BD07B6810
:100A0C00124A934207D07B68114A934203D07B6809
:100A1C00104A934204D13B681B7A9AB27B681A86BF
:100A2C007B6801229A8200BF1437BD4680BC704798
:100A3C00002C01400034014000040040000800403C
:100A4C00000C004000100040001400400040014029
:100A5C00004401400048014080B483B000AF78608E
:100A6C007B684FF6FF729A807B6800221A807B6845
:100A7C000022DA807B6800225A807B6800221A727E
:100A8C0000BF0C37BD4680BC704780B483B000AF4C
:100A9C0078600B46FB70FB78002B08D07B681B88BA
:100AAC009BB243F001039AB27B681A8007E07B6823
:100ABC001B889BB223F001039AB27B681A8000BF9B
:100ACC000C37BD4680BC704780B58CB000AF7860E9
:100ADC0039600023FB620023BB6200237B6200238E
:100AEC003B620023FB617B68FB617B681B8A9BB2CA
:100AFC00FB62FA6A4CF6FF731340FB623B68DB88BF
:100B0C001A46FB6A1343FB62FB6A9AB27B681A8231
:100B1C007B689B899BB2FB62FA6A4EF6F313134017
:100B2C00FB623B689A883B681B8913439AB23B680B
:100B3C005B8913439BB21A46FB6A1343FB62FB6A45
:100B4C009AB27B689A817B689B8A9BB2FB62FA6A39
:100B5C004FF6FF431340FB623B689B891A46FB6AC6
:100B6C001343FB62FB6A9AB27B689A8207F1080313
:100B7C001846FFF7EBFDFB692E4A934202D17B69C5
:100B8C00BB6201E03B69BB627B689B899BB21BB279
:100B9C00002B0CDABA6A13469B0013449A001A44D1
:100BAC003B681B685B00B2FBF3F37B620BE0BA6A39
:100BBC0013469B0013449A001A443B681B689B0025
:100BCC00B2FBF3F37B627B6A1B4AA2FB03235B0938
:100BDC001B01FB62FB6A1B09642202FB03F37A6AAA
:100BEC00D31A3B627B689B899BB21BB2002B0CDA3D
:100BFC003B6ADB003233104AA2FB03235B0903F090
:100C0C000703FA6A1343FB620BE03B6A1B013233A6
:100C1C00094AA2FB03235B0903F00F03FA6A13438F
:100C2C00FB62FB6A9AB27B681A8100BF3037BD4603
:100C3C0080BD00BF003801401F85EB5180B483B0EC
:100C4C0000AF78600B46FB70FB78002B08D07B68FC
:100C5C009B899BB243F400539AB27B689A8107E05C
:100C6C007B689B899BB223F400539AB27B689A8170
:100C7C0000BF0C37BD4680BC704780B483B000AF5A
:100C8C0078600B467B807B88C3F308039AB27B6841
:100C9C009A8000BF0C37BD4680BC704780B483B0CF
:100CAC0000AF78607B689B889BB2C3F308039BB250
:100CBC0018460C37BD4680BC704780B485B000AF79
:100CCC0078600B467B800023FB737B681B889AB291
:100CDC007B8813409BB2002B02D00123FB7301E0F5
:100CEC000023FB73FB7B18461437BD4680BC704752
:100CFC0038B51D464161041D1146204600F084F9AB
:100D0C002946204600F08CF938BD38B50446051D3F
:100D1C00284600F08AF900B938BD284600F076F96B
:100D2C00646923689B682046984720B923681B6830
:100D3C0020469847F0E723685B682046984738BD03
:100D4C0010B50446034B40F8043B00F081F92046F3
:100D5C0010BD00BF481A000810B50446034B40F8FC
:100D6C00043B00F04AF9204610BD00BF481A0008A9
:100D7C0010B50446FFF7F0FF204600F0E3FC2046D8
:100D8C0010BD436818887047704710B5044600F0D2
:100D9C00D9FC204610BD416070470000014B036038
:100DAC00704700BF581A00084268136981680B43EA
:100DBC001361704742681369C1680B431361704734
:100DCC0043689A6883681A4214BF01200020704758
:100DDC00704710B5044600F0B5FC204610BD0F2A34
:100DEC0008DC4160012303FA02F18160103203FA3E
:100DFC0002F2C26070470000024A026000224260A8
:100E0C00826070476C1A00084368988C80B27047F7
:100E1C00704710B5044600F095FC204610BD4160AB
:100E2C0070470000014B0360704700BF881A000830
:100E3C00002070477047704710B5044600F082FCE4
:100E4C00204610BD10B5044600F07CFC204610BDB9
:100E5C0041607047074A0260074981600022C26006
:100E6C00C0F85421C0F85811C0F85C21C0F8A42275
:100E7C00704700BFAC1A00089C1A0008D0F84C212F
:100E8C004068824214BF00200120704708B500F56D
:100E9C00AC70FFF7F3FF80F00100C0B208BD00009A
:100EAC000131064BA3FB0123C81A03EB50031B0AA9
:100EBC0040F2431000FB1310704700BFBFB0CB953E
:100ECC0038B504460D464168FFF7EAFFD4F84C31BB
:100EDC00984206D063682A7823441A726060012015
:100EEC0038BD002038BDF0B583B007461646002447
:100EFC00B4420DDA4D1C0B7802A901F8013D07F143
:100F0C000800FFF7DDFF18B10134A4B22946EFE762
:100F1C00204603B0F0BD70B582B006460D460024E5
:100F2C002B785BB1013502A901F8013D06F10800EF
:100F3C00FFF7C6FF10B10134A4B2F1E7204602B0AE
:100F4C0070BD10B582B0044620214068FFF7B5FE95
:100F5C0008B902B010BD6068FFF7A0FE02A901F845
:100F6C00010D04F5AC70FFF7ABFFF2E7D0F84C21A4
:100F7C0043689A420ED010B50446D0F84C31034465
:100F8C001B7A0B70D0F84C11FFF78AFFC4F84C0198
:100F9C00012010BD0020704700B583B00DF1070192
:100FAC0000F5AC70FFF7E2FF9DF8070003B05DF8A9
:100FBC0004FB30B583B0044600F108052846FFF762
:100FCC005DFF08B103B030BD80216068FFF775FE8E
:100FDC000028F7D00DF107012846FFF7C7FF9DF851
:100FEC0007106068FFF749FEECE710B50446FFF701
:100FFC00E0FF2046FFF7A5FF10BD704710B5044673
:10100C0000F0A0FB204610BD4160704710B50446AF
:10101C00406803681B68984760810023237310BDE8
:10102C0008B50181FFF7F2FF08BD10B50446037B3C
:10103C000BB1207B10BD406803681B68984763891F
:10104C00C01A80B223899842F3DB01232373F0E7A3
:10105C00014B0360704700BFD01A0008704710B5F1
:10106C00044600F06FFB204610BD0000F0B5ADF556
:10107C00697D00F0B7F94FF44040FFF74BFB0121BD
:10108C00A348FFF74FFC01214FF40770FFF72CFC2E
:10109C0001210846FFF70AFCE5A8FFF7DDFC4FF637
:1010AC00FF73ADF8983341F61F43ADF89433994D67
:1010BC00E5A92846FFF754FC01212846FFF7E5FC7B
:1010CC004FF40053ADF8903302248DF8924314235F
:1010DC008DF89333904EE4A93046FFF74BFAE2A813
:1010EC00FFF7A0FE2946E2A8FFF799FEDEA8FFF75E
:1010FC0083FE0D223146DEA8FFF771FED8A8FFF75C
:10110C001FFE41F28833E2AADEA9D8A8FFF7F0FD52
:10111C00C023ADF890338DF892431C268DF8936361
:10112C0005F58435E4A92846FFF724FA4FF48063CB
:10113C00ADF890338DF8924318238DF89333E4A9CE
:10114C002846FFF717FA4FF40063ADF890338DF88B
:10115C0092438DF89363E4A92846FFF70BFA4FF4FA
:10116C001653D4930023ADF85C330C22ADF85A23FC
:10117C00ADF85833ADF85633ADF85433674CD4A9A9
:10118C002046FFF7A1FC01212046FFF757FD2AA8B6
:10119C00FFF760FE21462AA8FFF75AFE012526AC70
:1011AC00002D05DB2046FFF7F9FD0834013DF7E77C
:1011BC000024012C0ADC25AB03EB440126AB03EB2A
:1011CC00C400FFF7E8FD0134A4B2F2E7E4A8FFF78E
:1011DC008DFA0323ADF8903300268DF89363E4A9C0
:1011EC004F48FFF7C7F91AA8FFF77EF94FF4806351
:1011FC0021934FF4807320931C9680231F932023FC
:10120C00229302271D97239625AB1B93454B1A93CC
:10121C00454C1AA92046FFF729F901212046FFF772
:10122C008DF915A8FEF7DEFF01248DF859408DF8D5
:10123C0064708DF858403D4D15A92846FEF780FF87
:10124C000723224631462846FFF747F807233A463C
:10125C0021462846FFF741F8AB6843F46023AB60A6
:10126C0021462846FEF7F4FF21462846FEF7D5FF17
:10127C0021462846FFF716F82846FFF704F80DAB71
:10128C00002C0BDB2A4A1A600022DA604FF07E52E7
:10129C005A6000229A601033013CF1E70023012BC5
:1012AC0009DC26AA02EBC3010DAA02EB0312D160E2
:1012BC0001339BB2F3E71F492AA8FFF72CFE09A8BC
:1012CC00FFF7C6FEE2A909A8FFF79EFE42F21071D5
:1012DC0009A8FFF7A5FE05E0D8A8FFF716FD2AA878
:1012EC00FFF783FE09A8FFF7A0FE0028F4D009A899
:1012FC00FFF78CFEBDF89630BDF894200E4901A87E
:10130C0000F009FA01A92AA8FFF705FEE4E700BFDF
:10131C00024004000004004000100140004800405E
:10132C00000801404C240140080002400024014008
:10133C00E01A0008E81A0008F01A0008DFF834D0A8
:10134C00002103E00C4B5B58435004310B480C4B11
:10135C0042189A42F6D30B4A02E0002342F8043BAF
:10136C00094B9A42F9D300F03DF800F0EDF9FFF784
:10137C007DFE704700500020081B00080000002074
:10138C00180500201805002074050020FEE780B425
:10139C0000AF00BFBD4680BC704780B400AFFEE715
:1013AC0080B400AFFEE780B400AFFEE780B400AFBE
:1013BC00FEE780B400AF00BFBD4680BC704780B470
:1013CC0000AF00BFBD4680BC704780B400AF00BF0B
:1013DC00BD4680BC704780B400AF00BFBD4680BC2A
:1013EC007047000080B500AF154A154B1B6843F0E1
:1013FC00010313601249124B5A68124B13404B6095
:10140C000F4A0F4B1B6823F0847323F48033136053
:10141C000B4A0B4B1B6823F480231360084A084BC0
:10142C005B6823F4FE035360054B4FF41F029A6074
:10143C0000F00CF8044B4FF000629A6000BF80BDC6
:10144C00001002400000FFF800ED00E080B500AF96
:10145C0000F002F800BF80BD80B483B000AF002361
:10146C007B6000233B603A4A394B1B6843F4803362
:10147C001360374B1B6803F400333B607B6801330C
:10148C007B603B68002B03D17B68B3F5A06FF0D178
:10149C002F4B1B6803F40033002B02D001233B605D
:1014AC0001E000233B603B68012B4BD1294A294BBF
:1014BC001B6843F010031360264A264B1B6823F06D
:1014CC0003031360234A234B1B6843F0020313608E
:1014DC001F4A1F4B5B6853601D4A1D4B5B68536072
:1014EC001B4A1B4B5B6843F480635360184A184BD0
:1014FC005B6823F47C135360154A154B5B6843F40B
:10150C00E8135360124A124B1B6843F0807313604C
:10151C0000BF0F4B1B6803F00073002BF9D00C4A73
:10152C000B4B5B6823F003035360094A084B5B6861
:10153C0043F00203536000BF054B5B6803F00C03E0
:10154C00082BF9D100BF0C37BD4680BC704700BFDB
:10155C00001002400020024080B487B000AFF86059
:10156C00B9607A6001237B6104E07B697A6802FBD5
:10157C0003F37B617B69BA68B2FBF3F27B689A4236
:10158C00F3D229E07B69BA68B2FBF3F33B617A6969
:10159C00BB68B3FBF2F102FB01F29B1ABB607A69E8
:1015AC007B6892FBF3F37B613B69092B0ADDFB68DB
:1015BC001B68591CFA6811603A69D2B23732D2B240
:1015CC001A7009E0FB681B68591CFA6811603A69CB
:1015DC00D2B23032D2B21A707B69002BD2D100BF9A
:1015EC001C37BD4680BC704780B588B000AFF86032
:1015FC00B9607A60FB687B617DE0BB681B78252B4A
:10160C0071D1BB680133BB60BB681B78642B1ED0E7
:10161C00642B06DC582B50D0632B0ED0252B58D0C6
:10162C005DE0732B2BD0732B02DC692B0FD056E0B3
:10163C00752B37D0782B40D051E0FB685A1CFA60E0
:10164C007A68111D79601268D2B21A7047E07B6813
:10165C001A1D7A601B68FB61FB69002B07DAFB69BA
:10166C005B42FB61FB685A1CFA602D221A70F96907
:10167C0007F10C030A221846FFF76EFF2FE07B6878
:10168C001A1D7A601B68BB6107E0FB685A1CFA6084
:10169C00BA69511CB96112781A70BB691B78002B9E
:1016AC00F3D11CE07B681A1D7A60196807F10C03F2
:1016BC000A221846FFF750FF11E07B681A1D7A606A
:1016CC001B68194607F10C0310221846FFF744FF5C
:1016DC0005E0FB685A1CFA6025221A7000BFBB6833
:1016EC000133BB6007E0FB685A1CFA60BA68511CF6
:1016FC00B96012781A70BB681B78002B7FF47DAF31
:10170C00FB6800221A70FB681A467B69D31A1846CC
:10171C002037BD4680BD0EB480B585B000AF786073
:10172C0007F12003BB60BA68F9697868FFF75CFFC2
:10173C00F860FB6818461437BD46BDE8804003B01E
:10174C007047000000F024B870B500250C4E0D4C0D
:10175C00A41BA410A54209D100F060F900250A4E83
:10176C000A4CA41BA410A54205D170BD56F8253017
:10177C0098470135EEE756F8253098470135F2E7E2
:10178C00001B0008001B0008001B0008041B0008BD
:10179C00024B0146186800F075B800BF2404002005
:1017AC00014800F02BB900BF68050020014800F08B
:1017BC0026B900BF6805002038B50023054C054646
:1017CC000846236000F01CF9431C02D1236803B1C6
:1017DC002B6038BD700500202DE9F8438946254F54
:1017EC000646FFF7DDFFBB68DFF894805D68A8F163
:1017FC00110425F00305A4EB09042C44B4FBF8F404
:10180C00013C08FB04F4444505DA3046FFF7CEFFF3
:10181C000020BDE8F88300213046FFF7CDFFBB6800
:10182C002B449842F1D161423046FFF7C5FF01309D
:10183C0010D100213046FFF7BFFFBA68831A0F2B77
:10184C00E3DD0D4943F0010309685360401A0B496D
:10185C000860DAE7BB68094A2D1B45F001055D609D
:10186C00136830461C1B1460FFF7A0FF0120BDE875
:10187C00F88300BF140000201C0400203405002055
:10188C00800000002DE9F04104468846002900F054
:10189C00AB80FFF785FF58F8042C544D22F0010063
:1018AC00A8F108031F18A9687E688F4226F003066A
:1018BC0002F001021BD130443AB958F8082C9B1A9B
:1018CC0099681044DA68CA60916040F001025A606D
:1018DC00AB60474B1B68984204D3464B20461968B3
:1018EC00FFF77AFF2046BDE8F041FFF75FBF7E604F
:1018FC00002A39D158F8081C05F1080E5B1A084467
:10190C009968714532D0D3F80CE0C1F80CE0CEF8F0
:10191C000810B9194968C9070AD43044B9683ABBE8
:10192C00354EB14224D101226B612B61D960996093
:10193C0040F0010159601850002AD3D1B0F5007F56
:10194C001AD20122C00881108A40696801300A430A
:10195C006A6055F8301005EBC002083ADA609960FD
:10196C0045F83030CB60BDE70022D2E70122D0E74A
:10197C00FE68CE60B160DBE7420A042A13D8820904
:10198C003832511C55F8311005EBC2068E4224D169
:10199C000120921000FA02F2686802436A60DE606D
:1019AC009960B360DEE7142A01D85B32E9E7542A68
:1019BC0002D8020B6E32E4E7B2F5AA7F02D8C20B52
:1019CC007732DEE740F254518A429ABF820C7C3265
:1019DC007E22D6E789688E4204D04A6822F0030240
:1019EC009042F7D3CE68DAE7BDE8F081140000200E
:1019FC00200400205C0500201C000020704770476C
:101A0C00044B0246196809B9034919601868024465
:101A1C001A6070476005002074050020F8B500BFFF
:101A2C00F8BC08BC9E467047F8B500BFF8BC08BCB3
:041A3C009E4670470B
:101A40000000000000000000650D00087D0D00088A
:101A500000000000000000008F0D0008950D000838
:101A6000970D00080000000000000000B50D000800
:101A7000C10D0008CD0D0008DD0D0008DF0D0008C8
:101A80000000000000000000150E00081D0E0008F8
:101A90001F0E00080000000000000000430E0008B8
:101AA000450E00080000000000000000F30E0008D2
:101AB000230F0008990E00083D0E0008A50F00082E
:101AC000410E0008510E0008000000000000000058
:101AD00007100008091000080000000000000000C6
:101AE000691000086B100008686168610000000060
:081AF00025642C25640D0A0099
:081AF80058FCFF7F0100000013
:041B000031010008A7
:041B04000D010008C7
:101B0800000000000102030401020304060708099B
:101B18000204060800000000000000001400002075
:101B2800140000201C0000201C00002024000020BD
:101B3800240000202C0000202C000020340000206D
:101B4800340000203C0000203C000020440000201D
:101B5800440000204C0000204C00002054000020CD
:101B6800540000205C0000205C000020640000207D
:101B7800640000206C0000206C000020740000202D
:101B8800740000207C0000207C00002084000020DD
:101B9800840000208C0000208C000020940000208D
:101BA800940000209C0000209C000020A40000203D
:101BB800A4000020AC000020AC000020B4000020ED
:101BC800B4000020BC000020BC000020C40000209D
:101BD800C4000020CC000020CC000020D40000204D
:101BE800D4000020DC000020DC000020E4000020FD
:101BF800E4000020EC000020EC000020F4000020AD
:101C0800F4000020FC000020FC000020040100205B
:101C1800040100200C0100200C0100201401002008
:101C2800140100201C0100201C01002024010020B8
:101C3800240100202C0100202C0100203401002068
:101C4800340100203C0100203C0100204401002018
:101C5800440100204C0100204C01002054010020C8
:101C6800540100205C0100205C0100206401002078
:101C7800640100206C0100206C0100207401002028
:101C8800740100207C0100207C01002084010020D8
:101C9800840100208C0100208C0100209401002088
:101CA800940100209C0100209C010020A401002038
:101CB800A4010020AC010020AC010020B4010020E8
:101CC800B4010020BC010020BC010020C401002098
:101CD800C4010020CC010020CC010020D401002048
:101CE800D4010020DC010020DC010020E4010020F8
:101CF800E4010020EC010020EC010020F4010020A8
:101D0800F4010020FC010020FC0100200402002056
:101D1800040200200C0200200C0200201402002003
:101D2800140200201C0200201C02002024020020B3
:101D3800240200202C0200202C0200203402002063
:101D4800340200203C0200203C0200204402002013
:101D5800440200204C0200204C02002054020020C3
:101D6800540200205C0200205C0200206402002073
:101D7800640200206C0200206C0200207402002023
:101D8800740200207C0200207C02002084020020D3
:101D9800840200208C0200208C0200209402002083
:101DA800940200209C0200209C020020A402002033
:101DB800A4020020AC020020AC020020B4020020E3
:101DC800B4020020BC020020BC020020C402002093
:101DD800C4020020CC020020CC020020D402002043
:101DE800D4020020DC020020DC020020E4020020F3
:101DF800E4020020EC020020EC020020F4020020A3
:101E0800F4020020FC020020FC0200200403002051
:101E1800040300200C0300200C03002014030020FE
:101E2800140300201C0300201C03002024030020AE
:101E3800240300202C0300202C030020340300205E
:101E4800340300203C0300203C030020440300200E
:101E5800440300204C0300204C03002054030020BE
:101E6800540300205C0300205C030020640300206E
:101E7800640300206C0300206C030020740300201E
:101E8800740300207C0300207C03002084030020CE
:101E9800840300208C0300208C030020940300207E
:101EA800940300209C0300209C030020A40300202E
:101EB800A4030020AC030020AC030020B4030020DE
:101EC800B4030020BC030020BC030020C40300208E
:101ED800C4030020CC030020CC030020D40300203E
:101EE800D4030020DC030020DC030020E4030020EE
:101EF800E4030020EC030020EC030020F40300209E
:101F0800F4030020FC030020FC030020040400204C
:101F1800040400200C0400200C040020FFFFFFFF35
:101F2800000002002804002000000000000000005B
:101F38000000000000000000000000000000000099
:101F48000000000000000000000000000000000089
:101F58000000000000000000000000000000000079
:101F68000000000000000000000000000000000069
:101F78000000000000000000000000000000000059
:101F88000000000000000000000000000000000049
:101F98000000000000000000000000000000000039
:101FA8000000000000000000000000000000000029
:101FB8000000000000000000000000000000000019
:101FC8000000000000000000000000000000000009
:101FD80000000000000000000000000000000000F9
:101FE80000000000000000000000000000000000E9
:101FF80000000000000000000000000000000000D9
:1020080000000000000000000000000000000000C8
:082018000000000000000000C0
:040000050800134993
:00000001FF
