:020000040800F2
:1000000000500020B93C00080B3D0008173D0008D7
:100010001D3D0008233D0008293D000800000000A8
:100020000000000000000000000000002F3D00085C
:100030003B3D000800000000473D0008533D00081C
:10004000093D0008093D0008093D0008093D000878
:10005000093D0008093D0008093D0008093D000868
:10006000093D0008093D0008093D0008093D000858
:10007000093D0008093D0008093D0008093D000848
:10008000093D0008093D0008093D0008093D000838
:10009000093D0008093D0008093D0008093D000828
:1000A000093D0008093D0008093D0008093D000818
:1000B000093D0008093D0008093D0008093D000808
:1000C000093D0008093D0008093D0008093D0008F8
:1000D000093D0008093D0008093D0008093D0008E8
:1000E000093D0008093D0008093D00080000000026
:1000F0000000000000000000000000000000000000
:0C01000000000000000000005FF808F1A3
:1001100010B5054C237833B9044B13B10448AFF341
:1001200000800123237010BD8C0600200000000019
:100130001466000808B5034B1BB103490348AFF32D
:10014000008008BD00000000900600201466000832
:10015000034613F8012B002AFBD1181A0138704707
:1001600081F0004102E000BF83F0004330B54FEA68
:1001700041044FEA430594EA050F08BF90EA020FD5
:100180001FBF54EA000C55EA020C7FEA645C7FEA68
:10019000655C00F0E2804FEA5454D4EB5555B8BF8B
:1001A0006D420CDD2C4480EA020281EA030382EAFC
:1001B000000083EA010180EA020281EA0303362D8E
:1001C00088BF30BD11F0004F4FEA01314FF4801C61
:1001D0004CEA113102D0404261EB410113F0004F73
:1001E0004FEA03334CEA133302D0524263EB43032A
:1001F00094EA050F00F0A780A4F10104D5F1200EC8
:100200000DDB02FA0EFC22FA05F2801841F1000122
:1002100003FA0EF2801843FA05F359410EE0A5F1F6
:1002200020050EF1200E012A03FA0EFC28BF4CF027
:10023000020C43FA05F3C01851EBE37101F00045DD
:1002400007D54FF0000EDCF1000C7EEB00006EEBEA
:100250000101B1F5801F1BD3B1F5001F0CD3490874
:100260005FEA30004FEA3C0C04F101044FEA4452CB
:1002700012F5800F80F09A80BCF1004F08BF5FEA52
:10028000500C50F1000041EB045141EA050130BD32
:100290005FEA4C0C404141EB010111F4801FA4F1D5
:1002A0000104E9D191F0000F04BF01460020B1FA2A
:1002B00081F308BF2033A3F10B03B3F120020CDA62
:1002C0000C3208DD02F1140CC2F10C0201FA0CF040
:1002D00021FA02F10CE002F11402D8BFC2F1200CA5
:1002E00001FA02F120FA0CFCDCBF41EA0C0190405B
:1002F000E41AA2BF01EB0451294330BD6FEA0404A4
:100300001F3C1CDA0C340EDC04F11404C4F120028E
:1003100020FA04F001FA02F340EA030021FA04F3A0
:1003200045EA030130BDC4F10C04C4F1200220FAF7
:1003300002F001FA04F340EA0300294630BD21FA35
:1003400004F0294630BD94F0000F83F4801306BFFB
:1003500081F480110134013D4EE77FEA645C18BFEF
:100360007FEA655C29D094EA050F08BF90EA020F86
:1003700005D054EA000C04BF1946104630BD91EA7E
:10038000030F1EBF0021002030BD5FEA545C05D181
:100390004000494128BF41F0004130BD14F58004C0
:1003A0003CBF01F5801130BD01F0004545F0FE4134
:1003B00041F470014FF0000030BD7FEA645C1ABF69
:1003C000194610467FEA655C1CBF0B46024650EAA0
:1003D000013406BF52EA033591EA030F41F40021CC
:1003E00030BD00BF90F0000F04BF0021704730B552
:1003F0004FF4806404F132044FF000054FF0000127
:1004000050E700BF90F0000F04BF0021704730B5E7
:100410004FF4806404F1320410F0004548BF4042BC
:100420004FF000013EE700BF42004FEAE2014FEA11
:1004300031014FEA02701FBF12F07F4393F07F4FEC
:1004400081F06051704792F0000F14BF93F07F4F1E
:10045000704730B54FF4607401F0004521F0004161
:1004600020E700BF50EA010208BF704730B54FF0E7
:1004700000050AE050EA010208BF704730B511F0EC
:10048000004502D5404261EB41014FF4806404F124
:1004900032045FEA915C3FF4DCAE4FF003025FEAA6
:1004A000DC0C18BF03325FEADC0C18BF033202EB2E
:1004B000DC02C2F1200300FA03FC20FA02F001FA88
:1004C00003FE40EA0E0021FA02F11444C1E600BF27
:1004D00070B54FF0FF0C4CF4E06C1CEA11541DBFDA
:1004E0001CEA135594EA0C0F95EA0C0F00F0DEF8A5
:1004F0002C4481EA030621EA4C5123EA4C5350EA8A
:10050000013518BF52EA033541F4801143F48013DA
:1005100038D0A0FB02CE4FF00005E1FB02E506F06B
:100520000042E0FB03E54FF00006E1FB03569CF0C0
:10053000000F18BF4EF0010EA4F1FF04B6F5007FC6
:1005400064F5407404D25FEA4E0E6D4146EB060638
:1005500042EAC62141EA55514FEAC52040EA5E50C1
:100560004FEACE2EB4F1FD0C88BFBCF5E06F1ED86B
:10057000BEF1004F08BF5FEA500E50F1000041EBA2
:10058000045170BD06F0004646EA010140EA02004F
:1005900081EA0301B4EB5C04C2BFD4EB0C0541EA71
:1005A000045170BD41F480114FF0000E013C00F386
:1005B000AB8014F1360FDEBF002001F0004170BDAA
:1005C000C4F10004203C35DA0C341BDC04F11404C3
:1005D000C4F1200500FA05F320FA04F001FA05F24F
:1005E00040EA020001F0004221F0004110EBD3701C
:1005F00021FA04F642EB06015EEA430E08BF20EA48
:10060000D37070BDC4F10C04C4F1200500FA04F3EA
:1006100020FA05F001FA04F240EA020001F000417C
:1006200010EBD37041F100015EEA430E08BF20EAEF
:10063000D37070BDC4F1200500FA05F24EEA020E37
:1006400020FA04F301FA05F243EA020321FA04F066
:1006500001F0004121FA04F220EA020000EBD3701D
:100660005EEA430E08BF20EAD37070BD94F0000F1D
:100670000FD101F00046400041EB010111F4801F51
:1006800008BF013CF7D041EA060195F0000F18BF02
:10069000704703F00046520043EB030313F4801F3E
:1006A00008BF013DF7D043EA0603704794EA0C0FF8
:1006B0000CEA135518BF95EA0C0F0CD050EA41060E
:1006C00018BF52EA4306D1D181EA030101F000418B
:1006D0004FF0000070BD50EA410606BF10461946B3
:1006E00052EA430619D094EA0C0F02D150EA0136BF
:1006F00013D195EA0C0F05D152EA03361CBF104600
:1007000019460AD181EA030101F0004141F0FE419E
:1007100041F470014FF0000070BD41F0FE4141F422
:10072000780170BD70B54FF0FF0C4CF4E06C1CEA22
:1007300011541DBF1CEA135594EA0C0F95EA0C0FD7
:1007400000F0A7F8A4EB050481EA030E52EA033592
:100750004FEA013100F088804FEA03334FF08055B3
:1007600045EA131343EA12634FEA022245EA1115E0
:1007700045EA10654FEA00260EF000419D4208BF91
:10078000964244F1FD0404F5407402D25B084FEA3E
:100790003202B61A65EB03055B084FEA32024FF4EA
:1007A00080104FF4002CB6EB020E75EB030E22BF47
:1007B000B61A754640EA0C005B084FEA3202B6EB07
:1007C000020E75EB030E22BFB61A754640EA5C00B6
:1007D0005B084FEA3202B6EB020E75EB030E22BF46
:1007E000B61A754640EA9C005B084FEA3202B6EB47
:1007F000020E75EB030E22BFB61A754640EADC0006
:1008000055EA060E18D04FEA051545EA16754FEA67
:1008100006164FEAC30343EA52734FEAC2025FEA85
:100820001C1CC0D111F4801F0BD141EA00014FF014
:1008300000004FF0004CB6E711F4801F04BF0143E5
:100840000020B4F1FD0C88BFBCF5E06F3FF6AFAE01
:10085000B5EB030C04BFB6EB020C5FEA500C50F191
:10086000000041EB045170BD0EF0004E4EEA113114
:1008700014EB5C04C2BFD4EB0C0541EA045170BD1B
:1008800041F480114FF0000E013C90E645EA060E5F
:100890008DE60CEA135594EA0C0F08BF95EA0C0F8D
:1008A0003FF43BAF94EA0C0F0AD150EA01347FF4D5
:1008B00034AF95EA0C0F7FF425AF104619462CE7AC
:1008C00095EA0C0F06D152EA03353FF4FDAE10460F
:1008D000194622E750EA410618BF52EA43067FF460
:1008E000C5AE50EA41047FF40DAF52EA43057FF4F0
:1008F000EBAE12E74FF0FF3C06E000BF4FF0010CFB
:1009000002E000BF4FF0010C4DF804CD4FEA410C5E
:100910007FEA6C5C4FEA430C18BF7FEA6C5C1BD02B
:1009200001B050EA410C0CBF52EA430C91EA030FAC
:1009300002BF90EA020F0020704710F1000F91EA09
:10094000030F58BF994208BF90422CBFD8176FEAD7
:10095000E37040F0010070474FEA410C7FEA6C5CA5
:1009600002D150EA013C07D14FEA430C7FEA6C5CAC
:10097000D6D152EA033CD3D05DF8040B704700BFD8
:100980008446104662468C461946634600E000BF26
:1009900001B5FFF7B7FF002848BF10F1000F01BDF8
:1009A0004DF808EDFFF7F4FF0CBF012000205DF8C3
:1009B00008FB00BF4DF808EDFFF7EAFF34BF012048
:1009C00000205DF808FB00BF4DF808EDFFF7E0FFE1
:1009D00094BF012000205DF808FB00BF4DF808ED32
:1009E000FFF7CEFF94BF012000205DF808FB00BF99
:1009F0004DF808EDFFF7C4FF34BF012000205DF87B
:100A000008FB00BF4FEA410212F5001215D211D5C2
:100A10006FF47873B3EB625212D94FEAC12343F0FB
:100A2000004343EA505311F0004F23FA02F018BF7D
:100A3000404270474FF00000704750EA013005D146
:100A400011F0004008BF6FF0004070474FF0000009
:100A5000704700BF4A0011D212F5001211D20DD515
:100A60006FF47873B3EB62520ED44FEAC12343F0B4
:100A7000004343EA505323FA02F070474FF000005E
:100A8000704750EA013002D14FF0FF3070474FF00D
:100A9000000070474FEA4102B2F1E04324BFB3F5D2
:100AA000001CDCF1FE5C0DD901F0004C4FEAC002E5
:100AB0004CEA5070B2F1004F40EB830008BF20F0C9
:100AC0000100704711F0804F21D113F13872BCBF83
:100AD00001F00040704741F480114FEA5252C2F1D8
:100AE0001802C2F1200C10FA0CF320FA02F018BF21
:100AF00040F001004FEAC1234FEAD32303FA0CFC74
:100B000040EA0C0023FA02F34FEA4303CCE77FEA02
:100B1000625307D150EA01331EBF4FF0FE4040F44C
:100B20004000704701F0004040F0FE4040F40000FB
:100B3000704700BF80F0004002E000BF81F000413C
:100B400042001FBF5FEA410392EA030F7FEA226C73
:100B50007FEA236C6AD04FEA1262D2EB1363C1BF03
:100B6000D218414048404140B8BF5B42192B88BF72
:100B7000704710F0004F40F4000020F07F4018BF95
:100B8000404211F0004F41F4000121F07F4118BFB5
:100B9000494292EA030F3FD0A2F1010241FA03FC5D
:100BA00010EB0C00C3F1200301FA03F100F0004345
:100BB00002D5494260EB4000B0F5000F13D3B0F10D
:100BC000807F06D340084FEA310102F10102FE2A7C
:100BD00051D2B1F1004F40EBC25008BF20F00100EC
:100BE00040EA03007047490040EB000010F4000F9A
:100BF000A2F10102EDD1B0FA80FCACF1080CB2EB2D
:100C00000C0200FA0CF0AABF00EBC250524218438B
:100C1000BCBFD0401843704792F0000F81F4000130
:100C200006BF80F400000132013BB5E74FEA410303
:100C30007FEA226C18BF7FEA236C21D092EA030F6F
:100C400004D092F0000F08BF0846704790EA010FE9
:100C50001CBF0020704712F07F4F04D1400028BF16
:100C600040F00040704712F100723CBF00F50000F8
:100C7000704700F0004343F0FE4040F4000070472E
:100C80007FEA226216BF08467FEA236301464202DA
:100C900006BF5FEA412390EA010F40F480007047ED
:100CA0004FF0000304E000BF10F0004348BF404293
:100CB0005FEA000C08BF704743F0964301464FF0CF
:100CC00000001CE050EA010208BF70474FF000032B
:100CD0000AE000BF50EA010208BF704711F000436C
:100CE00002D5404261EB41015FEA010C02BF84463C
:100CF0000146002043F0B64308BFA3F18053A3F59B
:100D00000003BCFA8CF2083AA3EBC25310DB01FAE1
:100D100002FC634400FA02FCC2F12002BCF1004F65
:100D200020FA02F243EB020008BF20F001007047F6
:100D300002F1200201FA02FCC2F1200250EA4C004A
:100D400021FA02F243EB020008BF20EADC70704790
:100D50004FF0FF0C1CEAD0521EBF1CEAD15392EA9E
:100D60000C0F93EA0C0F6FD01A4480EA010C40027A
:100D700018BF5FEA41211ED04FF0006343EA5010D4
:100D800043EA5111A0FB01310CF00040B1F5000F16
:100D90003EBF490041EAD3715B0040EA010062F1C5
:100DA0007F02FD2A1DD8B3F1004F40EBC25008BFAF
:100DB00020F00100704790F0000F0CF0004C08BFCD
:100DC00049024CEA502040EA51207F3AC2BFD2F19A
:100DD000FF0340EAC250704740F400004FF00003A8
:100DE000013A5DDC12F1190FDCBF00F000407047E2
:100DF000C2F10002410021FA02F1C2F1200200FA20
:100E000002FC5FEA310040F1000053EA4C0308BFE6
:100E100020EADC70704792F0000F00F0004C02BF37
:100E2000400010F4000F013AF9D040EA0C0093F0B2
:100E3000000F01F0004C02BF490011F4000F013B0C
:100E4000F9D041EA0C018FE70CEAD15392EA0C0F7A
:100E500018BF93EA0C0F0AD030F0004C18BF31F0E5
:100E6000004CD8D180EA010000F00040704790F0BB
:100E7000000F17BF90F0004F084691F0000F91F05F
:100E8000004F14D092EA0C0F01D142020FD193EA25
:100E90000C0F03D14B0218BF084608D180EA0100AD
:100EA00000F0004040F0FE4040F40000704740F089
:100EB000FE4040F4400070474FF0FF0C1CEAD05257
:100EC0001EBF1CEAD15392EA0C0F93EA0C0F69D0B3
:100ED000A2EB030280EA010C49024FEA402037D01E
:100EE0004FF0805343EA111143EA10130CF0004015
:100EF0008B4238BF5B0042F17D024FF4000C8B4205
:100F000024BF5B1A40EA0C00B3EB510F24BFA3EBE4
:100F1000510340EA5C00B3EB910F24BFA3EB9103B4
:100F200040EA9C00B3EBD10F24BFA3EBD10340EA0E
:100F3000DC001B0118BF5FEA1C1CE0D1FD2A3FF654
:100F400050AF8B4240EBC25008BF20F00100704709
:100F50000CF0004C4CEA50207F32C2BFD2F1FF03AC
:100F600040EAC250704740F400004FF00003013ADD
:100F700037E792F0000F00F0004C02BF400010F481
:100F8000000F013AF9D040EA0C0093F0000F01F095
:100F9000004C02BF490011F4000F013BF9D041EAB7
:100FA0000C0195E70CEAD15392EA0C0F08D14202EA
:100FB0007FF47DAF93EA0C0F7FF470AF084676E7BD
:100FC00093EA0C0F04D14B023FF44CAF08466EE796
:100FD00030F0004C18BF31F0004CCAD130F0004264
:100FE0007FF45CAF31F000437FF43CAF5FE700BFBC
:100FF00042000ED2B2F1FE4F0BD34FF09E03B3EB83
:10100000126209D44FEA002343F0004323FA02F0AE
:1010100070474FF00000704712F1610F01D142029A
:1010200002D14FF0FF3070474FF00000704700BF13
:1010300080B485B000AF786039600023FB60002386
:10104000FB727B685B68FB60FB6823F4702323F40E
:101050008073FB603B681A683B681B791B02134373
:10106000FA681343FB607B68FA685A607B689B6888
:10107000FB60FA68164B1340FB603B68DA683B681C
:101080009B681A433B685B795B001343FA68134320
:10109000FB607B68FA689A607B68DB6AFB60FB68D0
:1010A00023F47003FB603B681B7C013BDAB2FB7AE4
:1010B0001343FB72FB7A1B05FA681343FB607B68E2
:1010C000FA68DA6200BF1437BD4680BC704700BFC3
:1010D000FDF7F1FF80B483B000AF78607B68002239
:1010E0001A607B6800221A717B6800225A717B6843
:1010F00000229A607B680022DA607B6801221A7401
:1011000000BF0C37BD4680BC704780B483B000AFD1
:1011100078600B46FB70FB78002B06D07B689B68E1
:1011200043F001027B689A6005E07B689B6823F0CE
:1011300001027B689A6000BF0C37BD4680BC7047D7
:1011400080B483B000AF78600B46FB70FB78002B57
:1011500006D07B689B6843F480727B689A6005E0E8
:101160007B689B6823F480727B689A6000BF0C37B1
:10117000BD4680BC704780B483B000AF78607B68A8
:101180009B6843F004027B689A6000BF0C37BD4641
:1011900080BC704780B483B000AF78600B46FB70B2
:1011A000FB78002B06D07B689B6843F4A0027B6829
:1011B0009A6005E07B689B6823F4A0027B689A60D4
:1011C00000BF0C37BD4680BC704780B485B000AF0F
:1011D0007860084611461A460346FB700B46BB7002
:1011E00013467B700023FB600023BB60FB78092B58
:1011F00023D97B68DB68FB60FB78A3F10A02134606
:101200005B001344072202FA03F3BB60BB68DB43B5
:10121000FA681340FB607978FB78A3F10A02134661
:101220005B00134401FA03F3BB60FA68BB68134325
:10123000FB607B68FA68DA601EE07B681B69FB6014
:10124000FA7813465B001344072202FA03F3BB60EB
:10125000BB68DB43FA681340FB607978FA78134681
:101260005B00134401FA03F3BB60FA68BB681343E5
:10127000FB607B68FA681A61BB78062B21D87B6813
:101280005B6BFB60BB785A1E13469B0013441F2206
:1012900002FA03F3BB60BB68DB43FA681340FB60F0
:1012A000F978BB785A1E13469B00134401FA03F3E6
:1012B000BB60FA68BB681343FB607B68FA685A63DB
:1012C00047E0BB780C2B21D87B681B6BFB60BB789D
:1012D000DA1F13469B0013441F2202FA03F3BB607C
:1012E000BB68DB43FA681340FB60F978BB78DA1F10
:1012F00013469B00134401FA03F3BB60FA68BB6812
:101300001343FB607B68FA681A6322E07B68DB6A40
:10131000FB60BB78A3F10D0213469B0013441F2210
:1013200002FA03F3BB60BB68DB43FA681340FB605F
:10133000F978BB78A3F10D0213469B00134401FA20
:1013400003F3BB60FA68BB681343FB607B68FA6811
:10135000DA6200BF1437BD4680BC704780B485B0E8
:1013600000AF786039600023FB607B681B68FB601E
:10137000FB6823F4FF4323F07003FB603B689A682B
:101380003B681B6A1A433B681B691A433B685B69ED
:101390001A433B689B691A433B68DB691A433B6805
:1013A0005B6A1A433B689B6A1343FA681343FB600A
:1013B0007B68FA681A603B68DA687B685A603B6849
:1013C0001A687B689A603B685A687B68DA6000BF7D
:1013D0001437BD4680BC704780B483B000AF7860DE
:1013E0007B6800221A607B6800225A607B680022BA
:1013F0009A607B680022DA607B6800221A617B6851
:1014000000225A617B6800229A617B680022DA61BF
:101410007B6800221A627B6800225A627B68002285
:101420009A6200BF0C37BD4680BC704780B483B061
:1014300000AF78600B46FB70FB78002B06D07B6812
:101440001B6843F001027B681A6006E07B681A683B
:101450004FF6FE7313407A68136000BF0C37BD4629
:1014600080BC704780B483B000AF78607B685B68F5
:101470009BB218460C37BD4680BC704780B485B01F
:1014800000AF78600023FB730023BB607B6803F030
:101490008053002B03D00B4B1B68BB6002E00A4B50
:1014A0001B68BB60BA687B681340002B02D0012325
:1014B000FB7301E00023FB73FB7B18461437BD462A
:1014C00080BC7047000402400000024080B483B03A
:1014D00000AF78607B6803F08053002B03D0064A8E
:1014E0007B68536002E0054A7B68536000BF0C379D
:1014F000BD4680BC704700BF0004024000000240AF
:1015000080B489B000AF786039600023FB610023AC
:101510003B610023BB610023FB6000237B61002350
:10152000BB603B68DB7803F00F03FB613B68DB7853
:1015300003F01003002B05D03B689B781A46FB692B
:101540001343FB613B681B88DBB2002B44D07B68F4
:101550001B687B610023BB6138E00122BB6902FA92
:1015600003F3FB603B681B881A46FB6813403B6132
:101570003A69FB689A4226D1BB699B00FB600F2247
:10158000FB6802FA03F3BB60BB68DB437A69134074
:101590007B61FA69FB6802FA03F37A6913437B61A2
:1015A0003B68DB78282B05D10122BB699A407B6818
:1015B0005A6108E03B68DB78482B04D10122BB6903
:1015C0009A407B681A61BB690133BB61BB69072B19
:1015D000C3D97B687A691A603B681B88FF2B46D9A0
:1015E0007B685B687B610023BB613AE0BB690833C1
:1015F000012202FA03F3FB603B681B881A46FB6872
:1016000013403B613A69FB689A4227D1BB699B0052
:10161000FB600F22FB6802FA03F3BB60BB68DB438D
:101620007A6913407B61FA69FB6802FA03F37A690D
:1016300013437B613B68DB78282B05D1BB690833FA
:1016400001229A407B685A613B68DB78482B05D1C0
:10165000BB69083301229A407B681A61BB69013378
:10166000BB61BB69072BC1D97B687A695A6000BF2F
:101670002437BD4680BC704780B483B000AF78602B
:101680007B684FF6FF721A807B6802229A707B6833
:101690000422DA7000BF0C37BD4680BC70470000E2
:1016A00080B485B000AF78600023FB60094B5B68B5
:1016B000FB60FB6823F44043FB60FA687B681343DC
:1016C000FB60044AFB68536000BF1437BD4680BC12
:1016D000704700BF0010024080B487B000AF786050
:1016E00000237B6100233B610023FB600023BB6080
:1016F0004C4B5B6803F00C037B617B69042B07D0C8
:10170000082B09D0002B33D17B68474A1A6033E09D
:101710007B68454A1A602FE0424B5B6803F4701304
:101720003B61404B5B6803F48033FB603B699B0C7F
:1017300002333B61FB68002B06D13B693B4A02FB4D
:1017400003F27B681A6017E0364B5B6803F40033E2
:10175000002B06D03B69354A02FB03F27B681A6016
:101760000AE03B69304A02FB03F27B681A6003E03F
:101770007B682D4A1A6000BF2A4B5B6803F0F003B8
:101780007B617B691B097B61294A7B6913441B7858
:10179000DBB2BB607B681A68BB68DA407B685A6062
:1017A000204B5B6803F4E0637B617B691B0A7B6110
:1017B0001F4A7B6913441B78DBB2BB607B685A68A5
:1017C000BB68DA407B689A60164B5B6803F4605331
:1017D0007B617B69DB0A7B61154A7B6913441B785B
:1017E000DBB2BB607B685A68BB68DA407B68DA6052
:1017F0000C4B5B6803F440437B617B699B0B7B6113
:101800000C4A7B6913441B78DBB2BB607B68DA68E7
:10181000BB68B2FBF3F27B681A6100BF1C37BD46A0
:1018200080BC70470010024000127A0000093D00A1
:10183000040000201400002080B483B000AF786062
:101840000B46FB70FB78002B06D00949084B5A6900
:101850007B6813434B6106E00549054B5A697B6879
:10186000DB4313404B6100BF0C37BD4680BC704763
:101870000010024080B483B000AF78600B46FB706C
:10188000FB78002B06D00949084B9A697B68134303
:101890008B6106E00549054B9A697B68DB43134081
:1018A0008B6100BF0C37BD4680BC70470010024002
:1018B00080B483B000AF78600B46FB70FB78002BE0
:1018C00006D00949084BDA697B681343CB6106E00F
:1018D0000549054BDA697B68DB431340CB6100BFE8
:1018E0000C37BD4680BC70470010024080B485B004
:1018F00000AF786039600023FB817B681B88FB8127
:10190000FB8903F44153FB813B681A883B685B8881
:1019100013439AB23B689B8813439AB23B68DB88B7
:1019200013439AB23B681B8913439AB23B685B89A5
:1019300013439AB23B689B8913439AB23B68DB8995
:1019400013439AB2FB891343FB817B68FA891A809F
:101950007B689B8B9BB223F400639AB27B689A836B
:101960003B681A8A7B681A8200BF1437BD4680BC68
:10197000704780B483B000AF78607B6800221A8023
:101980007B6800225A807B6800229A807B68002254
:10199000DA807B6800221A817B6800225A817B688A
:1019A00000229A817B680022DA817B6807221A82F2
:1019B00000BF0C37BD4680BC704780B483B000AF19
:1019C00078600B46FB70FB78002B08D07B681B8887
:1019D0009BB243F040039AB27B681A8007E07B68B1
:1019E0001B889BB223F040039AB27B681A8000BF29
:1019F0000C37BD4680BC704780B483B000AF7860C0
:101A00000B467B8013467B707B78002B08D07B686D
:101A10009B889AB27B8813439AB27B689A8009E0CC
:101A20007B689B889AB27B88DB439BB213409AB257
:101A30007B689A8000BF0C37BD4680BC70470000B1
:101A400080B485B000AF786039600023FB817B688B
:101A50001B88FB817B682E4A934213D07B682D4AFA
:101A600093420FD07B68B3F1804F0BD07B682A4A3A
:101A7000934207D07B68294A934203D07B68284A67
:101A8000934208D1FB8923F07003FB813B685A889D
:101A9000FB891343FB817B68224A93420CD07B680D
:101AA000214A934208D0FB8923F44073FB813B68B1
:101AB000DA88FB891343FB817B68FA891A803B68CB
:101AC0009A887B689A853B681A887B681A857B6848
:101AD0000F4A93420FD07B680E4A93420BD07B682B
:101AE000124A934207D07B68114A934203D07B6825
:101AF000104A934204D13B681B7A9AB27B681A86DB
:101B00007B6801229A8200BF1437BD4680BC7047B3
:101B1000002C014000340140000400400008004057
:101B2000000C004000100040001400400040014044
:101B3000004401400048014080B582B000AF7860A9
:101B400039603B681B88002B0FD13B6859883B6884
:101B50009A883B681B89786800F04EF93B68DB88FF
:101B60001946786800F08CF836E03B681B88042B37
:101B70000FD13B6859883B689A883B681B89786815
:101B800000F0AAF93B68DB881946786800F093F802
:101B900022E03B681B88082B0FD13B6859883B68C3
:101BA0009A883B681B89786800F010FA3B68DB88EC
:101BB0001946786800F09CF80EE03B6859883B684D
:101BC0009A883B681B89786800F076FA3B68DB8866
:101BD0001946786800F0A7F800BF0837BD4680BDF9
:101BE00080B483B000AF78607B684FF6FF729A8054
:101BF0007B6800221A807B680022DA807B680022E2
:101C00005A807B6800221A7200BF0C37BD4680BC28
:101C1000704780B483B000AF78607B6800221A8080
:101C20007B6800225A807B6801229A807B680022B0
:101C3000DA807B6800221A8100BF0C37BD4680BC69
:101C4000704780B483B000AF78600B46FB70FB78C0
:101C5000002B08D07B681B889BB243F001039AB22B
:101C60007B681A8007E07B681B889BB223F0010326
:101C70009AB27B681A8000BF0C37BD4680BC7047A3
:101C800080B483B000AF78600B467B807B681B8B91
:101C90009BB223F00C039AB27B681A837B681B8B80
:101CA0009AB27B8813439AB27B681A8300BF0C37C1
:101CB000BD4680BC704780B483B000AF78600B46EF
:101CC0007B807B681B8B9BB223F440639AB27B685A
:101CD0001A837B681B8B9AB27B881B029BB21343CF
:101CE0009AB27B681A8300BF0C37BD4680BC704730
:101CF00080B483B000AF78600B467B807B689B8BA1
:101D00009BB223F00C039AB27B689A837B689B8B0F
:101D10009AB27B8813439AB27B689A8300BF0C37D0
:101D2000BD4680BC704780B483B000AF78600B467E
:101D30007B807B689B8B9BB223F440639AB27B6869
:101D40009A837B689B8B9AB27B881B029BB213435E
:101D50009AB27B689A8300BF0C37BD4680BC70473F
:101D600080B483B000AF78607B689B8E9BB21846CE
:101D70000C37BD4680BC704780B483B000AF78603C
:101D80007B681B8F9BB218460C37BD4680BC7047E2
:101D900080B483B000AF78607B689B8F9BB218469D
:101DA0000C37BD4680BC704780B483B000AF78600C
:101DB0007B68B3F840309BB218460C37BD4680BCF8
:101DC000704780B485B000AF78600B467B800023FD
:101DD000FB737B681B8A9AB27B8813409BB2002BF3
:101DE00002D00123FB7301E00023FB73FB7B184649
:101DF0001437BD4680BC704780B487B000AFF86030
:101E0000084611461A4603467B810B463B81134622
:101E1000FB800023BB820023FB82FB681B8C9BB2F0
:101E200023F001039AB2FB681A84FB681B8BBB8208
:101E3000FB681B8CFB82BB8A23F0F303BB82FB880D
:101E40001B019AB23B8913439AB2BB8A1343BB82EC
:101E5000FB681C4A934213D0FB681B4A93420FD085
:101E6000FB68B3F1804F0BD0FB68184A934207D050
:101E7000FB68174A934203D0FB68164A93420BD182
:101E8000FB8A23F00203FB827A89FB8A13439BB20D
:101E900043F00103FB820AE0FB8A23F00A03FB8282
:101EA0007A89FB8A13439BB243F00103FB82FB68F0
:101EB000BA8A1A83FB68FA8A1A8400BF1C37BD46A7
:101EC00080BC7047002C01400034014000040040F9
:101ED00000080040000C004080B487B000AFF860FC
:101EE000084611461A4603467B810B463B81134642
:101EF000FB800023BB820023FB8200237B82FB68E4
:101F00001B8C9BB223F010039AB2FB681A84FB6807
:101F10001B8BBB82FB681B8CFB827B891B017B823A
:101F2000BB8A23F440731B051B0DBB82FB881B037C
:101F30009AB2BB8A1343BB823B891B029AB2BB8A0B
:101F40001343BB82FB681C4A934213D0FB681B4AB5
:101F500093420FD0FB68B3F1804F0BD0FB68184A57
:101F6000934207D0FB68174A934203D0FB68164A96
:101F700093420BD1FB8A23F02003FB827A8AFB8AEF
:101F800013439BB243F01003FB820AE0FB8A23F069
:101F9000A003FB827A89FB8A13439BB243F01003B0
:101FA000FB82FB68BA8A1A83FB68FA8A1A8400BF2C
:101FB0001C37BD4680BC7047002C014000340140F6
:101FC0000004004000080040000C004080B487B0CE
:101FD00000AFF860084611461A4603467B810B465F
:101FE0003B811346FB800023BB820023FB8200233E
:101FF0007B82FB681B8C9BB223F480739AB2FB68D4
:102000001A84FB689B8BBB82FB681B8CFB827B89E1
:102010001B027B82BB8A23F0F303BB82FB881B017C
:102020009AB23B8913439AB2BB8A1343BB82FB68C3
:102030001C4A934213D0FB681B4A93420FD0FB68A3
:10204000B3F1804F0BD0FB68184A934207D0FB686E
:10205000174A934203D0FB68164A93420BD1FB8A7E
:1020600023F40073FB827A8AFB8A13439BB243F406
:102070008073FB820AE0FB8A23F42063FB827A8967
:10208000FB8A13439BB243F48073FB82FB68BA8ADA
:102090009A83FB68FA8A1A8400BF1C37BD4680BC4D
:1020A000704700BF002C0140003401400004004094
:1020B00000080040000C004080B487B000AFF8601A
:1020C000084611461A4603467B810B463B81134660
:1020D000FB800023BB820023FB8200237B82FB6802
:1020E0001B8C9BB223F480539AB2FB681A84FB6862
:1020F0009B8BBB82FB681B8CFB827B891B037B82D7
:10210000BB8A23F440731B051B0DBB823B891B025A
:102110009AB2BB8A1343BB82FB881B039AB2BB8A69
:102120001343BB82FB681D4A934213D0FB681C4AD1
:1021300093420FD0FB68B3F1804F0BD0FB68194A74
:10214000934207D0FB68184A934203D0FB68174AB2
:1021500093420BD1FB8A23F40053FB827A8AFB8AD9
:1021600013439BB243F48053FB820CE0FB8A23F4BD
:1021700000735B045B0CFB827A89FB8A13439BB27E
:1021800043F48053FB82FB68BA8A9A83FB68FA8A1D
:102190001A8400BF1C37BD4680BC7047002C01402C
:1021A000003401400004004000080040000C0040E2
:1021B00080B58CB000AF786039600023FB620023EB
:1021C000BB6200237B6200233B620023FB617B68D0
:1021D000FB617B681B8A9BB2FB62FA6A4CF6FF7359
:1021E0001340FB623B68DB881A46FB6A1343FB62C1
:1021F000FB6A9AB27B681A827B689B899BB2FB62FE
:10220000FA6A4EF6F3131340FB623B689A883B6808
:102210001B8913439AB23B685B8913439BB21A46EE
:10222000FB6A1343FB62FB6A9AB27B689A817B6804
:102230009B8A9BB2FB62FA6A4FF6FF431340FB6234
:102240003B689B891A46FB6A1343FB62FB6A9AB29E
:102250007B689A8207F108031846FFF73DFAFB698D
:102260002E4A934202D17B69BB6201E03B69BB62AB
:102270007B689B899BB21BB2002B0CDABA6A1346AF
:102280009B0013449A001A443B681B685B00B2FB36
:10229000F3F37B620BE0BA6A13469B0013449A0087
:1022A0001A443B681B689B00B2FBF3F37B627B6ABA
:1022B0001B4AA2FB03235B091B01FB62FB6A1B0990
:1022C000642202FB03F37A6AD31A3B627B689B8920
:1022D0009BB21BB2002B0CDA3B6ADB003233104A94
:1022E000A2FB03235B0903F00703FA6A1343FB62B3
:1022F0000BE03B6A1B013233094AA2FB03235B0953
:1023000003F00F03FA6A1343FB62FB6A9AB27B681D
:102310001A8100BF3037BD4680BD00BF0038014084
:102320001F85EB5180B483B000AF78600B46FB7023
:10233000FB78002B08D07B689B899BB243F4005349
:102340009AB27B689A8107E07B689B899BB223F4F1
:1023500000539AB27B689A8100BF0C37BD4680BC9F
:10236000704780B483B000AF78600B467B80134623
:102370007B707B78002B08D07B689B8A9AB27B8825
:1023800013439AB27B689A8209E07B689B8A9AB26F
:102390007B88DB439BB213409AB27B689A8200BF72
:1023A0000C37BD4680BC704780B483B000AF786006
:1023B0000B467B807B88C3F308039AB27B689A80C4
:1023C00000BF0C37BD4680BC704780B485B000AFFD
:1023D00078600B467B800023FB737B681B889AB276
:1023E0007B8813409BB2002B02D00123FB7301E0DA
:1023F0000023FB73FB7B18461437BD4680BC704737
:1024000010B5C0F8741100F5BC741146204601F0F7
:10241000B6F841F28831204601F0BDF810BD0A2916
:1024200003DC523100EB81014A60704770B5D2B0D5
:10243000044600F5BC75284601F0B2F828B1034601
:10244000B4F8482112B9002300E0002313B100239F
:10245000A4F84831D4F8740103689B68984708B918
:1024600052B070BDB4F84861D4F8740103681B69B8
:1024700098472644B071284601F083F8B4F84831F3
:10248000E21892790A2A0AD001339BB2A4F84831A3
:10249000B3F5A17FE4DD0023A4F84831E0E74FF471
:1024A000A172002101A802F061F8A51D211D284696
:1024B00002F0B4FE01F00FFE83B2523304EB83034B
:1024C0005B684BB101A9284698479DF8043033B9A1
:1024D0000023A4F84831C3E7A4F84831C0E7D4F892
:1024E000740103685B6801A99847F1E710B50446D9
:1024F000074B03602C23838000F5BC7001F064F867
:102500000023A4F84831C4F87431204610BD00BF40
:102510004066000810B50446034B036000F5BC702C
:1025200001F026F8204610BD4066000810B50446AC
:10253000FFF7F0FF204601F0C3FD204610BDF0B4C8
:102540009DF8105090F81441B1EB441F2CDA90F82C
:102550001561B2EB061F27DAC1F34716170907FB0F
:1025600004F4E4B23444E4B201F01F0101EB44117D
:1025700002F00F02C1F3CF0690F81641A40004FB4D
:10258000026292B201F00701014491F81F11042B7D
:102590000AD8DFE803F003111D2A3200012D05D00F
:1025A0000068835C19438154F0BC70470068835C09
:1025B00023EA01018154F7E72DB90068835C23EA1F
:1025C00001018154F0E70068835C19438154EBE713
:1025D000012DE9D10068835C194202D10B43835479
:1025E000E2E723EA01038354DEE7012DDCD1006832
:1025F000835C23EA01018154D6E7012DD4D103681D
:10260000985C0142D0D101439954CDE708B539B95E
:1026100090F8162192010021006801F0A7FF08BD83
:1026200090F816219201FF21006801F09FFF08BD7C
:1026300070B504460E461546164B03CBC4F81F0171
:10264000C4F8231104F5A47000F0BEFF84F81461EF
:1026500084F8155105FB06F0C0B284F81601030199
:10266000A4F818314301A4F81A31C30003EB800326
:102670009B00A4F81C31800101F05CFD2060012169
:102680002046FFF7C3FF002384F81E3184F8783119
:10269000204670BD30660008F8B50446079DBDF8B9
:1026A0002860C0F83811C0F83C2100F5A47719461D
:1026B000384600F064FF3146384600F06CFFA4F85D
:1026C0004061069BC4F83431C4F82851089BC4F813
:1026D0002C31099BC4F830312B685B682846984739
:1026E000D4F82C0103685B689847D4F8300103687C
:1026F0005B689847D4F83C0103689B6810219847B1
:1027000001212046FFF782FF002384F81E31F8BD27
:102710002DE9F04F87B002900C4615469B46BDF957
:1027200040A09DF84430039392B2AAEB020080B21D
:1027300007B289B2ABEB01039BB21EB2002F1BDBC9
:102740004FF00109002E1CDB4FF001087F003BB267
:102750000493760030B2059001230093039B029806
:10276000FFF7EDFE049B0598834229DABFB2A7EB81
:10277000600A0FFA8AFA17E047423FB24FF0FF397A
:10278000E0E75B421EB24FF0FF38DFE704EB0801E1
:1027900089B20CB2BA440FFA8AFA01230093039B60
:1027A000AAB20298FFF7CBFE5C4526D0BAF1000F23
:1027B000ECDB4D442DB2AAEB060A0FFA8AFAE5E7E4
:1027C0001FFA86FB049BABEB630636B20CE005EB0D
:1027D000090292B215B25E4436B201230093039B04
:1027E000A1B20298FFF7ABFE554506D0002EEEDBF6
:1027F000444424B2F61B36B2E9E707B0BDE8F08FD7
:102800002DE9F04383B081460C4690461D46BDF944
:1028100028709DF82C60AC420ADC01960097234694
:10282000424621464846FFF773FF013424B2F2E7DF
:1028300003B0BDE8F083F8B5044690F8783113B1E1
:10284000012B6DD0F8BD00F5A475284600F0A8FE58
:1028500000B9F8BDD4F84461B4F84001FEF724FA99
:102860003146FEF775FAFEF7C3FB81B2284600F049
:1028700092FE94F816319B000FFA83FE94F81E71B5
:1028800007FB03F73FB200231D4673452ADA6A1C93
:1028900092B2D4F800C0FE18B4F91C1131441CF8EF
:1028A0000100611981F85801A91C89B2B4F91A0113
:1028B00030441CF80000224482F85801EA1C92B20D
:1028C000B4F9180130441CF80000214481F8580183
:1028D0000435ADB21CF80610224482F858110133B9
:1028E0001BB2D2E7D4F83C010368DB68D4F8381196
:1028F00004F5AC720C319847D4F83C0103685B696D
:1029000029469847D4F8340103685B689847D4F89F
:102910003C0103681B689847012384F87831F8BDAF
:1029200000F5A475284600F03BFE002891D0B4F8CD
:102930004071D4F844114FF07E50FEF7FFF8064680
:102940003846FEF7B1F93146FEF702FAFEF750FBC2
:1029500081B2284600F01FFED4F83C0103689B6951
:10296000984700283FF475AFD4F83C0103685B68D2
:102970009847D4F8300103685B689847D4F834016D
:1029800003681B68984794F81E31DBB2032B10D8FC
:10299000DFE803F002182634D4F82C0103685B68E2
:1029A0009847D4F8280103685B689847012384F8A6
:1029B0001E31D4F8300103681B689847002384F85F
:1029C000783146E7D4F82C0103685B689847D4F85F
:1029D000280103681B689847022384F81E31E8E742
:1029E000D4F82C0103681B689847D4F828010368C1
:1029F0005B689847032384F81E31DAE7D4F82C018A
:102A000003681B689847D4F8280103681B68984737
:102A1000002384F81E31CCE7C0F81011704720293C
:102A200010D0D0F810311A795879914210DB104447
:102A300081420FDA891AC9B21A782AB95A781AB9B2
:102A4000987803E06E21ECE70631585C00B27047DD
:102A500000207047002070472DE9F04F8BB09DF8A3
:102A60005040049490F81441B1EB441F00F3C3802C
:102A700090F81541B2EB041F00F3C180039202915C
:102A80008246D0F81001C2780892202B21D0089AF3
:102A900090460732D2100692D2B2154609920179B9
:102AA00044798B42C0F2AF806218934280F2B180C9
:102AB0005B1AD9B203781BBB437863BB83782A4681
:102AC00001FB02F202FB03F292B2063292B20792CB
:102AD0002FE020215046FFF7A2FF0446029803464C
:102AE0002344089A039D2A4412B2012101910092C5
:102AF0001BB22A4601465046FFF782FE059484E049
:102B0000002213468A4209DA951D455D2B449BB28B
:102B10000132D2B2F6E700221346F3E7099A02FB2C
:102B200003F39BB223449BB206339BB20793063157
:102B3000435C05935B42029A9A4266DB089B5B42C8
:102B4000039A9A4261DB4FF000094DE0012B45DD0D
:102B5000089BA3F1080541E0029B09EB0301039BDD
:102B60005A1992B2224400230093049B92B289B274
:102B70005046FFF7E4FC0134E4B2072C1ADC2B19B1
:102B8000B3EBC70FF7DB9845F5DB4BFA04F212F015
:102B9000010FE1D0029B09EB0301039B5A1992B28A
:102BA000224401230093049B92B289B25046FFF75E
:102BB000C6FCE0E7013EF6B23746FD2E10DCDAF83F
:102BC0001021079B4B44059906FB013312F803B013
:102BD000F5009DF818305A1E9642B7D00024CCE775
:102BE00009F101095FFA89F9059B4B450DDD099B48
:102BF0005E1EF6B2E0E74FF0FF33059305E04FF0BD
:102C0000FF33059301E00023059305980BB0BDE861
:102C1000F08F00230593F8E72DE9F04F87B09DF87A
:102C200040909DF844A090F81441B1EB441F56DA4F
:102C30008B46039290F81541B2EB041F4FDAD0F89F
:102C40001041E478D4424AD41D46029207461FFA46
:102C500081F808F1FF3109B2144420B20590012334
:102C6000019300900B463846FFF752FD002634468C
:102C7000CDF810A0AA4610E0002B30DB04EB0B03CC
:102C800097F81421B3EB421F29DA97F81531039A0C
:102C9000B2EB031F23DA013636B24E451FDAA5B276
:102CA00008EB05011AF80630049A0092029A09B25C
:102CB0003846FFF7D1FE03B2002BDDDD0544ADB28F
:102CC00008EB050109B201230193059B00930B4614
:102CD000029A3846FFF71CFD01352CB2CEE707B04B
:102CE000BDE8F08F08B541618261C361029904308B
:102CF00000F045FC08BD000010B50446034B40F849
:102D0000043B00F061FC204610BD00BF586600087F
:102D100083780BB9808D7047008870472DE9F04F9C
:102D20008DB00446051D284600F03AFC10B90DB0E0
:102D3000BDE8F08F284600F024FC606900F00EFC2E
:102D4000FDF772FB0022354BFDF7C2FBFDF782FE5B
:102D500080B2334EA6FB00325209642707FB1203F0
:102D600000250795089509950A950B95DFF8B88019
:102D70009BB2414607A801F08CF9D4F81890D9F815
:102D800004A0B9F82800FDF78BFF834609F12A005B
:102D9000FFF7BEFFFDF784FF01465846FEF78CF8AB
:102DA00001465046FDF7D4FFD9F80810FDF7C8FEDC
:102DB0001C49FDF7CDFFFEF71BF983B2A6FB0312FA
:102DC000520907FB12330295039504950595069564
:102DD0009BB2414602A801F05CF90121E069FFF7CE
:102DE00015FCE76907A8FDF7B3F9C0B20126019603
:102DF000009007AB2A4629463846FFF70DFFE469E5
:102E000002A8FDF7A5F9C0B20196009002AB0F220F
:102E100029462046FFF700FF89E700BF0000594020
:102E20001F85EB510000C8424866000810B50446F3
:102E3000034B40F8043B00F09BFB204610BD00BF55
:102E40005866000810B50446FFF7F0FF204601F071
:102E500037F9204610BD38B51D464161041D1146A5
:102E6000204600F08CFB2946204600F094FB38BD3C
:102E700038B50446051D284600F092FB00B938BD60
:102E8000284600F07EFB646923689B6820469847CB
:102E900020B923681B6820469847F0E723685B68E1
:102EA0002046984738BD000010B50446034B40F853
:102EB000043B00F089FB204610BD00BF6866000897
:102EC00010B50446034B40F8043B00F051FB20468C
:102ED00010BD00BF6866000810B50446FFF7F0FF9C
:102EE000204601F0EDF8204610BD00238370838555
:102EF000704710B504460630FFF7F7FF0023236044
:102F00000023A38010BD10B504461423C380002302
:102F1000037243860630FFF7E8FF2046FFF7E9FF1C
:102F2000204610BD012800D0704738B504464FF642
:102F3000FF73994200D038BD154D2846FFF7B4FF06
:102F40001835002C14DB2846124B40F80C3B00F0DF
:102F50003BFB05F12400FFF7D6FF00232B624FF067
:102F60007E526A600022AA60EB615835013CE8E7B6
:102F7000074C04F1C800FFF7BFFE04F1E800FFF7BB
:102F8000B5FA054A0549204601F09CF8D3E700BF91
:102F9000A80600207866000800000020AF2F000877
:102FA00008B54FF6FF710120FFF7BCFF08BD70B5F3
:102FB0000646E830FFF7AEFA06F1C8042046FFF7F0
:102FC00035FF16F1180507D0AC4205D054F8583D2E
:102FD0001B6820469847F7E73046FFF771FF3046F9
:102FE00070BD000010B50446034B40F80C3B00F0E8
:102FF000BFFA204610BD00BF7866000810B5044631
:10300000044B40F80C3B00F0B3FA204601F058F8AE
:10301000204610BD786600084368188870477047DE
:1030200010B5044601F04CF8204610BD41607047D1
:10303000014B0360704700BF88660008704708B501
:10304000416100F10C018068FEF788F908BD08B500
:10305000C160026100F10C018068FEF77FF908BDD4
:1030600008B5816100F10C018068FEF777F908BDB1
:1030700008B501218068FEF7D9F908BD08B500211F
:103080008068FEF7D3F908BD10B5048B8068FEF7A1
:10309000E9F9201A80B210BD10B50446806BFEF726
:1030A000EDF908B9002010BDA06BFEF70FFA012062
:1030B00010BD10B5044601F003F8204610BD000015
:1030C00010B5044641608260C362029B0363002323
:1030D000836243628023036200F10C011046FEF715
:1030E0003DF9A368264A934221D0264A934221D033
:1030F000254A934221D0254A934222D0244A934222
:1031000023D0244A934224D0234A934225D0234AF1
:10311000934226D0224A934226D0224A934226D076
:10312000214A934226D0214A934226D010BD022341
:10313000A36310BD2023A36310BD4FF40073A363EA
:1031400010BD4FF40053A36310BD4FF40033A363CD
:1031500010BD4FF40013A36310BD4FF00073A363C1
:1031600010BD134BA36310BD124BA36310BD124BD4
:10317000A36310BD114BA36310BD114BA363D5E72F
:10318000080002401C00024030000240440002409F
:10319000580002406C0002408000024008040240D7
:1031A0001C0402403004024044040240580402401F
:1031B000020000102000001000020010002000108B
:1031C0000000021010B50446044B40F80C3BFEF71B
:1031D00003F900236360204610BD00BF9C66000811
:1031E0004268136981680B43136170474268136931
:1031F000C1680B431361704743689A6883681A4239
:1032000014BF012000207047704710B5044600F03D
:1032100057FF204610BD0F2A08DC4160012303FA46
:1032200002F18160103203FA02F2C26070470000BE
:10323000024A02600022426082607047C86600084D
:10324000704708B503890C2B18D8DFE803F007177F
:1032500017170B1717170F17171713004068FEF7EC
:103260007FFD08BD4068FEF787FD08BD4068FEF79A
:103270008FFD08BD4068FEF797FD08BD002008BD22
:1032800008B503890C2B28D8DFE803F00727272788
:103290000F272727172727271F0002214068FEF73F
:1032A00090FD003018BF012008BD04214068FEF7E2
:1032B00088FD003018BF012008BD08214068FEF7D6
:1032C00080FD003018BF012008BD10214068FEF7C6
:1032D00078FD003018BF012008BD002008BD10B5E2
:1032E000044600F0EDFE204610BD416002817047AB
:1032F000014B0360704700BFE46600084368988C88
:1033000080B27047704710B5044600F0D9FE2046E1
:1033100010BD416070470000014B0360704700BF63
:10332000FC660008002070477047704710B50446DF
:1033300000F0C6FE204610BD10B5044600F0C0FEE9
:10334000204610BD0161C2604360BDF800300381BA
:1033500070470000074A026007494161002282610C
:10336000C0F86021C0F86411C0F86821C0F8B0222C
:10337000428170472067000810670008D0F84C2190
:103380004068824214BF00200120704708B500F554
:10339000B270FFF7F3FF80F00100C0B208BD00007B
:1033A0000131064BA3FB0123C81A03EB50031B0A90
:1033B00040F2431000FB1310704700BFBFB0CB9525
:1033C00038B504460D464168FFF7EAFFD4F84C31A2
:1033D000984206D063682A7823441A7260600120FC
:1033E00038BD002038BDF0B583B00746164600242E
:1033F000B4420DDA4D1C0B7802A901F8013D07F12A
:103400001400FFF7DDFF18B10134A4B22946EFE73D
:10341000204603B0F0BD70B582B006460D460024CC
:103420002B785BB1013502A901F8013D06F11400CA
:10343000FFF7C6FF10B10134A4B2F1E7204602B095
:1034400070BD10B582B043890489C2685268A21A5F
:10345000934201D102B010BD4268D25C02A901F8CA
:10346000012D013393FBF4F204FB1233438100F589
:10347000B270FFF7A5FFEDE7D0F84C2143689A4200
:103480000ED010B50446D0F84C3103441B7A0B70B3
:10349000D0F84C11FFF784FFC4F84C01012010BD97
:1034A0000020704710B582B0044603689B689847B7
:1034B00010B9002002B010BD0DF1070104F5B27083
:1034C000FFF7DAFF9DF80700F4E730B583B0044654
:1034D00000F114052846FFF751FF08B103B030BDD5
:1034E00080212069FEF771FF0028F7D00DF1070158
:1034F0002846FFF7C1FF9DF807102069FEF754FF2B
:10350000ECE710B50446FFF7E0FF2046FFF799FF10
:1035100010BD704710B5044600F0D2FD204610BD26
:103520004160704738B50446406803681B68984797
:1035300000B938BD606803685B68984705466081DC
:103540002089281A80B2FDF7AFFB01460248FDF73B
:10355000B3FCE0602581ECE700007A44C068704766
:10356000024A02600022C260704700BF4467000840
:10357000704710B5044600F0A3FD204610BD416021
:10358000704710B50446406803681B68984760811F
:103590000023237310BD08B50181FFF7F2FF08BDBA
:1035A00010B50446037B0BB1207B10BD4068036857
:1035B0001B6898476389C01A80B223899842F3DB5D
:1035C00001232373F0E70000014B0360704700BF45
:1035D00054670008F0B583B00E4602A92C2321F8E9
:1035E000043D01F01BFE0146304600F0E3FF30468B
:1035F000FCF7AEFD07463518074C0FCCF05169605B
:10360000AA60EB6003CC286169612288A3782A83D1
:10361000AB7603B0F0BD00BF0C6C0008F0B583B012
:103620000E4602AD2C2325F8043D294601F0F6FD97
:103630002946002001F0F2FD00F04DFD0446294628
:10364000002001F0EBFD00F043FDFDF723FA0746F3
:103650002946002001F0E2FD00F03AFDFDF71AFADC
:10366000A4B25822044B02FB0433DF61186200232A
:10367000337003B0F0BD00BFA80600200388994254
:1036800011DC10B4847814B9828D91420DDA828DE8
:1036900004FB021191FBF3F203FB121100EB41005A
:1036A000808810BC7047002070470020F9E7838DA8
:1036B00000EB430291805A1C018892FBF1F301FB5D
:1036C00013239BB283850BB90123837070478078E5
:1036D0007047F8B506460F46851D2846FFF7F7FFE9
:1036E000A8B100212846FFF7C9FF044639462846FD
:1036F000FFF7DDFF2846FFF70BFB411E89B2284686
:10370000FFF7BCFF001BB4882044B080F8BD002444
:10371000ECE700002DE9F04FADF2D46D00F020FB96
:103720004FF44040FDF7BCFF01217748FEF7C0F899
:1037300001214FF40770FEF79DF801210846FEF7BE
:103740007BF80DF2C460FEF74BFA4FF6FF74ADF84C
:10375000C84640F2CF23ADF8C4366C4D0DF2C461BB
:103760002846FEF76DF901212846FEF76AFA0DF2A8
:10377000C460FEF735FAADF8C84641F61F43ADF810
:10378000C4360DF2C4614FF08040FEF759F90121B3
:103790004FF08040FEF755FA4FF40053ADF8C036B5
:1037A00002248DF8C24614238DF8C33605F58635FC
:1037B0000DF5D8612846FDF7A3FE0DF5D760FFF79C
:1037C000ABFD4FF080410DF5D760FFF7A2FD0DF581
:1037D000D560FFF72DFD0D2229460DF5D560FFF7C9
:1037E0001AFD41F288330DF5D7620DF5D5614848D1
:1037F000FFF731FB4FF40063ADF8C0368DF8C246D9
:1038000004238DF8C336A5F580650DF5D8612846EB
:10381000FDF776FE4FF48063ADF8C0368DF8C246F2
:1038200018238DF8C3360DF5D8612846FDF768FEDC
:103830000DF27C60FDF7D0FD0024CDF89846CDF860
:103840009446CDF884468023CDF890362023CDF8D9
:103850009C364FF4A177CDF888764FF48053CDF89D
:10386000A0360DF5A766CDF880662A4BCDF87C36DC
:1038700005F5744530350DF27C612846FDF76EFD87
:1038800001212846FDF7D2FD4FF41643CDF8283527
:10389000ADF834450C23ADF83235ADF83045ADF810
:1038A0002E45ADF82C451C4C0DF5A5612046FEF7C4
:1038B0007FFC012240212046FEF753FD01212046D6
:1038C000FEF730FD9DA8FFF745FD009733462A46D9
:1038D00021469DA8FFF736FD012599AC002D05DB9B
:1038E0002046FFF7A5FB0834013DF7E70024012C33
:1038F00014DC98AB03EB440199AB03EBC400FFF776
:1039000095FB0134A4B2F2E7034004000004004038
:10391000A806002004480040004800400DF5D8608B
:10392000FDF7AAFE0327ADF8C07600248DF8C34644
:103930000DF5D861D148FDF7E3FD0DF27C60FDF790
:103940004BFD4FF48063CDF898364FF48073CDF87B
:103950009436CDF884468023CDF890362023CDF8D8
:103960009C360226CDF88866CDF8A04698ABCDF8F7
:103970008036C34BCDF87C36C24D0DF27C612846B3
:10398000FDF7ECFC01212846FDF750FD93A8FDF75B
:10399000A1FB01258DF851528DF85C628DF85052D3
:1039A000DFF80C8393A94046FDF742FB07232A4624
:1039B00021464046FDF709FC07233246294640468A
:1039C000FDF703FCD8F8083043F46023C8F808304A
:1039D00029464046FDF7B4FB29464046FDF795FBD6
:1039E00029464046FDF7D6FB4046FDF7C4FB0DF5E2
:1039F000D860FDF741FE4023ADF8C03604238DF8B2
:103A0000C3368DF8C2660DF5D8619C48FDF778FD88
:103A100090A8FEF7FEF8ADF84042ADF84452ADF87C
:103A200042624FF00903ADF84832A8F5903890A9EA
:103A30004046FEF781F88DA8FFF75AFC2246414622
:103A40008DA8FFF752FC0DF5D860FDF715FE4FF479
:103A50002043ADF8C0368DF8C2764FF0180A8DF8C5
:103A6000C3A60DF5D8618848FDF74AFD0DF5D8606D
:103A7000FDF702FE4FF4A043ADF8C0368DF8C276D4
:103A80004FF0100B8DF8C3B60DF5D8617E48FDF7E9
:103A900037FD0DF509794846FFF7CAFB0E227A4932
:103AA0004846FFF7B8FB0DF505784046FFF7C0FB29
:103AB0000C2275494046FFF7AEFB0DF5D860FDF7C7
:103AC000DBFD4FF44073ADF8C0368DF8C2768DF84B
:103AD000C3B60DF5D8616948FDF712FD81AF3846D0
:103AE000FFF7A6FB092265493846FFF794FB0DF561
:103AF000FA7B5846FFF79CFB082260495846FFF7BF
:103B00008AFB6EA8FFF75EFB4FF4405300932346F9
:103B10005E4A5F496EA8FFF7D3FA69A8FDF729FF4F
:103B20004FF48273ADF8A6314FF44043ADF8A431A1
:103B3000ADF8B0A14FF40073ADF8AE31DFF874A169
:103B400069A95046FDF7D2FE2A4631465046FDF798
:103B500053FF29465046FDF730FF65A8FFF700FDEB
:103B60008DA965A8FFF7DCFC2A46314606A8FEF7BA
:103B70005FFD484906A8FEF74FFF0A230493CDF8DE
:103B80000C90CDF808B00197CDF800800DF5D76303
:103B90006EAA514606A8FEF77FFD012C1ADC99ABF0
:103BA00003EBC4033C4E582505FB04F572199363DF
:103BB0000DF5D761516305F1200030440430FFF763
:103BC000DEFC05F1380030440430FFF792F901348F
:103BD000A4B2E2E7314C0DF5D765009506AB22465D
:103BE00065A904F1B000FFF77DF8D0342A469DA9FD
:103BF0002046FEF705FC2A4A00212046FEF70FFC6E
:103C0000284A01212046FEF70AFC2CE00135ADB21E
:103C1000012D1DDC582404FB05F418341E4B1C44F4
:103C2000E369002BF2D004F10C063046FFF7B8FC34
:103C30000028EBD03046FFF7A4FC04F12406206AEC
:103C400003681B68984701463046FFF742FDDDE7F1
:103C5000154C2046FFF762F806A8FEF7ECFDA4F12C
:103C6000C800FFF705F99DA8FFF74BFC0F48FEF7CA
:103C7000DDFB65A8FFF756FC0025C9E700080140F9
:103C80004C24014008000240000C01405800024052
:103C9000000002405C670008A8060020C006002063
:103CA000D53500081D360008700700209007002059
:103CB0000024014000380040DFF834D0002103E048
:103CC0000C4B5B58435004310B480C4B42189A4242
:103CD000F6D30B4A02E0002342F8043B094B9A4218
:103CE000F9D300F03DF800F001FAFFF713FD70473B
:103CF00000500020AC6E0008000000208C06002060
:103D00008C060020680A0020FEE780B400AF00BFE8
:103D1000BD4680BC704780B400AFFEE780B400AF02
:103D2000FEE780B400AFFEE780B400AFFEE780B4EA
:103D300000AF00BFBD4680BC704780B400AF00BF7D
:103D4000BD4680BC704780B400AF00BFBD4680BC9C
:103D5000704780B400AF00BFBD4680BC7047000014
:103D600080B500AF154A154B1B6843F00103136083
:103D70001249124B5A68124B13404B600F4A0F4BBB
:103D80001B6823F0847323F4803313600B4A0B4BBE
:103D90001B6823F480231360084A084B5B6823F4F4
:103DA000FE035360054B4FF41F029A6000F00CF8BD
:103DB000044B4FF000629A6000BF80BD00100240CB
:103DC0000000FFF800ED00E080B500AF00F002F861
:103DD00000BF80BD80B483B000AF00237B600023B0
:103DE0003B603A4A394B1B6843F480331360374BCE
:103DF0001B6803F400333B607B6801337B603B68E6
:103E0000002B03D17B68B3F5A06FF0D12F4B1B685B
:103E100003F40033002B02D001233B6001E00023B8
:103E20003B603B68012B4BD1294A294B1B6843F06F
:103E300010031360264A264B1B6823F0030313600C
:103E4000234A234B1B6843F0020313601F4A1F4B96
:103E50005B6853601D4A1D4B5B6853601B4A1B4BDC
:103E60005B6843F480635360184A184B5B6823F423
:103E70007C135360154A154B5B6843F4E813536099
:103E8000124A124B1B6843F08073136000BF0F4B44
:103E90001B6803F00073002BF9D00C4A0B4B5B68D6
:103EA00023F003035360094A084B5B6843F00203A5
:103EB000536000BF054B5B6803F00C03082BF9D17E
:103EC00000BF0C37BD4680BC704700BF00100240E9
:103ED0000020024080B487B000AFF860B9607A601B
:103EE00001237B6104E07B697A6802FB03F37B6159
:103EF0007B69BA68B2FBF3F27B689A42F3D229E09D
:103F00007B69BA68B2FBF3F33B617A69BB68B3FBC8
:103F1000F2F102FB01F29B1ABB607A697B6892FBAB
:103F2000F3F37B613B69092B0ADDFB681B68591CB5
:103F3000FA6811603A69D2B23732D2B21A7009E027
:103F4000FB681B68591CFA6811603A69D2B23032BA
:103F5000D2B21A707B69002BD2D100BF1C37BD468C
:103F600080BC704780B588B000AFF860B9607A60F7
:103F7000FB687B617DE0BB681B78252B71D1BB683A
:103F80000133BB60BB681B78642B1ED0642B06DC3E
:103F9000582B50D0632B0ED0252B58D05DE0732BBF
:103FA0002BD0732B02DC692B0FD056E0752B37D04A
:103FB000782B40D051E0FB685A1CFA607A68111DDA
:103FC00079601268D2B21A7047E07B681A1D7A6075
:103FD0001B68FB61FB69002B07DAFB695B42FB6135
:103FE000FB685A1CFA602D221A70F96907F10C035C
:103FF0000A221846FFF76EFF2FE07B681A1D7A60D1
:104000001B68BB6107E0FB685A1CFA60BA69511C67
:10401000B96112781A70BB691B78002BF3D11CE0D0
:104020007B681A1D7A60196807F10C030A2218468A
:10403000FFF750FF11E07B681A1D7A601B68194674
:1040400007F10C0310221846FFF744FF05E0FB6858
:104050005A1CFA6025221A7000BFBB680133BB608E
:1040600007E0FB685A1CFA60BA68511CB960127804
:104070001A70BB681B78002B7FF47DAFFB680022B1
:104080001A70FB681A467B69D31A18462037BD465A
:1040900080BD0EB480B585B000AF786007F1200315
:1040A000BB60BA68F9697868FFF75CFFF860FB6885
:1040B00018461437BD46BDE8804003B07047000085
:1040C00000F040B80B460146184600F008B800BFA3
:1040D000002101F091B80A22002101F075B91346C0
:1040E0000A460146022001F085B9000070B500259E
:1040F0000C4E0D4CA41BA410A54209D102F08AFA63
:1041000000250A4E0A4CA41BA410A54205D170BD7F
:1041100056F8253098470135EEE756F82530984790
:104120000135F2E7A06E0008A06E0008A06E00083E
:10413000A86E0008024B0146186800F00BB800BFDB
:104140002C040020024B0146186801F023BA00BF7E
:104150002C0400202DE9F74F01F10B04162C8146A9
:1041600007D934F0070405D50C23C9F80030002620
:1041700031E110248C42F7D3484600F0FFF9B4F542
:10418000FC7F9B4D36D204F108022A445668A2F106
:1041900008018E424FEAD40302D1D668B24210D051
:1041A0007368F268B16823F00303CA603344916016
:1041B0005A6842F001025A60484600F0E5F90836B4
:1041C00009E102338B4A2E69114696426DD0706820
:1041D00020F00300071B0F2F47DD331944F00104C3
:1041E00074606B612B61DA609A6047F001025A607B
:1041F0003750E1E7630A2AD0042B12D8A3093833D9
:104200005A1C05EBC2025668A2F10800864206D08D
:10421000726822F00302111B0F291CDD013B0133E0
:10422000D0E7142B01D85B33EAE7542B02D8230BD9
:104230006E33E5E7B3F5AA7F02D8E30B7733DFE708
:1042400040F25452934204D8A30C7C33D8E73F2366
:10425000D6E77E23D4E70029F16804DBB368D96090
:104260008B60B318A4E70E46D0E7002F6A612A617D
:1042700005DB3044436843F0010343609CE7B0F53D
:10428000007F44D20122C008871002FA07F76A684B
:1042900001303A436A6055F8307005EBC002083AC5
:1042A000F260B76045F83060FE6001209A1000FAB5
:1042B00002F26868824200F29F80024206D123F037
:1042C00003035200024203F10403FAD005EBC30CCE
:1042D000E0469E46D8F80C60464553D10EF1010EDB
:1042E0001EF0030F08F10808F4D1980779D16B6824
:1042F00023EA02036B606868520082427CD8002A7D
:104300007AD073460242E1D104335200FAE7420AFE
:10431000042A15D882093832571C55F8377005EB36
:10432000C20EBE4526D10120921000FA02F2686842
:1043300010436860C6F80CE0B760CEF80860B3E7D9
:10434000142A01D85B32E7E7542A02D8020B6E32F6
:10435000E2E7B2F5AA7F02D8C20B7732DCE740F27F
:104360005457BA429ABF820C7C327E22D4E7BF688F
:10437000BE4504D07A6822F003029042F7D3D7F802
:104380000CE0D7E77068F76820F00300A0EB040AA0
:10439000BAF10F0F10DDB268331944F001047460F4
:1043A000D760BA604AF001026B612B61D9609960F5
:1043B0005A6046F800A0FFE6BAF1000F0FDB304468
:1043C000436843F00103436056F8083F4846DF6006
:1043D000BB6000F0D9F8304603B0BDE8F08F3E4630
:1043E0007AE75CF80809013B84453FF47EAF82E739
:1043F0001800002020000020D5F808B0DBF8046089
:1044000026F00306B44203D8331B0F2B00F395802C
:104410004F4A0BEB060317684E4A103711682744C2
:10442000013105D04C4901390F44013149420F4057
:10443000394648460192009300F0ACF8B0F1FF3FD6
:10444000804655D0009B019A834201D9AB454FD19C
:10445000424843450168824607EB010EC0F800E080
:104460003F4913D10B4211D1AB683E4446F00106DF
:104470005E603C4ADAF8003011688B4288BF1360F6
:10448000394A11688B4288BF136031E010680130EF
:104490001BBFA8EB03037344C2F80080CAF80030C6
:1044A00018F007001CBFC0F1080080442A4B4744A5
:1044B00018440F40C71B3946484600F06BF8431CB0
:1044C00004BF40460027DAF80030A0EB08003B4468
:1044D000074447F00107AB45C5F80880CAF800302B
:1044E000C8F80470C5D00F2E10D80123C8F80430C6
:1044F000AB685A6822F003029442A2EB040301D88D
:104500000F2B1ADC484600F03FF830E60522DBF8B6
:1045100004300C3E26F0070603F001033343CBF8CA
:1045200004300F2E0BEB06035A609A60A1D90BF1F1
:104530000801484601F02EF89BE7AE6844F00102FE
:1045400043F0010334447260AC60636034E600BF42
:1045500048090020200400208000000018090020E5
:104560007F00000040090020440900200346024467
:10457000934200D1704703F8011BF9E7014801F0AD
:10458000E8BB00BF5C0A0020014801F0E4BB00BFAB
:104590005C0A002038B50023054C05460846236018
:1045A00002F02AF8431C02D1236803B12B6038BD06
:1045B000640A0020034611F8012B03F8012B002A9E
:1045C000F9D170472DE9F0410F46904601F0A0FE69
:1045D00004460D46B8F1000F11D0C7F30A53C3F1DA
:1045E0006B03002B0BDD00241B0503F17F5505F544
:1045F000401522462B46FBF76BFF04460D4620462E
:104600002946BDE8F08100002DE9F04F99460023CE
:104610009FB0804648460C4615921A9301F097FBCE
:1046200007460068FBF794FD4FF0000A05464FF07F
:10463000000B1994199B1A780D2A33D8092A37D2FE
:10464000002A3FD000230993199E3378302B40F085
:1046500001817378582B01D0782B6BD1099BCDF851
:10466000089001931AAB0093AA4A1BAB19A94046C4
:1046700001F096F810F00704054605D0062C2BD162
:104680000023013619960993159B002B40F09D8558
:10469000099BE3B152460BF10043104619461FB087
:1046A000BDE8F08F2B2A06D02D2A13D0202AC9D19D
:1046B00001331993BEE7002209925A1C19925B78C4
:1046C000002BC1D1159B1994002B40F07C855246DC
:1046D0005B46E2E70122EFE71A9A3AB135211CA8BE
:1046E00001F003FF1A99404601F087FB013C042CBE
:1046F00008D8DFE804F00C03171A0C00DDF870A0EE
:10470000DDF874B02907BFD54BF0004BBCE71D9B0B
:104710001B9A23F4801302F23342DDF870A043EABF
:10472000025BEFE7DFF8F8B1ECE76FF0004B4FF01A
:10473000FF3AE7E7199B5A1C19925B78302BF9D0A6
:10474000002BA1D001230893199B0A220A9300236E
:1047500005930693049319980678A6F13003D9B20D
:10476000092979D92A46396801F0FAFE002800F0B3
:1047700085800020334602460146049D652B02D009
:10478000452B40F0EF8025B910B9089B002B99D03C
:104790000025199C631C199363782B2B00F0CF80A4
:1047A0002D2B00F0D28000260796A3F13006092EAB
:1047B00000F2D780302B00F0CA80A3F13106082E1A
:1047C00000F2D080A3F1300E199B4FF00A0C1F4667
:1047D000199B5E1C19965B78A3F13009B9F1090F9A
:1047E00040F2BA80F61B082E44F61F6902DCF14540
:1047F000A8BFF146079E0EB1C9F10009002D40F097
:10480000D78000287FF440AF089A002A7FF43CAF9D
:1048100000297FF457AF4E2B00F0AD8000F3A58048
:10482000492B7FF44FAF3C4919A801F0EAF9002861
:104830003FF448AF199B3949013B19A8199301F07E
:10484000E0F910B9199B01331993DFF8D4B04FF098
:10485000000A19E7002376E7049901300829D5BF3B
:104860000699059902FB013302FB0133D4BF06937D
:104870000593049B1990013304936CE7199B5A1913
:104880001992049A5B5D002A54D11046302B2AD02D
:10489000A3F13102082A00F29D84199A0A92024675
:1048A00000200546303B00F1010111D00A440A26E0
:1048B000294600EB050C61451BD12844082800F16E
:1048C00001052FDC0A21069801FB00330693002125
:1048D000199B581C199008465B78A3F130010929EF
:1048E000E0D901214AE7199B01305A1C19925B78E3
:1048F000CCE7013101F1FF3EBEF1080F03DC069F5A
:1049000077430697D7E71029DEBF059F77430597C2
:10491000D1E700BF386C00082C6C00082F6C000831
:104920000000F07F102DDFBF0A21059801FB003346
:104930000593CCE70246049DCFE7012124E700233D
:104940000793A31C1993A3782FE70123F8E7199B7A
:104950005E1C19965B782DE70CFB0E3EAEF1300E17
:1049600036E719944FF0000948E7692B3FF45BAF35
:104970006E2B7FF4A7AE8C4919A801F042F90028EC
:104980003FF4A0AE199B1B78282B0ED11CAA874997
:1049900019A801F049F9052807D11D9BDDF870A081
:1049A00043F0FF4B4BF4E00B6EE6DFF810B24EE73E
:1049B000049B2C46002B08BF2B46102DA8BF1024AB
:1049C0000698A9EB02090493FBF70CFD092C82461B
:1049D0008B4613DD764B03EBC40353E91223FBF73D
:1049E00077FD064605980F46FBF7FCFC02460B4692
:1049F00030463946FBF7BAFB82468B460F2D36DC34
:104A0000B9F1000F3FF440AE24DDB9F1160F0BDC15
:104A100052465B46664D05EBC909D9E90001FBF733
:104A200057FD82468B462FE6C5F1250399451EDCCE
:104A30005F4CC5F10F0504EBC501A9EB0505524616
:104A4000D1E900015B4604EBC504FBF741FDD4E965
:104A50000023E4E719F1160F09DB554D5046A5EB8D
:104A6000C909D9E900235946FBF75CFED9E72C1B9D
:104A70004C44002C73DD14F00F030AD04C4952460D
:104A800001EBC301D1E900015B46FBF721FD824642
:104A90008B4634F00F0454D0B4F59A7F27DD4FF0E5
:104AA0000009CDF81090CDF81C90CDF81890222375
:104AB0004FF0000ADFF808B1C8F80030079B002B60
:104AC0003FF4E2AD1A99404601F097F90699404645
:104AD00001F093F90499404601F08FF90799404697
:104AE00001F08BF94946404601F087F9CCE50023F7
:104AF000504659461F462F4E2411012C24DC0BB181
:104B000082468B462B4BABF1547B03EBC7075246D7
:104B1000D7E900015B46FBF7DBFC21F000438B4645
:104B20000A461B0D24491B058B428246B7D8A1F5C6
:104B300080118B4286BF4FF0FF3ADFF888B002F158
:104B4000547B0023059370E0E20704D5D6E90023E7
:104B5000FBF7BEFC0123013764100836CDE7F0D027
:104B6000644214F00F020AD0114B504603EBC2030B
:104B70005946D3E90023FBF7D5FD82468B46241125
:104B8000DFD01F2C20DD4FF00009CDF81090CDF8BC
:104B90001C90CDF8189022234FF0000A4FF0000B24
:104BA000C8F800308AE700BF356C00084C6C00087C
:104BB000C06C0008986C00080000A07C0000F8FFA2
:104BC0000000F07FFFFFEF7F14F0100318BF6A238F
:104BD00050460593594600239F4E002C00F309814F
:104BE0000BB182468B46059BBBB1CBF30A53C3F195
:104BF0006B03002B594610DD1F2B40F30481342B2F
:104C0000D8BF4FF0FF324FF0000ACFBF4FF05C7BB0
:104C1000203B02FA03F303EA010B00220023504673
:104C20005946FBF7BDFE0028ADD1069B049A0093C0
:104C30000A992B46404601F032F9079000283FF4CC
:104C40002EAFB9F1000FC9F10003A8BF00230E93E6
:104C500029EAE9734FF000090F93CDF81090079BF4
:104C60004046596801F095F8069000283FF41FAFC0
:104C7000079B0C301A6903F10C010232920001F01B
:104C80007DF81CAB01931BAB009352465B4640463C
:104C9000CDE90AAB01F0B2FB1A9000283FF407AF50
:104CA0000121404601F087F90490034600283FF4B3
:104CB000FEAE1B9D1C9A002DABBF0E9B0F9B5E1979
:104CC0005C1B059BA8BF0F9CA5EB03051544634B1C
:104CD00005F1FF35B8BF0E9E9D42C2F1360280F24B
:104CE000A4805B1B1F2BA2EB03024FF0010700F314
:104CF0009180002507FA03F31493B718059BBE4271
:104D000014441C443346A8BF3B46A342A8BF2346D5
:104D1000002BC2BFFF1AE41AF61A0E9BBBB11A464B
:104D20000499404601F0DCF9049000283FF4BFAE3E
:104D300001461A9A404601F047F9089000283FF4CE
:104D4000B6AE1A99404601F058F8089B1A93002F06
:104D50006FDC0F9B002B75D1002C08DD22460699D5
:104D6000404601F00BFA069000283FF4A0AE002E5A
:104D700008DD32460499404601F000FA049000280C
:104D80003FF495AE069A1A99404601F062FA8146C0
:104D900000283FF48CAE0024C3680499C4600893D3
:104DA00001F03DFAA0425BDA089BF3B9BAF1000FBB
:104DB0001BD1CBF31303C3B92BF000431B0D1B0511
:104DC000B3F1D66F11D9D9F814301BB9D9F8103016
:104DD000012B0ADD49460122404601F0CFF9049932
:104DE000814601F01CFA00286BDC059B002B75D175
:104DF00068E6E20704D5D6E90023FBF769FB012347
:104E000064100836E9E64FF0FF3202FA03F303EAD2
:104E10000A0A02E7C5F17F4505F57F0505F57B45E3
:104E2000E23507FA05F5149767E701230025149387
:104E300063E73A461A99404601F0A0F91A90002813
:104E400087D134E60F9A0699404601F049F9069059
:104E5000002881D12BE600BF606C000802FCFFFF38
:104E600040F08680089ACBF3130332B3AC4A59461C
:104E7000934252D1059B5046D3B1AA4A4FF0FF341A
:104E80000A40B2F1D46F16D8120DC2F16B0304FAC6
:104E900003F3834241D1A44A914202D101333FF44A
:104EA00006AEA04B4FF0000A0B4003F5801B9CE7B9
:104EB0004FF0FF33EDE72346EBE773BBBAF1000F8A
:104EC0002BD12BF00043059A1B0D1B05E2B1B3F16A
:104ED000D66F19DCB3F15C7F7FF75DAE934B504624
:104EE0000D9300230C935946DDE90C23FBF7F0FAF0
:104EF00082468B4600297FF4E5AD00287FF4E2ADC1
:104F00002223C8F80030DDE5A3F580136FEA135BB8
:104F10004FF0FF3A6FEA0B5B67E79DB115EA0B0FA5
:104F20003FF463AF089B059A5046594673B1FFF7AB
:104F300049FB02460B46DDE90A01FBF717F98246F9
:104F40008B4652E7149B13EA0A0FE9E7FFF73AFB97
:104F500002460B46DDE90A01FBF706F900220023B1
:104F600082468B46FBF71CFD00287FF414AE3CE71D
:104F70000499484601F091FA00224FF0804306461A
:104F80000F46FBF721FD002870D0089B002B43D073
:104F90000026674F664D634B0BEA03031493149A84
:104FA000644B9A4240F0CE80DDE90A23ABF1547B9A
:104FB00050465946CDE90C2301F0AAF902460B46AA
:104FC00030463946FBF784FA52465B46FBF7CEF88B
:104FD000544A594B0A409A4282465DD90D9A03F1D0
:104FE00054739A4203D10C9B01333FF460AD4FF0F0
:104FF000FF3ADFF834B11A99404600F0FEFE0699F8
:10500000404600F0FAFE0499404600F0F6FE49469C
:10501000404600F0F2FE22E6BAF1000F18D1CBF3C1
:105020001303E3B90022424B30463946FBF7C2FC7A
:10503000C8B90022414B30463946FBF749FA0446CD
:105040000D4605F1004316941793DDE91667A2E7B4
:10505000BAF1010F03D1BBF1000F3FF49CAD002664
:10506000374F002496E7089C344DEAE7334B002283
:1050700030463946FBF72CFA089B04460D4633B9F7
:1050800001F1004310901193DDE9106783E70246B8
:105090000B46CDE91023F7E701F1547B059B002B6C
:1050A000A9D12BF000431B0D149A1B059A425E46B2
:1050B000A1D129462046FBF7A5FCFBF7A3F90B4637
:1050C000024629462046FBF74FF8089B04460D464A
:1050D00033B9BAF1000F03D1CBF31306002E6CD015
:1050E0000BA3D3E9002320462946FBF763FC0028E5
:1050F0007FF4E8AC08A3D3E9002320462946FBF758
:1051000077FC00283FF477AFDCE400BFAFF300800A
:105110009535A094FFFFDF3F35E5AF350000E03F58
:10512000FFFF0F000000F07FFFFFEF7F000050390E
:105130000000F03F0000E07FFFFF9F7C0000E03FA9
:105140000000F0BF059B13B3149BB3F1D46F1ED8BE
:1051500025A3D3E9002320462946FBF735FC90B16F
:1051600029462046FBF776FC002808BF0120FBF704
:1051700039F9089B04460D46D3B901F1004312905A
:105180001393DDE91267149A07F1D6639F1ADDE9DC
:105190000A0101F0BDF802460B4630463946FBF7DE
:1051A00097F9DDE90A23FAF7E1FF82468B4675E7B6
:1051B00002460B46CDE91223E3E70DA3D3E9002312
:1051C000FBF7F8FB9DE700230993199B159A1360E1
:1051D000FFF75EBA652B4FF000023FF4AEAB154609
:1051E0000121FFF7CDBA00BF0000C0FFFFFFDF4184
:1051F0009535A094FFFFCF3F064B10B41C68064ABC
:10520000236A002B08BF13460A460146204610BCFD
:10521000FFF7FAB92C04002020050020144B2DE9DB
:10522000F0411D680646D5F8E8400F46BCB950204D
:10523000FEF780FFC5F8E800046044608460C46045
:105240000461446184618462C4620463446384636E
:10525000C463046444648464C46404774462D5F819
:10526000E82039463046BDE8F041012300F002B89D
:105270002C040020F0B518B9106808B9F0BD20461C
:1052800004460F4614F8015B17F8016B1EB965B9A7
:1052900015602846F0BDB542F6D1002BEFD1146061
:1052A0000370F0BD1C460CE015B90E4614F8013B26
:1052B00016F8015BAB42F7D1002BF3D0002304F8C2
:1052C000013C1460F0BD2DE9F84F804689469246B6
:1052D0001F468B465D460A9815F8014B00F034FDD9
:1052E0002044467816F008060BD12D2C0BD1012650
:1052F0002C780BF1020567B1102F14D1302C0AD095
:1053000011E0AB46E6E72B2C04BF2C780BF102052D
:10531000F1E7302C27D12B7803F0DF03582B4BD14A
:1053200010276C780235002E0CBF6FF000414FF053
:1053300000410022B1FBF7FE104607FB1E1CA4F142
:105340003003092B11D81C46A7421DDD531C07D082
:10535000864516D301D1A44513DB012200FB07408B
:1053600015F8014BEBE70A27DDE7A4F14103192B00
:1053700001D8373CE8E7A4F16103192B04D8573C66
:10538000E2E74FF0FF32EBE7531C08D12223084637
:10539000C8F80030BAF1000F07D1BDE8F88F06B1A8
:1053A0004042BAF1000F0CD022B1013DCAF80050C2
:1053B000BDE8F88F4D46F9E73024002FB3D1082718
:1053C000B1E7BDE8F88F0000084B37B51C68084D01
:1053D000236A002B08BF2B46009313460A4601465A
:1053E0002046FFF770FF03B030BD00BF2C04002043
:1053F000200500202DE9F047374D80462868994662
:105400000F46924600F0A5FC344B1E68B46C3CB9C4
:10541000334B06F14C04B46413B11B68C6F8D430A6
:1054200063681F2B49DD2F4B33B9286800F093FCCC
:105430004FF0FF30BDE8F0878C20FEF77BFE04467E
:105440000028F2D00022B36C42600360B064C0F860
:105450008820B8F1000F24D04FF48470FEF76AFE64
:10546000002834D00023C0F80031C0F80431C4F85B
:10547000880001236268B8F1020F40F822A003FA05
:1054800002F300EB8201D0F8002142EA0302C0F8E7
:105490000021C1F8809002BFD0F804211343C0F866
:1054A0000431636828685A1C0233626044F8237030
:1054B00000F051FC0020BDE8F087B8F1000FF0D0FB
:1054C000D4F888000028D4D1064B002BC4D128681A
:1054D00000F040FCACE700BF28040020886C000806
:1054E000286C0008354100082DE9F8438946254F0E
:1054F0000646FFF743F8BB68DFF894805D68A8F1C3
:10550000110425F00305A4EB09042C44B4FBF8F4C2
:10551000013C08FB04F4444505DA3046FFF734F853
:105520000020BDE8F88300213046FFF733F8BB6860
:105530002B449842F1D161423046FFF72BF80130FD
:1055400010D100213046FFF725F8BA68831A0F2BD7
:10555000E3DD0D4943F0010309685360401A0B492C
:105560000860DAE7BB68094A2D1B45F001055D605C
:10557000136830461C1B1460FFF706F80120BDE8D5
:10558000F88300BF18000020200400201809002024
:10559000800000002DE9F04104468846002900F013
:1055A000AB80FEF7EBFF58F8042C544D22F00100BD
:1055B000A8F108031F18A9687E688F4226F0030629
:1055C00002F001021BD130443AB958F8082C9B1A5A
:1055D00099681044DA68CA60916040F001025A602C
:1055E000AB60474B1B68984204D3464B2046196872
:1055F000FFF77AFF2046BDE8F041FEF7C5BF7E60A9
:10560000002A39D158F8081C05F1080E5B1A084425
:105610009968714532D0D3F80CE0C1F80CE0CEF8AF
:105620000810B9194968C9070AD43044B9683ABBA7
:10563000354EB14224D101226B612B61D960996052
:1056400040F0010159601850002AD3D1B0F5007F15
:105650001AD20122C00881108A40696801300A43C9
:105660006A6055F8301005EBC002083ADA609960BC
:1056700045F83030CB60BDE70022D2E70122D0E709
:10568000FE68CE60B160DBE7420A042A13D88209C3
:105690003832511C55F8311005EBC2068E4224D128
:1056A0000120921000FA02F2686802436A60DE602C
:1056B0009960B360DEE7142A01D85B32E9E7542A27
:1056C00002D8020B6E32E4E7B2F5AA7F02D8C20B11
:1056D0007732DEE740F254518A429ABF820C7C3224
:1056E0007E22D6E789688E4204D04A6822F00302FF
:1056F0009042F7D3CE68DAE7BDE8F08118000020C9
:10570000240400204809002020000020F0B506698C
:105710004B11B34200F114052BDA11F01F0105EB18
:10572000860605EB830208D12946B2420B4610D209
:1057300052F8043B41F8043BF7E755F823402B4669
:10574000C1F1200E0432CC40B24208D31C6004B137
:1057500004335B1B9B10036103B94361F0BD176801
:1057600007FA0EF73C4343F8044B52F8044BCC4085
:10577000EAE72B46EDE7A0F13003092B02D82038E9
:10578000C0B27047A0F16103052B01D84738F7E795
:10579000A0F14103052B01D82738F1E7002070471D
:1057A0002DE9F04F8BB0029016988A4690460693EA
:1057B00000F0CDFA03684FF0000B18460393FAF798
:1057C000C7FC039B0190034413F8013C0793DAF8EC
:1057D000003002331F4613F8010B30286CD0FFF75E
:1057E000CAFF044600286AD1019A0399384600F09E
:1057F000B7FE002866D1019BF85CFE18FFF7BBFFDF
:10580000002862D0334618781F46302803F1010380
:10581000F9D0FFF7B0FFB0FA80F534464FF0010B36
:105820006D093A46164630780132FFF7A4FF00288A
:10583000F8D1019A0399304600F092FE50B954B95C
:10584000019BF4182246164630780132FFF793FF89
:105850000028F8D10CB1A41BA4003378502B01D040
:10586000702B40D173782B2B35D02D2B2FD04FF0B0
:105870000009711C0878FFF77EFF431EDBB2182B6E
:1058800031D8A0F1100211F8010FFFF774FF431E89
:10589000DBB2182B22D9B9F1000F00D052421444C8
:1058A000CAF800100DB3BBF1000F14BF0027062784
:1058B00038460BB0BDE8F08F0BF1010B8AE70025ED
:1058C0002C46AEE73E460125C7E70446FBE74FF00E
:1058D0000109B11CCEE74FF00009FAE70A2303FBE8
:1058E0000202103ACFE73146DAE72946F31B013BC3
:1058F000072B49DC029800F04CFA4FF0000B0546EC
:10590000DA46019B00F11409C3F10103CDF81090B0
:105910000893B7423BD3049840F804ABA0EB0900CE
:10592000801028614701504600F0F7FAD8F800606F
:105930003F1AB74264DDBF1B3946284600F0EFFD31
:10594000824678B14FF0010A7B1E591103F01F0205
:1059500059F821100AFA02F20A4203D0534546DCF4
:105960004FF0020A39462846FFF7D0FE3C44D8F8EB
:1059700008309C4252DD2946029800F03EFA00238E
:10598000149AA327136093E701315B10B0E7731EED
:105990000593079A16F8013C934218D0BBF1200FEB
:1059A00007D1049BC3F800A04FF0000AD34604338C
:1059B000049316F8010CFFF7DEFE00F00F0000FA6A
:1059C0000BF04AEA000A0BF1040B059B0DE0059B66
:1059D000089A13449F42E1D81846019A0399099303
:1059E00000F0BEFD099B0028D8D11E4691E7B91EE4
:1059F000284600F094FD0028B2D04FF0030AB1E72A
:105A000009DAF71B29463A46029800F0B7FB05462B
:105A1000E41B00F114094FF0000AA8E7D8F80400CD
:105A200084426BDA041BA6422EDCD8F80C30022B21
:105A300022D0032B24D0012B15D1A64213D1012E45
:105A40000BDCD8F80430069A6227136001232B611F
:105A5000C9F80030149B1D602AE7711E284600F02B
:105A60005EFD0028EDD12946029800F0C6F900231A
:105A7000149A502713601BE7159B002BE1D0F2E727
:105A8000159B002BDDD1EEE7671EBAF1000F32D176
:105A900027B13946284600F042FD824601237A119B
:105AA00007F01F0703FA07F759F8223021461F4273
:105AB0004FF00207284618BF4AF0020A361BFFF7CC
:105AC00025FED8F80440BAF1000F45D0D8F80C30C4
:105AD000022B15D0032B17D0012B09D11AF0020F7E
